:1000000080550020D53F00007D3E0000D13F00001C
:10001000D13F0000D13F0000D13F0000D13F0000A0
:10002000000000000000000000000000D13F0000C0
:10003000D13F000000000000D13F0000D13F000090
:100040007D1C0000E91B000051340000711D000000
:100050007D1C0000E91B0000291D0000711D00002F
:1000600025150000C1150000291D00001D17000006
:1000700049230000E1220000C12300000124000008
:10008000993C000049240000A5160000C12400008E
:1000900051340000CD2D000049240000852F0000C0
:1000A000912C000000000000C12E000000000000A4
:1000B0000000000000000000000000000000000040
:1000C000FFFFFFFFFFFFFFFFFFFFFFFFFFFFFFFF40
:1000D000FFFFFFFFFFFFFFFFFFFFFFFFFFFFFFFF30
:1000E000FFFFFFFFFFFFFFFFFFFFFFFFFFFFFFFF20
:10040000FFFFFFFFDFCEFFFFFCFF0F00FFFF0F002E
:10041000FCFF0F00FFFF0F00FCFF0F00FFFF0F00AE
:10042000FCFF0F20FFFF0F20FCFF7F40FFFF7F40FE
:10043000FCFF0D40FFFF0D40FFFFFFFFFFFFFFFF31
:10044000FFFFFFFFFFFFFFFFFFFFFFFFFFFFFFFFBC
:10045000FFFFFFFFFFFFFFFFFFFFFFFFFFFFFFFFAC
:10046000FFFFFFFFFFFFFFFFFFFFFFFFFFFFFFFF9C
:10047000FFFFFFFFFFFFFFFFFFFFFFFFFFFFFFFF8C
:10048000FFFFFFFFFFFFFFFFFFFFFFFFFFFFFFFF7C
:10049000FFFFFFFFFFFFFFFFFFFFFFFFFFFFFFFF6C
:1004A000FFFFFFFFFFFFFFFFFFFFFFFFFFFFFFFF5C
:1004B000FFFFFFFFFFFFFFFFFFFFFFFFFFFFFFFF4C
:1004C000FFFFFFFFFFFFFFFFFFFFFFFFFFFFFFFF3C
:1004D000FFFFFFFFFFFFFFFFFFFFFFFFFFFFFFFF2C
:1004E000FFFFFFFFFFFFFFFFFFFFFFFFFFFFFFFF1C
:1004F000FFFFFFFFFFFFFFFFFFFFFFFFFFFFFFFF0C
:1005000010B544F28014C2F20004237863B940F2BB
:100510000003C0F200032BB147F6C810C0F2000080
:1005200000E000BF0123237010BDC04640F200036D
:10053000C0F2000310B54BB144F2841147F6C81065
:10054000C2F20001C0F2000000E000BF10BDC046D2
:10055000F0B5440024181348E400241827009C46F2
:1005600080253C26083728001040431E9841404211
:100570003040C030207028000840431E984140425F
:100580003040C0306346207228001840431E984116
:1005900040423040C030207401346D10A742E2D197
:1005A000F0BDC0460042002010B50023002200210B
:1005B0000020FFF7CDFF0023002200210120FFF7DC
:1005C000C7FF10BD47F2DC5144F6683010B5C0F2E9
:1005D0000001C2F2000001F021FC002300220021F2
:1005E0000020FFF7B5FF0023002200210120FFF7C4
:1005F000AFFF10BD44F23023012244F29C1144F6B7
:10060000683010B5C2F200031A70C2F2000107236D
:10061000C2F20000933201F05DFE10BD44F23023BF
:100620000022C2F200031A707047C04647F29C4392
:1006300047F2B84247F2CC40942110B5C0F2000313
:10064000C0F20002C0F2000003F0E4FBF0B5C646C1
:10065000984644F23423C2F200039C464400241816
:10066000E4006444270080253C2600B508372800B4
:100670001040431E984140423040C0302070280056
:100680000840431E984140423040C03043462072EB
:1006900028001840431E984140423040C03020742A
:1006A00001346D10A742E2D180BCB846F0BDC0460F
:1006B00010B5002420000134002300220021A4B240
:1006C000FFF7C4FF402CF5D110BDC04647F2AC5136
:1006D00044F6383010B5C0F20001C2F2000000F05C
:1006E00051FD002450B920000134002300220021D4
:1006F000A4B2FFF7ABFF402CF5D110BD47F29C43ED
:1007000047F2E84247F2CC402A21C0F20003C0F28F
:100710000002C0F2000003F07DFBC04644F6340343
:10072000012244F2342144F63830C2F2000310B5FD
:10073000C2F200011A70C2F20000072340F2006208
:1007400000F016FD00B910BDFFF770FF44F634034A
:100750000022C2F200031A707047C0460379B3B991
:1007600044F636023C21C2F20002137801335BB238
:1007700093FBF1F00101091A890013705B1A5BB257
:10078000137044F635030122C2F200031A70704759
:1007900044F63603C2F2000318783C2340B290FBC3
:1007A000F3F213019B1A9B00C01AC0B27047C046F7
:1007B00044F63503C2F200031A78D0B20AB100221F
:1007C0001A70704710B544F6FC3447F2E061C2F28B
:1007D0000004C0F20001200002F014FD200002F02D
:1007E0006DFC10BD0FB447F2AC6144F6CC3030B5AF
:1007F00083B006ACC0F20001C2F2000020CC01F0D0
:100800006FF844F6380022002900C2F2000001947B
:1008100006F0B6FA44F63800C2F2000006F092FA8A
:1008200044F69C04020044F6380144F6CC3001231F
:10083000C2F20004C2F20001C2F20000237000F014
:10084000A9FF2378002BFCD103B030BC08BC04B056
:100850001847C0460379022B05D144F69C030022B9
:10086000C2F200031A70704770B500295CD0040A08
:10087000251C052C53D8ECB2AD0702D51D00059BF5
:10088000059565072CD40625254225D1E40755D4C6
:100890001C00059D049B05940495059C95B222704F
:1008A000CC43E4B254430134A4B2260A3419A4B2AE
:1008B000049E240A3470C4B20802002C3AD1010A02
:1008C000411889B2090AC943C9B2694352088A1852
:1008D00092B2120A1A7070BD059D049E0495059689
:1008E000E407DAD5CC43E4B254430134A4B21A701D
:1008F000230AE418A4B2049B240A1C70FF230340BB
:1009000059430B0A5B189BB21B0ADB43DBB2534310
:1009100052089A1892B2059B120A1A70DBE7052555
:10092000ECB2AD07ADD5A9E705990A7004990A7034
:100930001A70D0E76042C0B24843C0E7059C0593F7
:10094000049B0494CEE7C04647F2307144F61C4045
:1009500010B5C0F20001C2F2000002F053FC10BD5D
:1009600070B544F6A815C2F200050C00A84204D0E8
:100970000A000100280006F08DF82878012C0BD918
:10098000012344F6A812C2F200029A181278013329
:1009900050409AB29442F4D8285544F6A81144F62F
:1009A0005C40621CC2F20001C2F2000000F0F2FEE4
:1009B00070BDC04610B544F69D040123C2F2000488
:1009C0002370FFF7CDFF2378002BFCD110BDC0466C
:1009D00047F2D07144F65C4010B5C0F20001C2F29B
:1009E000000000F07DFF47F2807144F63C40C0F209
:1009F0000001C2F2000002F005FC10BD037923BB28
:100A000044F6A512C2F20002137044F6A213C2F219
:100A10000003198844F6A003C2F200031A7888B2D2
:100A200001290BD9012344F6A001C2F20001591893
:100A3000097801334A4099B28842F4D82AB944F679
:100A4000A4130132C2F200031A70704744F6A413D3
:100A5000C2F2000310B51C780200E0B26CB10024B1
:100A60001C7044F6A003C2F20003136044F6A21304
:100A7000C2F200031B88013B0B8010BD70B50379E7
:100A80000400022B1DD0042B1AD144F6A513C2F288
:100A900000031A78D5B2DAB144F6A212C2F200020B
:100AA000118821B140F20011108888422ED944F6F5
:100AB0003C400021C2F200001970118002F0F8FAE7
:100AC00070BD44F69D030022C2F200031A70F7E7DE
:100AD00044F63C400122C2F200001A7002F0EEFA25
:100AE00044F63C40C2F2000002F0EEFA44F6A213D3
:100AF000C2F200031D801988A0684A1C92B21A80B5
:100B000044F6A003C2F200035854D9E71188A06844
:100B10004B1C9BB2138044F6A003C2F2000358544E
:100B200044F63C40C2F2000002F0CEFAC8E7C046EC
:100B300044F6AA2244F6D42010B51321C2F20002D2
:100B4000C2F2000002F03AFE10BDC04610B544F6F5
:100B5000D42447F24451C2F200042000C0F2000144
:100B600002F0C2FE47F268512000C0F2000102F01C
:100B700073FF10BD44F6D42010B5C2F2000002F09D
:100B800017FE10BD47F27C5144F6F82070B5C0F254
:100B9000000144F6B025C2F2000002F039F8C2F2BA
:100BA0000005286044F6AC2444F2840144F6F820A1
:100BB00001230222C2F20004C2F20001C2F20000CC
:100BC000237001F0C5FE28602378002BFCD170BD96
:100BD000F0B5CE46474644F6AC2544F2800144F6D3
:100BE000F820012380B5022283B0C2F20005C2F2D0
:100BF0000001C2F200002B7001F0AAFE44F6B023FF
:100C0000C2F2000318602B78DAB2002BFBD101335B
:100C100044F6F8202B706B4600929A8069460023B8
:100C20000622C2F2000001F079FE2B78DCB2002B24
:100C3000FBD16B4618789A78C34308213126DBB282
:100C400003E05B000139DBB241B15DB2002DF8DA9F
:100C50005B0073400139DBB20029F6D169464D785B
:100C6000312708216B4003E05B000139DBB241B161
:100C70005EB2002EF8DA5B007B400139DBB200295E
:100C8000F6D19A422BD16B465A79DB7808219946E6
:100C9000DB433127DBB203E05B000139DBB241B15A
:100CA0005EB2002EF8DA5B007B400139DBB200292E
:100CB000F6D169460979312788464B40082103E07F
:100CC0005B000139DBB241B15EB2002EF8DA5B00A5
:100CD0007B400139DBB20029F6D19A420BD047F2B2
:100CE000FC40C0F20000FFF77DFD200003B0C0BC57
:100CF000B946B046F0BD04F021FF00230022C4F243
:100D0000700304F0D1F8060028000F0004F016FF6D
:100D100002000B003000390003F050FA4EF20003DD
:100D20000022C4F2650304F0BFF84FF6E07300221E
:100D3000C4F2EF0303F09CFD48F200030022C4F26A
:100D4000460304F037FB48F600030022C4F2C30355
:100D500004F0AAF844F6B82404F0BEFEC2F200047F
:100D60002060484604F0EAFE00230022C4F270032B
:100D700004F09AF8040040460D0004F0DFFE020083
:100D80000B002000290003F019FA00230022C4F20E
:100D9000590304F089F84FF6E0730022C4F2EF0320
:100DA00003F066FD48F600030022C4F2C30304F01A
:100DB0007BF844F6B42604F08FFEC2F2000601244C
:100DC000306092E744F6AC230022C2F200031A70AE
:100DD0007047C04610B500F01FF800F049F8FCE776
:100DE00000B583B040B94CF2000390220121C4F257
:100DF0007E03995403B000BD0228FBD147F238535B
:100E000044F6CC20C0F200035B68C2F20000190077
:100E1000019301F09DFCEDE747F20C5000B5C0F2E4
:100E2000000083B0FFF7DEFC47F21C50C0F2000068
:100E3000FFF7D8FCFFF7CCFD47F22C536946C0F210
:100E400000031A8801A88A809B788B710321FFF721
:100E5000B1FDFFF73BFCFFF7B5FBFFF7B3FCFFF776
:100E600091FEFFF771FDFFF771FE03B000BDC046B4
:100E7000F0B5CE46474680B583B0FFF799FC20B960
:100E800003B0C0BCB946B046F0BD44F6C02744F636
:100E9000BE2644F6BF25FFF70BFC002440F23C09B8
:100EA00040F20A08C2F20007C2F20006C2F20005D0
:100EB000FFF76EFC001990FBF9F213019B1A9B00DF
:100EC000C01A000290FBF8F044F6C0231F22FF2155
:100ED000C2F2000380B201960095FFF7C5FCFFF750
:100EE00057FC013433782A78397880B2FFF7AEFBAB
:100EF0003C2CDDD144F6C824FFF710FC40F2FF5231
:100F0000C2F20004238801339BB293FBF2F14A0042
:100F100052185202521A9B1A2380FFF745FB44F6DF
:100F2000C02320881F22FF210095C2F200030196F2
:100F3000FFF79AFC2A78002033783978FFF708FB0E
:100F400001202A783978337844F6BC25FFF700FB76
:100F5000FFF750FB44F6C420C2F200052900C2F29C
:100F60000000FFF773FDC0B12B8883B144F6C4269F
:100F70000024C2F2000647F230503368C0F200008D
:100F8000195DFFF72FFC2B880134A342F3DC47F2F5
:100F90003450C0F20000FFF725FCFFF7F9FB68B9F9
:100FA000FFF716FEFFF7F4FB052804D0FFF7F0FB70
:100FB000232800D064E7FFF7DDFD61E7FFF7E8FBDA
:100FC0001E28EFD1ECE7C04610B5FFF703FF002065
:100FD00010BDC046F0B50400806A85B08C4601ADF6
:100FE00090B12B000200C2CAC2C363681B780360C1
:100FF00063460371E36A8360636A9847A36A0BB12F
:1010000007CD07C305B0F0BD2800EEE7F0B50E0030
:101010004021C64604000F0000B51D0006AB18783D
:10102000A3681B781F40194200D073E0202367613A
:10103000A761E6602261E561E05463685F690FB310
:101040007B68A5611968CB780F2857D93020834376
:1010500020200343CB7040F20C0840468B7883433A
:1010600008208446604603438B70ABB2CB818A6014
:10107000002A67D0BB6838685B689847D8BB2022D5
:101080006368A05C1A69E2B1536865611968CB783E
:101090000F2839D93020834320200343CB700C2004
:1010A0000827CB78ADB283433B43CD81CB704E60F4
:1010B000002E51D0936810685B689847D8B92023F8
:1010C000E05CA268D17A148AC9B2A4B20F2823D9ED
:1010D00040230130994383082020053B01432348E6
:1010E000D172044018024021204380B210820020B7
:1010F00013780B43137080BCB846F0BD072811D895
:1011000030208343CB70A6E7072811D830208343D3
:10111000CB70C4E70820EEE707280FD84023194317
:101120000300DCE73020834310200343CB7092E7B9
:101130003020834310200343CB70B0E760239943F2
:101140000300CCE742468B7893438B7044F68C4384
:10115000C2F200038B608DE7DBB28343CB7044F6B1
:101160009043C2F200034B60A4E7C046FFF0FFFFCC
:1011700000B583B0009313000022FFF747FF03B0D0
:1011800000BDC04640F22072F0B545465746DE46E7
:101190004E46C0F240029446E0B50B780F696344B6
:1011A0001B021A1D04000D00904687B0002F00D1CD
:1011B00091E18022796812050B6838681A6042460E
:1011C0009A60BB681B6898470600002800D07AE147
:1011D0006B6973B18020596800030A68106040464B
:1011E000506018689B681B6898470600002800D06C
:1011F0008EE140F22072C0F2400294462B786344A4
:101200001B02AA6965606262EA69A360E262002269
:10121000A2626B7A9C46002B00D06FE1B8200821B7
:101220001026EB7A6F7B2A6A3F035B003B43AF7A61
:1012300015783B430DB1B120084351787027CD019B
:10124000A8434D004901294301430191D078957885
:10125000BB438540029511791F00000131B102396D
:101260004B1E99410F23494299433031537923B1A1
:10127000012B00D151E101231E4393790393137A8B
:101280009B071B0F034360463B43002800D039E116
:10129000507A4EF200070490907A3B430590D07A42
:1012A0008346EFF3108A012080F3108846F6FC7025
:1012B000C4F20400476840F21309B84667683F78F3
:1012C000BC464F4665467F1BB94601274D46AF4099
:1012D000B94647464D46AF43476040688AF3108899
:1012E00040F20008A068F6B2C5784546C5706D4664
:1012F0002D799BB205706D462D7A45708170D2793B
:101300004EF200118272049ACEF200010273059A25
:101310008C4642735A468273C67303822023039A13
:101320006668C2540223F35640F200359A089200D0
:10133000944462465259B079914603221A40D20031
:101340009046FF22414617008F40B846800110406A
:1013500088404F46414644F6DC488F436146C2F21E
:10136000000838434851414646F2000C980044506A
:101370001800C4F2000C6146C03080004158684F2C
:101380003940894661464F4647501F200121184089
:10139000814008004EF20011CEF20001894640F271
:1013A00080175B099B004B44D85118600123F3560A
:1013B0009808800081444946495970798B46032139
:1013C0001940C9008A4680011040574688401100E4
:1013D000B9408A4659465746B94308434946485199
:1013E00041469800445018006146C0308000415882
:1013F0004B4F3940894661464F4647501F200121D7
:101400001840814008004EF20011CEF200018946DA
:1014100040F280175B099B004B44D85118600423AD
:10142000F35698088000814449464959307A8B46E2
:1014300003211940C9008A46800110405746884060
:101440001100B9408A4659465746B94308434946B0
:1014500048514146980044501900C0318800614607
:101460002F4F41583940894661464F4647501F210A
:10147000012719408F404EF20011CEF200018C4638
:1014800040F280105B099B0063441F501F600327DC
:10149000F7570321B80880006044435939409C46FF
:1014A000F379C9009B0113408B408A406146914308
:1014B0000B4343514346BF00FC5045F2490300260D
:1014C000C5F253232360300007B0F0BCBB46B246E0
:1014D000A946A046F0BD4A69002A00D191E68020C5
:1014E000516800030B6818604046586093681068A4
:1014F0001B68984706000028E5D17AE6B020002155
:1015000000268EE6002040F2000B05900490C8E60D
:10151000BB6838681B6A9847D5E703231E43ACE6CF
:10152000FFFFFEFF30B5EFF30383103B5BB21A0001
:1015300046F20001C032C4F20001920050581F4C24
:101540009B002040505044F6DC42C2F200029B58FF
:101550009A69D9698A4219D0186930B320241C5D70
:101560000F2C09D999684C6891000C50D969013247
:101570009A618A420AD030BD072C19D89968097936
:101580008154D96901329A618A42F4D103221F2120
:101590005B689A561140530901228A404EF20011AD
:1015A0009B00CEF200015A50E5E798684068DEE7FC
:1015B0009C68A58854000553D9E7C046FFFFFEFF8D
:1015C000F0B5C64600B5EFF30383103B5BB21A00DB
:1015D00046F20001C0329200C4F200015058304D72
:1015E0009B002840505044F6DC42C2F200029B5857
:1015F0005868026A002A2ED05678DC695A69012E92
:1016000016D094420BD0D96841B32020185C0F2823
:1016100008D9940098686158416001325A6180BCD1
:10162000B846F0BD07281CD8895C98680171F4E7BA
:10163000671EBA421AD001690029E2D00325455736
:101640001F20284086404EF200106909CEF20000AB
:1016500089000E50D5E75A69DC69D2E79868416085
:10166000DBE75000415A98688180D6E7C07840B2E5
:1016700007008046C037BF00785805407D5040467F
:101680001F2101408E404EF20011CEF200018C4627
:1016900040F2801140098000604446500660B0E787
:1016A000FFFFFEFF10B5EFF30383103B5BB21A00A0
:1016B00046F20001C032C4F2000192005058164CAC
:1016C0002040505044F6DC429900C2F20002885893
:1016D0008268D278920704D54268527A012A00D0F3
:1016E00010BD1F215A090B401E39994013004EF2BC
:1016F00000142033CEF200049B001951BFF34F8F2A
:10170000BFF36F8F4021826813788B4313703F398A
:10171000FFF760FCE4E7C046FFFFFEFF70B5EFF3A4
:10172000038444F6DC434021103C64B2C2F200035F
:10173000A200D658B3681A788A4300211A70DA7862
:10174000D970D5B2130710D4EB0714D414232B404F
:10175000142B18D046F20003C034C4F20003A400D6
:10176000E2580B490A40E25070BD30000531FFF7E6
:1017700031FCEB07EAD504213000FFF72BFC1423E2
:101780002B40142BE6D108213000FFF723FCE1E7C2
:10179000FFFFFEFFF8B504007B230D00006AA6786A
:1017A0008178E7690B408370B3079B0F3F69D21ABA
:1017B000E9182261E16007B15AB9802382781A439F
:1017C0007D3B82703340022B19D02B78C3700020F0
:1017D000F8BD013BDA40002093B2BA6820619668F8
:1017E00038680022B0470028F2D18023206AA6780A
:1017F00082781A437D3B82703340022BE5D14FF64D
:1018000000622B881343C3810020E1E7F0B51F2558
:1018100001241540AC404EF20015C6465309203352
:10182000CEF200059B0000B588465C51BFF34F8F98
:10183000BFF36F8F130046F20004C033C4F20004FC
:101840009B001D59114E4EF2001135401D51FF24D1
:101850000325CEF200018C46210040F200371540EE
:10186000ED00A94093089B006344DE5992008E432B
:10187000414689010C40AC403443DC5144F6DC4322
:10188000C2F20003D05080BCB846F0BDFFFFFEFF9F
:10189000F0B5C64600B50500806A84B08C46904617
:1018A0006C46D8B12300060086CE86C336681E601B
:1018B000EB691B7803606346836043460371EB6A00
:1018C000C3606B6A9847AB6A23B107CC07C31A00A1
:1018D0002368136004B080BCB846F0BD2000E7E781
:1018E00043F60002C0F200229446F0B54546DE46BB
:1018F00057464E460B78E0B563445B010362002314
:1019000003704A690D0042628A69C161C2620322A2
:10191000012183628378040093430B4383706B78C7
:1019200083B023B9837893430222134383700B223D
:101930002000AA56A97AFFF769FF05222000AA56BF
:101940002979FFF763FF07222000AA56A979FFF73C
:101950005DFF09222000AA56297AFFF757FFEB689E
:10196000C3B18020596800030A68E6691060206AE4
:10197000471D576076783EB93027D6781030BE4381
:1019800010273E43D670506018689B681B689847C4
:10199000060000BB2B6933B38020596800050A6834
:1019A000E6691060206AC71C976076783EB93027D8
:1019B000D6780E30BE4310273E43D670906018682C
:1019C0009B681B689847060068B1EB681BB11868F4
:1019D0009B681B6A9847300003B0F0BCBB46B24618
:1019E000A946A046F0BDEFF31086012080F31088D1
:1019F000802146F6FC732F780906F940C4F20403EF
:101A00005A688A435A605B6886F310880022236A0A
:101A100029789A701A715A729A72DA725A8340F25D
:101A20000722CA40104201D04022DA7406221A77F7
:101A30006978AA78E878EE692D780DB9684D9D82AD
:101A40001201C0000243032900D1BBE0481E8141BE
:101A50000901E231D2B21A7002229971317BFF255D
:101A600049000A4020215A737278B078D2014001AF
:101A700001402A400A43002130781972811E0190EA
:101A8000012900D8A2E003257168D2B2DA718A7800
:101A900048785A701A782840AA4302431A70CA78C4
:101AA00059359A74D8790A78A8432A400243DA71E2
:101AB0000022E26022616261A261E26946F20001F5
:101AC0009146527940F21F0C52B21000C030C4F25D
:101AD000000180004558434F40F2C00A3D40455048
:101AE0006546B84601271540AF404EF20015CEF2CC
:101AF0000005AB4640F28015520992005A445751F6
:101B000017604A46D27A404652B292445746BF00C6
:101B1000BA467F5807405046475067461740BA4676
:101B20000127504687404EF20010CEF20000834657
:101B3000520992005A44575117604A4640F2C00A6F
:101B4000D27952B2924450468000824640580700F3
:101B5000404607405046475067461740BA4601275F
:101B6000504687404EF20010CEF2000083465209E4
:101B700092005A44575117604A4640F2C009527ABF
:101B8000474652B29144484680008146405807403B
:101B90004846475061460120114088405209920052
:101BA0005A44505110600322019F17406D32174371
:101BB0009F7073890026238144F65513C5F2433381
:101BC000636008E73D310A43B23143E75D700228A4
:101BD00002D0D2B2DA716BE710210A43F9E7C046AE
:101BE00000F8FFFFFFFFFEFF70B5EFF30383103B2C
:101BF0005BB21A0046F20001C0329200C4F200014A
:101C000050581D4C9B002040505044F6DC42C2F21C
:101C100000029858C3691B6913B1036913B170BD01
:101C2000036983B97F23026A91780B4004210B4337
:101C300093700023C360436A002BF0D08022002100
:101C4000FFF726FEEBE703218278114002290AD034
:101C5000C168056A0C78EC709207920F9B1A8A187B
:101C60000361C260DAE74FF60065C1680C882C4357
:101C7000056AEC81F0E7C046FFFFFEFF10B582B0B9
:101C8000EFF30383103B5BB21A0046F20001C0324F
:101C90009200C4F200015058224C9B00204050504A
:101CA00044F6DC42C2F200029C58E369A069DB689A
:101CB0005BB150B10023A3616361636AABB10122E0
:101CC00000212000FFF7E4FD0FE00323A27813407A
:101CD000022B0CD0236A5979C9B2019178B9636A91
:101CE0001BB104222000FFF7D3FD02B010BD40F26B
:101CF000FF11236A1B8A194001910028EFD0920737
:101D0000920F606901A904F0C5FEA37862699B0780
:101D10009B0FD2186261A269D31AA361002BE4D190
:101D2000CBE7C046FFFFFEFF10B5EFF3038444F698
:101D3000DC43103C64B2C2F20003A200D0587B2303
:101D4000026A91780B409370436A1BB10222002112
:101D5000FFF79EFD46F20003C034C4F20003A40066
:101D6000E25802490A40E25010BDC046FFFFFEFFA4
:101D700070B5EFF3038444F6DC43103C64B2C2F266
:101D80000003A200D058032382781340022B20D0F6
:101D9000036A5979C9B238221D792A40ED0602D565
:101DA0001D7FED0712D538261D79B5431D71436A95
:101DB0000BB1FFF76DFD46F20003C034C4F200031F
:101DC000A400E25806490A40E25070BD40252A436B
:101DD000E9E740F2FF11036A1A8A1140DBE7C046C7
:101DE000FFFFFEFFF0B50400406A85B08C4601ADF0
:101DF00090B12B000200C2CAC2C363681B780360A3
:101E000063460371A36A8360236A9847636A0BB1D0
:101E100007CD07C305B0F0BD2800EEE743F600028A
:101E2000F0B54546DE4657464E46C0F2002294467F
:101E30008A69E0B50B780262CA6963448262002253
:101E400042624A695B0105000C0085B08360416015
:101E5000002A00D17CE180265168053308683603EA
:101E60004360936806601B68106898470600002866
:101E700000D065E122697AB1AB68802651680333EE
:101E8000086836058360936806601B681068984789
:101E90000600002800D061E16F688023386A40F2B4
:101EA000040842789207920F1A4301928378994668
:101EB0000223C356002B03DB40F2000840F2FF0967
:101EC0007B7A012B00D158E1002300210393BB7AD8
:101ED000012B00D14AE1FB7A012B00D151E1802393
:101EE00019437B7B5E1EB34107265B42B343EA3353
:101EF000EFF3108A40F2010B8BF3108846F6FC7664
:101F0000C4F2040672683F78029280221206FA40F8
:101F1000029F9743776076688AF31088002740F223
:101F2000840CAE68C9B2B770327962463271964A93
:101F3000B2826A4612793270039AB270B371037832
:101F40004EF2001273704B46B3744346F371402354
:101F5000717337727772B772F7727783F3743E3B9F
:101F600033770123CEF20002944640F20030E3566C
:101F700061799E08B6006644325889019046032272
:101F80001A40D2009446FF226046114067468140C5
:101F90001000B84084464046674644F6DC4CB843DF
:101FA000014340F20030C2F2000C3150604699000B
:101FB0001E000D5046F20001C036C4F20001B6000A
:101FC000705807007148074077501F265F461E4033
:101FD000B7403E004EF20017CEF20007B84640F27E
:101FE00080105B099B0043441E501E600223E35691
:101FF00081309E08B600B0444646FF303658B2469F
:1020000003261E40F600B1464F46A6794846B60163
:102010001640BE4017008740B9465746484687439A
:102020003E4340F2003047463E5067469E00F55121
:102030001E00C036B60077585448074077501F2618
:102040005F461E40B7403E004EF20017CEF200073A
:10205000B84640F280105B099B0043441E501E604E
:102060000323E35681309E08B600B0444646FF3055
:102070003658B24603261E40F600B1464F46E67972
:102080004846B6011640BE4017008740B94657463D
:10209000484687433E4340F2003047463E5067463D
:1020A0009E00F5511E00C036B600775837480740ED
:1020B00077501F265F461E40B7403E004EF2001785
:1020C000CEF20007B84640F280105B099B00434403
:1020D0001E501E600423E35681309E08B60046441D
:1020E000FF3037580320247A1840C000A401144060
:1020F00082408440974340F200323C43B4506646ED
:102100009A0095511A00C032920050581F4C002678
:10211000204050501F2259461A4091400A004EF26A
:102120000011CEF200018C4640F280105B099B004A
:1021300063441A501A6044F65313C5F243332B60BC
:10214000300005B0F0BCBB46B246A946A046F0BD83
:102150000A690F00002A00D08FE69EE66369002B13
:10216000EED018689B681B6A9847E9E7FB7A002B5A
:1021700000D0B6E640331943B3E60133052103939B
:10218000A5E6C0231943ACE600F8FFFFFFFFFEFF02
:10219000F8B5160030220400080011001D00A368E5
:1021A0009B7819401A4232D16268E5611369616116
:1021B000A161E060266193B15A6865611168AAB2B5
:1021C000CA81CA7828B30C27BA4308273A43CA7091
:1021D000486018689B685B689847B8B9626851693D
:1021E00051B14EB18A680868A561ABB2002195680B
:1021F0003200A84750B9626823699BB11369C3B123
:10220000F0210020A26893780B439370F8BD08205A
:10221000FCE70C308243CA7044F69442C2F20002DA
:102220004A60D6E7A021A268002093780B43937000
:10223000ECE75069A5680300591E8B41D901AB78C2
:1022400070310B43DBB2AB7008B10020DEE71F2119
:10225000527852B21140530901228A404EF20011C5
:102260002033CEF200019B005A50BFF34F8FBFF3D3
:102270006F8F6369E269934206D2E16821B3C95C5A
:10228000A068C170013363616368597A01290ED077
:1022900001221F219A5600201140530901228A4031
:1022A0004EF200119B00CEF200015A50AEE7012A17
:1022B000EED961698A42EBD9E26842B1525CA0680A
:1022C000C27001316161E3E7A068C170DAE7A0681C
:1022D000C270F6E710B513000022FFF759FF10BDDA
:1022E00010B5EFF30383103B5BB21A0046F2000116
:1022F000C032C4F2000192005058124C9B002040A2
:10230000505044F6DC42C2F200029B585A69D96927
:102310008A4206D2D86890B1805C9C68E070013235
:102320005A618A4200D010BD1A69002AFBD19A680E
:102330007B2391780B4004210B439370F3E79C6857
:10234000E070ECE7FFFFFEFF10B5EFF30383103BF7
:102350005BB21A0046F20001C032C4F200019200E2
:102360005058164C9B002040505044F6DC42C2F2BC
:1023700000029B585A69D9698A4206D2D868C8B106
:10238000805C9C68E07001325A619A698A4207D287
:10239000511C996199681869497981549A69D96978
:1023A000914206D19A683B2391780B4004210B435C
:1023B000937010BD9C68E070E5E7C046FFFFFEFF2C
:1023C00010B5EFF3038444F6DC43103C64B2A20082
:1023D000C2F20003D05803238268C0349178A4006D
:1023E0000B4093700121FFF7FDFC46F20003C4F29D
:1023F0000003E25801490A40E25010BDFFFFFEFF12
:1024000010B5EFF3038444F6DC43103C64B2A20041
:10241000C2F20003D05803228368C0349978A40024
:102420000A409A701A79842204211A71FFF7DAFCA3
:1024300046F20003C4F20003E25802490A40E250A7
:1024400010BDC046FFFFFEFFF0B5C64600B582B026
:10245000EFF3038444F6DC43103C64B2C2F20003A1
:10246000A200D558E968C1B16B6828695B7BE84672
:102470005BB21B1B5A1E9341DBB29C46D8B142464D
:10248000070048CF48C2634603706B6943608847C2
:102490002B6913B1404606C806C346F20003C03498
:1024A000C4F20003A400E25804490A40E25002B01A
:1024B00080BCB846F0BD4046E5E7C046FFFFFEFFE2
:1024C000EFF3038344F6DC42103B5BB29900C2F2A7
:1024D00000028A580121117246F20002C033C4F290
:1024E00000029B0099580248014099507047C0462D
:1024F000FFFFFEFF0023036000207047FF2010B5A0
:1025000040F600040B0A084019010918C4F204043B
:1025100089000B5900209B07DB0F137010BDC046CC
:102520000023C4F204039C46090A490161444B6834
:10253000002013807047C0460020C4F20400844687
:102540001800090A90430004134049010343614401
:1025500000208B607047C046FF2001230840834065
:1025600052B91B040022C4F204029446090A49012C
:10257000614400208B6070474FF6FF721340F1E713
:102580000020C4F2040084461800090A490110B56D
:1025900061440C6810402043934398430860002036
:1025A00010BDC0460023C4F204039C46090A490139
:1025B00061444B6800201B0C138070470020C4F25C
:1025C000040084460B0A5B0163445868FF231940EA
:1025D000FE3B8B40000C99B203405B1A59424B41C1
:1025E000002013707047C0460020C4F204008446E7
:1025F0001800090A90430004134049010343614451
:102600000020CB607047C046062070470B0A10B50B
:102610005B01012A10D00022C4F204029446FF207C
:102620008022014052028A406344DC682243120C3B
:1026300012040020DA6010BD0020C4F204008446B9
:10264000FF2001408A4011004FF6FF726344DC68AE
:10265000114021430A40ECE7F0B5DE4657464E46AE
:102660004546E0B583B0EFF31082012383F3108871
:1026700044F6D843C2F2000301931B6833B940F615
:102680000051C4F20401CB704033CB7001990B6848
:1026900001330B6082F3108803889A46BBB3802312
:1026A00040F600055B029946284B002240F2FF08E5
:1026B0009C464168C4F204050AE043461E402301DB
:1026C0009B1901329B0092B25851083192451ED09D
:1026D0004B468E880868340A1842EED043461E40A6
:1026E00023019C19A700644600977F599B19274036
:1026F0003C00009F01327C51674607403C00009F30
:102700009B0092B27C51083158519245E0D1EFF3D1
:102710001082012383F31088019B1B681BB1019970
:102720000B68013B0B60019B1B6833B940F60051FD
:10273000C4F20401CB708033CB7082F3108803B0F5
:10274000F0BCBB46B246A946A046F0BDFFFFFEFF67
:1027500045F2542310B5C5F24F0303600800FFF79C
:102760007BFF002010BDC04610B50800FFF774FFC6
:10277000002010BDF0B5EFF31084012383F310881F
:1027800044F6D843C2F20003186830B940F6005549
:10279000C4F20405E8704030E87018680130186031
:1027A00084F31088D00321D4FF24080A0C400101CF
:1027B00040F600000919C4F2040089000A50EFF342
:1027C0001082012181F31088196811B1196801394B
:1027D00019601B6833B940F60051C4F20401CB7094
:1027E0008033CB7082F310880020F0BDFF2440F6C8
:1027F0000005080A0C4001010819C4F20405800014
:102800004759034E3740164047514651D0E7C0461E
:10281000FFFFFEFFF0B50400806B83B06D4688B10A
:102820002B000200C0CAC0C3E36B01710360636B7D
:102830009847A36B0BB106CD06C32B230022E254AD
:1028400003B0F0BD2800EFE74EF2000340F600723F
:1028500030B52C25C4F201031B6AC0F6007283B0A8
:10286000134001690193019A019C0B7C455DDBB229
:102870008DB91205120F240E121B93409B0823B929
:10288000082044E0013B002BFAD04A78D209002A04
:10289000F8D1B323CB7100232822835482690362C9
:1028A000C2612622845C0132845404328354023291
:1028B00083540132835404680132835401328354B7
:1028C000626A13785278013B5D426B4152000433D7
:1028D00013430122DBB2CB704B7913434B710F23AF
:1028E000E356002B0BDB1F215A094EF200140B405C
:1028F0001E399940CEF20004920011510169BF23A4
:10290000CB71933BC25C22B10022C254002003B0C1
:1029100030BD2A3B00204B70F9E7C04610B52A2491
:102920000355037A41618261012B0AD125220021DE
:1029300081540121426852000A4324214254262234
:10294000835429230122C254FFF77EFF10BDC046E5
:1029500010B52A240355037A41618261012B08D105
:1029600025220021815442682431520042542622FB
:10297000835429230022C254FFF766FF10BDC046CE
:10298000F0B557464E464546DE461F23E0B5026980
:1029900004681370403383B01370656A803313701A
:1029A00000912F79FF3B1F43FFB21774EF780100AE
:1029B0003B43DBB253747023AF784BF6C0503F01FA
:1029C0003B4008273B4393702B78CFF6F070013BD8
:1029D0005F427B4184466D7804336D002B43DBB24C
:1029E000D37063684EF2001063445C426341DB01C4
:1029F000773353710023CEF20000844640F2003555
:102A000003279371B333D371009BFF265B7C40F2A5
:102A1000801B5BB29C08A400644460591F4084463C
:102A2000F80080460098477BB8010700FF20374038
:102A30004646B040814660464E46B043464644F660
:102A4000DC4C0197B740C2F2000C40F2C008664669
:102A50003843605198449C00A151464646F2000418
:102A6000B600B046C4F200043659684837004646FE
:102A7000074037511F271F40B84601274646B74039
:102A80004EF20016CEF20006B1465E465B099B0090
:102A90004B449F511F60009B0327DB7B5BB29E086A
:102AA000B600B046C844464676591F40B146FE00BF
:102AB000FF27B246B7404E46BE43B1465646019F39
:102AC000B7404E463E43B14646464F4677519E007C
:102AD000B046474640F2C00866469844B95146465B
:102AE000B600B04636590640B14646464F463751C5
:102AF0001F261E40B04601264746BE40B0464EF255
:102B00000016CEF20006B14647465E465B099B00C2
:102B10004B449F511F60009B1B7C5BB29E08B6001C
:102B2000B046C84446467659B14603261E40F600D4
:102B3000B246FF265746BE404F46B743B9465646B3
:102B4000019F8A46B7404E463E43B14646464F46F1
:102B500077519E00B046474640F2C008664698440A
:102B6000B9514646B600B04636590640B1464646CB
:102B70004F4637511F261E40B04601264746BE40ED
:102B8000B0464EF20016CEF20006B14647465E460B
:102B90005B099B004B449F511F60009BFF279B7B61
:102BA00001985BB29908890049444E59B046032602
:102BB0001E40F600B146B7404646BE4337004E467B
:102BC000B0406646074350464F519900885119005E
:102BD000C031890008590D4D1F26284008514EF27A
:102BE00000100121CEF2000084461E40B14058463C
:102BF0005B099B006344195019609F23137003B055
:102C0000F0BCBB46B246A946A046F0BDFFFFFEFFA2
:102C100040F23052C0F240029446F8B500250B78DD
:102C2000016063441B0203618B68040043600B7BFB
:102C30000372CB6943630B6A8563C363EFF3108C44
:102C4000012282F3108809260F7846F6FC73F61BE2
:102C5000B240C4F204035868904358605B688CF338
:102C600010882000FFF78CFE29236561A561E561CE
:102C70002562E5540133E5540133E5540133E5544D
:102C800044F64313C5F249230020E360F8BDC04673
:102C900010B582B0EFF3038346F20002103B5BB243
:102CA000C033C4F200029B00995847480140995034
:102CB000EFF3038344F6DC42103B5BB2C2F2000246
:102CC0009B009B582D229A5CE2B99A69012A24D96B
:102CD00040201A69117901431171D969012907D17D
:102CE00010201179014308201171117901431171EC
:102CF0006946D27CD2B2CA71CA792D220121995477
:102D000002B010BDDA69002AFAD0032A07D0022ADD
:102D100048D0012A1AD0196906E01A69DDE7402077
:102D200019690A7902430A71CA7C186A59690A54F6
:102D30001A6A01321A62DA69013ADA61002ADFD1CD
:102D400040211A6913798B431371D9E72A21595C01
:102D500091B30F241F2019680C57204061091400FB
:102D600084404EF200102031CEF2000089000C5059
:102D7000BFF34F8FBFF36F8F802019694042CC792A
:102D800020431024C8710879204308240871087969
:102D9000A0430871042048704879904348712C2062
:102DA0001A54C1E7102019690A79024308200A71F0
:102DB0000A7902430A71B7E7082019694A7A8243FF
:102DC0004A724870B0E7C046FFFFFEFF30B5EFF330
:102DD000038346F20002103B5BB2C033C4F2000230
:102DE0009B009958354801409950EFF3038344F60E
:102DF000DC42103B5BB29B00C2F2000299582723D1
:102E0000CB5C002B33D12923CB5C7BBBCB69002B64
:102E10003ED108697F23C2791340C371C02201E00B
:102E2000013A1AB1C379DB09002BF9D110220B68E2
:102E300046F200019A56C4F200011300C0339B0011
:102E40005C581E4D2C405C50002A0BDB1F2153099F
:102E5000114001228A404EF200116033CEF200018F
:102E60009B005A504022C3791343C37130BD2622C0
:102E70008A5C032A18D028228A5C24200C69085C0A
:102E80000132A07428200A542722013B8B54EDE71D
:102E90000A6A4C690869A45C013B013284740A62C5
:102EA000CB61002BE2D1B5E728228A5C022AE4D16B
:102EB0003020085C0028D9D0DFE7C046FFFFFEFFC6
:102EC00010B5EFF3038344F6DC42103B5BB2C2F271
:102ED00000029B009B5829229A5C1AB127229A5C17
:102EE000012A48D0DA69D2B119694022CB799343DB
:102EF000CB71C02301E0013B13B1CA795206FAD469
:102F0000EFF3038346F20002103B5BB2C033C4F21E
:102F100000029B0099581A480140995010BD2A227E
:102F20009A5C0AB30F201F211A681056014042090B
:102F3000012004008C404EF200112032CEF200013C
:102F400092005450BFF34F8FBFF36F8F80221969E7
:102F50005242CC792243CA7104224A704A79824390
:102F60004A712C229854C0E7082219694B7A93437E
:102F70004B724A70B9E72F329A5C002AB2D1B3E79C
:102F8000FFFFFEFF70B5EFF3038344F6DC42E02160
:102F9000103B5BB2C2F200029B009C5823695A7A34
:102FA0005972DD39D0B21140D2062DD55A78520669
:102FB00045D401212B22A154E16900295AD00025D2
:102FC0002000DD712168FFF7DBFC2623E561E25C70
:102FD0000233E254A36923622C23E5542369B3220C
:102FE0000121DA712000FFF715FCEFF3038346F2AD
:102FF0000002103B5BB2C033C4F200029B00995840
:103000002A480140995070BD0029D2D102070AD543
:103010002B22A15CB1BB2922A15C4A425141B322BF
:103020000231DA71DEE72C22A25C002ADDD04207F1
:10303000DBD52B22A25C0121002AD3D1EBE70029AA
:10304000B7D15A785206D10F002ADFDA2B22A154C9
:1030500008215A7A8A435A7222685970526A127841
:10306000013A51424A4101210232DA705A790A4347
:103070005A71BAE72C31615C0029A0D1A25C002A08
:10308000ADD09CE7E16929B92C31615C11B9A25C32
:10309000002AA4D000222621E261605C0231605443
:1030A000A16921622C21625499E7C046FFFFFEFF0F
:1030B0008368C26800209A607047C0468368C2680F
:1030C00000205A607047C0468368C2680020DA60FA
:1030D0007047C046F0B5CE46474680B500283ADB7B
:1030E00040F2FF094EF2001403254E46CEF20004D2
:1030F000A44640F200370540ED00AE4083089B0037
:103100006344DC598901B44326004C460C40AC4072
:103110003443DC5144F6DC438100C2F20003CA5060
:10312000030046F20002C033C4F200029B0099582B
:103130000B4C214099501F220123024093404EF234
:103140000012CEF20002944640F280124009800044
:10315000604483500360C0BCB946B046F0BDC04671
:10316000FFFFFEFFF0B5C64600B50500806984B0DC
:103170008C46904601AC98B12300060086CE86C3EB
:103180006346037143468360EB6903606B6998474C
:10319000AB690BB107CC07C304B080BCB846F0BD27
:1031A0002000EDE770B5554255414C6E013425B90C
:1031B000A24202D2013A1A6070BD049D496BED072C
:1031C0000CD50078C902C90E03280CD901200909C1
:1031D000884382B180B903225A60EDE70078C906BE
:1031E000C90E0328F2D80C2001400439484241415D
:1031F000C8B2002AEED110B902225A60DCE7002CD6
:10320000FAD0E8E7F0B54546DE4657464E4601227D
:10321000E0B50D000B7C11009940040085B0C16041
:103220004560002B00D1C9E0027440F28072C0F208
:1032300040029446002063441B02A3606B696361F3
:10324000AB69A061E361EB699B46EFF3108C01274A
:1032500087F3108846F6FC71C4F20401CB682A7C1F
:10326000984653425A4153014246413B1340CB607A
:10327000CB688CF310884AF20053A1680B60C862D7
:10328000C86388642A7A6B68D205CA6280221206F3
:103290000A614A618A615A46926948628862CA61D3
:1032A0005A46D2695E1E0A625A46D26A8E669046B5
:1032B00001225242944602922A784E660390002AD6
:1032C00000D0A2E0C1465B086344029303304B6523
:1032D0008B654B46002B6AD15B461B78E3B15B469E
:1032E0005B789E01B1461E01B446022A00D1A4E0DB
:1032F0005E1EB3415B429A46032356463340063373
:1033000046461E4333004E4640F20018334366469D
:10331000334346461E43B0465B469B78002B4FD155
:1033200040F2880C002366468B638B515E4640F268
:10333000210C2033F35C66465B0399465B469E5D39
:103340004B467607334346461E43B046AA23DB036B
:103350000B64012A02D10023CB640B65E3682200D1
:10336000CB6043464B63086312200F63697C285689
:10337000FFF7B0FE5A462223D15C0233D05622001A
:10338000FFF7A8FE5A462323D15C0233D056220011
:10339000FFF7A0FE45F254030020C0F2470323606C
:1033A00005B0F0BCBB46B246A946A046F0BD40F20F
:1033B000880C002366468B638B51C7E7037434E7A0
:1033C0005B46DB789C469B01994663464E461B0153
:1033D00033439A46022A32D06646731E9E41764295
:1033E000B44640F2030963464E461E40B44640F2DE
:1033F0000609CC4466465346334346461B043343D2
:10340000802676041E43B0468AE7012A1AD0EA686D
:10341000009002AB6068FFF7C5FE0398A168020444
:103420000006024394465A4666460320D26A029B2F
:10343000914630432A78374349E7092360E740F251
:10344000090CD7E7C1460127032063463FE7C04682
:10345000F8B5EFF30383103B5BB21A0046F20005A8
:10346000C032C4F2000592005159154C9800214019
:10347000515144F6DC41C2F20001405841680978DC
:10348000012915D18668C768B7600027B764F7645B
:1034900037655659344054511F245A0923409940E6
:1034A00013004EF200146033CEF200049B00195159
:1034B00043691BB100220021FFF754FEF8BDC0464E
:1034C000FFFFFEFF70B5042482B001910092045703
:1034D00046F200022500C035C4F20002A900885857
:1034E0001F4E30408850895845F2004048F2000293
:1034F000C905C90D1143C4F20000C2898A42FCD03B
:10350000082244F200010270019AC2F200012AB3BB
:10351000A2008858019C4460009810B18858009C13
:1035200084603F208958CA788243802A14D002B927
:10353000CB8145F200431822C4F200031A7046F210
:1035400000028021C4F20002AD00A85849040143E2
:103550000020A95002B070BD8B81EAE7A200DBE732
:10356000FFFFFFFE0620704706207047042346F247
:1035700000028021C356C4F20002C0339B00985859
:1035800049040143995000207047C046042346F285
:103590000002C356C4F20002C0339B00995802488F
:1035A0000140995000207047FFFFFFFE042244F2C3
:1035B000000310B58256C2F200039200D2580023D5
:1035C0003F200B604B60D37883434BB1C1308860A0
:1035D000D48901382040C860802B07D0002010BD5E
:1035E00080235B028B60D389CB60F7E780235B028B
:1035F0000B6093894B60F1E7042330B5C35646F264
:1036000000011A00C032C4F2000192005458064D65
:103610009B002C40545044F200020021C2F20002F0
:1036200099500160002030BDFFFFFFFEF8B544F661
:103630009543CE464746C2F200031A7880B58146CC
:103640000F00002A39D07B681B785BB2002B59DB56
:1036500044F200059E00C2F20005AA5908201AB1E2
:10366000C0BCB946B046F8BD4A4613713B683F211D
:103670009C46F730DA781F008A433AB1DA899046DF
:103680004446D2B2044012022243DA81BA7810339F
:103690008A43002AEED145F200430832C4F2000307
:1036A0001A706246AA5118221A7044F200334A4630
:1036B000C4F2544300201360D2E701261E70EFF3DA
:1036C000108186F310884EF20003C4F20103DA6918
:1036D0000D480240DA61DB6981F3108844F200058D
:1036E000C2F2000580220021280003F0EFF945F224
:1036F0000043C4F200035D601E737B681B785BB2FD
:10370000002BA5DA0B20ABE7FFFFBFFFF0B5C646E5
:10371000042300B5C356C022984646F20003424433
:10372000C4F2000394469200D058204C2040D05060
:10373000D25845F2004048F20003D205D20D1A4398
:10374000C4F20000C3899342FCD00B003F24FF2643
:10375000DA781D00A2432AB1DF89F8B202023740AD
:103760003A43DA81AA781033A243002AF0D145F215
:1037700000430832C4F200031A70404644F20002CB
:103780008700C2F20002B95018221A70624646F24F
:10379000000395008022C4F20003E95852040A4352
:1037A0000020EA5080BCB846F0BDC046FFFFFFFED7
:1037B0000368828A00201A807047C046036810316F
:1037C0004900CB5A002013807047C04670B5C569C8
:1037D00004000E0088B0A5B120222900684603F03D
:1037E00059F920223100280003F054F92800A36978
:1037F0009847E06918B12022694603F04BF908B0F8
:1038000070BD0D00F2E7C04630B5020089B0EFF39D
:10381000038344F6DC41103B5BB2C2F200019B0023
:103820005858EFF3038346F20001103B5BB2C033FC
:103830009B00C4F200015C58094D2C405C506B4663
:103840009A706A4643681B88138000231372036AC8
:103850000193836913B16946FFF7B8FF09B030BD22
:10386000FFFFFEFFF0B5C64690464EF20012FF2461
:103870000325CEF200029446220040F200370540B4
:10388000ED008901AA400C40AC4083089B006344D2
:10389000DE5900B596433443DC5144F6DC434246DE
:1038A0008100C2F200035A50030046F20002C03306
:1038B000C4F200029B0099580A4C214099501F22E3
:1038C0000123024093404EF20012CEF200029446D1
:1038D00040F280124009800060448350036080BC45
:1038E000B846F0BDFFFFFEFFF0B54E464546DE464A
:1038F00057464CF20002CB68E0B54E6983610B6914
:10390000C4F20502036200239446C3610B88416040
:103910005B02634403608B784A790C005B031102FD
:103920000B433179050083B0890700D57CE0402145
:103930000B43F178002900D16BE040F28020034373
:103940009BB240F2000CAB82022A00D170E0727888
:1039500020795201C003104337780190EFF31089AA
:10396000012282F3108846F6FC72C4F20402D06889
:1039700040F2100A80462088834650465946401A35
:10398000010001208840010040468843D060D26891
:1039900089F3108847F6FF512A680B40138063466D
:1039A00013826B469888D08117733379990747D46F
:1039B0008A21062053542056002803DB2A00217A4E
:1039C000FFF750FF07202056002803DB2A00617A0A
:1039D000FFF748FF06203056002803DB2A00317A23
:1039E000FFF740FF07203056002803DB2A00717ADA
:1039F000FFF738FF00232B6144F243430020C5F258
:103A00004123AB6003B0F0BCBB46B246A946A0461A
:103A1000F0BD002A00D093E748F2000213439BB2A6
:103A200040F2000CAB8292E740F240410B4380E74A
:103A300047F600128900C0F20002525A944686E707
:103A400003210B43873153540120893900F0E8F9F1
:103A50002A683379ACE7C046F0B5454657464E462E
:103A6000DE46E0B505000F686A683800526983B029
:103A700001924A688C689046864BA44618401A40CA
:103A800023402C6886B2A68096B2A6829EB226817A
:103A9000120C1B0C060CE680E282638143463B431A
:103AA0009846C02342469B051A4200D08CE0CB6862
:103AB000002B00D1E0E01A899246160545D540F268
:103AC000900C6646A2535E8940F29C0CB046664656
:103AD0004246A2539A8940F29E0C90466246464660
:103AE000A6521A6840F29408944692B29146424611
:103AF0004E46A65262461201120D904640F29609B9
:103B000046464A46A6526246120F944640F2920832
:103B100066464246A6545A6840F29808944692B2C5
:103B2000914642464E46A65262461201120D9046FA
:103B300040F29A0946464A46A6526246120F9446F9
:103B400040F2930866464246A6545246960525D44E
:103B500090235246E2520A8A103BE252019BDB78E4
:103B600073B11F2326889E43002800D189E000F00E
:103B7000D9FA1F36301A80B22080AB8A1843A88247
:103B800044F243430020C5F24123EB602F6103B0B0
:103B9000F0BCBB46B246A946A046F0BD9A7C40F2B6
:103BA000A60894466646DA7C40F2A80C16434246C4
:103BB000A654DA89904662464646A6521B8A9C461F
:103BC000AA236246E252C3E74EF200030722C4F280
:103BD00001031B6A44F6685B9A461B0E1340994624
:103BE000C2F2000B5B464E461B68B340564632405D
:103BF000D34040F2E832B3FBF2F341F28832534350
:103C000044F24022C0F20F02B3FBF2F20132072A63
:103C100035D380235B05994643464E4633409A464A
:103C200046464B461E420CD040F2DE0A5646D3B200
:103C3000A35566464B4633405E1EB3410133FF3306
:103C40009A4680239B05994643464E4633420CD004
:103C500040F2DF084346D2B2E2546346334212D107
:103C6000534640F2002213439A4653469BB2638266
:103C7000CB68002B00D01EE740F2000A68E707225D
:103C8000C7E7202075E7534640F2022213439A46C5
:103C9000EBE7C046FFFFFFCF10B50020FFF7B4FDF4
:103CA00010BDC0464EF20003262244F26C11C4F24D
:103CB0000103985C1B6A8000C2F2000141585B015D
:103CC0005B0F44F66852D940C2F20002116070479F
:103CD0004EF2000340F2FE324B49C4F2010370B5CC
:103CE00099524CF20002002043F6C871C4F27E02E1
:103CF000505444F26C1446F60042C2F20004C0F282
:103D0000DC22226041F20022C0F27A02626048F2B4
:103D1000000242F20041A26022612622C0F2F401B8
:103D2000E160995C1A6A890061585201520F44F6A9
:103D30006855D14040F21342C2F200052960985400
:103D40000921A222995440F28042995C002953D063
:103D50004EF20003002240F28141C4F201035A54A2
:103D600001395A54A0329A5CCAB136229A5C1AB907
:103D70003C215A5CD207FCD54EF20002A021C4F2CD
:103D80000102535CDB06D80F002BFADB50544EF2D5
:103D90000002A021C4F20102535CDB06FCD44EF207
:103DA000000200213623C4F20102D1543C31535C9D
:103DB000DB07FCD501213123D1544FF6C473C4F283
:103DC0007E03197000202623D0540130FF3010628A
:103DD000D05C136A800020585B015B0FD84040F232
:103DE000FE3328600948D0524CF2000343F6C872F3
:103DF000C4F27E03995470BD013140F2C44099541D
:103E000000F00EF8A4E7C04603A5FFFF00A5FFFFE2
:103E10007047C04600BEFEE701380028FCD170475D
:103E200044F668524CF600234143C2F2000270B5DA
:103E30001468C3F69A330D00B3FBF4F4080040F2A3
:103E4000E8320023002100F08BF931B9B0FBF4F027
:103E5000800808B1FFF7E0FF70BDA000B5FBF0F0EF
:103E600040F2E8320023002100F07AF90029F0D076
:103E700001204042FFF7D0FFEEE7C046F8B546F21A
:103E8000000340F2401244F6984500240127C4F292
:103E900000039E5AC2F20005B6B23300E340E0B21E
:103EA0001F4202D02B6803B1984701340435102C0F
:103EB000F3D146F2000340F23012C4F200039E52E6
:103EC000F8BDC04646F200000023C4F2000047F6E9
:103ED0008402C0F200029A1811781A00C0329200CF
:103EE00001331150202BF2D17047C04670B5EFF36B
:103EF0001081012383F3108844F65C534000C2F222
:103F000000031A5A1AB11A5A013A92B21A521B5A9B
:103F100083B94EF2000240F2FE3547F60C14C4F2AB
:103F20000102565B054BC0F20004205A3343834321
:103F30009BB2535381F3108870BDC04600A5FFFFAC
:103F400070B5EFF31081012383F3108844F65C52BF
:103F50004000C2F20002135A83B94EF2000447F641
:103F60000C1540F2FE36C4F20104C0F20005A35B5A
:103F70002D5A2B434AF200552B43A353135A0133B6
:103F80009BB2135281F3108870BDC04644F6645250
:103F9000C2F200020300106810B558B103210333C8
:103FA0008B4344F68051C318C2F200018B4207D8FC
:103FB000136010BD44F68050C2F200001060EDE7BF
:103FC00002F062FD0C23036001204042F1E7C0468D
:103FD00000BE704710B500F003F8FCF7F5FFFEE7F0
:103FE00040F200034EF6005270B5CEF20002C0F26D
:103FF000000382B093600020FCF7F2FEFFF768FE3A
:104000006B460026DC1D267001202378FFF798FF01
:10401000EFF31081012585F3108846F6FC73C4F296
:1040200004039A683D4802409A609A6881F31088B8
:1040300040F60001C4F204010A68D207D20F2270D0
:104040000A68D207D20F22700A68D207D20F2270F4
:10405000EFF3108185F3108880229868520502439F
:104060009A609B6881F310880120FFF73FFF0120D1
:10407000FCF7B6FE40F60053294AC4F200039E80C6
:104080001A8044F68052C2F200029A6045F28052D1
:10409000C2F20002DA6046F2000240F2201141F260
:1040A0000000C4F20002505244F67C5244F28010E8
:1040B000C2F20002C2F200009D800021121A02F03A
:1040C00005FD44F2800044F26C1247F68C31C2F2D6
:1040D0000000C2F20002121AC0F2000102F0DAFC83
:1040E00044F2641544F26813C2F20005C2F2000300
:1040F0005B1B9E10002B05DD002408CD0134984782
:10410000A642FADCFFF7CEFD0220FCF769FEFFF7BE
:10411000D9FE0020FFF77CFE02B070BDFFFFFFEF6D
:1041200000A5FFFF1C2101231B04984201D3000CB2
:1041300010391B0A984201D3000A08391B0998421A
:1041400001D30009043902A2105C40187047C04630
:104150000403020201010101000000000000000050
:10416000F0B54FF6FF75CE46474699462B001540F1
:104170000E0029000340140C80B50700000C5943C1
:104180004543634360435B190C0CE4188C46A5421D
:1041900003D980235B0298464044230C61461B18D8
:1041A00020044FF6FF740C40494679437243C91806
:1041B00000198918C0BCB946B046F0BDF8B55746DD
:1041C0004E46DE4645461C00E0B517000D000903CB
:1041D000420F490A11436200520DC3002003924668
:1041E000400AE20F7C0F6E0004439346A146760D11
:1041F000ED0FFF00954200D1A0E05046301A8446F2
:10420000002800DC81E05246002A00D1C0E040F2E4
:10421000FF72964200D12CE180222000120410434C
:1042200081466246382A00DD73E11F2A00DDDEE1A7
:10423000604620224C46121A94403800A04664463C
:104240009740E04044467A1E974104434A46604600
:10425000C2402743891ADC1BA3429B415842081ADB
:10426000030200D4DCE04002430A98464346002B98
:1042700000D10FE14046FFF755FF0300083B202225
:1042800021004046D21A9840D1409C400843B34296
:1042900000DA0EE19B1B5A1C1F2A00DDB2E020232E
:1042A000010026009B1A9C409940D640631E9C4109
:1042B0003143D04000260C43630709D00F2323402D
:1042C000042B05D0231DA342A441644200191C0005
:1042D000030200D4A7E040F2FF7101368E4200D104
:1042E000C2E0CB4BE40818404307400223430E4092
:1042F000040B3205ED0722432A4318001100F0BCDD
:10430000BB46B246A946A046F8BD002850D050464C
:10431000801B8446002E00D030E10800184300289E
:1043200000D1C3E16246501E012A00D12CE240F2C6
:10433000FF74A44500D1DCE1844627E15246B21A5D
:104340009446002A00DCB8E05246002A48D040F2E9
:10435000FF72964200D1C2E1802220001204104375
:1043600081466246382A6EDC1F2A00DC6FE148462F
:10437000203AD0406246202A05D064464022121BD3
:104380004C46944027433C00621E944104435EE047
:1043900022003A43002A00D10FE10200013A01282D
:1043A00000D193E140F2FF70844562D0944638E733
:1043B00040F2FE74701C044200D0C8E008001843AC
:1043C000002E00D078E1002800D1D0E148463843E3
:1043D000002800D0E2E1DB084A071343CC082BE0B9
:1043E00022003A43002A00D17EE162466046013A4B
:1043F000012800D1E6E040F2FF70844500D16EE173
:104400009446AEE701001F3BD940202A03D0402349
:104410009A1A90400443631E9C41002000260C43DE
:10442000630700D04AE7B446E40843072343C408BF
:1044300040F2FF72944520D040F2FF76624624039A
:10444000240B164055E74C463C43621E9441E41849
:104450009C429B41584240180302E1D540F2FF7351
:1044600001369E4200D0B8E040F2FF7600240023DF
:104470003FE7DB084A071343CC081A002243002A0F
:1044800000D1EEE1802212031443240340F2FF76B0
:10449000240B2EE72000FFF745FE030018331F2BE7
:1044A00000DCECE60838844020000024B34200DB46
:1044B000F0E6574AF61A1040FEE682B35246921BC7
:1044C0009446002E00D1B1E040F2FF72924500D137
:1044D00017E18022120411436246382A00DD17E1F9
:1044E0001F2A00DD8BE1604620220C00121A66466E
:1044F000180093409440F0405A1E9341F140044309
:104500001C438944E419BC42804140425646484419
:10451000A2E74A463A4317007A1E97419BE640F2CB
:10452000FE70721C104200D0A5E00A001A43002E53
:1045300000D0FFE0002A00D14FE122003A43002AD8
:1045400000D04FE14A07DB081343CC0874E7484624
:10455000DC1B0A1AA34280414042804610004246BA
:10456000801A02008046120200D595E00300234322
:10457000002B00D07AE6002400255DE740F2FF70B2
:10458000824500D1B5E08020000401436046382810
:1045900040DC62461F2800DDBFE020200C00801AAE
:1045A0001D0083408440D540D1404A46581E834177
:1045B0002C43521A914623432FE0DB084A0713434A
:1045C000CC0835E7DC199C429B4149445B42C81842
:1045D0000126030200D423E702260D4A6308104097
:1045E000012214401C43C3071C43400864E64C46A8
:1045F000203AD4406246202A05D060464022121A52
:104600004846904007437A1E9741274323E6C04619
:10461000FFFF7FFF0B43591E8B41FC1AA7428041CD
:104620004B4640425D465646181A19E60A001A43A0
:10463000002A00D1C4E062466046013A012800D158
:10464000ECE040F2FF7084455BD0944644E760465E
:1046500020224C46121A94403800A04664469740E7
:10466000E04044467A1E974104434A466046C240B1
:104670003C438918EBE640F2FF70824200D1F3E63A
:10468000DF199F429B41494458420818C4077F08DC
:1046900016003C434008C3E6FC1AA742BF414B4604
:1046A0007F42591ACB1B98465D46DFE56307FF083A
:1046B0005D463B43E408BBE6002800D085E04B465E
:1046C0003B43B3B9802400252403DBE6DC1B4A46C8
:1046D000A3429B41881A5B420126C01AC0E54A07E3
:1046E000DB081343CC08C8E64A07DB081343CC08B1
:1046F0009EE64B464A46FF085B075D463B43D408AF
:10470000BBE64B464A465B07FF083B43D408B4E68A
:104710000B431C00631E9C41F4E60C002038C4408F
:10472000202A03D04020801A81400B43591E8B4120
:10473000234372E7002AE4D022003A43002ACED075
:104740004A07DB0813438022CC081203144208D026
:104750004946C908114204D14A460C00FB085207D9
:1047600013435A0FDB005207DB08134385E64B4621
:104770003B43002B00D1FEE64B464A46FF085B0751
:104780005D463B43D40857E6FC1AA742BF414B465F
:104790007F42581A5D460126C01B61E54A46DC1B74
:1047A000881AA34292415242801A02023DD5FC1A55
:1047B000A742BF414B467F42581A5D46C01B7BE56E
:1047C0006307FF083B43E40832E648463843DB080A
:1047D00088BB4A071343CC084FE66307FF083B43F7
:1047E000E40829E6DC199C429B4149445B42C81815
:1047F000030200D414E61D4B0126184010E60C00FD
:10480000203AD4406246202A04D040226046121A40
:1048100091400B435A1E93411C4373E6DC19BC4282
:10482000BF4149447F42C819D2E623000343002B0D
:1048300000D1A0E6F4E54807CC0880210903034332
:104840000C4208D04A46D008084204D15D46040014
:10485000FB0851070B435A0FDB00DB0852071343D9
:104860000BE6002340F2FF761C0042E5FFFF7FFFCE
:10487000F0B557464E464546DE46E0B58146050052
:1048800048000C03400D92461F0087B0240BCE0F4A
:10489000002800D17DE140F2FF73984200D19AE1F7
:1048A0006B0FE4001C438023D14A1B04234398462A
:1048B0009446030040F2000940F2000B6344ED000F
:1048C00001937B003C035B0D5046240BFF0F002B34
:1048D00000D13CE140F2FF72934200D190E1420FDF
:1048E000E4001443802212041443C14AC1009446D8
:1048F0000020019A6344D31A019333004A467B4057
:1049000002930F2A28D8BB4B92009A5897460296DA
:104910005B46022B16D0032B00D1B7E2012B00D04F
:10492000F1E0002200240025029B12052243DB0750
:104930001A432800110007B0F0BCBB46B246A94696
:10494000A046F0BD40F2FF7200240025ECE7A0462F
:104950000D0083460297DBE7444500D2E9E100D130
:10496000E4E12F0040460025019B013B01930E0E20
:104970000A024FF6FF71240226433140240CB0FB9B
:10498000F4FC8B4661465B46594363466343C01A59
:104990000304380C1843814208D901235B42634465
:1049A00080199846864200D828E2C446401AB0FBD7
:1049B000F4F95B46494659434B464FF6FF7863434B
:1049C000C01A434600043B401843814206D94B4677
:1049D00080195F1E864200D807E2B9466346411A35
:1049E00018044B4603434FF6FF7C98461F0C130CEC
:1049F0009A466046434618406346134004971F009A
:104A000047430397049F05937B4399465346584376
:104A10005F43039B48441B0C9C466044814503D97B
:104A200080235B029C466744030C994603044FF6BF
:104A3000FF704F449946039B18404844B94202D343
:104A400012D1854210D201235B424344AD189946EE
:104A500095429B415B429C46B44461448E4200D2E5
:104A6000B0E100D1ABE1C846281A8542AD41CF1B69
:104A70006D427F1BBE4200D1E9E1B7FBF4F1230098
:104A80005D464B434D43FF1A3F04030C1F43BD4299
:104A900000D97CE17F1BB7FBF4F56C435B463F1B01
:104AA0004FF6FF746B433F0420409B4638438342DC
:104AB00000D963E15B4609040D43C01A059B2F0C26
:104AC0001C007B434FF6FF719C46534629404C43E4
:104AD000594361448946210C49445F438C4503D9BD
:104AE00080235B029C4667440B0C9C46BC444FF6FB
:104AF000FF7709043C400919604500D20AE100D162
:104B000005E10122154340F2FF3C019A6244002A6C
:104B100000DCB2E06B0700D043E1ED084346DB0167
:104B200007D54346344A40F2004C13409846019A58
:104B3000624440F2FE718A4200DD03E743465907B2
:104B40000D4340F2FF715C02240B0A40ECE6514633
:104B50002143002900D17FE0002C00D100E120009A
:104B6000FFF7E0FA02000B3A1D239B1A52460100A0
:104B7000DA40534608398B408C4019001443019B9E
:104B80009C466044030040F2F33C634400200193E0
:104B9000B3E64B4623439846002B55D0002C00D15A
:104BA000CEE02000FFF7BEFA010002000B391D2302
:104BB0005B1A49461000D940083884400B004D4626
:104BC0002343984685400D4840F20009831A40F27D
:104BD000000B019375E64B46234398465BBB40F2BE
:104BE000FF73002540F2080940F2020B019368E6CA
:104BF00001FCFFFF14790000FFFFFFFE0DFCFFFF2B
:104C00005146214359B902234A461A439146A54ABF
:104C1000019B944663440024022001936DE6032324
:104C20004A461A4391469F4A019B94466344514623
:104C30000320019361E640F2FF73A04640F20C09A5
:104C400040F2030B01933CE60023002540F20409E7
:104C500040F2010B019334E64A4601231A43914680
:104C60000024012049E60023802400250293240328
:104C700040F2FF7258E601256D420120801A382863
:104C800000DD4EE61F2800DCC1E01F2143464942FB
:104C90008A1AD3401A00202806D040F23E4C4346E0
:104CA000019961448B401D43691E8D4129001143C8
:104CB0000722150000240D400A4200D1D9E00F2040
:104CC00000220840042800D1D0E0081D8842894114
:104CD000494252180100130200D4C7E00122002407
:104CE000002521E6802243461203134207D01442D6
:104CF00005D1144324030D00240B0297B8E7802448
:104D0000434624031C432403240B0296B0E70029E6
:104D100000D1F8E630186F1EB04200D28FE0604537
:104D200000D2AAE000D1B8E03D00EAE6A94200D9ED
:104D300017E643466A08DF0758081743ED0716E6EB
:104D40004846FFF7EFF901000200153120321C2917
:104D500000DC2CE74B46083883400025984632E7B4
:104D6000FFF7E0F903001A00153220301C2A00DC9E
:104D7000FAE65446083B00219C4000E780196C1E6F
:104D8000864271D883426FD9023D801992E64B1E4C
:104D9000BF199C46BE4265D8BD4263D90239BF19CE
:104DA00078E60F212940042900D1B6E605214942C1
:104DB000A942894104354942ED088844AEE6AA4239
:104DC00000D950E68F4204D800D04CE6A84200D863
:104DD00049E60223AD185B429C4695429B415B42EB
:104DE000E0449C46B44461443EE6814200D8F4E588
:104DF00002235B4298468019C144EFE5814200D806
:104E0000D3E502235B4298468019C444CEE540F2C4
:104E10001E4C019A2C006244414695409140C4408A
:104E20006A1E9541424621432943C2404B0700D1A7
:104E300051E70F200840042800D046E74BE73D002B
:104E4000604500D05DE6914200D05AE65BE640F254
:104E5000FF3C019A6244002A00DC0CE70121002596
:104E600088445BE6614615E6250023E655075202B5
:104E7000140BC90800220D4356E554009442924198
:104E800052429619023D22008019D9E780244346F8
:104E900024031C432403240BEAE68A42EDD33D009D
:104EA000D1E7C04601F8FFFFF0B5574645464E46EC
:104EB000DE46E0B598464B000D035B0D06009246BA
:104EC00087B02D0BCF0F002B00D17CE140F2FF7299
:104ED000934200D196E1420FED0015438022120467
:104EE0001543DD4A40F20009944640F2000B63444A
:104EF000C4000093434642461E035B00D20F5B0D85
:104F000051469046360B002B00D13BE140F2FF7238
:104F1000934200D182E14A0FF60016438022120428
:104F20001643CD4AC8009446009A634494469C4474
:104F3000634640F2000C0093009A4346013201920E
:104F40004A467B400F2A25D8C44992008A58974682
:104F5000434635000400E3465A46022A15D0032A88
:104F600000D120E2012A00D0E1E000220025002447
:104F700012052A43DB071A432000110007B0F0BCDA
:104F8000BB46B246A946A046F0BD40F2FF720025DE
:104F90000024EDE74FF6FF7C6146270C0C40020C25
:104FA00008402100414389460100794388461100A9
:104FB000794303910291210051438C464946090CE3
:104FC0008A46C444D4440492E04505D98022520262
:104FD00090460399414402916146090C8B46614613
:104FE0004FF6FF7809048C464246494611408946EF
:104FF00062464A440392320C9446424621001640CF
:1050000071436246884631005443794357434246D0
:105010008946120C92464C445444A14203D9802242
:10502000520291464F44220C91463A0041464FF6B7
:10503000FF774A44394005922A0C3D4088462F00AC
:1050400011004743414310008946390C8A46240425
:1050500044449046049AA34450436A434A44524409
:10506000914503D98021490289464844110C89465B
:1050700048444FF6FF7949461204394092462F00C2
:10508000424677438A44564341466246514355431C
:105090003A0C9446AD1965448846AE4203D9802245
:1050A00052029446E0444FF6FF7949462A043940BB
:1050B00094460F00029E05995E44A642A4416744AF
:1050C0008C46644267443A19564494465645924188
:1050D000824652429146E244D14482458041914504
:1050E00092418F42BF41A445A441524240421043E5
:1050F0004A4664427F4227432D0C7F19D50D039AFF
:1051000074021443621E94414A463F184744F60D08
:105110007F02344352023D431443FA0100D423E199
:105120000120620804401443EA0714436D08019902
:1051300040F2FF328C466244002A00DCB4E0610792
:1051400009D00F202040042805D0201DA042A441F2
:1051500064422D190400E90106D5414A0199154020
:105160008C4640F20042624440F2FE718A4200DD09
:105170000BE76907E4080C4340F2FF716D022D0B49
:105180000A40F5E650463043002800D17DE0002E6D
:1051900000D1D9E03000FEF7C5FF020003000B3A52
:1051A0001D201900821A50460839D0408E4006430F
:1051B00050468840009AD31A2A4A94466344009382
:1051C00040F2000CB8E62C000443002C55D0002D12
:1051D00000D1ABE02800FEF7A5FF010002000B396B
:1051E0001D2310005B1A3100340008388540D94077
:1051F00084400D431B4840F20009831A40F2000B23
:10520000009377E604002C4374BB40F2FF73002543
:1052100040F2080940F2020B00936BE6009A5046F8
:1052200094469C4463463043009368B94A4602233F
:105230001A439146002640F2020C7DE65A463B0096
:10524000022A00D08BE6A0E64A4603231A43914681
:10525000504640F2030C6FE601FCFFFF547900005A
:10526000FFFFFFFE0DFCFFFF40F2FF73040040F262
:105270000C0940F2030B00933CE60023002540F2AA
:10528000040940F2010B009334E64A4601231A4315
:105290009146002640F2010C4EE6802500230024B2
:1052A0002D0340F2FF7263E60120801A382800DDEA
:1052B0005BE61F285BDD1F2629007642B21AD1402B
:1052C0000A00202805D040F23E4C019961448D40EF
:1052D0002C43611E8C41072122430C000025144001
:1052E00011425CD00F2100251140042954D0111D1A
:1052F000914292415242AD180A0029024CD5012236
:105300000025002434E680221203154207D01642FD
:1053100005D132431503434604002D0BC1E780221B
:10532000120315432D033B002D0BBAE7FEF7FAFEDF
:1053300001000200153120321C2900DC50E7350045
:1053400008380024854055E75046FEF7EBFE020082
:105350000300153220331C2A00DC21E702005646E8
:10536000083A0020964025E7009A0192DFE640F2D5
:105370001E4C01992A00614426008C408A40C64098
:10538000611E8C4132432243C5405107B5D00F21E5
:1053900011400429ABD1B0E76C076D022D0BD20888
:1053A00014430022E4E58022120315432D032D0B44
:1053B00077E7C046F0B557464E464546DE46E0B56F
:1053C0000D00040011001A002B035B0A400F184364
:1053D0008146E0005400640DA24640F2FF781703B6
:1053E0004C0F6E0083B07F0AC9002743760D0C0076
:1053F000ED0F0190D20FC24500D1B5E040F2010C93
:1054000063465A409346954200D187E05346F31ACB
:105410009C46002B00DCB0E05346002B00D1C5E0D9
:1054200040F2FF739E4200D16FE180231B041F43B3
:105430006346382B00DD8EE11F2B00DD04E262465F
:1054400020233C009B1A0A0099409C404B1E994126
:105450006346A0466446DF404B46E2404446DB1BC1
:10546000994614430C43041BA0429B414A465B42AD
:10547000D31A1A0200D41FE15B025B0A9846434626
:10548000002B00D154E14046FEF74CFE0200083AE2
:10549000202120004346891A9340C840944003438A
:1054A000964200DD53E1921B511C1F2900DDF5E0FF
:1054B000202218002600521A94409040CE40621ECE
:1054C00094413043CB4000260443620709D00F22A9
:1054D0002240042A05D0221DA242A44164421B1985
:1054E00014001A0200D4EAE040F2FF72013696423C
:1054F00000D105E1C74FE4083B4058075B02204359
:105500001F0B164036053E43ED072E43310003B016
:10551000F0BCBB46B246A946A046F0BD5346F31ABE
:105520009C46002B5FDD5346002B00D1A7E046458B
:1055300000D1EAE080231B041F436346382B00DDC3
:10554000CDE01F2B00DCACE13A00203BDA406346A3
:10555000202B05D0644640231B1B3C009C400C4381
:10556000631E9C411443BEE03B000B4383B3934650
:10557000954235D0A84B9C46B4446346002B64D07A
:1055800053469B1B9C46002E00D00CE14C46044326
:10559000002C00D1A9E15C1E012B00D1F3E140F207
:1055A000FF75AB4200D1C2E1A44606E13B000B43CC
:1055B000002B00D1D4E063466246013B012A00D1B2
:1055C000ACE140F2FF72944500D19EE09C462FE78B
:1055D00040F2010C63465A409346954200D015E7CD
:1055E0008D4B9C46B4446346002B00D1BFE053462C
:1055F0009B1B9C46002E00D143E140F2FF72924576
:1056000000D1D5E180224B461204134399466346EC
:10561000382B00DD91E11F2B00DD1BE262462023C9
:105620009B1A4C460200984066469C40431E984197
:105630004B46F240F34014430443FF1864188C4275
:105640009B415B425646DB1952E040F2FE74731CEC
:105650001C4200D0C7E04B460343002E00D04AE175
:10566000002B00D199E13B000B43002B00D0AAE1B5
:105670004B46C0085B0718434B46DB0828E03B005D
:105680000B43002B6CD063466246013B012A00D1DC
:10569000C4E0C44500D190E19C464EE718001F3A93
:1056A000D040202903D04022511A8B401C43631E56
:1056B0009C41002600230443620700D007E7B4465C
:1056C0005A07E0081043DB0840F2FF72944522D0ED
:1056D0001F0340F2FF7663463F0B1E4012E73C007B
:1056E0000C43631E9C41241884429B415B424B4403
:1056F0001A02E1D540F2FF720136964200D099E0DD
:1057000040F2FF7600270020FCE6C0084B465B070E
:1057100018434B46DB0802001A43002A00D1D4E1AB
:1057200080273F031F433F0340F2FF763F0BE9E62C
:105730002000FEF7F7FC020018321F2A00DCA7E663
:105740002300083883400024964200DCABE6B61AFA
:10575000304A1340B9E63C000C43631E9C4182E68C
:105760004B46C0085B0718434B46DB08ACE7731C8D
:105770009A4640F2FE735446234200D0A4E04B46C2
:105780000343002E00D0F1E0002B00D14FE13B009D
:105790000B43002B00D04FE14B46C0085B0718437A
:1057A0004B46DB0894E740F2FF74A24500D1BEE00F
:1057B00080244B462404234399466346382B53DC0C
:1057C0001F2B00DDBEE020256246ED1A4C4603008B
:1057D000AC40D340A8401C43431E98414B46D340A5
:1057E0002043FF1A45E04B46441ADA1BA0429B4176
:1057F0005B429846130042469B1A98461B0200D50E
:1058000082E040462043002800D038E600230025EF
:105810005EE7C046FFFF7FFF01F8FFFF44183B0033
:10582000844280414B4440421B1801261A0200D496
:1058300042E702260121A74A134062080C401443A4
:10584000DA0714435B0840E63A00203BDA4063463F
:10585000202B05D0644640231B1B3C009C400C437E
:10586000631E9C411443FEE54B4603431800431E50
:1058700098410C1AA1429B415B425D465646FB1A79
:10588000F7E54A460243002A00D1AEE05A1E012B3A
:1058900000D1F0E040F2FF74A34200D1F9E0944659
:1058A000B5E6624620233C009B1A9C400A009940C2
:1058B000A04664464B1E99416346E2404446DF40A1
:1058C00014430C43B9440EE740F2FF739A4500D1EC
:1058D00016E7411881429B414F445B42FB18DC07AD
:1058E000490856460C435B08E6E67B07C8081843A0
:1058F0005D46FB08E8E6002B7CD138000843B0B9D0
:10590000802300251B030BE70C1A4B46A14289415B
:10591000FF1A49427B1A98465D46B0E5441A4B4649
:10592000A0428041DB1B404201261B1AA1E57B07F8
:10593000C80818435D46FB08EDE64C460443631E69
:105940009C417BE664464B46203CE3401C0063469A
:10595000202B05D04025ED1A4B46AB400343019365
:10596000019B581E83412343180082E703B33B0089
:105970000B43002B00D091E04B46C0085B07184357
:105980004B46DB08C7E60C1A4B46A1428941FB1A7D
:1059900049425D4601265B1A6BE538000843002842
:1059A00000D133E77B07C80818435D46FB088FE644
:1059B0007807C9080843FB08ADE64A46C308500704
:1059C0001843D308A7E6441A4B46A0429241DB1B7A
:1059D00052429B1A1A0256D50C1A4B46A1428941D3
:1059E000FB1A49425D465B1A6FE57B07C8081843FE
:1059F000FB0869E63B000B43C008002B00D185E69D
:105A00004B465B07802418434B462403DB082342A4
:105A100007D0FE08264204D15D463300C908780746
:105A20000843420FC000C0085207104373E67807CE
:105A3000C9080843FB084BE644183B0084428041F8
:105A40004B4440421B181A0200D435E6214A012675
:105A5000134031E662464E46203AD640202B05D010
:105A60004022D21A4B46934003430193019C631E8C
:105A70009C413443E2E544183B008C4289414B444D
:105A800049425B18D1E620001843002800D1BDE64A
:105A900012E67B07C8081843FB083CE64B46C408DF
:105AA000580704438020DB080003034207D0FE08A8
:105AB000064204D15D463300C9087C070C43600FE1
:105AC000E4004007E408204325E6002040F2FF768A
:105AD000070017E5FFFF7FFF0A0030B540F2FE34F4
:105AE000530009030500090B00205B0DD20FA342F0
:105AF00005DD40F21D40834202DD0E4BD01830BD63
:105B000080204003014340F23340C01A1F2809DDC2
:105B100040F21340C31AD9400B005842002AEED17C
:105B20001800ECE7044CC540A446634499400B00C0
:105B30002B43F2E7FFFFFF7FEDFBFFFF70B5C0B126
:105B4000C317C5185D40C40F2800FEF7EBFA40F2FA
:105B50001E431B1A0A2817DC02002E00153296403D
:105B60000B22101AC54040F2FF712D032D0B0B4084
:105B700003E000240023002500261B052B43E40737
:105B800023433000190070BD0B38854040F2FF718F
:105B90002D0300262D0B0B40EFE7C04603685A008B
:105BA00004D5802212061343C01870475B005B08BF
:105BB000FAE7C046F8B557464546DE464E4690469B
:105BC000E0B5070021B34B1E9A46994640F2000B00
:105BD0005B464B44DC0FE4186410E5007E1930008E
:105BE000FFF7DCFFA2450CD040450CD82800083058
:105BF0003818FFF7D3FF013840450AD2631C9B4693
:105C0000E6E7404505D9A34502D0631E9946DFE784
:105C100000263000F0BCBB46B246A946A046F8BDFF
:105C20000300012804D002280CD000202BB17047BB
:105C300046F23130C0F20000F9E746F22530C0F2FA
:105C40000000F4E746F23D30C0F20000EFE7C04646
:105C500040F2000330B5C0F20003050083B08C1E93
:105C60002BB3200001A900E000BFE0B101992200A0
:105C7000FFF7A0FF0400B0B1FFF790FF6368A864CE
:105C8000012B30D0201D002B29DBFFF787FF0023DD
:105C9000E8642B650368002B15DBFFF77FFF2861A5
:105CA000002003B030BD002309202B61F9E747F63F
:105CB0008C3347F61420C0F20003C0F200001B1A18
:105CC000D9100191D3E71801000FFFF7A9FF286150
:105CD000431E98410823404298430930E1E70123DD
:105CE000E8642B65D6E7002305202B61D9E7C04681
:105CF000036810B50400DA0705D49B070AD54830BD
:105D000000F06EFC23685A070AD51A070FD5DB0688
:105D100015D510BD483000F05FFC23685A07F4D455
:105D20002000D03000F060FC23681A07EFD4200078
:105D30005130FF3000F05CFC2368DB06E9D4200022
:105D4000D130FF3000F058FCE3E7C046092070472F
:105D50000300006800B1C0187047C0467047C046D5
:105D600070B504000D002000296CFFF771FF88B9A1
:105D70002B6C2A00636121000120236998470828C1
:105D8000F1D0072806D10020296CFFF7E7FF281D76
:105D900000F00CFC00F070FEF0B5CE46474680B532
:105DA000C3682F4C9846A54483690400160004314B
:105DB000402205A8994600F06DFE0023049324E0DC
:105DC000149B40F2E012636104A97CA8039300F0E5
:105DD00061FE2100280023697CAA98478A9B050060
:105DE000039315934B46019304AB009322002300C9
