:10000000C84B0020792D0000212C0000752D000028
:10001000752D0000752D0000752D0000752D000058
:10002000000000000000000000000000752D00002E
:10003000752D000000000000752D0000752D0000DA
:10004000010800009D08000081090000F909000076
:10005000590F0000C50E0000051000004D100000F3
:100060003D2A000025170000251700009D170000FD
:1000700025160000BD1500009D160000DD160000CD
:1000800045260000F11E0000E51F0000A920000029
:10009000B51D00000000000000000000000000008E
:1000A0000000000000000000000000000000000050
:1000B0000000000000000000000000000000000040
:1000C000FFFFFFFFFFFFFFFFFFFFFFFFFFFFFFFF40
:1000D000FFFFFFFFFFFFFFFFFFFFFFFFFFFFFFFF30
:10040000FFFFFFFFDFCEFFFFFCFF0F00FFFF0F002E
:10041000FCFF0F00FFFF0F00FCFF0F00FFFF0F00AE
:10042000FCFF0F20FFFF0F20FCFF7F40FFFF7F40FE
:10043000FCFF0D40FFFF0D40FFFFFFFFFFFFFFFF31
:10044000FFFFFFFFFFFFFFFFFFFFFFFFFFFFFFFFBC
:10045000FFFFFFFFFFFFFFFFFFFFFFFFFFFFFFFFAC
:10046000FFFFFFFFFFFFFFFFFFFFFFFFFFFFFFFF9C
:10047000FFFFFFFFFFFFFFFFFFFFFFFFFFFFFFFF8C
:10048000FFFFFFFFFFFFFFFFFFFFFFFFFFFFFFFF7C
:10049000FFFFFFFFFFFFFFFFFFFFFFFFFFFFFFFF6C
:1004A000FFFFFFFFFFFFFFFFFFFFFFFFFFFFFFFF5C
:1004B000FFFFFFFFFFFFFFFFFFFFFFFFFFFFFFFF4C
:1004C000FFFFFFFFFFFFFFFFFFFFFFFFFFFFFFFF3C
:1004D000FFFFFFFFFFFFFFFFFFFFFFFFFFFFFFFF2C
:1004E000FFFFFFFFFFFFFFFFFFFFFFFFFFFFFFFF1C
:1004F000FFFFFFFFFFFFFFFFFFFFFFFFFFFFFFFF0C
:1005000010B544F22814C2F20004237863B940F213
:100510000003C0F200032BB144F6A420C0F2000097
:1005200000E000BF0123237010BDC04640F200036D
:10053000C0F2000310B54BB144F22C1144F6A420D4
:10054000C2F20001C0F2000000E000BF10BDC046D2
:10055000F0B5440024181348E400241827009C46F2
:1005600080253C26083728001040431E9841404211
:100570003040C030207028000840431E984140425F
:100580003040C0306346207228001840431E984116
:1005900040423040C030207401346D10A742E2D197
:1005A000F0BDC046A841002010B500230022002164
:1005B0000020FFF7CDFF0023002200210120FFF7DC
:1005C000C7FF10BD44F6980144F2502010B5C0F2A8
:1005D0000001C2F2000000F08FFD00230022002184
:1005E0000020FFF7B5FF0023002200210120FFF7C4
:1005F000AFFF10BD10B544F2D814012344F24411EA
:1006000044F25020C2F20004237094220633C2F256
:100610000001C2F2000000F0CBFF2378002BFCD1D8
:1006200010BDC04644F2D8130022C2F200031A7073
:100630007047C0460FB444F6F00144F28C2030B548
:1006400083B006ACC0F20001C2F2000020CC00F082
:10065000B5FA44F2DC1022002900C2F20000019435
:1006600003F052FD44F2DC10C2F2000003F02EFD54
:1006700044F24024020044F2DC1144F28C200123B5
:10068000C2F20004C2F20001C2F20000237000F0C6
:10069000EFF92378002BFCD103B030BC08BC04B0C8
:1006A0001847C0460379022B05D144F240230022AB
:1006B000C2F200031A70704744F6240070B5C0F20D
:1006C0000000FFF7B7FF44F6340044F62415C0F2EB
:1006D0000000FFF7AFFFFFF775FFFFF765FFFFF7BC
:1006E00089FF44F2BC20C0F20005290044F24424F2
:1006F000C2F2000001F028FEC2F20004206070B1D6
:1007000044F6440344F6580244F66C002A21C0F231
:100710000003C0F20002C0F2000002F04DFA44F201
:10072000BC20C2F2000001F055FD2B7A46F60045D0
:10073000C0F2DC251D4140F2061644F68400B5FBEC
:10074000F6F6C0F200003100FFF774FF44F2BC205F
:100750003100C2F2000001F049FD40F20C2120609E
:1007600044F2BC20B5FBF1F10122C2F2000001F01D
:1007700011FF206044F2BC20C2F2000001F030FD05
:10078000FEE7C04600B583B040B94CF200039022AA
:100790000121C4F27E03995403B000BD0228FBD1AD
:1007A00044F68C0344F24820C0F200035B68C2F2B6
:1007B00000001900019301F039F9EDE710B5FFF7DA
:1007C0007BFF002010BDC046F0B50400806A85B0F4
:1007D0008C4601AD90B12B000200C2CAC2C363684F
:1007E0001B78036063460371E36A8360636A98471A
:1007F000A36A0BB107CD07C305B0F0BD2800EEE733
:1008000030B5EFF30383103B5BB21A0046F20001F0
:10081000C032C4F20001920050581F4C9B0020408F
:10082000505044F22432C2F200029B589A69D969AE
:100830008A4219D0186930B320241C5D0F2C09D9C5
:1008400099684C6891000C50D96901329A618A42CA
:100850000AD030BD072C19D8996809798154D96913
:1008600001329A618A42F4D103221F215B689A56B1
:100870001140530901228A404EF200119B00CEF232
:1008800000015A50E5E798684068DEE79C68A58853
:1008900054000553D9E7C046FFFFFEFFF0B5C6463A
:1008A00000B5EFF30383103B5BB21A0046F2000180
:1008B000C0329200C4F200015058304D9B002840D5
:1008C000505044F22432C2F200029B585868026A27
:1008D000002A2ED05678DC695A69012E16D094422F
:1008E0000BD0D96841B32020185C0F2808D9940098
:1008F00098686158416001325A6180BCB846F0BDC9
:1009000007281CD8895C98680171F4E7671EBA4211
:100910001AD001690029E2D0032545571F2028403D
:1009200086404EF200106909CEF2000089000E5098
:10093000D5E75A69DC69D2E798684160DBE7500087
:10094000415A98688180D6E7C07840B20700804657
:10095000C037BF00785805407D5040461F210140F8
:100960008E404EF20011CEF200018C4640F2801112
:1009700040098000604446500660B0E7FFFFFEFF7C
:1009800010B5EFF30383103B5BB21A0046F200018F
:10099000C032C4F2000192005058164C2040505012
:1009A00044F224329900C2F2000288588268D27858
:1009B000920704D54268527A012A00D010BD1F2147
:1009C0005A090B401E39994013004EF2001420338F
:1009D000CEF200049B001951BFF34F8FBFF36F8F0E
:1009E0004021826813788B4313703F39FFF7ECFE88
:1009F000E4E7C046FFFFFEFF70B5EFF3038444F267
:100A000024334021103C64B2C2F20003A200D65845
:100A1000B3681A788A4300211A70DA78D970D5B28F
:100A2000130710D4EB0714D414232B40142B18D025
:100A300046F20003C034C4F20003A400E2580B499C
:100A40000A40E25070BD30000531FFF7BDFEEB07F4
:100A5000EAD504213000FFF7B7FE14232B40142BF6
:100A6000E6D108213000FFF7AFFEE1E7FFFFFEFF10
:100A7000F8B504007B230D00006AA6788178E76949
:100A80000B408370B3079B0F3F69D21AE9182261AC
:100A9000E16007B15AB9802382781A437D3B8270A6
:100AA0003340022B19D02B78C3700020F8BD013BD6
:100AB000DA40002093B2BA68206196683868002254
:100AC000B0470028F2D18023206AA67882781A43A2
:100AD0007D3B82703340022BE5D14FF600622B88BC
:100AE0001343C3810020E1E7F0B51F250124154021
:100AF000AC404EF20015C64653092033CEF2000535
:100B00009B0000B588465C51BFF34F8FBFF36F8FDA
:100B1000130046F20004C033C4F200049B001D59C8
:100B2000114E4EF2001135401D51FF240325CEF227
:100B300000018C46210040F200371540ED00A9402D
:100B400093089B006344DE5992008E43414689011D
:100B50000C40AC403443DC5144F22433C2F2000375
:100B6000D05080BCB846F0BDFFFFFEFFF0B5C646D2
:100B700000B50500806A84B08C4690466C46D8B1BA
:100B80002300060086CE86C336681E60EB691B789C
:100B900003606346836043460371EB6AC3606B6A1C
:100BA0009847AB6A23B107CC07C31A0023681360C8
:100BB00004B080BCB846F0BD2000E7E743F6000271
:100BC000C0F200229446F0B54546DE4657464E46F2
:100BD0000B78E0B563445B010362002303704A694C
:100BE0000D0042628A69C161C262032201218362EF
:100BF0008378040093430B4383706B7883B023B9ED
:100C0000837893430222134383700B222000AA5659
:100C1000A97AFFF769FF05222000AA562979FFF774
:100C200063FF07222000AA56A979FFF75DFF09227A
:100C30002000AA56297AFFF757FFEB68C3B180203E
:100C4000596800030A68E6691060206A471D57600A
:100C500076783EB93027D6781030BE4310273E4311
:100C6000D670506018689B681B689847060000BBE8
:100C70002B6933B38020596800050A68E669106063
:100C8000206AC71C976076783EB93027D6780E3038
:100C9000BE4310273E43D670906018689B681B685F
:100CA0009847060068B1EB681BB118689B681B6A1F
:100CB0009847300003B0F0BCBB46B246A946A046F8
:100CC000F0BDEFF31086012080F31088802146F6F6
:100CD000FC732F780906F940C4F204035A688A436A
:100CE0005A605B6886F310880022236A29789A701C
:100CF0001A715A729A72DA725A8340F20722CA4003
:100D0000104201D04022DA7406221A776978AA7854
:100D1000E878EE692D780DB9684D9D821201C0000A
:100D20000243032900D1BBE0481E81410901E231A1
:100D3000D2B21A7002229971317BFF2549000A4014
:100D400020215A737278B078D201400101402A40C4
:100D50000A43002130781972811E0190012900D8C0
:100D6000A2E003257168D2B2DA718A7848785A70A5
:100D70001A782840AA4302431A70CA7859359A74DF
:100D8000D8790A78A8432A400243DA710022E26047
:100D900022616261A261E26946F2000191465279E4
:100DA00040F21F0C52B21000C030C4F200018000AB
:100DB0004558434F40F2C00A3D4045506546B8464D
:100DC00001271540AF404EF20015CEF20005AB46AC
:100DD00040F28015520992005A44575117604A4612
:100DE000D27A404652B292445746BF00BA467F5824
:100DF00007405046475067461740BA4601275046BD
:100E000087404EF20010CEF2000083465209920055
:100E10005A44575117604A4640F2C00AD27952B23A
:100E200092445046800082464058070040460740A2
:100E30005046475067461740BA46012750468740FC
:100E40004EF20010CEF200008346520992005A443E
:100E5000575117604A4640F2C009527A474652B28B
:100E600091444846800081464058074048464750D4
:100E70006146012011408840520992005A44505165
:100E800010600322019F17406D3217439F707389D2
:100E90000026238144F65513C5F24333636008E707
:100EA0003D310A43B23143E75D70022802D0D2B22D
:100EB000DA716BE710210A43F9E7C04600F8FFFF3B
:100EC000FFFFFEFF70B5EFF30383103B5BB21A0028
:100ED00046F20001C0329200C4F2000150581D4C8D
:100EE0009B002040505044F22432C2F20002985835
:100EF000C3691B6913B1036913B170BD036983B979
:100F00007F23026A91780B4004210B4393700023E6
:100F1000C360436A002BF0D080220021FFF726FE39
:100F2000EBE703218278114002290AD0C168056AE3
:100F30000C78EC709207920F9B1A8A180361C260BA
:100F4000DAE74FF60065C1680C882C43056AEC812E
:100F5000F0E7C046FFFFFEFF10B582B0EFF303835A
:100F6000103B5BB21A0046F20001C0329200C4F29C
:100F700000015058224C9B002040505044F2243233
:100F8000C2F200029C58E369A069DB685BB150B112
:100F90000023A3616361636AABB1012200212000D9
:100FA000FFF7E4FD0FE00323A2781340022B0CD0DF
:100FB000236A5979C9B2019178B9636A1BB10422D5
:100FC0002000FFF7D3FD02B010BD40F2FF11236AED
:100FD0001B8A194001910028EFD09207920F606997
:100FE00001A902F01BFFA37862699B079B0FD2182F
:100FF0006261A269D31AA361002BE4D1CBE7C0469A
:10100000FFFFFEFF10B5EFF3038444F22433103CDE
:1010100064B2C2F20003A200D0587B23026A917826
:101020000B409370436A1BB102220021FFF79EFD23
:1010300046F20003C034C4F20003A400E25802499F
:101040000A40E25010BDC046FFFFFEFF70B5EFF34F
:10105000038444F22433103C64B2C2F20003A200C1
:10106000D058032382781340022B20D0036A597989
:10107000C9B238221D792A40ED0602D51D7FED0741
:1010800012D538261D79B5431D71436A0BB1FFF7A0
:101090006DFD46F20003C034C4F20003A400E25820
:1010A00006490A40E25070BD40252A43E9E740F274
:1010B000FF11036A1A8A1140DBE7C046FFFFFEFFFB
:1010C000F0B50400406A85B08C4601AD90B12B00AC
:1010D0000200C2CAC2C363681B780360634603711F
:1010E000A36A8360236A9847636A0BB107CD07C37D
:1010F00005B0F0BD2800EEE743F60002F0B5454626
:10110000DE4657464E46C0F2002294468A69E0B554
:101110000B780262CA6963448262002242624A69B1
:101120005B0105000C0085B083604160002A00D19E
:101130007CE1802651680533086836034360936874
:1011400006601B68106898470600002800D065E11B
:1011500022697AB1AB688026516803330868360586
:101160008360936806601B68106898470600002833
:1011700000D061E16F688023386A40F20408427849
:101180009207920F1A430192837899460223C3561D
:10119000002B03DB40F2000840F2FF097B7A012BB1
:1011A00000D158E1002300210393BB7A012B00D129
:1011B0004AE1FB7A012B00D151E1802319437B7B6B
:1011C0005E1EB34107265B42B343EA33EFF3108A56
:1011D00040F2010B8BF3108846F6FC76C4F204064D
:1011E00072683F78029280221206FA40029F97436B
:1011F000776076688AF31088002740F2840CAE6826
:10120000C9B2B770327962463271964AB2826A4682
:1012100012793270039AB270B37103784EF20012F1
:1012200073704B46B3744346F37140237173377246
:101230007772B772F7727783F3743E3B337701238B
:10124000CEF20002944640F20030E35661799E08E7
:10125000B600664432588901904603221A40D200F3
:101260009446FF2260461140674681401000B84016
:1012700084464046674644F2243CB843014340F26A
:101280000030C2F2000C3150604699001E000D5033
:1012900046F20001C036C4F20001B60070580700E3
:1012A0007148074077501F265F461E40B7403E00FA
:1012B0004EF20017CEF20007B84640F280105B09EC
:1012C0009B0043441E501E600223E35681309E085B
:1012D000B600B0444646FF303658B24603261E409C
:1012E000F600B1464F46A6794846B6011640BE40C4
:1012F00017008740B9465746484687433E4340F269
:10130000003047463E5067469E00F5511E00C036ED
:10131000B60077585448074077501F265F461E4056
:10132000B7403E004EF20017CEF20007B84640F23A
:1013300080105B099B0043441E501E600323E3564C
:1013400081309E08B600B0444646FF303658B2465B
:1013500003261E40F600B1464F46E6794846B601E0
:101360001640BE4017008740B94657464846874357
:101370003E4340F2003047463E5067469E00F551DE
:101380001E00C036B60077583748074077501F26F2
:101390005F461E40B7403E004EF20017CEF20007F7
:1013A000B84640F280105B099B0043441E501E600B
:1013B0000423E35681309E08B6004644FF30375878
:1013C0000320247A1840C000A401144082408440C5
:1013D000974340F200323C43B45066469A00955120
:1013E0001A00C032920050581F4C00262040505026
:1013F0001F2259461A4091400A004EF20011CEF2C7
:1014000000018C4640F280105B099B0063441A5037
:101410001A6044F65313C5F243332B60300005B015
:10142000F0BCBB46B246A946A046F0BD0A690F0013
:10143000002A00D08FE69EE66369002BEED0186884
:101440009B681B6A9847E9E7FB7A002B00D0B6E659
:1014500040331943B3E6013305210393A5E6C023C6
:101460001943ACE600F8FFFFFFFFFEFFF8B51600DA
:1014700030220400080011001D00A3689B78194069
:101480001A4232D16268E56113696161A161E0606D
:10149000266193B15A6865611168AAB2CA81CA7897
:1014A00028B30C27BA4308273A43CA704860186823
:1014B0009B685B689847B8B96268516951B14EB191
:1014C0008A680868A561ABB2002195683200A84718
:1014D00050B9626823699BB11369C3B1F021002040
:1014E000A26893780B439370F8BD0820FCE70C309A
:1014F0008243CA7044F2DC22C2F200024A60D6E79C
:10150000A021A268002093780B439370ECE7506908
:10151000A5680300591E8B41D901AB7870310B438C
:10152000DBB2AB7008B10020DEE71F21527852B267
:101530001140530901228A404EF200112033CEF2AD
:1015400000019B005A50BFF34F8FBFF36F8F636949
:10155000E269934206D2E16821B3C95CA068C17018
:10156000013363616368597A01290ED001221F217A
:101570009A5600201140530901228A404EF2001170
:101580009B00CEF200015A50AEE7012AEED9616904
:101590008A42EBD9E26842B1525CA068C270013164
:1015A0006161E3E7A068C170DAE7A068C270F6E79E
:1015B00010B513000022FFF759FF10BD10B5EFF36F
:1015C0000383103B5BB21A0046F20001C032C4F242
:1015D000000192005058124C9B002040505044F2A1
:1015E0002432C2F200029B585A69D9698A4206D253
:1015F000D86890B1805C9C68E07001325A618A4280
:1016000000D010BD1A69002AFBD19A687B2391781B
:101610000B4004210B439370F3E79C68E070ECE708
:10162000FFFFFEFF10B5EFF30383103B5BB21A0020
:1016300046F20001C032C4F2000192005058164C2C
:101640009B002040505044F22432C2F200029B58CA
:101650005A69D9698A4206D2D868C8B1805C9C6848
:10166000E07001325A619A698A4207D2511C99612D
:1016700099681869497981549A69D969914206D162
:101680009A683B2391780B4004210B43937010BD63
:101690009C68E070E5E7C046FFFFFEFF10B5EFF382
:1016A000038444F22433103C64B2A200C2F200036B
:1016B000D05803238268C0349178A4000B40937003
:1016C0000121FFF7FDFC46F20003C4F20003E258DB
:1016D00001490A40E25010BDFFFFFEFF10B5EFF3D5
:1016E000038444F22433103C64B2A200C2F200032B
:1016F000D05803228368C0349978A4000A409A70B5
:101700001A79842204211A71FFF7DAFC46F20003E9
:10171000C4F20003E25802490A40E25010BDC0463C
:10172000FFFFFEFFF0B5C64600B582B0EFF30384BD
:1017300044F22433103C64B2C2F20003A200D55834
:10174000E968C1B16B6828695B7BE8465BB21B1B2B
:101750005A1E9341DBB29C46D8B14246070048CF9F
:1017600048C2634603706B69436088472B6913B1B5
:10177000404606C806C346F20003C034C4F2000364
:10178000A400E25804490A40E25002B080BCB846C6
:10179000F0BD4046E5E7C046FFFFFEFFEFF30383E1
:1017A00044F22432103B5BB29900C2F200028A5824
:1017B0000121117246F20002C033C4F200029B0004
:1017C00099580248014099507047C046FFFFFEFFFC
:1017D0000023036000207047FF2010B540F600048E
:1017E0000B0A084019010918C4F2040489000B59B6
:1017F00000209B07DB0F137010BDC0460023C4F20E
:1018000004039C46090A490161444B680020138087
:101810007047C0460020C4F2040084461800090A3C
:1018200090430004134049010343614400208B604E
:101830007047C046FF2001230840834052B91B0473
:101840000022C4F204029446090A490161440020BE
:101850008B6070474FF6FF721340F1E70020C4F22F
:10186000040084461800090A490110B561440C6857
:1018700010402043934398430860002010BDC046A9
:101880000023C4F204039C46090A490161444B68E1
:1018900000201B0C138070470020C4F20400844613
:1018A0000B0A5B0163445868FF231940FE3B8B40E1
:1018B000000C99B203405B1A59424B41002013704F
:1018C0007047C0460020C4F2040084461800090A8C
:1018D0009043000413404901034361440020CB605E
:1018E0007047C046062070470B0A10B55B01012AFD
:1018F00010D00022C4F204029446FF20802201404E
:1019000052028A406344DC682243120C1204002015
:10191000DA6010BD0020C4F204008446FF200140BC
:101920008A4011004FF6FF726344DC681140214386
:101930000A40ECE7F0B5DE4657464E464546E0B570
:1019400083B0EFF31082012383F3108844F2203335
:10195000C2F2000301931B6833B940F60051C4F290
:101960000401CB704033CB7001990B6801330B60DD
:1019700082F3108803889A46BBB3802340F60005A3
:101980005B029946284B002240F2FF089C464168C2
:10199000C4F204050AE043461E4023019B190132AC
:1019A0009B0092B25851083192451ED04B468E880A
:1019B0000868340A1842EED043461E4023019C19A1
:1019C000A700644600977F599B1927403C00009F61
:1019D00001327C51674607403C00009F9B0092B259
:1019E0007C51083158519245E0D1EFF31082012328
:1019F00083F31088019B1B681BB101990B68013BA5
:101A00000B60019B1B6833B940F60051C4F204011E
:101A1000CB708033CB7082F3108803B0F0BCBB4630
:101A2000B246A946A046F0BDFFFFFEFF45F2542393
:101A300010B5C5F24F0303600800FFF77BFF0020DD
:101A400010BDC04610B50800FFF774FF002010BDA0
:101A5000F0B5EFF31084012383F3108844F22033B0
:101A6000C2F20003186830B940F60055C4F204050C
:101A7000E8704030E87018680130186084F310880E
:101A8000D00321D4FF24080A0C40010140F60000D5
:101A90000919C4F2040089000A50EFF310820121F1
:101AA00081F31088196811B11968013919601B6830
:101AB00033B940F60051C4F20401CB708033CB70CF
:101AC00082F310880020F0BDFF2440F60005080ACC
:101AD0000C4001010819C4F2040580004759034E67
:101AE0003740164047514651D0E7C046FFFFFEFF42
:101AF000F0B50400806B83B06D4688B12B00020006
:101B0000C0CAC0C3E36B01710360636B9847A36BEA
:101B10000BB106CD06C32B230022E25403B0F0BD67
:101B20002800EFE7F0B557464E464546DE461F23F0
:101B3000E0B5026904681370403383B01370656ABE
:101B40008033137000912F79FF3B1F43FFB217744E
:101B5000EF7801003B43DBB253747023AF784BF650
:101B6000C0503F013B4008273B4393702B78CFF692
:101B7000F070013B5F427B4184466D7804336D0019
:101B80002B43DBB2D37063684EF2001063445C42B7
:101B90006341DB01773353710023CEF200008446AA
:101BA00040F2003503279371B333D371009BFF26B6
:101BB0005B7C40F2801B5BB29C08A40064446059CB
:101BC0001F408446F80080460098477BB801070014
:101BD000FF2037404646B040814660464E46B043FF
:101BE000464644F2243C0197B740C2F2000C40F252
:101BF000C00866463843605198449C00A15146464F
:101C000046F20004B600B046C4F2000436596848F3
:101C100037004646074037511F271F40B846012767
:101C20004646B7404EF20016CEF20006B1465E467A
:101C30005B099B004B449F511F60009B0327DB7B8C
:101C40005BB29E08B600B046C844464676591F406F
:101C5000B146FE00FF27B246B7404E46BE43B146EE
:101C60005646019FB7404E463E43B14646464F4614
:101C700077519E00B046474640F2C00866469844F9
:101C8000B9514646B600B04636590640B1464646BA
:101C90004F4637511F261E40B04601264746BE40DC
:101CA000B0464EF20016CEF20006B14647465E46FA
:101CB0005B099B004B449F511F60009B1B7C5BB2E8
:101CC0009E08B600B046C84446467659B14603263B
:101CD0001E40F600B246FF265746BE404F46B74369
:101CE000B9465646019F8A46B7404E463E43B146E6
:101CF00046464F4677519E00B046474640F2C008E0
:101D000066469844B9514646B600B0463659064034
:101D1000B14646464F4637511F261E40B046012663
:101D20004746BE40B0464EF20016CEF20006B1461F
:101D300047465E465B099B004B449F511F60009BDA
:101D4000FF279B7B01985BB29908890049444E5953
:101D5000B04603261E40F600B146B7404646BE4395
:101D600037004E46B0406646074350464F519900F3
:101D700088511900C031890008590D4D1F2628408F
:101D800008514EF200100121CEF2000084461E40A0
:101D9000B14058465B099B006344195019609F236A
:101DA000137003B0F0BCBB46B246A946A046F0BDD6
:101DB000FFFFFEFF10B582B0EFF3038346F200028F
:101DC000103B5BB2C033C4F200029B0099584748F5
:101DD00001409950EFF3038344F22432103B5BB28D
:101DE000C2F200029B009B582D229A5CE2B99A69CC
:101DF000012A24D940201A69117901431171D96946
:101E0000012907D11020117901430820117111799E
:101E1000014311716946D27CD2B2CA71CA792D22AE
:101E20000121995402B010BDDA69002AFAD0032AC0
:101E300007D0022A48D0012A1AD0196906E01A6987
:101E4000DDE7402019690A7902430A71CA7C186AE1
:101E500059690A541A6A01321A62DA69013ADA6176
:101E6000002ADFD140211A6913798B431371D9E716
:101E70002A21595C91B30F241F2019680C57204068
:101E80006109140084404EF200102031CEF20000AF
:101E900089000C50BFF34F8FBFF36F8F80201969FB
:101EA0004042CC7920431024C8710879204308248B
:101EB00008710879A043087104204870487990435C
:101EC00048712C201A54C1E7102019690A7902437D
:101ED00008200A710A7902430A71B7E708201969D4
:101EE0004A7A82434A724870B0E7C046FFFFFEFF5D
:101EF00030B5EFF3038346F20002103B5BB2C03310
:101F0000C4F200029B009958354801409950EFF304
:101F1000038344F22432103B5BB29B00C2F2000206
:101F200099582723CB5C002B33D12923CB5C7BBB77
:101F3000CB69002B3ED108697F23C2791340C3715E
:101F4000C02201E0013A1AB1C379DB09002BF9D1B3
:101F500010220B6846F200019A56C4F200011300E9
:101F6000C0339B005C581E4D2C405C50002A0BDB9C
:101F70001F215309114001228A404EF200116033A3
:101F8000CEF200019B005A504022C3791343C37123
:101F900030BD26228A5C032A18D028228A5C24209D
:101FA0000C69085C0132A07428200A542722013BE6
:101FB0008B54EDE70A6A4C690869A45C013B013265
:101FC00084740A62CB61002BE2D1B5E728228A5CD7
:101FD000022AE4D13020085C0028D9D0DFE7C046CF
:101FE000FFFFFEFF10B5EFF3038344F22432103BF2
:101FF0005BB2C2F200029B009B5829229A5C1AB184
:1020000027229A5C012A48D0DA69D2B119694022A4
:10201000CB799343CB71C02301E0013B13B1CA7963
:102020005206FAD4EFF3038346F20002103B5BB290
:10203000C033C4F200029B0099581A4801409950DD
:1020400010BD2A229A5C0AB30F201F211A6810566D
:1020500001404209012004008C404EF20011203260
:10206000CEF2000192005450BFF34F8FBFF36F8F39
:10207000802219695242CC792243CA7104224A70E3
:102080004A7982434A712C229854C0E70822196980
:102090004B7A93434B724A70B9E72F329A5C002A0D
:1020A000B2D1B3E7FFFFFEFF70B5EFF3038344F255
:1020B0002432E021103B5BB2C2F200029B009C582C
:1020C00023695A7A5972DD39D0B21140D2062DD522
:1020D0005A78520645D401212B22A154E1690029E6
:1020E0005AD000252000DD712168FFF71BFD262353
:1020F000E561E25C0233E254A36923622C23E554D8
:102100002369B3220121DA712000FFF7F1FCEFF31C
:10211000038346F20002103B5BB2C033C4F20002FC
:102120009B0099582A480140995070BD0029D2D18E
:1021300002070AD52B22A15CB1BB2922A15C4A422D
:102140005141B3220231DA71DEE72C22A25C002A6F
:10215000DDD04207DBD52B22A25C0121002AD3D19E
:10216000EBE70029B7D15A785206D10F002ADFDAFF
:102170002B22A15408215A7A8A435A722268597034
:10218000526A1278013A51424A4101210232DA7010
:102190005A790A435A71BAE72C31615C0029A0D1FF
:1021A000A25C002AADD09CE7E16929B92C31615CC1
:1021B00011B9A25C002AA4D000222621E261605C51
:1021C00002316054A16921622C21625499E7C04612
:1021D000FFFFFEFF8368C26800205A607047C04658
:1021E0008368C2680020DA607047C04610B5446852
:1021F000836824784A1E9A661CB9490801395965D2
:102200009965D96AC90705D45A66AA22D2031A6405
:10221000C268DA60002010BDF0B5CE46474680B5F2
:1022200000283ADB40F2FF094EF2001403254E4627
:10223000CEF20004A44640F200370540ED00AE4067
:1022400083089B006344DC598901B44326004C4653
:102250000C40AC403443DC5144F224338100C2F2E0
:102260000003CA50030046F20002C033C4F2000269
:102270009B0099580B4C214099501F22012302408A
:1022800093404EF20012CEF20002944640F28012C9
:1022900040098000604483500360C0BCB946B0462A
:1022A000F0BDC046FFFFFEFFF0B5C64600B5050015
:1022B000806984B08C46904601AC98B1230006003A
:1022C00086CE86C36346037143468360EB69036031
:1022D0006B699847AB690BB107CC07C304B080BCEE
:1022E000B846F0BD2000EDE770B5554255414C6E43
:1022F000013425B9A24202D2013A1A6070BD049D90
:10230000496BED070CD50078C902C90E03280CD91A
:1023100001200909884382B180B903225A60EDE7A0
:102320000078C906C90E0328F2D80C2001400439F0
:1023300048424141C8B2002AEED110B902225A6087
:10234000DCE7002CFAD0E8E7F0B54546DE46574614
:102350004E460122E0B50D000B7C110099400400AF
:1023600085B0C1604560002B00D1C9E0027440F225
:102370008072C0F240029446002063441B02A360B6
:102380006B696361AB69A061E361EB699B46EFF345
:10239000108C012787F3108846F6FC71C4F2040103
:1023A000CB682A7C984653425A4153014246413BEE
:1023B0001340CB60CB688CF310884AF20053A168BD
:1023C0000B60C862C86388642A7A6B68D205CA62E7
:1023D000802212060A614A618A615A4692694862FD
:1023E0008862CA615A46D2695E1E0A625A46D26A39
:1023F0008E66904601225242944602922A784E6698
:102400000390002A00D0A2E0C1465B086344029317
:1024100003304B658B654B46002B6AD15B461B78BE
:10242000E3B15B465B789E01B1461E01B446022AC9
:1024300000D1A4E05E1EB3415B429A460323564698
:102440003340063346461E4333004E4640F20018E2
:1024500033436646334346461E43B0465B469B784D
:10246000002B4FD140F2880C002366468B638B51C2
:102470005E4640F2210C2033F35C66465B039946CE
:102480005B469E5D4B467607334346461E43B04649
:10249000AA23DB030B64012A02D10023CB640B6562
:1024A000E3682200CB6043464B63086312200F634E
:1024B000697C2856FFF7B0FE5A462223D15C0233CE
:1024C000D0562200FFF7A8FE5A462323D15C0233E0
:1024D000D0562200FFF7A0FE45F254030020C0F2C0
:1024E0004703236005B0F0BCBB46B246A946A046F0
:1024F000F0BD40F2880C002366468B638B51C7E722
:10250000037434E75B46DB789C469B01994663463F
:102510004E461B0133439A46022A32D06646731E4A
:102520009E417642B44640F2030963464E461E4041
:10253000B44640F20609CC44664653463343464609
:102540001B043343802676041E43B0468AE7012AE3
:102550001AD0EA68009002AB6068FFF7C5FE0398E6
:10256000A16802040006024394465A4666460320C8
:10257000D26A029B914630432A78374349E70923C0
:1025800060E740F2090CD7E7C14601270320634604
:102590003FE7C046F0B5C646012300B55B4284B0B4
:1025A000029303270023050000920393884614003A
:1025B000174002AB0A0081684068FFF795FEA968E2
:1025C000039A0E6B72B908232340584243410120FD
:1025D0005B4283430433A0071BD502989B00CB18B2
:1025E000D8641865012F0CD0144B1E4013041E43F1
:1025F000022C08D047B900200E6304B080BCB84656
:10260000F0BD022C00D15AB90D4B12061E401643E4
:10261000F1E7DB19123302989B00CB185860E1E711
:10262000012342460093686802ABFFF75DFE039A00
:10263000034B12061E40A9681643DCE7FFFFFCFFB0
:10264000FFFFFFFCF8B5EFF30383103B5BB21A000A
:1026500046F20005C032C4F2000592005159154CF3
:1026600098002140515144F22431C2F200014058F7
:1026700041680978012915D18668C768B7600027C5
:10268000B764F76437655659344054511F245A09CA
:102690002340994013004EF200146033CEF2000440
:1026A0009B00195143691BB100220021FFF7FCFD7B
:1026B000F8BDC046FFFFFEFF70B5042482B0019153
:1026C0000092045746F200022500C035C4F2000211
:1026D000A90088581F4E30408850895845F2004064
:1026E00048F20002C905C90D1143C4F20000C289B5
:1026F0008A42FCD0082244F200010270019AC2F220
:1027000000012AB3A2008858019C4460009810B1CF
:102710008858009C84603F208958CA788243802A68
:1027200014D002B9CB8145F200431822C4F2000351
:102730001A7046F200028021C4F20002AD00A858CF
:10274000490401430020A95002B070BD8B81EAE723
:10275000A200DBE7FFFFFFFE062070470620704760
:10276000042346F200028021C356C4F20002C033A3
:102770009B00985849040143995000207047C04677
:10278000042346F20002C356C4F20002C0339B0089
:10279000995802480140995000207047FFFFFFFE02
:1027A000042244F2000310B58256C2F200039200E4
:1027B000D25800233F200B604B60D37883434BB14A
:1027C000C1308860D48901382040C860802B07D090
:1027D000002010BD80235B028B60D389CB60F7E7BC
:1027E00080235B020B6093894B60F1E7042330B5D3
:1027F000C35646F200011A00C032C4F20001920032
:102800005458064D9B002C40545044F200020021C5
:10281000C2F2000299500160002030BDFFFFFFFEB0
:10282000F8B544F2DD23CE464746C2F200031A78DB
:1028300080B581460F00002A39D07B681B785BB2D7
:10284000002B59DB44F200059E00C2F20005AA5994
:1028500008201AB1C0BCB946B046F8BD4A4613714B
:102860003B683F219C46F730DA781F008A433AB133
:10287000DA8990464446D2B2044012022243DA81F9
:10288000BA7810338A43002AEED145F20043083269
:10289000C4F200031A706246AA5118221A7044F258
:1028A00000334A46C4F2544300201360D2E70126A5
:1028B0001E70EFF3108186F310884EF20003C4F20D
:1028C0000103DA690D480240DA61DB6981F310889F
:1028D00044F20005C2F2000580220021280001F028
:1028E000B9FA45F20043C4F200035D601E737B68D1
:1028F0001B785BB2002BA5DA0B20ABE7FFFFBFFF15
:10290000F0B5C646042300B5C356C022984646F229
:1029100000034244C4F2000394469200D058204C75
:102920002040D050D25845F2004048F20003D20572
:10293000D20D1A43C4F20000C3899342FCD00B00AD
:102940003F24FF26DA781D00A2432AB1DF89F8B2BE
:10295000020237403A43DA81AA781033A243002AB0
:10296000F0D145F200430832C4F200031A70404629
:1029700044F200028700C2F20002B95018221A7015
:10298000624646F2000395008022C4F20003E95833
:1029900052040A430020EA5080BCB846F0BDC0464D
:1029A000FFFFFFFE70B5C56904000E0088B0A5B139
:1029B00020222900684601F031FA20223100280047
:1029C00001F02CFA2800A3699847E06918B1202289
:1029D000694601F023FA08B070BD0D00F2E7C04669
:1029E00030B5020089B0EFF3038344F22431103B89
:1029F0005BB2C2F200019B005858EFF3038346F22A
:102A00000001103B5BB2C0339B00C4F200015C5874
:102A1000094D2C405C506B469A706A4643681B888F
:102A2000138000231372036A0193836913B169460B
:102A3000FFF7B8FF09B030BDFFFFFEFF10B5002063
:102A4000FFF7CEFF10BDC0464EF20003262244F22F
:102A50001011C4F20103985C1B6A8000C2F20001ED
:102A600041585B015B0F44F2B032D940C2F2000220
:102A7000116070474EF2000340F2FE324B49C4F23F
:102A8000010370B599524CF20002002043F6C87160
:102A9000C4F27E02505444F2101446F60042C2F2D0
:102AA0000004C0F2DC22226041F20022C0F27A026D
:102AB000626048F2000242F20041A26022612622D6
:102AC000C0F2F401E160995C1A6A89006158520110
:102AD000520F44F2B035D14040F21342C2F2000529
:102AE000296098540921A222995440F28042995CAD
:102AF000002953D04EF20003002240F28141C4F27B
:102B000001035A5401395A54A0329A5CCAB1362290
:102B10009A5C1AB93C215A5CD207FCD54EF20002ED
:102B2000A021C4F20102535CDB06D80F002BFADBB4
:102B300050544EF20002A021C4F20102535CDB06A5
:102B4000FCD44EF2000200213623C4F20102D1541B
:102B50003C31535CDB07FCD501213123D1544FF6C6
:102B6000C473C4F27E03197000202623D0540130B0
:102B7000FF301062D05C136A800020585B015B0F4D
:102B8000D84040F2FE3328600948D0524CF200038E
:102B900043F6C872C4F27E03995470BD013140F20D
:102BA000C440995400F00EF8A4E7C04603A5FFFF07
:102BB00000A5FFFF7047C04600BEFEE701380028B1
:102BC000FCD1704744F2B0324CF600234143C2F2CC
:102BD000000270B51468C3F69A330D00B3FBF4F429
:102BE000080040F2E8320023002100F06DF931B90D
:102BF000B0FBF4F0800808B1FFF7E0FF70BDA00063
:102C0000B5FBF0F040F2E8320023002100F05CF95F
:102C10000029F0D001204042FFF7D0FFEEE7C04688
:102C2000F8B546F2000340F2401244F2E0250024D9
:102C30000127C4F200039E5AC2F20005B6B2330067
:102C4000E340E0B21F4202D02B6803B19847013441
:102C50000435102CF3D146F2000340F23012C4F2D6
:102C600000039E52F8BDC04646F200000023C4F2A5
:102C7000000044F6EC12C0F200029A1811781A0013
:102C8000C032920001331150202BF2D17047C04660
:102C900070B5EFF31081012383F3108844F2A4335D
:102CA0004000C2F200031A5A1AB11A5A013A92B2FB
:102CB0001A521B5A83B94EF2000240F2FE3544F616
:102CC0006824C4F20102565B054BC0F20004205A8E
:102CD000334383439BB2535381F3108870BDC04686
:102CE00000A5FFFF70B5EFF31081012383F3108877
:102CF00044F2A4324000C2F20002135A83B94EF2E9
:102D0000000444F6682540F2FE36C4F20104C0F225
:102D10000005A35B2D5A2B434AF200552B43A353C6
:102D2000135A01339BB2135281F3108870BDC04611
:102D300044F2AC32C2F200020300106810B558B180
:102D4000032103338B4344F2C831C318C2F200019C
:102D50008B4207D8136010BD44F2C830C2F20000A5
:102D60001060EDE701F054F80C23036001204042AD
:102D7000F1E7C04600BE704710B500F003F8FDF75C
:102D80001DFDFEE740F200034EF6005270B5CEF294
:102D90000002C0F2000382B093600020FDF7F2FC55
:102DA000FFF768FE6B460026DC1D267001202378A5
:102DB000FFF798FFEFF31081012585F3108846F6A1
:102DC000FC73C4F204039A683D4802409A609A6812
:102DD00081F3108840F60001C4F204010A68D207AA
:102DE000D20F22700A68D207D20F22700A68D20767
:102DF000D20F2270EFF3108185F31088802298683B
:102E0000520502439A609B6881F310880120FFF706
:102E10003FFF0120FDF7B6FC40F60053294AC4F2FB
:102E200000039E801A8044F2C832C2F200029A6007
:102E300044F6C832C2F20002DA6046F2000240F202
:102E4000201141F20000C4F20002505244F2C43298
:102E500044F22810C2F20002C2F200009D8000215C
:102E6000121A00F0F7FF44F2800044F2101244F608
:102E7000D831C2F20000C2F20002121AC0F2000100
:102E800000F0CCFF44F2081544F20C13C2F2000526
:102E9000C2F200035B1B9E10002B05DD002408CD51
:102EA00001349847A642FADCFFF7CEFD0220FDF779
:102EB00069FCFFF7D9FE0020FFF77CFE02B070BD71
:102EC000FFFFFFEF00A5FFFFF0B54FF6FF75CE4601
:102ED000474699462B0015400E0029000340140C6C
:102EE00080B50700000C59434543634360435B19B9
:102EF0000C0CE4188C46A54203D980235B0298464B
:102F00004044230C61461B1820044FF6FF740C400C
:102F1000494679437243C91800198918C0BCB9469B
:102F2000B046F0BD03685A0004D580221206134350
:102F3000C01870475B005B08FAE7C046F8B5574613
:102F40004546DE464E469046E0B5070021B34B1E8F
:102F50009A46994640F2000B5B464B44DC0FE4185E
:102F60006410E5007E193000FFF7DCFFA2450CD0AD
:102F700040450CD8280008303818FFF7D3FF013837
:102F800040450AD2631C9B46E6E7404505D9A34568
:102F900002D0631E9946DFE700263000F0BCBB4636
:102FA000B246A946A046F8BD0300012804D0022875
:102FB0000CD000202BB1704743F2B960C0F2000082
:102FC000F9E743F2AD60C0F20000F4E743F2C560F8
:102FD000C0F20000EFE7C04640F2000330B5C0F297
:102FE0000003050083B08C1E2BB3200001A900E074
:102FF00000BFE0B101992200FFF7A0FF0400B0B1CB
:10300000FFF790FF6368A864012B30D0201D002BD0
:1030100029DBFFF787FF0023E8642B650368002B9B
:1030200015DBFFF77FFF2861002003B030BD0023D0
:1030300009202B61F9E744F6D83344F6D820C0F2D2
:103040000003C0F200001B1AD9100191D3E7180148
:10305000000FFFF7A9FF2861431E98410823404253
:1030600098430930E1E70123E8642B65D6E70023A4
:1030700005202B61D9E7C046036810B50400DA07C4
:1030800005D49B070AD5483000F06EFC23685A0728
:103090000AD51A070FD5DB0615D510BD483000F04C
:1030A0005FFC23685A07F4D42000D03000F060FCA5
:1030B00023681A07EFD420005130FF3000F05CFC89
:1030C0002368DB06E9D42000D130FF3000F058FC43
:1030D000E3E7C046092070470300006800B1C0184C
:1030E0007047C0467047C04670B504000D00200010
:1030F000296CFFF771FF88B92B6C2A0063612100EE
:103100000120236998470828F1D0072806D100201C
:10311000296CFFF7E7FF281D00F00CFC00F070FEA3
:10312000F0B5CE46474680B5C3682F4C9846A544B7
:103130008369040016000431402205A8994600F076
:103140006DFE0023049324E0149B40F2E0126361BF
:1031500004A97CA8039300F061FE210028002369E4
:103160007CAA98478A9B0500039315934B460193CD
:1031700004AB00932200230031000120C04708BBAC
:1031800040F2E0127CA904A800F048FE0026082DB9
:1031900021D1149B200019000393FFF71DFF09366E
:1031A0000700F5B20028CFD0129B1021039315938E
:1031B0004B46019304AB00932200230001202943D6
:1031C000C04700B10927380040F2D4339D44C0BC49
:1031D000B946B046F0BD072DF4D130001499FFF781
:1031E00081FF05A800F0A6FB2CFCFFFF406C704798
:1031F00070B5CB6BFAB00B6405000E0040220431B1
:1032000003A800F00BFE01235B42029306E02900B5
:103210002B6902AA9847040008280AD1129B2800AB
:1032200019000193FFF7D8FE0028F0D009207AB0EA
:1032300070BD02A8FFF720FF062CF7D1310028004F
:10324000FFF752FF10B58261DA6BC1601A64190092
:103250000022FFF765FF10BD436970B50B64C368BA
:1032600004000D009BB90A00236901000220984761
:10327000072805D008280FD129002000FFF734FFC8
:103280000020296CFFF72EFF281D00F053FB0122C0
:10329000FFF746FF00F0B4FD00F0B2FDC36810B5C3
:1032A0002BB1CB6B00220B64FFF73AFF10BDFFF789
:1032B0009FFFFBE77047C0468368010010B50BB164
:1032C0000120984710BDC046012914D009D883B900
:1032D0000F2A0ED8920082185268009B00201A60B4
:1032E00006E001200339C9B28842804140420130E2
:1032F00070470220FCE70120FAE7C04600B585B020
:1033000003AB0A00009300210023FFF7DDFF0398C1
:1033100005B000BD012914D009D883B90F2A0ED8F1
:10332000009B92001B6882185360002006E0012079
:103330000339C9B2884280414042013070470220BF
:10334000FCE70120FAE7C04600B585B003AB039265
:1033500000930A0000230021FFF7DCFF05B000BD49
:1033600070B51A4CD36BA544136405000C0019A862
:10337000111D402200F052FD01235B42189313E01F
:103380000C2118A802AAFFF7DFFF210018A8A84700
:1033900090B9069B18AA02A9083001939847060025
:1033A00005280AD0092807D0289B02A819000193F4
:1033B000FFF712FE0028E3D0092618A8FFF75CFEED
:1033C000300040F240239D4470BDC046C0FDFFFF69
:1033D000F0B557469246032245464E46DE4699468C
:1033E0001300E0B58846CD6C494689B00340009390
:1033F00008CD0695002900D181E01A0C1B04059325
:10340000022304A90B73FD3313409B004A73ED188C
:10341000009B022B01D143469D6B43461B6DDB078E
:103420000ED5504605A900F04FFB08B9082000E072
:10343000092009B0F0BCBB46B246A946A046F0BD83
:103440002F68002FEDD00823034002930023544639
:1034500040F2010B4646BA4601934B46022B4BD035
:103460002B886F889A4604355A463B009343B26CCA
:103470000F21904620009844FFF740FF002380452D
:1034800006D853465A469343434498429B415B4275
:1034900002227F001740594652460A401743012F27
:1034A00032D0022F4DD0002FC2D1009A12B1002B82
:1034B00000D09AE004352B689A46002BCDD120002D
:1034C00005A9A24600F000FB0028B1D1019B002B0A
:1034D000ACD00F215046FFF711FF0E2102005046DD
:1034E000FFF732FF40F2000250460F21C0F2000207
:1034F000FFF72AFF07209CE76F680835B4E71B0237
:10350000059304AB9A8183E7009A002A45D1B3B1B1
:103510002B68DF0F6B689A1C00D189E732005832A4
:103520000492013300D1B1E0281DFFF7D5FD3A0028
:10353000010004AB300000E000BF002869D108356D
:10354000B9E72A68009957007F0859B91BB1029B57
:10355000002B71D0E7B3002A00DA04350137BF0031
:10356000ED19A8E7336A0D2120009846FFF7C6FE43
:10357000804501D02A68EEE7B36A9D42FAD1002364
:10358000F362043333632B1DB76273632B68002B24
:1035900000DA85E001230193E0E70D212000376A7E
:1035A000FFF7ACFE8742CAD1B36A9D42C7D1B0468D
:1035B000A2462800FFF7B6FC0F2102005046FFF795
:1035C000C3FE504642460021FFF7BEFE072030E70B
:1035D000B046A2460D215046FFF790FE4346049A9E
:1035E00018625A6206209D6223E72800FFF79AFCC2
:1035F0000435A246B5630400300000E000BF002897
:1036000000D115E7504622000F21FFF79DFE07204D
:103610000FE7A2460D2104005046FFF76FFEB046AB
:1036200033003062022C37D1049A2C33F262736279
:10363000434606209D62FCE640F2580C40F200082A
:1036400021004A462B1DB444A9461C003D008A4671
:1036500047460392E0460DE0434620000493FFF7FF
:103660003BFD0022010004AB300000E000BF013749
:10367000043420B9AF42EFD14D46B046AAE72F003F
:103680004D46039B544699462A6864E70D21200065
:10369000FFF734FEB04630624346049A5A62C7E7E9
:1036A000781C8000B046A246281883E710B5002396
:1036B000FFF78EFE10BDC04610B50123FFF788FE50
:1036C00010BDC04610B50223FFF782FE10BDC046F4
:1036D000F0B54746CE4680B5060017001C00C3B0C3
:1036E000032943D020D8002948D0012940D1130C08
:1036F0004FF6FF723A4098469146012C00D179E08E
:10370000052C35D11F004F44202F31D843460F2BB5
:1037100000D8B6E04F46002F00D0C2E04A46B16B59
:1037200020AD0AB300277EE0042921D103BB102A73
:103730001ED8102203681A4200D0C9E020AD28002C
:1037400000F020F9012429000023B26B20009840EA
:10375000074201D001CA086001330431042BF5D1BE
:103760002800B26300F00CF9002002E0032B1DD00A
:10377000022043B0C0BCB946B046F0BD002BF7D123
:103780004FF6FF72816B041D002301203A400500B3
:103790009D402A4201D020C9256001330434102BFA
:1037A000F5D10020BB04E4D4B163E2E7140C4FF67A
:1037B000FF721740E319102BDAD8082203681A4267
:1037C00000D08CE020AD280000F0D8F8E400B36B06
:1037D00057B1E41AFF00211FDF19691818000268A9
:1037E00004335A50BB42F9D12800B36300F0C4F847
:1037F0000020BEE74B44102BBAD843460F2BB7D856
:1038000033681C4206D003223000934333604830B3
:1038100000F0A8F820AD280000F0A4F84A460027E0
:10382000B16B002A63D04346DB00ED180023D200C1
:10383000C858E85004339A42FAD189187FB16D46CE
:103840004046102800D2102000231038C00028184D
:10385000FA00CD58C55004339342FAD1C918012C4F
:1038600044D04346B1630F2B07D9002F00D17BE72B
:10387000684600F07DF800207BE720A800F074F88F
:10388000F3E7102F41D9103F012233681A4207D0C5
:1038900093430222300013433360483000F066F84F
:1038A000AFB3042233681A4228D143460F2B03D802
:1038B00020AD280000F05AF86D46280000F05AF8B4
:1038C00010224346B16BD21A002AB9DD20ADAAE717
:1038D00093430360D130FF3000F054F82EE7934358
:1038E00003605130FF3000F049F86BE720AD043140
:1038F0002800B16300F034F800203AE73000934329
:103900003360D03000F036F8CFE70027BCE74346FD
:103910000F2B00D902E720AD280000F027F84A4617
:10392000B16B002A00D0FDE6280000F01DF8002051
:103930001FE7C0460100343138C9043B9C461D6076
:10394000A646010020313CC990469946A246AB46A6
:1039500001000831FCC941680068E54600BDC04669
:103960007047C0467047C0467047C0467047C04663
:103970007047C0467047C0467047C0467047C04653
:103980007047C0467047C04601B401A801B585B074
:10399000FFB408A841464A4653465C4665463EC0C9
:1039A00001A83EC80F98009000230CB401A9FFF7AE
:1039B0001FFC109B12B0184701B401A801B585B0D7
:1039C000FFB408A841464A4653465C4665463EC099
:1039D00001A83EC80F98009000230CB401A9FFF77E
:1039E0003BFC109B12B0184701B401A801B585B08B
:1039F000FFB408A841464A4653465C4665463EC069
:103A000001A83EC80F98009000230CB401A9FFF74D
:103A100045FC109B12B0184701B401A801B585B050
:103A2000FFB408A841464A4653465C4665463EC038
:103A300001A83EC80F98009000230CB401ABFFF71B
:103A400001FC109B12B0184701B401A801B585B064
:103A5000FFB408A841464A4653465C4665463EC008
:103A600001A83EC80F98009000230CB401AAFFF7EC
:103A700077FC109B12B01847027A030052B9427AC1
:103A80007AB1013A42724268111D41600321126805
:103A9000017202E0013A02720268100E12021A600C
:103AA0007047B020FCE7C04600B585B003AB00937B
:103AB0000C2200230021FFF707FC039805B000BD8E
:103AC00010B5FFF7F1FF10BDF0B54E46454657461D
:103AD000DE4640F2000AE0B540F20F0805000E0095
:103AE00040F2070985B03000FFF7C6FF0400B02898
:103AF00000D1C3E003062AD5030042469343DBB25C
:103B0000802B54D0902B3ED0A02B6DD0B02B00D169
:103B10007FE0C02B00D197E003004A469343DBB21D
:103B2000D02B0BD18023024001321B031A43052303
:103B300001212800FFF7CCFD0028D4D00924200063
:103B400005B0F0BCBB46B246A946A046F0BDFF2377
:103B5000820013401F1D03AB9B4600930D220023E0
:103B600000212800FFF7B0FB63063AD4039B9C4674
:103B700067445B460397009300230D220021280031
:103B8000FFF7C8FBAFE7833B03400D2BD6D003AF55
:103B900002400023002128000097FFF795FB002337
:103BA0000D22002128000097FFF7B4FB9BE70402D9
:103BB0003000FFF761FF48F200070443BC42BDD06C
:103BC0004FF6FF7224010023002128002240FFF756
:103BD0007FFD0028B2D1274200D184E740F2010ADC
:103BE00081E7039BDF1BC4E740F6F0724B461100F0
:103BF000834319410A40030702D544F200031A43E4
:103C0000002300212800FFF763FD002800D16AE7A8
:103C100094E7B12846D0B22800D1A2E0B32857D00B
:103C2000FC230340B42B00D188E74A46802302409E
:103C300001321B031A43012101232800FFF748FD2D
:103C4000002800D14FE779E7C6284CD0C7285ED0BE
:103C500003004A469343DBB2C02B6ED0C82873D012
:103C6000C92800D06AE73000FFF706FFF0230203FF
:103C70001B03134042460240013257E753460024DB
:103C8000002B00D05BE703AE0E2200212800009637
:103C9000FFF71AFB00230F22002128000096FFF7F0
:103CA00039FB4CE73000FFF7E7FE0200002800D1A7
:103CB00044E7030041468B43DBB2002B00D03DE7D5
:103CC00000212800FFF704FD002800D10BE735E7AD
:103CD0003000FFF7D1FEF02302031B0313404246DE
:103CE00002400132A6E73000FFF7C6FEF0230203D0
:103CF0001B0313404246024001321A4303230321AF
:103D00002800FFF7E5FC002800D1ECE616E73000BC
:103D1000FFF7B2FE0200002800D10FE70300414682
:103D20008B43DBB2002B00D008E704212800FFF70B
:103D3000CFFC002800D1D6E600E74346A0221C4075
:103D4000013412032243D9E73000FFF795FE4346C2
:103D500002009A43D2B210321840120301300243DB
:103D6000E5E603AB00939B460D22002300212800CB
:103D7000FFF7AAFA3000FFF77FFE030619D57F2769
:103D8000B03C039B3840A0409C4660440390300008
:103D90000734FFF771FE0306F3D47F2340F2042CAF
:103DA0000340A340039A62449B1803935B4600932D
:103DB000E2E60224F1E7C046030000B5DA6C85B004
:103DC00053680800083219020191029269460322E1
:103DD0001B0E0A734B7301A9FFF776FE05B000BDF9
:103DE00010B5FFF76DFE806C10BDC04610B5FFF733
:103DF00067FEC26CD07902308000101810BDC0463A
:103E0000062010B500F042F9012000F0D5FCFFFFBC
:103E1000014B18687047C046A4400020002310B52D
:103E20009A4200D110BDCC5CC4540133F8E710B500
:103E3000884202D98B18984203D3002307E08B5C99
:103E40008354013AFBD210BDCC5CC45401339A4276
:103E5000FAD1F8E703008218934200D17047197035
:103E60000133F9E770B5050079B10C1F2368002B09
:103E700000DAE418280000F053F91C4A13682BB943
:103E800063601460280000F053F970BDA34208D9A4
:103E9000216860188342F3D118685B68411821607B
:103EA000EEE71A005B680BB1A342FAD9116850180B
:103EB000A0420BD120680918501811608342E1D14B
:103EC00018685B68411811605360DBE7A04202D9B3
:103ED0000C232B60D6E721686018834203D1186851
:103EE0005B684118216063605460CBE7B4430020F5
:103EF00070B50E4E0D003168040011B900F08EF857
:103F000030602900200000F089F8431C0AD0032308
:103F1000C51C9D43A84207D0291A200000F07EF856
:103F2000431C01D101256D42280070BDB84300201B
:103F3000F7B50322CB1C9343083306001F000C2B5C
:103F400032D20C27B94231D8334D300000F0E8F8B6
:103F50002B681C00002C2ED139003000FFF7C8FF61
:103F60000400431C1ED12C682500002D4AD1236873
:103F70002900E3183000019300F050F8019B8342C0
:103F800043D123680337FF1A03239F4308370C2FBD
:103F900000D20C2739003000FFF7AAFF431C34D0B1
:103FA0002368DF19276013E0002BCBDA0C230025F0
:103FB00033602800FEBD2268D11B20D40B2917D9FD
:103FC000E2192760A34211D12A606368116053602F
:103FD0003000250000F0ACF807220B35231D954377
:103FE000EA1A9D42E5D05B1BA350E2E75A60ECE77A
:103FF0006268A34201D12A60EAE75A60E8E7230039
:104000006468A7E72C006D68AFE70C2330003360CD
:1040100000F08EF8CDE7C046B4430020002370B511
:10402000054D040008002B60FEF782FE431C02D100
:104030002B6803B1236070BDBC43002070B5040041
:104040000D001F2904D9162303600120404270BDD2
:10405000436C1BB18A009B181A6842B9200000F01B
:1040600031F82A000100200000F01AF8EFE70020E4
:10407000012AECD0511C03D1162301302360E6E75E
:10408000002428001C6090472000E0E710B5034B97
:1040900001001868FFF7D2FF10BDC046A440002001
:1040A000002370B5064D0400080011002B6000F0DD
:1040B00079FB431C02D12B6803B1236070BDC0465D
:1040C000BC43002010B500F063FB10BD0023C25CB0
:1040D0000133002AFBD1581E7047FFFF00B59BB08B
:1040E00000910491064905910291064903916946A0
:1040F00000F088F80023009A13701BB000BDC04682
:10410000FFFFFF7F0802FFFF10B513000A00010048
:1041100002480068FFF7E2FF10BDC046A44000203F
:1041200010B5024800F0E6FA10BDC046C0430020BA
:1041300010B5024800F0DFFA10BDC046C0430020B1
:10414000F0B58E6885B007000C00039201939E4283
:104150003CD840F280438A891A4234D009692368E6
:1041600060695B1A029303234343DD0FED18019B43
:10417000029801331B186D10AB4200D91D00530586
:1041800032D529003800FFF7D3FE060048B90C23CA
:104190003B6040230120A28940421343A38105B024
:1041A000F0BD029A2169FFF739FEA389144A1A402B
:1041B00080231343A381029B2661F6182660656164
:1041C000019EED1AA560019B9E4200D9019E32001E
:1041D00003992068FFF72BFEA36800209B1BA360B8
:1041E00023689E192660DAE72A00380000F08FFA6B
:1041F00006000028DFD138002169FFF733FEC6E74B
:104200007FFBFFFFF0B5A1B003901D008B890F006D
:1042100016001B060FD50B696BB94021FFF788FE0E
:104220003860386128B90C23039A0138136021B033
:10423000F0BD40237B61002308AC636120336376CB
:104240001033A376079535002B780BB1252B47D17A
:10425000AB1B0593B5420CD0320039000398FFF731
:104260006FFF431C00D1B0E06269059B9446634434
:1042700063612B78002B00D1A7E00122002352427A
:10428000626004A9543252186E1C2360E360A3607C
:104290001370A36505223178544800F02DFA751C7F
:1042A00000BB2268D30604D5532304A95B18202140
:1042B0001970130704D5532304A95B182B21197017
:1042C00033782A2B17D03500002140F20A0C012642
:1042D000E3682A78681C303A092A4BD989B917E073
:1042E0000135B1E7414B2268C01A012383401343D3
:1042F0002E002360CEE7079B191D1B680791002B3A
:1043000001DB0B9304E05B42E36002231343236071
:104310002B782E2B0AD16B782A2B34D1079B0235B0
:104320001A1D1B680792002B2ADB0993304E0322CB
:104330003000297800F0E0F930B14023801B834041
:1043400022680135134323602978062229486E1C10
:10435000217600F0D1F900283FD0274B4BBB072234
:10436000079B07339343083307936369049A9B18A9
:10437000636168E761464B43050031009B18A8E77D
:1043800001235B42D1E7002340F20A0C1A00012608
:10439000013563602978681C3039092903D9002B5D
:1043A000C4D00992C2E763465A430500330052184D
:1043B000F0E707AB00933A002100104B039800E0B0
:1043C00000BF0490049B0133CFD1BB890D985B06DD
:1043D00000D42CE70120404229E707AB00933A00C4
:1043E0002100064B039800F079F8EAE7704A0000D4
:1043F000764A00007A4A00000000000041410000B7
:10440000F7B5150001938A680B690C000090934280
:1044100000DA130022002B60433212780AB1013314
:104420002B6023689B0602D52B6802332B60226821
:10443000062317001F401A4227D0230043331B785E
:104440005A1E93412268920630D4220001990098A6
:10445000089E4332B047431C25D0062320682A68B3
:10446000E16800250340042B03D18D1AEB43DB17D1
:104470001D40A3682269934201DD9B1AED180027B5
:10448000BD4220D1002010E00137E3682A689B1A62
:10449000BB42D2DD2200012301990098089E193207
:1044A000B047431CF0D101204042FEBD3020E1184E
:1044B0004331087021005A1C45310978A218433253
:1044C00002331170C1E72200012301990098089E70
:1044D0001A32B047431CE6D00137D1E7F0B50E00E1
:1044E00089B00492039005930C00097E0E9A43361E
:1044F000782907D8622909D8002900D1BCE05829B9
:1045000000D184E025004235297022E0080063389C
:104510001528F7D800F032F916001F00F6FFF6FF55
:10452000F6FFF6FF1F00F6FFF6FFF6FFF6FFA3000B
:1045300034009200F6FFF6FFB400F6FF3400F6FFF9
:10454000F6FF9600250013684235191D1B6811609F
:104550002B700123A1E013682068191D050609D5F9
:104560001B681160002B02DA2D225B4232700A2296
:104570005E4914E01B6811604006F3D51BB2F1E7F9
:1045800013682568181D10601B682F063BD56F291E
:1045900062D00A225549200000254330057060682A
:1045A000A060002803DB04252768AF4327600BB910
:1045B000350060B13500B3FBF2FC60465043181A79
:1045C000085C013D2870180063468242F3D9082A2E
:1045D00009D12368DB0706D563682269934202DCB0
:1045E0003023013D2B70761B2661059B2100009333
:1045F0000398049B07AAFFF703FF431C51D1012036
:10460000404209B0F0BD6D06C1D59BB2BFE72300A3
:104610004533197035491068256808C810602F06A1
:1046200016D5EA0702D52022154325601022002B5B
:10463000B1D12020256885432560ACE7202321687F
:104640000B43236023007821453319702849E2E7A2
:104650006F06E6D59BB2E4E7082224499BE713687E
:104660002568181D616910601B682F0601D5196047
:1046700002E06D06FBD51980002335002361B4E705
:104680001368191D11601D6800212800626800F080
:1046900033F808B1401B6060636823610023337006
:1046A000A3E72A00236904990398059DA847431CA2
:1046B000A5D023689B0716D4079BE0689842A0DA30
:1046C00018009EE72200012304990398059E1932E1
:1046D000B047431C00D192E70135E368079A9B1A63
:1046E000AB42EFDCE8E70025F7E7C046814A00006F
:1046F000924A000070477047C9B28218904201D1B7
:104700000020704703788B42FBD00130F6E7F7B505
:1047100007000E00140029B91100FFF709FC05007D
:104720002800FEBD1AB9FFF79DFB2500F8E700F051
:104730001CF80190844203D835004308A342EFD30C
:1047400021003800FFF7F4FB05000028E8D0019BAA
:1047500022009C4200D91A0031002800FFF75EFBBE
:1047600031003800FFF77EFBDAE70B1F1B68181FCC
:10477000002B01DA0B58C0187047FFFF03B47146D5
:10478000490840004900095E49008E4403BC704757
:1047900044F2BC3358220120C2F2000340421A60A6
:1047A0007047C04644F2BC3358220120C2F20003D5
:1047B00040421A607047C046FEE7C0464275696CC9
:1047C0007420776974682052656E65736173204147
:1047D0006476616E63656420466C657869626C65B9
:1047E00020536F667477617265205061636B6167F7
:1047F000652076657273696F6E20332E362E300019
:10480000332E362E3000000000000603F8B5C046F7
:10481000F8BC08BC9E467047F8B5C046F8BC08BC5A
:104820009E4670476C6567656E642D746563680AA3
:104830000000000068656C6C6F20776F726C640A12
:10484000000000004653505F5355434345535320E7
:104850003D3D206572720000766F69642068616C6E
:104860005F656E7472792829000000002E2E2F7368
:1048700072632F68616C5F656E7472792E637070FD
:1048800000000000256C640A00FFFFFF4842002082
:10489000744900000C4A0000020C0D0E0F020202C7
:1048A0000200000001000000C0480000D8480000DD
:1048B0002506000000000000BC480000000000FFCA
:1048C0007C420020CC480000444A00008040002088
:1048D000D44800000DFFFFFF84420020E4480000A0
:1048E000444A000090400020EC4800000CFFFFFF0D
:1048F0000902000002040005000602070000000093
:1049000000000000A50600000000000010490000A3
:1049100000010000A04000200F00FFFF0000000089
:10492000FFFF000002000000DF6F00000000000039
:10493000EF37000004FFDF0000000000000000006F
:1049400044490000000001000000000000000000D9
:104950000000000000000000000000000000000057
:10496000000000000000FFFFDFDF0000000000008B
:10497000000000000E0000007C490000000001065D
:10498000010100000080000003010000000001039D
:104990000401000000000100080100000000010502
:1049A00009010000000001050A01000000000104E7
:1049B0000B010000000001050C02000000000105D1
:1049C0000D020000000001000003000000000104CF
:1049D00001030000000001040203000000000107C1
:1049E0000004000000000107010400001411111070
:1049F0001E1C1E1A070404041D1B1C190F080606A2
:104A00000A00000000000000000000002D1A000055
:104A1000D1170000451A0000511A00009918000033
:104A2000E9180000E5180000D9170000351800004B
:104A30005D18000081180000C5180000FD17000077
:104A4000151800002128000001290000B9260000E7
:104A50006127000081270000592700005D27000022
:104A6000A1270000ED27000001000200080010004F
:104A7000232D302B2000686C4C0065666745464747
:104A800000303132333435363738394142434445CA
:104A90004600303132333435363738396162636439
:084AA000656600FF0000000044
:104AA80074B20181B0AB3080000000008008018141
:104AB800B0B0ABF0000000003F020181B0AB308025
:104AC8000000000080040181B0B0ABF000000000DD
:104AD80078BAFF7F01000000E4BAFF7FB0B0A88079
:104AE8003CBBFF7F0100000044BBFF7F03A902809D
:104AF800ACBBFF7F01000000B8BBFF7FB0B0AA804D
:104B08007CBCFF7F00840280ACBCFF7F01000000FA
:104B1800C0E4FF7FB0A9028058E5FF7FB0B0A8804D
:104B2800ACE5FF7F01000000B8E5FF7FB0B0AA80C8
:104B3800E8E5FF7F6CFFFF7FACE6FF7F0100000028
:104B4800A8E6FF7FAA3F3980F4E6FF7FB0B0A880CF
:104B580000E7FF7FB0B0AA803CE7FF7FB0B0A88035
:104B68004CE7FF7F0100000048E7FF7FB0B0A88056
:104B780050E7FF7F01000000E0E7FF7FAA0FB28047
:104B880048E8FF7F28FFFF7F1CEBFF7FB0B0A880BD
:104B980038EBFF7F24FFFF7F94EDFF7F01000000CB
:104BA80000EFFF7F0084048010EFFF7FB0B0A88083
:104BB80010EFFF7F10FFFF7FF8F1FF7F0084048074
:104BC80018F2FF7FB0B0A88030F2FF7F010000002C
:104BD80000001008000000000000000000000000B5
:104BE80000000800000000000000000000000000B5
:104BF80040000C00A8400020000000000000000059
:104C0800000000000000000000000000000000009C
:104C1800000000000000000000000000000000008C
:104C2800000000000000000000000000000000007C
:104C3800000000000000000000000000000000006C
:104C4800000000000000000000000000000000005C
:104C580000000000000000002D0500000105000014
:020000040101F8
:10001800FFFFFFFFFFFFFFFFFFFFFFFFFFFFFFFFE8
:0C002800FFFFFFFFFFFFFFFFFFFFFFFFD8
:0400000300002D7953
:00000001FF
