:1000000020470020CD15000075140000C915000020
:10001000C9150000C9150000C9150000C915000068
:10002000000000000000000000000000C9150000F2
:10003000C915000000000000C9150000C915000026
:10004000000000006D0A0000510B0000C90B000009
:10005000D1090000000000000000000000000000C6
:10006000410C000000000000000000000000000043
:100070000000000000000000000000000000000080
:100080000000000000000000000000000000000070
:100090000000000000000000000000000000000060
:1000A0000000000000000000000000000000000050
:10040000FFFFFFFFDFCEFFFFFCFF0F00FFFF0F002E
:10041000FCFF0F00FFFF0F00FCFF0F00FFFF0F00AE
:10042000FCFF0F20FFFF0F20FCFF7F40FFFF7F40FE
:10043000FCFF0D40FFFF0D40FFFFFFFFFFFFFFFF31
:10044000FFFFFFFFFFFFFFFFFFFFFFFFFFFFFFFFBC
:10045000FFFFFFFFFFFFFFFFFFFFFFFFFFFFFFFFAC
:10046000FFFFFFFFFFFFFFFFFFFFFFFFFFFFFFFF9C
:10047000FFFFFFFFFFFFFFFFFFFFFFFFFFFFFFFF8C
:10048000FFFFFFFFFFFFFFFFFFFFFFFFFFFFFFFF7C
:10049000FFFFFFFFFFFFFFFFFFFFFFFFFFFFFFFF6C
:1004A000FFFFFFFFFFFFFFFFFFFFFFFFFFFFFFFF5C
:1004B000FFFFFFFFFFFFFFFFFFFFFFFFFFFFFFFF4C
:1004C000FFFFFFFFFFFFFFFFFFFFFFFFFFFFFFFF3C
:1004D000FFFFFFFFFFFFFFFFFFFFFFFFFFFFFFFF2C
:1004E000FFFFFFFFFFFFFFFFFFFFFFFFFFFFFFFF1C
:1004F000FFFFFFFFFFFFFFFFFFFFFFFFFFFFFFFF0C
:1005000010B544F22814C2F20004237863B940F213
:100510000003C0F200032BB143F2F040C0F2000030
:1005200000E000BF0123237010BDC04640F200036D
:10053000C0F2000310B54BB144F22C1143F2F0406D
:10054000C2F20001C0F2000000E000BF10BDC046D2
:1005500010B500F01FF800F03FF8FEE700B583B0DB
:1005600040B94CF2000390220121C4F27E03995459
:1005700003B000BD0228FBD143F20C3344F24C100F
:10058000C0F200035B68C2F200001900019300F0A2
:10059000ADFCEDE743F2183144F2541010B5C0F24F
:1005A0000001C2F2000000F043F844F24413C2F22A
:1005B0000003186000B910BD43F2BC2343F2F822D7
:1005C00043F2E4202A21C0F20003C0F20002C0F28C
:1005D000000000F01BFFC0467047C04644F24813BD
:1005E0000122C2F200031A707047C04610B5FFF72F
:1005F000AFFF002010BDC046F0B50400806A85B092
:100600008C4601AD90B12B000200C2CAC2C3636820
:100610001B78036063460371E36A8360636A9847EB
:10062000A36A0BB107CD07C305B0F0BD2800EEE704
:1006300040F22072F0B545465746DE464E46C0F2BF
:1006400040029446E0B50B780F6963441B021A1D03
:1006500004000D00904687B0002F00D191E1802268
:10066000796812050B6838681A6042469A60BB6860
:100670001B6898470600002800D07AE16B6973B1C7
:100680008020596800030A6810604046506018686E
:100690009B681B6898470600002800D08EE140F256
:1006A0002072C0F2400294462B7863441B02AA6970
:1006B00065606262EA69A360E2620022A2626B7A0C
:1006C0009C46002B00D06FE1B82008211026EB7A61
:1006D0006F7B2A6A3F035B003B43AF7A15783B434D
:1006E0000DB1B120084351787027CD01A8434D00CA
:1006F0004901294301430191D0789578BB43854056
:10070000029511791F00000131B102394B1E994148
:100710000F23494299433031537923B1012B00D142
:1007200051E101231E4393790393137A9B071B0F17
:10073000034360463B43002800D039E1507A4EF233
:1007400000070490907A3B430590D07A8346EFF3FC
:10075000108A012080F3108846F6FC70C4F2040071
:10076000476840F21309B84667683F78BC464F4671
:1007700065467F1BB94601274D46AF40B9464746FF
:100780004D46AF43476040688AF3108840F2000846
:10079000A068F6B2C5784546C5706D462D799BB206
:1007A00005706D462D7A45708170D2794EF2001138
:1007B0008272049ACEF200010273059A8C4642734B
:1007C0005A468273C67303822023039A6668C25412
:1007D0000223F35640F200359A0892009444624690
:1007E0005259B079914603221A40D2009046FF2216
:1007F000414617008F40B8468001104088404F4660
:10080000414644F2DC188F436146C2F20008384387
:100810004851414646F2000C980044501800C4F27A
:10082000000C6146C03080004158684F394089460D
:1008300061464F4647501F20012118408140080063
:100840004EF20011CEF20001894640F280175B099A
:100850009B004B44D85118600123F3569808800040
:1008600081444946495970798B4603211940C90092
:100870008A4680011040574688401100B9408A4698
:1008800059465746B943084349464851414698009E
:10089000445018006146C030800041584B4F3940E9
:1008A000894661464F4647501F200121184081402C
:1008B00008004EF20011CEF20001894640F2801786
:1008C0005B099B004B44D85118600423F3569808E9
:1008D0008000814449464959307A8B4603211940AA
:1008E000C9008A4680011040574688401100B9402F
:1008F0008A4659465746B9430843494648514146F6
:10090000980044501900C031880061462F4F41586B
:100910003940894661464F4647501F2101271940FB
:100920008F404EF20011CEF200018C4640F2801052
:100930005B099B0063441F501F600327F757032187
:10094000B80880006044435939409C46F379C90097
:100950009B0113408B408A40614691430B434351B6
:100960004346BF00FC5045F249030026C5F253231D
:100970002360300007B0F0BCBB46B246A946A04693
:10098000F0BD4A69002A00D191E680205168000339
:100990000B68186040465860936810681B68984759
:1009A00006000028E5D17AE6B020002100268EE678
:1009B000002040F2000B05900490C8E6BB68386840
:1009C0001B6A9847D5E703231E43ACE6FFFFFEFFF3
:1009D00030B5EFF30383103B5BB21A0046F200011F
:1009E000C032C4F20001920050581F4C9B002040BE
:1009F000505044F2DC12C2F200029B589A69D96945
:100A00008A4219D0186930B320241C5D0F2C09D9F3
:100A100099684C6891000C50D96901329A618A42F8
:100A20000AD030BD072C19D8996809798154D96941
:100A300001329A618A42F4D103221F215B689A56DF
:100A40001140530901228A404EF200119B00CEF260
:100A500000015A50E5E798684068DEE79C68A58881
:100A600054000553D9E7C046FFFFFEFFF0B5C64668
:100A700000B5EFF30383103B5BB21A0046F20001AE
:100A8000C0329200C4F200015058304D9B00284003
:100A9000505044F2DC12C2F200029B585868026ABD
:100AA000002A2ED05678DC695A69012E16D094425D
:100AB0000BD0D96841B32020185C0F2808D99400C6
:100AC00098686158416001325A6180BCB846F0BDF7
:100AD00007281CD8895C98680171F4E7671EBA4240
:100AE0001AD001690029E2D0032545571F2028406C
:100AF00086404EF200106909CEF2000089000E50C7
:100B0000D5E75A69DC69D2E798684160DBE75000B5
:100B1000415A98688180D6E7C07840B20700804685
:100B2000C037BF00785805407D5040461F21014026
:100B30008E404EF20011CEF200018C4640F2801140
:100B400040098000604446500660B0E7FFFFFEFFAA
:100B500010B5EFF30383103B5BB21A0046F20001BD
:100B6000C032C4F2000192005058164C2040505040
:100B700044F2DC129900C2F2000288588268D278EE
:100B8000920704D54268527A012A00D010BD1F2175
:100B90005A090B401E39994013004EF200142033BD
:100BA000CEF200049B001951BFF34F8FBFF36F8F3C
:100BB0004021826813788B4313703F39FFF71CFD87
:100BC000E4E7C046FFFFFEFF70B5EFF3038444F295
:100BD000DC134021103C64B2C2F20003A200D658DC
:100BE000B3681A788A4300211A70DA78D970D5B2BE
:100BF000130710D4EB0714D414232B40142B18D054
:100C000046F20003C034C4F20003A400E2580B49CA
:100C10000A40E25070BD30000531FFF7EDFCEB07F4
:100C2000EAD504213000FFF7E7FC14232B40142BF6
:100C3000E6D108213000FFF7DFFCE1E7FFFFFEFF10
:100C400070B582B0EFF3038344F2DC12103B5BB269
:100C50009900C2F200028D58002246F20001C03312
:100C6000C4F20001C4F208029B001479074E5858E0
:100C700030405850E343DBB213716B686846DA6862
:100C800001949B680092984702B070BDFFFFFEFF81
:100C90000023036000207047FF2010B540F60004D9
:100CA0000B0A084019010918C4F2040489000B5901
:100CB00000209B07DB0F137010BDC0460023C4F259
:100CC00004039C46090A490161444B6800201380D3
:100CD0007047C0460020C4F2040084461800090A88
:100CE00090430004134049010343614400208B609A
:100CF0007047C046FF2001230840834052B91B04BF
:100D00000022C4F204029446090A49016144002009
:100D10008B6070474FF6FF721340F1E70020C4F27A
:100D2000040084461800090A490110B561440C68A2
:100D300010402043934398430860002010BDC046F4
:100D40000023C4F204039C46090A490161444B682C
:100D500000201B0C138070470020C4F2040084465E
:100D60000B0A5B0163445868FF231940FE3B8B402C
:100D7000000C99B203405B1A59424B41002013709A
:100D80007047C0460020C4F2040084461800090AD7
:100D90009043000413404901034361440020CB60A9
:100DA0007047C046062070470B0A10B55B01012A48
:100DB00010D00022C4F204029446FF208022014099
:100DC00052028A406344DC682243120C1204002061
:100DD000DA6010BD0020C4F204008446FF20014008
:100DE0008A4011004FF6FF726344DC6811402143D2
:100DF0000A40ECE7F0B5DE4657464E464546E0B5BC
:100E000083B0EFF31082012383F3108844F2D813E8
:100E1000C2F2000301931B6833B940F60051C4F2DB
:100E20000401CB704033CB7001990B6801330B6028
:100E300082F3108803889A46BBB3802340F60005EE
:100E40005B029946284B002240F2FF089C4641680D
:100E5000C4F204050AE043461E4023019B190132F7
:100E60009B0092B25851083192451ED04B468E8855
:100E70000868340A1842EED043461E4023019C19EC
:100E8000A700644600977F599B1927403C00009FAC
:100E900001327C51674607403C00009F9B0092B2A4
:100EA0007C51083158519245E0D1EFF31082012373
:100EB00083F31088019B1B681BB101990B68013BF0
:100EC0000B60019B1B6833B940F60051C4F204016A
:100ED000CB708033CB7082F3108803B0F0BCBB467C
:100EE000B246A946A046F0BDFFFFFEFF45F25423DF
:100EF00010B5C5F24F0303600800FFF77BFF002029
:100F000010BDC04610B50800FFF774FF002010BDEB
:100F1000F0B5EFF31084012383F3108844F2D81363
:100F2000C2F20003186830B940F60055C4F2040557
:100F3000E8704030E87018680130186084F3108859
:100F4000D00321D4FF24080A0C40010140F6000020
:100F50000919C4F2040089000A50EFF3108201213C
:100F600081F31088196811B11968013919601B687B
:100F700033B940F60051C4F20401CB708033CB701A
:100F800082F310880020F0BDFF2440F60005080A17
:100F90000C4001010819C4F2040580004759034EB2
:100FA0003740164047514651D0E7C046FFFFFEFF8D
:100FB00070B5042482B001910092045746F20002F9
:100FC0002500C035C4F20002A90088581F4E3040E9
:100FD0008850895845F2004048F20002C905C90D01
:100FE0001143C4F20000C2898A42FCD0082244F2B4
:100FF00000010270019AC2F200012AB3A2008858CF
:10100000019C4460009810B18858009C84603F2087
:101010008958CA788243802A14D002B9CB8145F21C
:1010200000431822C4F200031A7046F20002802125
:10103000C4F20002AD00A858490401430020A950A1
:1010400002B070BD8B81EAE7A200DBE7FFFFFFFE85
:101050000620704706207047042346F200028021D4
:10106000C356C4F20002C0339B00985849040143A0
:10107000995000207047C046042346F20002C35630
:10108000C4F20002C0339B009958024801409950B5
:1010900000207047FFFFFFFE042244F2000310B55A
:1010A0008256C2F200039200D25800233F200B6008
:1010B0004B60D37883434BB1C1308860D489013809
:1010C0002040C860802B07D0002010BD80235B0229
:1010D0008B60D389CB60F7E780235B020B60938939
:1010E0004B60F1E7042330B5C35646F200011A0005
:1010F000C032C4F2000192005458064D9B002C40AF
:10110000545044F200020021C2F2000299500160E2
:10111000002030BDFFFFFFFEF8B544F29413CE4629
:101120004746C2F200031A7880B581460F00002AB4
:1011300039D07B681B785BB2002B59DB44F2000589
:101140009E00C2F20005AA5908201AB1C0BCB946D7
:10115000B046F8BD4A4613713B683F219C46F730C4
:10116000DA781F008A433AB1DA8990464446D2B20F
:10117000044012022243DA81BA7810338A43002AEB
:10118000EED145F200430832C4F200031A70624601
:10119000AA5118221A7044F200334A46C4F254434A
:1011A00000201360D2E701261E70EFF3108186F352
:1011B00010884EF20003C4F20103DA690D480240C0
:1011C000DA61DB6981F3108844F20005C2F20005A0
:1011D00080220021280001F054FA45F20043C4F2B5
:1011E00000035D601E737B681B785BB2002BA5DA81
:1011F0000B20ABE7FFFFBFFFF0B5C646042300B5E9
:10120000C356C022984646F200034244C4F200038B
:1012100094469200D058204C2040D050D25845F2ED
:10122000004048F20003D205D20D1A43C4F2000078
:10123000C3899342FCD00B003F24FF26DA781D00BF
:10124000A2432AB1DF89F8B2020237403A43DA8179
:10125000AA781033A243002AF0D145F200430832A5
:10126000C4F200031A70404644F200028700C2F242
:101270000002B95018221A70624646F20003950027
:101280008022C4F20003E95852040A430020EA50C5
:1012900080BCB846F0BDC046FFFFFFFE4EF2000323
:1012A000262244F21411C4F20103985C1B6A8000E8
:1012B000C2F2000141585B015B0F44F26822D94041
:1012C000C2F20002116070474EF2000340F2FE329B
:1012D0004B49C4F2010370B599524CF20002002050
:1012E00043F6C871C4F27E02505444F2141446F618
:1012F0000042C2F20004C0F2DC22226041F200226D
:10130000C0F27A02626048F2000242F20041A2603A
:1013100022612622C0F2F401E160995C1A6A890018
:1013200061585201520F44F26825D14040F21342F5
:10133000C2F20005296098540921A222995440F272
:101340008042995C002953D04EF20003002240F203
:101350008141C4F201035A5401395A54A0329A5CB3
:10136000CAB136229A5C1AB93C215A5CD207FCD524
:101370004EF20002A021C4F20102535CDB06D80F3A
:10138000002BFADB50544EF20002A021C4F20102FD
:10139000535CDB06FCD44EF2000200213623C4F27B
:1013A0000102D1543C31535CDB07FCD501213123D0
:1013B000D1544FF6C473C4F27E0319700020262363
:1013C000D0540130FF301062D05C136A8000205886
:1013D0005B015B0FD84040F2FE3328600948D052D1
:1013E0004CF2000343F6C872C4F27E03995470BDF8
:1013F000013140F2C440995400F00EF8A4E7C04611
:1014000003A5FFFF00A5FFFF7047C04600BEFEE733
:1014100001380028FCD1704744F268224CF60023C2
:101420004143C2F2000270B51468C3F69A330D004E
:10143000B3FBF4F4080040F2E8320023002100F08E
:101440006DF931B9B0FBF4F0800808B1FFF7E0FFA7
:1014500070BDA000B5FBF0F040F2E832002300219F
:1014600000F05CF90029F0D001204042FFF7D0FFE6
:10147000EEE7C046F8B546F2000340F2401244F2EF
:10148000981500240127C4F200039E5AC2F20005F9
:10149000B6B23300E340E0B21F4202D02B6803B182
:1014A000984701340435102CF3D146F2000340F282
:1014B0003012C4F200039E52F8BDC04646F200004E
:1014C0000023C4F2000043F2F032C0F200029A1886
:1014D00011781A00C032920001331150202BF2D142
:1014E0007047C04670B5EFF31081012383F3108875
:1014F00044F25C234000C2F200031A5A1AB11A5A8D
:10150000013A92B21A521B5A83B94EF2000240F2CB
:10151000FE3543F26C44C4F20102565B054BC0F247
:101520000004205A334383439BB2535381F3108802
:1015300070BDC04600A5FFFF70B5EFF31081012319
:1015400083F3108844F25C224000C2F20002135A76
:1015500083B94EF2000443F26C4540F2FE36C4F209
:101560000104C0F20005A35B2D5A2B434AF200553B
:101570002B43A353135A01339BB2135281F31088A8
:1015800070BDC04644F26422C2F20002030010683B
:1015900010B558B1032103338B4344F22031C318F3
:1015A000C2F200018B4207D8136010BD44F2203014
:1015B000C2F200001060EDE701F054F80C23036064
:1015C00001204042F1E7C04600BE704710B500F070
:1015D00003F8FFF70BF8FEE740F200034EF6005267
:1015E00070B5CEF20002C0F2000382B0936000201A
:1015F000FEF7B4FFFFF768FE6B460026DC1D267081
:1016000001202378FFF798FFEFF31081012585F380
:10161000108846F6FC73C4F204039A683D48024001
:101620009A609A6881F3108840F60001C4F20401C0
:101630000A68D207D20F22700A68D207D20F22702E
:101640000A68D207D20F2270EFF3108185F3108859
:1016500080229868520502439A609B6881F3108843
:101660000120FFF73FFF0120FEF778FF40F600530F
:10167000294AC4F200039E801A8044F22032C2F24A
:1016800000029A6044F22072C2F20002DA6046F26E
:10169000000240F2201141F20000C4F20002505258
:1016A00044F21C3244F22810C2F20002C2F20000DE
:1016B0009D800021121A00F0E4FF44F2800044F201
:1016C000141243F20461C2F20000C2F20002121AC4
:1016D000C0F2000100F0CCFF44F20C1544F21013EC
:1016E000C2F20005C2F200035B1B9E10002B05DD59
:1016F000002408CD01349847A642FADCFFF7CEFD5E
:101700000220FEF72BFFFFF7D9FE0020FFF77CFE3B
:1017100002B070BDFFFFFFEF00A5FFFFF0B54FF671
:10172000FF75CE46474699462B0015400E0029000E
:101730000340140C80B50700000C59434543634334
:1017400060435B190C0CE4188C46A54203D9802336
:101750005B0298464044230C61461B1820044FF658
:10176000FF740C40494679437243C918001989181F
:10177000C0BCB946B046F0BD03685A0004D580220B
:1017800012061343C01870475B005B08FAE7C046B7
:10179000F8B557464546DE464E469046E0B507004A
:1017A00021B34B1E9A46994640F2000B5B464B44D0
:1017B000DC0FE4186410E5007E193000FFF7DCFF51
:1017C000A2450CD040450CD8280008303818FFF747
:1017D000D3FF013840450AD2631C9B46E6E74045EB
:1017E00005D9A34502D0631E9946DFE700263000E5
:1017F000F0BCBB46B246A946A046F8BD030001288E
:1018000004D002280CD000202BB1704741F60D7097
:10181000C0F20000F9E741F60170C0F20000F4E701
:1018200041F61970C0F20000EFE7C04640F2000335
:1018300030B5C0F20003050083B08C1E2BB320002E
:1018400001A900E000BFE0B101992200FFF7A0FF6D
:101850000400B0B1FFF790FF6368A864012B30D09B
:10186000201D002B29DBFFF787FF0023E8642B6591
:101870000368002B15DBFFF77FFF2861002003B012
:1018800030BD002309202B61F9E743F2046343F2E2
:101890002450C0F20003C0F200001B1AD9100191BD
:1018A000D3E71801000FFFF7A9FF2861431E9841F5
:1018B0000823404298430930E1E70123E8642B659F
:1018C000D6E7002305202B61D9E7C046036810B591
:1018D0000400DA0705D49B070AD5483000F06EFCF7
:1018E00023685A070AD51A070FD5DB0615D510BD90
:1018F000483000F05FFC23685A07F4D42000D03051
:1019000000F060FC23681A07EFD420005130FF304C
:1019100000F05CFC2368DB06E9D42000D130FF3006
:1019200000F058FCE3E7C046092070470300006858
:1019300000B1C0187047C0467047C04670B504007B
:101940000D002000296CFFF771FF88B92B6C2A006D
:10195000636121000120236998470828F1D00728F6
:1019600006D10020296CFFF7E7FF281D00F00CFCD2
:1019700000F070FEF0B5CE46474680B5C3682F4CE8
:101980009846A5448369040016000431402205A846
:10199000994600F06DFE0023049324E0149B40F26E
:1019A000E012636104A97CA8039300F061FE2100AA
:1019B000280023697CAA98478A9B05000393159306
:1019C0004B46019304AB0093220023003100012019
:1019D000C04708BB40F2E0127CA904A800F048FE12
:1019E0000026082D21D1149B200019000393FFF736
:1019F0001DFF09360700F5B20028CFD0129B102139
:101A0000039315934B46019304AB009322002300EC
:101A100001202943C04700B10927380040F2D433E0
:101A20009D44C0BCB946B046F0BD072DF4D130008E
:101A30001499FFF781FF05A800F0A6FB2CFCFFFF1F
:101A4000406C704770B5CB6BFAB00B6405000E00AC
:101A50004022043103A800F00BFE01235B420293F5
:101A600006E029002B6902AA9847040008280AD139
:101A7000129B280019000193FFF7D8FE0028F0D030
:101A800009207AB070BD02A8FFF720FF062CF7D11D
:101A900031002800FFF752FF10B58261DA6BC16098
:101AA0001A6419000022FFF765FF10BD436970B585
:101AB0000B64C36804000D009BB90A002369010090
:101AC00002209847072805D008280FD129002000B8
:101AD000FFF734FF0020296CFFF72EFF281D00F0D0
:101AE00053FB0122FFF746FF00F0B4FD00F0B2FD0A
:101AF000C36810B52BB1CB6B00220B64FFF73AFF24
:101B000010BDFFF79FFFFBE77047C04683680100E9
:101B100010B50BB10120984710BDC046012914D063
:101B200009D883B90F2A0ED8920082185268009BF8
:101B300000201A6006E001200339C9B288428041C2
:101B40004042013070470220FCE70120FAE7C0461E
:101B500000B585B003AB0A00009300210023FFF716
:101B6000DDFF039805B000BD012914D009D883B961
:101B70000F2A0ED8009B92001B6882185360002029
:101B800006E001200339C9B2884280414042013059
:101B900070470220FCE70120FAE7C04600B585B097
:101BA00003AB039200930A0000230021FFF7DCFF40
:101BB00005B000BD70B51A4CD36BA5441364050085
:101BC0000C0019A8111D402200F052FD01235B42B8
:101BD000189313E00C2118A802AAFFF7DFFF2100D9
:101BE00018A8A84790B9069B18AA02A90830019323
:101BF0009847060005280AD0092807D0289B02A884
:101C000019000193FFF712FE0028E3D0092618A857
:101C1000FFF75CFE300040F240239D4470BDC0469B
:101C2000C0FDFFFFF0B557469246032245464E469B
:101C3000DE4699461300E0B58846CD6C494689B02A
:101C40000340009308CD0695002900D181E01A0CCD
:101C50001B040593022304A90B73FD3313409B005F
:101C60004A73ED18009B022B01D143469D6B4346FE
:101C70001B6DDB070ED5504605A900F04FFB08B9D8
:101C8000082000E0092009B0F0BCBB46B246A946D6
:101C9000A046F0BD2F68002FEDD00823034002932B
:101CA0000023544640F2010B4646BA4601934B4688
:101CB000022B4BD02B886F889A4604355A463B003E
:101CC0009343B26C0F21904620009844FFF740FFE9
:101CD0000023804506D853465A46934343449842CE
:101CE0009B415B4202227F001740594652460A4000
:101CF0001743012F32D0022F4DD0002FC2D1009AAE
:101D000012B1002B00D09AE004352B689A46002BC4
:101D1000CDD1200005A9A24600F000FB0028B1D1DA
:101D2000019B002BACD00F215046FFF711FF0E2175
:101D300002005046FFF732FF40F2000250460F21EA
:101D4000C0F20002FFF72AFF07209CE76F68083502
:101D5000B4E71B02059304AB9A8183E7009A002A3B
:101D600045D1B3B12B68DF0F6B689A1C00D189E7AE
:101D7000320058320492013300D1B1E0281DFFF740
:101D8000D5FD3A00010004AB300000E000BF0028A0
:101D900069D10835B9E72A68009957007F0859B911
:101DA0001BB1029B002B71D0E7B3002A00DA043587
:101DB0000137BF00ED19A8E7336A0D2120009846CE
:101DC000FFF7C6FE804501D02A68EEE7B36A9D4260
:101DD000FAD10023F362043333632B1DB7627363BC
:101DE0002B68002B00DA85E001230193E0E70D2149
:101DF0002000376AFFF7ACFE8742CAD1B36A9D4222
:101E0000C7D1B046A2462800FFF7B6FC0F2102005A
:101E10005046FFF7C3FE504642460021FFF7BEFE84
:101E2000072030E7B046A2460D215046FFF790FE4E
:101E30004346049A18625A6206209D6223E72800EE
:101E4000FFF79AFC0435A246B5630400300000E0B9
:101E500000BF002800D115E7504622000F21FFF7F0
:101E60009DFE07200FE7A2460D2104005046FFF714
:101E70006FFEB04633003062022C37D1049A2C3307
:101E8000F2627362434606209D62FCE640F2580C03
:101E900040F2000821004A462B1DB444A9461C000C
:101EA0003D008A4647460392E0460DE04346200047
:101EB0000493FFF73BFD0022010004AB300000E07B
:101EC00000BF0137043420B9AF42EFD14D46B046D0
:101ED000AAE72F004D46039B544699462A6864E7BB
:101EE0000D212000FFF734FEB04630624346049ACD
:101EF0005A62C7E7781C8000B046A246281883E7DC
:101F000010B50023FFF78EFE10BDC04610B50123AB
:101F1000FFF788FE10BDC04610B50223FFF782FE12
:101F200010BDC046F0B54746CE4680B50600170046
:101F30001C00C3B0032943D020D8002948D0012970
:101F400040D1130C4FF6FF723A4098469146012C4F
:101F500000D179E0052C35D11F004F44202F31D816
:101F600043460F2B00D8B6E04F46002F00D0C2E00A
:101F70004A46B16B20AD0AB300277EE0042921D187
:101F800003BB102A1ED8102203681A4200D0C9E0F1
:101F900020AD280000F020F9012429000023B26BB5
:101FA00020009840074201D001CA08600133043183
:101FB000042BF5D12800B26300F00CF9002002E0F8
:101FC000032B1DD0022043B0C0BCB946B046F0BDC3
:101FD000002BF7D14FF6FF72816B041D0023012007
:101FE0003A4005009D402A4201D020C925600133B6
:101FF0000434102BF5D10020BB04E4D4B163E2E734
:10200000140C4FF6FF721740E319102BDAD8082290
:1020100003681A4200D08CE020AD280000F0D8F808
:10202000E400B36B57B1E41AFF00211FDF196918F0
:102030001800026804335A50BB42F9D12800B36338
:1020400000F0C4F80020BEE74B44102BBAD843463A
:102050000F2BB7D833681C4206D0032230009343BD
:102060003360483000F0A8F820AD280000F0A4F854
:102070004A460027B16B002A63D04346DB00ED18C7
:102080000023D200C858E85004339A42FAD1891884
:102090007FB16D464046102800D210200023103832
:1020A000C0002818FA00CD58C55004339342FAD125
:1020B000C918012C44D04346B1630F2B07D9002F18
:1020C00000D17BE7684600F07DF800207BE720A880
:1020D00000F074F8F3E7102F41D9103F0122336864
:1020E0001A4207D093430222300013433360483032
:1020F00000F066F8AFB3042233681A4228D1434691
:102100000F2B03D820AD280000F05AF86D462800A8
:1021100000F05AF810224346B16BD21A002AB9DDFA
:1021200020ADAAE793430360D130FF3000F054F8AC
:102130002EE7934303605130FF3000F049F86BE71E
:1021400020AD04312800B16300F034F800203AE7F4
:10215000300093433360D03000F036F8CFE70027EB
:10216000BCE743460F2B00D902E720AD280000F062
:1021700027F84A46B16B002A00D0FDE6280000F09F
:102180001DF800201FE7C0460100343138C9043B68
:102190009C461D60A646010020313CC990469946E8
:1021A000A246AB4601000831FCC941680068E5461B
:1021B00000BDC0467047C0467047C0467047C04625
:1021C0007047C0467047C0467047C0467047C0461B
:1021D0007047C0467047C0467047C04601B401A86A
:1021E00001B585B0FFB408A841464A4653465C464F
:1021F00065463EC001A83EC80F98009000230CB46D
:1022000001A9FFF71FFC109B12B0184701B401A8E9
:1022100001B585B0FFB408A841464A4653465C461E
:1022200065463EC001A83EC80F98009000230CB43C
:1022300001A9FFF73BFC109B12B0184701B401A89D
:1022400001B585B0FFB408A841464A4653465C46EE
:1022500065463EC001A83EC80F98009000230CB40C
:1022600001A9FFF745FC109B12B0184701B401A863
:1022700001B585B0FFB408A841464A4653465C46BE
:1022800065463EC001A83EC80F98009000230CB4DC
:1022900001ABFFF701FC109B12B0184701B401A875
:1022A00001B585B0FFB408A841464A4653465C468E
:1022B00065463EC001A83EC80F98009000230CB4AC
:1022C00001AAFFF777FC109B12B01847027A0300AF
:1022D00052B9427A7AB1013A42724268111D4160A4
:1022E00003211268017202E0013A02720268100EC4
:1022F00012021A607047B020FCE7C04600B585B0F6
:1023000003AB00930C2200230021FFF707FC039886
:1023100005B000BD10B5FFF7F1FF10BDF0B54E469A
:1023200045465746DE4640F2000AE0B540F20F0847
:1023300005000E0040F2070985B03000FFF7C6FF28
:102340000400B02800D1C3E003062AD503004246AA
:102350009343DBB2802B54D0902B3ED0A02B6DD07A
:10236000B02B00D17FE0C02B00D197E003004A469C
:102370009343DBB2D02B0BD18023024001321B03ED
:102380001A43052301212800FFF7CCFD0028D4D0F3
:102390000924200005B0F0BCBB46B246A946A046C1
:1023A000F0BDFF23820013401F1D03AB9B4600932B
:1023B0000D22002300212800FFF7B0FB63063AD46A
:1023C000039B9C4667445B460397009300230D22C2
:1023D00000212800FFF7C8FBAFE7833B03400D2B2C
:1023E000D6D003AF02400023002128000097FFF75A
:1023F00095FB00230D22002128000097FFF7B4FB76
:102400009BE704023000FFF761FF48F20007044336
:10241000BC42BDD04FF6FF722401002300212800EA
:102420002240FFF77FFD0028B2D1274200D184E788
:1024300040F2010A81E7039BDF1BC4E740F6F0721C
:102440004B461100834319410A40030702D544F269
:1024500000031A43002300212800FFF763FD002832
:1024600000D16AE794E7B12846D0B22800D1A2E0B3
:10247000B32857D0FC230340B42B00D188E74A4649
:102480008023024001321B031A430121012328004B
:10249000FFF748FD002800D14FE779E7C6284CD068
:1024A000C7285ED003004A469343DBB2C02B6ED0F0
:1024B000C82873D0C92800D06AE73000FFF706FFAC
:1024C000F02302031B03134042460240013257E748
:1024D00053460024002B00D05BE703AE0E22002100
:1024E00028000096FFF71AFB00230F220021280086
:1024F0000096FFF739FB4CE73000FFF7E7FE0200DC
:10250000002800D144E7030041468B43DBB2002B97
:1025100000D03DE700212800FFF704FD002800D18E
:102520000BE735E73000FFF7D1FEF02302031B0372
:102530001340424602400132A6E73000FFF7C6FED4
:10254000F02302031B0313404246024001321A43A8
:10255000032303212800FFF7E5FC002800D1ECE667
:1025600016E73000FFF7B2FE0200002800D10FE7A7
:10257000030041468B43DBB2002B00D008E7042167
:102580002800FFF7CFFC002800D1D6E600E743463D
:10259000A0221C40013412032243D9E73000FFF788
:1025A00095FE434602009A43D2B2103218401203FD
:1025B00001300243E5E603AB00939B460D22002366
:1025C00000212800FFF7AAFA3000FFF77FFE03067C
:1025D00019D57F27B03C039B3840A0409C466044FF
:1025E000039030000734FFF771FE0306F3D47F2316
:1025F00040F2042C0340A340039A62449B180393C7
:102600005B460093E2E60224F1E7C046030000B512
:10261000DA6C85B053680800083219020191029201
:10262000694603221B0E0A734B7301A9FFF776FE5E
:1026300005B000BD10B5FFF76DFE806C10BDC04643
:1026400010B5FFF767FEC26CD07902308000101819
:1026500010BDC046062010B500F044F8012000F07F
:1026600071FBFFFF014B18687047C046A040002077
:10267000002310B59A4200D110BDCC5CC454013384
:10268000F8E703008218934200D1704719700133B4
:10269000F9E770B504000D001F2904D91623036063
:1026A0000120404270BD436C1BB18A009B181A6820
:1026B00042B9200000F032F82A000100200000F0AA
:1026C0001BF8EFE70020012AECD0511C03D11623A0
:1026D00001302360E6E7002428001C6090472000BA
:1026E000E0E7FFFF10B5034B01001868FFF7D1FFCB
:1026F00010BDC046A0400020002370B5064D040068
:10270000080011002B6000F039FB431C02D12B683C
:1027100003B1236070BDC0467442002010B500F0C4
:10272000F7F910BD70B50E4E0D003168040011B9F7
:1027300000F08EF830602900200000F089F8431C7A
:102740000AD00323C51C9D43A84207D0291A2000A4
:1027500000F07EF8431C01D101256D42280070BDB8
:1027600070420020F7B50322CB1C934308330600C8
:102770001F000C2B32D20C27B94231D8334D300018
:1027800000F076F82B681C00002C2ED139003000A8
:10279000FFF7C8FF0400431C1ED12C682500002D44
:1027A0004AD123682900E3183000019300F050F863
:1027B000019B834243D123680337FF1A03239F43BE
:1027C00008370C2F00D20C2739003000FFF7AAFF82
:1027D000431C34D02368DF19276013E0002BCBDAC9
:1027E0000C23002533602800FEBD2268D11B20D4B5
:1027F0000B2917D9E2192760A34211D12A60636817
:10280000116053603000250000F03AF807220B35C4
:10281000231D9543EA1A9D42E5D05B1BA350E2E7D6
:102820005A60ECE76268A34201D12A60EAE75A6085
:10283000E8E723006468A7E72C006D68AFE70C2386
:102840003000336000F01CF8CDE7C0466C42002039
:10285000002370B5054D040008002B60FEF792FEC2
:10286000431C02D12B6803B1236070BD7442002069
:1028700010B5024800F053F810BDC0467842002061
:1028800010B5024800F04CF810BDC0467842002058
:1028900070B5050079B10C1F2368002B00DAE4182D
:1028A0002800FFF7E5FF1C4A13682BB9636014602A
:1028B0002800FFF7E5FF70BDA34208D92168601822
:1028C0008342F3D118685B6841182160EEE71A0073
:1028D0005B680BB1A342FAD911685018A0420BD122
:1028E00020680918501811608342E1D118685B68AC
:1028F000411811605360DBE7A04202D90C232B6022
:10290000D6E721686018834203D118685B684118D4
:10291000216063605460CBE76C42002070477047D1
:102920007047FFFF094B10B50400186818B18369A0
:102930000BB900F091FA0020132C06D8044BE400E8
:10294000E358013301D0024BE01810BDA040002035
:102950007C420020F8B50400FFF784FE1326050032
:102960000027301C391CABBE061C2E602000F8BDB1
:1029700010B5431C01D1FFF7EDFF10BD30B585B098
:1029800001AD0190029103920624201C291CABBECC
:10299000041C2000FFF7ECFF05B030BD70B50E0041
:1029A0001500FFF7BFFF040030B9FFF75BFE0923F6
:1029B00003600120404270BD2A0031000068FFF72B
:1029C000DDFF431CF7D06368281A1B186360F2E729
:1029D000F7B50C001600FFF7A5FF050038B9FFF7A3
:1029E00041FE09230360012464422000FEBD022E43
:1029F00003D9FFF737FE1623F4E7012E12D14368FF
:102A0000E418F6D46F462B680A2600937C60301CCD
:102A1000391CABBE061C3000FFF7AAFF0028E2DB22
:102A20006C60E2E7022EEDD103686F4600930A3630
:102A3000301C391CABBE061C3000FFF799FF241870
:102A4000431CDFD1CFE710B5FFF7C2FF10BD30B593
:102A500085B001AD0190029103920524201C291C30
:102A6000ABBE041C2000FFF783FF05B030BD70B57E
:102A70000E001500FFF756FF040030B9FFF7F2FD16
:102A800009230360012040420FE02A003100006862
:102A9000FFF7DDFF031EF5DB6268281A121862607B
:102AA000AB4202D10020FFF755FF70BD37B50224BD
:102AB000019001AD201C291CABBE041C2000FFF7B7
:102AC00057FF3EBD70B50500FFF72CFF040030B97D
:102AD000FFF7C8FD092303600120404270BD013D9E
:102AE000012D09D8094B9A681B699A4204D1012328
:102AF0005B4203600020F1E72068FFF7D7FF002862
:102B0000ECD101235B422360E8E7C0467C42002011
:102B10000120704770B50C00FFF704FF050030B9C5
:102B2000FFF7A0FD092303600120404270BD42F27F
:102B3000000362680C261343636040F20043A36401
:102B4000301C291CABBE051C2800FFF711FF431CDD
:102B5000ECD020610020E9E770B50D000400582298
:102B600000212800FFF78DFD2000002100F012F861
:102B70000400431C0CD048F200136A682900134378
:102B80006B60FFF7C7FF05002000FFF79BFF2C00DD
:102B9000200070BDF0B50D00002699B000902A4AC3
:102BA000F30001939B181C68631C39D00136142E66
:102BB000F5D1FFF757FD012418236442036040E07C
:102BC0000223EC03E40F1D4200D01C4340F20163DA
:102BD0001D4201D004231C4308231D4202D00422BD
:102BE00094431C43009B1800029300F01FFA7C6082
:102BF000B8600124201C391CABBE071C002F0ADB67
:102C0000114BF2009F5013000F4A340094460022EB
:102C100063445A6015E03800FFF79CFE040010E0A2
:102C200040F600232A0002AF1A409A42C8D1390068
:102C30000098FFF791FF431CC2D0FFF713FD11234B
:102C40000360200019B0F0BD7C420020F0B585B0D3
:102C500000900191274800211500FFF79BFF040019
:102C60002A0000210098FFF70CFD631C15D02000FE
:102C7000FFF758FE0C260700301C391CABBE061CA3
:102C80003000FFF775FE032802DD0338A84207DC99
:102C900020000124FFF716FF6442200005B0F0BDBC
:102CA00003AE042231002000FFF778FE0328EFDD99
:102CB0003378532BECD17378482BE9D1B378462B7A
:102CC000E6D1F378422BE3D1012220000199FFF7EE
:102CD0007FFE0028DCDB2A0000992000FFF75EFE63
:102CE00005002000FFF7EEFE2800FFF741FE04007C
:102CF000D3E7C04678340000F7B501240021094E1F
:102D0000094D01AF2200380031602C60FFF79EFFB3
:102D1000002805DD02223B781C40134034602B6004
:102D2000F7BDC046044100200841002010B5044C06
:102D30002368002B01DAFFF7DFFF206810BDC046D3
:102D4000044100200100012010B5024A404200F079
:102D500003F8C0462600020037B56D466960009250
:102D6000FFF7E4FF202400B9083CFFF7DFFF18B1AC
:102D7000201C291CABBE041C009DF9E710B50629D8
:102D800002D1024AFFF7E8FF014AFBE723000200F5
:102D900026000200002310B5040003604360836036
:102DA000818143661900C281036143618361082206
:102DB0005C30FFF766FC054B24626362044BA36240
:102DC000044BE362044B236310BDC046952F000003
:102DD000BD2F0000F52F00002130000010B5024982
:102DE00000F0B8F810BDC0469531000070B56825F8
:102DF0004A1E55430E0029007431FFF7B3FC04004E
:102E000040B100212A00016046600C30A0606832A9
:102E1000FFF737FC200070BD10B50248FFF77FFDBB
:102E200010BDC0467942002010B50248FFF778FD7A
:102E300010BDC0467942002010B50248FFF76FFD73
:102E400010BDC0467A42002010B50248FFF768FD69
:102E500010BDC0467A42002013B50400FFF7ECFF16
:102E6000A36913B1FFF7F0FF13BDA364E364236507
:102E7000134B144A1B68A2620193A34201D10123A0
:102E8000A361200000F020F86060200000F01CF832
:102E9000A060200000F018F800220421E0606068C3
:102EA000FFF778FF01220921A068FFF773FF0222D4
:102EB0001221E068FFF76EFF0123A361D2E7C0464D
:102EC00074340000DD2D0000F8B50700FFF7A4FF03
:102ED0001E4B1E68B36913B93000FFF7BDFF4836BB
:102EE000B4687368013B03D533680BB33668F7E702
:102EF0000C22A55ED5B92000154B5830E3606566FD
:102F0000FFF70CFDFFF790FF200008222900256045
:102F1000A560656025616561A5615C30FFF7B1FB67
:102F20006563A563A564E5642000F8BD6834D9E74E
:102F300004213800FFF75AFF040030600028D5D183
:102F4000FFF772FF0C233B60EEE7C04674340000CD
:102F50000100FFFFF7B50400060000270191483487
:102F60006368A5680093009B013B009304D5246827
:102F7000002CF5D13800FEBDAB89012B08D90E22FB
:102F8000AB5E013304D029003000019B9847074312
:102F90006835E8E770B50C000E25495F00F048F988
:102FA000002803DB636D1B18636570BDA389024AAB
:102FB0001340A381F9E7C046FFEFFFFFF8B51F00FC
:102FC0008B8905000C001600DB0505D50E23C95EB4
:102FD0000022022300F01AF9A389054A28001340B1
:102FE000A38132000E23E15E3B0000F027F8F8BD1C
:102FF000FFEFFFFF70B50C000E25495F00F006F9EA
:10300000A389421C03D1054A1340A38170BD41F23C
:1030100000021343A3816065F8E7C046FFEFFFFF9E
:1030200010B50E23C95E00F01BF810BD0023C25C72
:103030000133002AFBD1581E7047FFFF70B5040012
:10304000080011001A000023044D2B60FFF70FFD4C
:10305000431C02D12B6803B1236070BD7442002071
:10306000002370B5054D040008002B60FFF72AFD12
:10307000431C02D12B6803B1236070BD7442002051
:10308000F7B58B8905000C001A075DD44A68002A41
:1030900004DC0A6C002A01DC0020FEBDE76A002F78
:1030A000FAD0002241F200012E682A601A000A407C
:1030B0000B4232D0606DA3895B0705D56368C01AE7
:1030C000636B0BB1236CC01A0200216A0023280035
:1030D000E76AB847A189431C06D12B681D2B30D85D
:1030E0002B4ADA40D3072CD5002363602369236081
:1030F000CB0404D5431C01D12B6803B96065616B17
:103100002E600029C8D023004433994202D0280001
:10311000FFF7BEFB00206063BFE701232800216AA0
:10312000B847431CC7D12B68002BC4D01D2B01D03E
:10313000162B01D12E60AFE74023A2891343A38150
:10314000ABE740230B43FAE70F69002FA4D00A68CE
:103150000F60D21B019200229B0700D14A69A26036
:10316000019B002B98DD3A002800019B216AA66A8A
:10317000B047002806DC40230120A28940421343C7
:10318000A3818AE7019B3F181B1A0193E8E7C04619
:10319000010040200B6970B505000C0013B9002533
:1031A000280070BD18B183690BB9FFF755FE144BA9
:1031B0009C421BD16C680C22A35E002BEFD0626E88
:1031C000D20704D49B0502D4A06DFFF7A8FB28000A
:1031D0002100FFF755FF636E0500DB07E0D4A389EC
:1031E0009B05DDD4A06DFFF79BFBD9E7054B9C4207
:1031F00001D1AC68DFE7044B9C42DCD1EC68DAE734
:10320000B0340000D03400009034000070B50400E9
:10321000080011001A000023044D2B60FFF713FC77
:10322000431C02D12B6803B1236070BD744200209F
:1032300070B50400080011001A000023044D2B6033
:10324000FFF7ACFB431C02D12B6803B1236070BDB8
:10325000744200204275696C74207769746820524A
:10326000656E6573617320416476616E6365642089
:10327000466C657869626C6520536F66747761721D
:1032800065205061636B6167652076657273696F55
:103290006E20332E362E3000332E362E30000000B6
:1032A00000000603F8B5C046F8BC08BC9E4670474F
:1032B000F8B5C046F8BC08BC9E4670474653505F00
:1032C00053554343455353203D3D206572720000E2
:1032D000766F6964207773323831325F73656E645C
:1032E000282900002E2E2F7372632F777332383106
:1032F000322E63707000FFFF766F6964207773323F
:103300003831325F696E6974282900FF4C41002012
:1033100078330000103400000004010203020202AE
:10332000020000000100000048330000603300008C
:10333000DD050000000000003C330000010000003B
:103340000000000100000000844100205433000010
:1033500048340000804000205C33000001FFFFFF84
:103360008C4100206C330000483400009040002065
:103370007433000004FFFFFF0E00000080330000E4
:10338000000001060001000000000106010100002C
:10339000000001060201000000800000030100009F
:1033A000000001030401000000000100080100000A
:1033B0000000010C090100000000010C0A010000DE
:1033C0000000010C0C010000000001050C020000CF
:1033D000000001050D0200000000010000030000D4
:1033E00000000107000400000000010701040000C4
:1033F000001111101400000018000000000000006F
:1034000000000000000000000000000000000000BC
:10341000ED0E0000910C0000050F0000110F0000E0
:10342000590D0000A90D0000A50D0000990C000029
:10343000F50C00001D0D0000410D0000850D000081
:10344000BD0C0000D50C000019110000F91100009E
:10345000B10F000059100000791000005110000059
:103460005510000099100000E51000000100020056
:1034700008001000A44000203A73656D69686F73FE
:1034800074696E672D666561747572657300FFFF00
:10349000000000000000000000000000000000002C
:1034A000000000000000000000000000000000001C
:1034B000000000000000000000000000000000000C
:1034C00000000000000000000000000000000000FC
:1034D00000000000000000000000000000000000EC
:1034E00000000000000000000000000000000000DC
:0434F00000000000D8
:1034F40074B20181B0AB308000000000800801810B
:10350400B0B0ABF0000000003F020181B0AB3080EE
:103514000000000080040181B0B0ABF000000000A6
:103524002CD0FF7FB0B0A88030D0FF7F0084028011
:1035340060D0FF7FB0B0A8809CD0FF7F0100000066
:10354400E8E2FF7FB0A9028080E3FF7FB0B0A880EB
:10355400D4E3FF7F01000000E0E3FF7FB0B0AA8066
:1035640010E4FF7F8CFFFF7FD4E4FF7F01000000A5
:10357400D0E4FF7FAA3F39801CE5FF7FB0B0A8806C
:1035840028E5FF7FB0B0AA8064E5FF7FB0B0A880D3
:1035940074E5FF7F0100000070E5FF7FB0B0A880F4
:1035A40078E5FF7F0100000008E6FF7FAA0FB280E4
:1035B40070E6FF7F48FFFF7F44E9FF7FB0B0A8803B
:1035C40060E9FF7F44FFFF7FBCEBFF7F0100000049
:1035D40028EDFF7F0084048038EDFF7FB0B0A88021
:1035E40038EDFF7F30FFFF7F20F0FF7F00840480F1
:1035F40040F0FF7FB0B0A88058F0FF7F01000000CA
:10360400000010180000000000000000000000008E
:10361400000008100000000000000000000000008E
:10362400A440002000000000B0340000D0340000AA
:1036340090340000000000000000000000000000C2
:103644000000000000000000000000000000000076
:103654000000000000000000000000000000000066
:103664000000000000000000000000000000000056
:103674000000000000000000000000000000000046
:1036840000000000FFFFFFFFFFFFFFFF2D0500000C
:04369400010500002C
:020000040101F8
:10001800FFFFFFFFFFFFFFFFFFFFFFFFFFFFFFFFE8
:0C002800FFFFFFFFFFFFFFFFFFFFFFFFD8
:04000003000015CD17
:00000001FF
