:1000000048460020BD17000065160000B917000023
:10001000B9170000B9170000B9170000B9170000A0
:10002000000000000000000000000000B917000000
:10003000B917000000000000B9170000B917000050
:10004000890600002507000009080000810800005B
:10005000290D0000950C0000C90D0000110E0000D4
:1000600085140000000000000000000000000000F7
:1000700079130000000000000000000000000000F4
:100080000000000000000000000000000000000070
:100090000000000000000000000000000000000060
:1000A0000000000000000000000000000000000050
:1000B0000000000000000000000000000000000040
:10040000FFFFFFFFDFCEFFFFFCFF0F00FFFF0F002E
:10041000FCFF0F00FFFF0F00FCFF0F00FFFF0F00AE
:10042000FCFF0F20FFFF0F20FCFF7F40FFFF7F40FE
:10043000FCFF0D40FFFF0D40FFFFFFFFFFFFFFFF31
:10044000FFFFFFFFFFFFFFFFFFFFFFFFFFFFFFFFBC
:10045000FFFFFFFFFFFFFFFFFFFFFFFFFFFFFFFFAC
:10046000FFFFFFFFFFFFFFFFFFFFFFFFFFFFFFFF9C
:10047000FFFFFFFFFFFFFFFFFFFFFFFFFFFFFFFF8C
:10048000FFFFFFFFFFFFFFFFFFFFFFFFFFFFFFFF7C
:10049000FFFFFFFFFFFFFFFFFFFFFFFFFFFFFFFF6C
:1004A000FFFFFFFFFFFFFFFFFFFFFFFFFFFFFFFF5C
:1004B000FFFFFFFFFFFFFFFFFFFFFFFFFFFFFFFF4C
:1004C000FFFFFFFFFFFFFFFFFFFFFFFFFFFFFFFF3C
:1004D000FFFFFFFFFFFFFFFFFFFFFFFFFFFFFFFF2C
:1004E000FFFFFFFFFFFFFFFFFFFFFFFFFFFFFFFF1C
:1004F000FFFFFFFFFFFFFFFFFFFFFFFFFFFFFFFF0C
:1005000010B544F28804C2F20004237863B940F2C3
:100510000003C0F200032BB143F21440C0F200000C
:1005200000E000BF0123237010BDC04640F200036D
:10053000C0F2000310B54BB144F28C0143F21440F9
:10054000C2F20001C0F2000000E000BF10BDC046D2
:1005500010B5037903B110BD43F26820C0F200006A
:1005600000F012F8F7E7C04610B544F2101443F259
:100570008C21C2F20004C0F20001200000F060FEF5
:10058000200000F00FFE10BD0FB410B544F2A4041B
:1005900082B004AA02CAC2F200042000019202F052
:1005A000D7F9200002F0B6F9020044F23010210021
:1005B000C2F2000000F0A0F902B010BC08BC04B008
:1005C0001847C04643F2DC2144F2301010B5C0F2A7
:1005D0000001C2F2000000F019FA10BD7047C046D9
:1005E00010B5FFF7EFFFFFF7BFFF43F2702143F2B3
:1005F0007C20C0F20001C0F20000FFF7C5FF40F20E
:10060000E831142001F000F8FEE7C04600B583B0E1
:1006100040B94CF2000390220121C4F27E039954A8
:1006200003B000BD0228FBD143F2802344F208103E
:10063000C0F200035B68C2F200001900019300F0F1
:100640004FFDEDE710B5FFF7CBFF002010BDC04612
:10065000F0B50400806A85B08C4601AD90B12B00E6
:100660000200C2CAC2C363681B7803606346037199
:10067000E36A8360636A9847A36A0BB107CD07C337
:1006800005B0F0BD2800EEE730B5EFF30383103B73
:100690005BB21A0046F20001C032C4F200019200BF
:1006A00050581F4C9B002040505044F2A412C2F2FC
:1006B00000029B589A69D9698A4219D0186930B3E7
:1006C00020241C5D0F2C09D999684C6891000C50AE
:1006D000D96901329A618A420AD030BD072C19D8F3
:1006E000996809798154D96901329A618A42F4D1B1
:1006F00003221F215B689A561140530901228A4048
:100700004EF200119B00CEF200015A50E5E79868C6
:100710004068DEE79C68A58854000553D9E7C046C9
:10072000FFFFFEFFF0B5C64600B5EFF30383103BB5
:100730005BB21A0046F20001C0329200C4F200011E
:100740005058304D9B002840505044F2A412C2F241
:1007500000029B585868026A002A2ED05678DC693D
:100760005A69012E16D094420BD0D96841B320208B
:10077000185C0F2808D994009868615841600132CC
:100780005A6180BCB846F0BD07281CD8895C9868BF
:100790000171F4E7671EBA421AD001690029E2D05C
:1007A000032545571F20284086404EF20010690956
:1007B000CEF2000089000E50D5E75A69DC69D2E715
:1007C00098684160DBE75000415A98688180D6E71D
:1007D000C07840B207008046C037BF007858054057
:1007E0007D5040461F2101408E404EF20011CEF256
:1007F00000018C4640F28011400980006044465060
:100800000660B0E7FFFFFEFF10B5EFF30383103B78
:100810005BB21A0046F20001C032C4F2000192003D
:100820005058164C2040505044F2A4129900C2F285
:10083000000288588268D278920704D54268527ABA
:10084000012A00D010BD1F215A090B401E399940C2
:1008500013004EF200142033CEF200049B00195115
:10086000BFF34F8FBFF36F8F4021826813788B43A4
:1008700013703F39FFF7ECFEE4E7C046FFFFFEFFD1
:1008800070B5EFF3038444F2A4134021103C64B22A
:10089000C2F20003A200D658B3681A788A43002136
:1008A0001A70DA78D970D5B2130710D4EB0714D4C4
:1008B00014232B40142B18D046F20003C034C4F28A
:1008C0000003A400E2580B490A40E25070BD30001A
:1008D0000531FFF7BDFEEB07EAD504213000FFF735
:1008E000B7FE14232B40142BE6D108213000FFF76C
:1008F000AFFEE1E7FFFFFEFF7B2330B5046AA5787A
:100900002B40A37083789B079B0FD21A0261802231
:10091000CB18C360A3781343A370032382781340DA
:10092000022B03D00B78E370002030BD4FF600623D
:100930000B881343E381F7E7F0B51F250124154029
:10094000AC404EF20015C64653092033CEF20005E6
:100950009B0000B588465C51BFF34F8FBFF36F8F8C
:10096000130046F20004C033C4F200049B001D597A
:10097000114E4EF2001135401D51FF240325CEF2D9
:1009800000018C46210040F200371540ED00A940DF
:1009900093089B006344DE5992008E4341468901CF
:1009A0000C40AC403443DC5144F2A413C2F20003C7
:1009B000D05080BCB846F0BDFFFFFEFFF0B5C64684
:1009C00000B50500806A84B08C4690466C46D8B16C
:1009D0002300060086CE86C336681E60EB691B784E
:1009E00003606346836043460371EB6AC3606B6ACE
:1009F0009847AB6A23B107CC07C31A00236813607A
:100A000004B080BCB846F0BD2000E7E743F6000222
:100A1000C0F200229446F0B54546DE4657464E46A3
:100A20000B78E0B563445B010362002303704A69FD
:100A30000D0042628A69C161C262032201218362A0
:100A40008378040093430B4383706B7883B023B99E
:100A5000837893430222134383700B222000AA560B
:100A6000A97AFFF769FF05222000AA562979FFF726
:100A700063FF07222000AA56A979FFF75DFF09222C
:100A80002000AA56297AFFF757FFEFF310860120BE
:100A900080F31088802146F6FC732F780906F94010
:100AA000C4F204035A688A435A605B6886F310886C
:100AB0000022236A29789A701A715A729A72DA722D
:100AC0005A8340F20722CA40104201D04022DA7411
:100AD00006221A776978AA78E878EE692D780DB938
:100AE0006A4D9D821201C0000243032900D1C9E072
:100AF000481E81410901E231D2B21A700222997175
:100B0000317BFF2549000A4020215A737278B07862
:100B1000D201400101402A400A4300213078197275
:100B2000811E0190012900D8A4E003257168D2B28A
:100B3000DA718A7848785A701A782840AA430243B2
:100B40001A70CA7859359A74D8790A78A8432A4015
:100B50000243DA710022E26022616261A261E2690D
:100B600046F200019146527940F21F0C52B2100039
:100B7000C030C4F2000180004558454F40F2C00A21
:100B80003D4045506546B84601271540AF404EF2FE
:100B90000015CEF20005AB4640F2801552099200D6
:100BA0005A44575117604A46D27A404652B292444C
:100BB0005746BF00BA467F580740504647506746E1
:100BC0001740BA460127504687404EF20010CEF239
:100BD00000008346520992005A44575117604A4612
:100BE00040F2C00AD27952B2924450468000824606
:100BF0004058070040460740504647506746174058
:100C0000BA460127504687404EF20010CEF200004F
:100C10008346520992005A44575117604A4640F29F
:100C2000C009527A474652B29144484680008146F4
:100C300040580740484647506146012011408840CF
:100C4000520992005A44505110600322019F002023
:100C500017406D3217439F707389238144F65513F3
:100C6000C5F24333636003B0F0BCBB46B246A9464D
:100C7000A046F0BD5D70022801D110210A43D2B216
:100C8000DA7167E73D310A43B23135E700F8FFFF1B
:100C9000FFFFFEFF70B5EFF30383103B5BB21A005A
:100CA00046F20001C0329200C4F2000150581D4CBF
:100CB0009B002040505044F2A412C2F20002985807
:100CC000C3691B6913B1036913B170BD036983B9AB
:100CD0007F23026A91780B4004210B439370002319
:100CE000C360436A002BF0D080220021FFF766FE2C
:100CF000EBE703218278114002290AD0C168056A16
:100D00000C78EC709207920F9B1A8A180361C260EC
:100D1000DAE74FF60065C1680C882C43056AEC8160
:100D2000F0E7C046FFFFFEFF10B582B0EFF303838C
:100D3000103B5BB21A0046F20001C0329200C4F2CE
:100D4000000150581F4C9B002040505044F2A41208
:100D5000C2F200029C580323A2781340022B0DD04C
:100D6000236A5979A369C9B2019183B9636A1BB136
:100D700004222000FFF722FE02B010BD40F2FF1156
:100D8000236A1B8A1940A3690191002BEED09207B8
:100D9000920F606901A901F063FDA37862699B0766
:100DA0009B0FD2186261A269D31AA361002BE3D111
:100DB000636A002BE0D0012200212000FFF7FEFD36
:100DC000DAE7C046FFFFFEFF10B5EFF3038444F2FD
:100DD000A413103C64B2C2F20003A200D0587B23DB
:100DE000026A91780B409370436A1BB10222002182
:100DF000FFF7E4FD46F20003C034C4F20003A40090
:100E0000E25802490A40E25010BDC046FFFFFEFF13
:100E100070B5EFF3038444F2A413103C64B2C2F241
:100E20000003A200D058032382781340022B20D065
:100E3000036A5979C9B238221D792A40ED0602D5D4
:100E40001D7FED0712D538261D79B5431D71436A04
:100E50000BB1FFF7B3FD46F20003C034C4F2000348
:100E6000A400E25806490A40E25070BD40252A43DA
:100E7000E9E740F2FF11036A1A8A1140DBE7C04636
:100E8000FFFFFEFF0023036000207047FF2010B526
:100E900040F600040B0A084019010918C4F20404C2
:100EA00089000B5900209B07DB0F137010BDC04653
:100EB0000023C4F204039C46090A490161444B68BB
:100EC000002013807047C0460020C4F2040084460E
:100ED0001800090A90430004134049010343614488
:100EE00000208B607047C046FF20012308408340EC
:100EF00052B91B040022C4F204029446090A4901B3
:100F0000614400208B6070474FF6FF721340F1E799
:100F10000020C4F2040084461800090A490110B5F3
:100F200061440C68104020439343984308600020BC
:100F300010BDC0460023C4F204039C46090A4901BF
:100F400061444B6800201B0C138070470020C4F2E2
:100F5000040084460B0A5B0163445868FF23194070
:100F6000FE3B8B40000C99B203405B1A59424B4147
:100F7000002013707047C0460020C4F2040084466D
:100F80001800090A904300041340490103436144D7
:100F90000020CB607047C046062070470B0A10B592
:100FA0005B01012A10D00022C4F204029446FF2003
:100FB0008022014052028A406344DC682243120CC2
:100FC00012040020DA6010BD0020C4F20400844640
:100FD000FF2001408A4011004FF6FF726344DC6835
:100FE000114021430A40ECE7F0B5DE4657464E4635
:100FF0004546E0B583B0EFF31082012383F31088F8
:1010000044F2A013C2F2000301931B6833B940F607
:101010000051C4F20401CB704033CB7001990B68CE
:1010200001330B6082F3108803889A46BBB3802398
:1010300040F600055B029946284B002240F2FF086B
:101040009C464168C4F204050AE043461E40230161
:101050009B1901329B0092B25851083192451ED023
:101060004B468E880868340A1842EED043461E402C
:1010700023019C19A700644600977F599B192740BC
:101080003C00009F01327C51674607403C00009FB6
:101090009B0092B27C51083158519245E0D1EFF358
:1010A0001082012383F31088019B1B681BB10199F7
:1010B0000B68013B0B60019B1B6833B940F6005184
:1010C000C4F20401CB708033CB7082F3108803B07C
:1010D000F0BCBB46B246A946A046F0BDFFFFFEFFEE
:1010E00045F2542310B5C5F24F0303600800FFF723
:1010F0007BFF002010BDC04610B50800FFF774FF4D
:10110000002010BDF0B5EFF31084012383F31088A5
:1011100044F2A013C2F20003186830B940F600553B
:10112000C4F20405E8704030E870186801301860B7
:1011300084F31088D00321D4FF24080A0C40010155
:1011400040F600000919C4F2040089000A50EFF3C8
:101150001082012181F31088196811B119680139D1
:1011600019601B6833B940F60051C4F20401CB701A
:101170008033CB7082F310880020F0BDFF2440F64E
:101180000005080A0C4001010819C4F2040580009A
:101190004759034E3740164047514651D0E7C046A5
:1011A000FFFFFEFF8368C26800205A607047C04698
:1011B000F0B5CE46474680B500283ADB40F2FF093D
:1011C0004EF2001403254E46CEF20004A44640F22F
:1011D00000370540ED00AE4083089B006344DC59B6
:1011E0008901B44326004C460C40AC403443DC51EA
:1011F00044F2A4138100C2F20003CA50030046F275
:101200000002C033C4F200029B0099580B4C2140ED
:1012100099501F220123024093404EF20012CEF259
:101220000002944640F280124009800060448350DE
:101230000360C0BCB946B046F0BDC046FFFFFEFF2C
:10124000F8B50A000B7C0121040008009840626098
:10125000E060002B00D16DE0217440F28071C0F29B
:1012600040018C46002063441B02A3605369D5698A
:1012700063619369A061E361EFF3108C012383F351
:101280001088117C46F6FC764B425941C4F20406A4
:10129000F7684B01413B3B40F360F3688CF31088E7
:1012A0004AF20051A3681960D862D8639864167A2C
:1012B0005168F605DE62802636061E615E619E611B
:1012C000AE6958629862DE61EE6901391E62882655
:1012D00099665966E96A9863985131B9203121308D
:1012E000695C285C490340070143AA20C0031864D5
:1012F000E068D86059630321122019630239196329
:10130000517C10562200FFF753FF2223E95C023381
:10131000E8562200FFF74CFF2323E95C0233E8562E
:101320002200FFF745FF45F25403C0F247030020B7
:101330002360F8BD237490E7F0B5C64600B50500FC
:10134000806984B08C46904601AC98B123000600B9
:1013500086CE86C36346037143468360EB690360B0
:101360006B699847AB690BB107CC07C304B080BC6D
:10137000B846F0BD2000EDE7F8B5EFF30383103B6E
:101380005BB21A0046F20005C032C4F200059200BA
:101390005159154C98002140515144F2A411C2F208
:1013A0000001405841680978012915D18668C7684D
:1013B000B7600027B764F764376556593440545115
:1013C0001F245A092340994013004EF20014603341
:1013D000CEF200049B00195143691BB10022002189
:1013E000FFF7AAFFF8BDC046FFFFFEFF70B5C56955
:1013F00004000E0088B0A5B120222900684601F043
:101400002FFA20223100280001F02AFA2800A369CF
:101410009847E06918B12022694601F021FA08B026
:1014200070BD0D00F2E7C04630B5020089B0EFF3A1
:10143000038344F2A411103B5BB2C2F200019B0093
:101440005858EFF3038346F20001103B5BB2C03300
:101450009B00C4F200015C58094D2C405C506B4667
:101460009A706A4643681B88138000231372036ACC
:101470000193836913B16946FFF7B8FF09B030BD26
:10148000FFFFFEFF10B50020FFF7CEFF10BDC046E6
:101490004EF20003262244F27001C4F20103985C6C
:1014A0001B6A8000C2F2000141585B015B0F44F2ED
:1014B0003022D940C2F20002116070474EF20003A0
:1014C00040F2FE324B49C4F2010370B599524CF21E
:1014D0000002002043F6C871C4F27E02505444F268
:1014E000700446F60042C2F20004C0F2DC22226020
:1014F00041F20022C0F27A02626048F2000242F237
:101500000041A26022612622C0F2F401E160995CF0
:101510001A6A890061585201520F44F23025D140B5
:1015200040F21342C2F20005296098540921A22218
:10153000995440F28042995C002953D04EF2000346
:10154000002240F28141C4F201035A5401395A5435
:10155000A0329A5CCAB136229A5C1AB93C215A5C14
:10156000D207FCD54EF20002A021C4F20102535C66
:10157000DB06D80F002BFADB50544EF20002A021FC
:10158000C4F20102535CDB06FCD44EF200020021DF
:101590003623C4F20102D1543C31535CDB07FCD545
:1015A00001213123D1544FF6C473C4F27E03197064
:1015B00000202623D0540130FF301062D05C136A23
:1015C000800020585B015B0FD84040F2FE3328605A
:1015D0000948D0524CF2000343F6C872C4F27E03AD
:1015E000995470BD013140F2C440995400F00CF898
:1015F000A4E7C04603A5FFFF00A5FFFF7047C04654
:1016000001380028FCD1704744F230224CF6002308
:101610004143C2F2000270B51468C3F69A330D005C
:10162000B3FBF4F4080040F2E8320023002100F09C
:101630006DF931B9B0FBF4F0800808B1FFF7E0FFB5
:1016400070BDA000B5FBF0F040F2E83200230021AD
:1016500000F05CF90029F0D001204042FFF7D0FFF4
:10166000EEE7C046F8B546F2000340F2401244F2FD
:10167000601500240127C4F200039E5AC2F200053F
:10168000B6B23300E340E0B21F4202D02B6803B190
:10169000984701340435102CF3D146F2000340F290
:1016A0003012C4F200039E52F8BDC04646F200005C
:1016B0000023C4F2000043F28032C0F200029A1804
:1016C00011781A00C032920001331150202BF2D150
:1016D0007047C04670B5EFF31081012383F3108883
:1016E00044F224234000C2F200031A5A1AB11A5AD3
:1016F000013A92B21A521B5A83B94EF2000240F2DA
:10170000FE3543F2D834C4F20102565B054BC0F2F9
:101710000004205A334383439BB2535381F3108810
:1017200070BDC04600A5FFFF70B5EFF31081012327
:1017300083F3108844F224224000C2F20002135ABC
:1017400083B94EF2000443F2D83540F2FE36C4F2BB
:101750000104C0F20005A35B2D5A2B434AF2005549
:101760002B43A353135A01339BB2135281F31088B6
:1017700070BDC04644F22C22C2F200020300106881
:1017800010B558B1032103338B4344F24821C318E9
:10179000C2F200018B4207D8136010BD44F248200A
:1017A000C2F200001060EDE701F054F80C23036072
:1017B00001204042F1E7C04600BE704710B500F07E
:1017C00003F8FEF73FFFFEE740F200034EF600523B
:1017D00070B5CEF20002C0F2000382B09360002028
:1017E000FEF714FFFFF76AFE6B460026DC1D26702D
:1017F00001202378FFF798FFEFF31081012585F38F
:10180000108846F6FC73C4F204039A683D4802400F
:101810009A609A6881F3108840F60001C4F20401CE
:101820000A68D207D20F22700A68D207D20F22703C
:101830000A68D207D20F2270EFF3108185F3108867
:1018400080229868520502439A609B6881F3108851
:101850000120FFF73FFF0120FEF7D8FE40F60053BE
:10186000294AC4F200039E801A8044F24822C2F240
:1018700000029A6044F24862C2F20002DA6046F264
:10188000000240F2201141F20000C4F20002505266
:1018900044F2442244F28800C2F20002C2F2000084
:1018A0009D800021121A00F0E4FF44F2000044F28F
:1018B000700243F24051C2F20000C2F20002121A5A
:1018C000C0F2000100F0CCFF44F2680544F26C0362
:1018D000C2F20005C2F200035B1B9E10002B05DD67
:1018E000002408CD01349847A642FADCFFF7D0FD6A
:1018F0000220FEF78BFEFFF7D9FE0020FFF77EFEE9
:1019000002B070BDFFFFFFEF00A5FFFFF0B54FF67F
:10191000FF75CE46474699462B0015400E0029001C
:101920000340140C80B50700000C59434543634342
:1019300060435B190C0CE4188C46A54203D9802344
:101940005B0298464044230C61461B1820044FF666
:10195000FF740C40494679437243C918001989182D
:10196000C0BCB946B046F0BD03685A0004D5802219
:1019700012061343C01870475B005B08FAE7C046C5
:10198000F8B557464546DE464E469046E0B5070058
:1019900021B34B1E9A46994640F2000B5B464B44DE
:1019A000DC0FE4186410E5007E193000FFF7DCFF5F
:1019B000A2450CD040450CD8280008303818FFF755
:1019C000D3FF013840450AD2631C9B46E6E74045F9
:1019D00005D9A34502D0631E9946DFE700263000F3
:1019E000F0BCBB46B246A946A046F8BD030001289C
:1019F00004D002280CD000202BB1704742F2FD0029
:101A0000C0F20000F9E742F2F100C0F20000F4E792
:101A100042F20910C0F20000EFE7C04640F20003B6
:101A200030B5C0F20003050083B08C1E2BB320003C
:101A300001A900E000BFE0B101992200FFF7A0FF7B
:101A40000400B0B1FFF790FF6368A864012B30D0A9
:101A5000201D002B29DBFFF787FF0023E8642B659F
:101A60000368002B15DBFFF77FFF2861002003B020
:101A700030BD002309202B61F9E743F2405343F2C4
:101A80004840C0F20003C0F200001B1AD9100191B7
:101A9000D3E71801000FFFF7A9FF2861431E984103
:101AA0000823404298430930E1E70123E8642B65AD
:101AB000D6E7002305202B61D9E7C046036810B59F
:101AC0000400DA0705D49B070AD5483000F06EFC05
:101AD00023685A070AD51A070FD5DB0615D510BD9E
:101AE000483000F05FFC23685A07F4D42000D0305F
:101AF00000F060FC23681A07EFD420005130FF305B
:101B000000F05CFC2368DB06E9D42000D130FF3014
:101B100000F058FCE3E7C046092070470300006866
:101B200000B1C0187047C0467047C04670B5040089
:101B30000D002000296CFFF771FF88B92B6C2A007B
:101B4000636121000120236998470828F1D0072804
:101B500006D10020296CFFF7E7FF281D00F00CFCE0
:101B600000F070FEF0B5CE46474680B5C3682F4CF6
:101B70009846A5448369040016000431402205A854
:101B8000994600F06DFE0023049324E0149B40F27C
:101B9000E012636104A97CA8039300F061FE2100B8
:101BA000280023697CAA98478A9B05000393159314
:101BB0004B46019304AB0093220023003100012027
:101BC000C04708BB40F2E0127CA904A800F048FE20
:101BD0000026082D21D1149B200019000393FFF744
:101BE0001DFF09360700F5B20028CFD0129B102147
:101BF000039315934B46019304AB009322002300FB
:101C000001202943C04700B10927380040F2D433EE
:101C10009D44C0BCB946B046F0BD072DF4D130009C
:101C20001499FFF781FF05A800F0A6FB2CFCFFFF2D
:101C3000406C704770B5CB6BFAB00B6405000E00BA
:101C40004022043103A800F00BFE01235B42029303
:101C500006E029002B6902AA9847040008280AD147
:101C6000129B280019000193FFF7D8FE0028F0D03E
:101C700009207AB070BD02A8FFF720FF062CF7D12B
:101C800031002800FFF752FF10B58261DA6BC160A6
:101C90001A6419000022FFF765FF10BD436970B593
:101CA0000B64C36804000D009BB90A00236901009E
:101CB00002209847072805D008280FD129002000C6
:101CC000FFF734FF0020296CFFF72EFF281D00F0DE
:101CD00053FB0122FFF746FF00F0B4FD00F0B2FD18
:101CE000C36810B52BB1CB6B00220B64FFF73AFF32
:101CF00010BDFFF79FFFFBE77047C04683680100F8
:101D000010B50BB10120984710BDC046012914D071
:101D100009D883B90F2A0ED8920082185268009B06
:101D200000201A6006E001200339C9B288428041D0
:101D30004042013070470220FCE70120FAE7C0462C
:101D400000B585B003AB0A00009300210023FFF724
:101D5000DDFF039805B000BD012914D009D883B96F
:101D60000F2A0ED8009B92001B6882185360002037
:101D700006E001200339C9B2884280414042013067
:101D800070470220FCE70120FAE7C04600B585B0A5
:101D900003AB039200930A0000230021FFF7DCFF4E
:101DA00005B000BD70B51A4CD36BA5441364050093
:101DB0000C0019A8111D402200F052FD01235B42C6
:101DC000189313E00C2118A802AAFFF7DFFF2100E7
:101DD00018A8A84790B9069B18AA02A90830019331
:101DE0009847060005280AD0092807D0289B02A892
:101DF00019000193FFF712FE0028E3D0092618A866
:101E0000FFF75CFE300040F240239D4470BDC046A9
:101E1000C0FDFFFFF0B557469246032245464E46A9
:101E2000DE4699461300E0B58846CD6C494689B038
:101E30000340009308CD0695002900D181E01A0CDB
:101E40001B040593022304A90B73FD3313409B006D
:101E50004A73ED18009B022B01D143469D6B43460C
:101E60001B6DDB070ED5504605A900F04FFB08B9E6
:101E7000082000E0092009B0F0BCBB46B246A946E4
:101E8000A046F0BD2F68002FEDD008230340029339
:101E90000023544640F2010B4646BA4601934B4696
:101EA000022B4BD02B886F889A4604355A463B004C
:101EB0009343B26C0F21904620009844FFF740FFF7
:101EC0000023804506D853465A46934343449842DC
:101ED0009B415B4202227F001740594652460A400E
:101EE0001743012F32D0022F4DD0002FC2D1009ABC
:101EF00012B1002B00D09AE004352B689A46002BD3
:101F0000CDD1200005A9A24600F000FB0028B1D1E8
:101F1000019B002BACD00F215046FFF711FF0E2183
:101F200002005046FFF732FF40F2000250460F21F8
:101F3000C0F20002FFF72AFF07209CE76F68083510
:101F4000B4E71B02059304AB9A8183E7009A002A49
:101F500045D1B3B12B68DF0F6B689A1C00D189E7BC
:101F6000320058320492013300D1B1E0281DFFF74E
:101F7000D5FD3A00010004AB300000E000BF0028AE
:101F800069D10835B9E72A68009957007F0859B91F
:101F90001BB1029B002B71D0E7B3002A00DA043595
:101FA0000137BF00ED19A8E7336A0D2120009846DC
:101FB000FFF7C6FE804501D02A68EEE7B36A9D426E
:101FC000FAD10023F362043333632B1DB7627363CA
:101FD0002B68002B00DA85E001230193E0E70D2157
:101FE0002000376AFFF7ACFE8742CAD1B36A9D4230
:101FF000C7D1B046A2462800FFF7B6FC0F21020069
:102000005046FFF7C3FE504642460021FFF7BEFE92
:10201000072030E7B046A2460D215046FFF790FE5C
:102020004346049A18625A6206209D6223E72800FC
:10203000FFF79AFC0435A246B5630400300000E0C7
:1020400000BF002800D115E7504622000F21FFF7FE
:102050009DFE07200FE7A2460D2104005046FFF722
:102060006FFEB04633003062022C37D1049A2C3315
:10207000F2627362434606209D62FCE640F2580C11
:1020800040F2000821004A462B1DB444A9461C001A
:102090003D008A4647460392E0460DE04346200055
:1020A0000493FFF73BFD0022010004AB300000E089
:1020B00000BF0137043420B9AF42EFD14D46B046DE
:1020C000AAE72F004D46039B544699462A6864E7C9
:1020D0000D212000FFF734FEB04630624346049ADB
:1020E0005A62C7E7781C8000B046A246281883E7EA
:1020F00010B50023FFF78EFE10BDC04610B50123BA
:10210000FFF788FE10BDC04610B50223FFF782FE20
:1021100010BDC046F0B54746CE4680B50600170054
:102120001C00C3B0032943D020D8002948D001297E
:1021300040D1130C4FF6FF723A4098469146012C5D
:1021400000D179E0052C35D11F004F44202F31D824
:1021500043460F2B00D8B6E04F46002F00D0C2E018
:102160004A46B16B20AD0AB300277EE0042921D195
:1021700003BB102A1ED8102203681A4200D0C9E0FF
:1021800020AD280000F020F9012429000023B26BC3
:1021900020009840074201D001CA08600133043191
:1021A000042BF5D12800B26300F00CF9002002E006
:1021B000032B1DD0022043B0C0BCB946B046F0BDD1
:1021C000002BF7D14FF6FF72816B041D0023012015
:1021D0003A4005009D402A4201D020C925600133C4
:1021E0000434102BF5D10020BB04E4D4B163E2E742
:1021F000140C4FF6FF721740E319102BDAD808229F
:1022000003681A4200D08CE020AD280000F0D8F816
:10221000E400B36B57B1E41AFF00211FDF196918FE
:102220001800026804335A50BB42F9D12800B36346
:1022300000F0C4F80020BEE74B44102BBAD8434648
:102240000F2BB7D833681C4206D0032230009343CB
:102250003360483000F0A8F820AD280000F0A4F862
:102260004A460027B16B002A63D04346DB00ED18D5
:102270000023D200C858E85004339A42FAD1891892
:102280007FB16D464046102800D210200023103840
:10229000C0002818FA00CD58C55004339342FAD133
:1022A000C918012C44D04346B1630F2B07D9002F26
:1022B00000D17BE7684600F07DF800207BE720A88E
:1022C00000F074F8F3E7102F41D9103F0122336872
:1022D0001A4207D093430222300013433360483040
:1022E00000F066F8AFB3042233681A4228D143469F
:1022F0000F2B03D820AD280000F05AF86D462800B7
:1023000000F05AF810224346B16BD21A002AB9DD08
:1023100020ADAAE793430360D130FF3000F054F8BA
:102320002EE7934303605130FF3000F049F86BE72C
:1023300020AD04312800B16300F034F800203AE702
:10234000300093433360D03000F036F8CFE70027F9
:10235000BCE743460F2B00D902E720AD280000F070
:1023600027F84A46B16B002A00D0FDE6280000F0AD
:102370001DF800201FE7C0460100343138C9043B76
:102380009C461D60A646010020313CC990469946F6
:10239000A246AB4601000831FCC941680068E54629
:1023A00000BDC0467047C0467047C0467047C04633
:1023B0007047C0467047C0467047C0467047C04629
:1023C0007047C0467047C0467047C04601B401A878
:1023D00001B585B0FFB408A841464A4653465C465D
:1023E00065463EC001A83EC80F98009000230CB47B
:1023F00001A9FFF71FFC109B12B0184701B401A8F8
:1024000001B585B0FFB408A841464A4653465C462C
:1024100065463EC001A83EC80F98009000230CB44A
:1024200001A9FFF73BFC109B12B0184701B401A8AB
:1024300001B585B0FFB408A841464A4653465C46FC
:1024400065463EC001A83EC80F98009000230CB41A
:1024500001A9FFF745FC109B12B0184701B401A871
:1024600001B585B0FFB408A841464A4653465C46CC
:1024700065463EC001A83EC80F98009000230CB4EA
:1024800001ABFFF701FC109B12B0184701B401A883
:1024900001B585B0FFB408A841464A4653465C469C
:1024A00065463EC001A83EC80F98009000230CB4BA
:1024B00001AAFFF777FC109B12B01847027A0300BD
:1024C00052B9427A7AB1013A42724268111D4160B2
:1024D00003211268017202E0013A02720268100ED2
:1024E00012021A607047B020FCE7C04600B585B004
:1024F00003AB00930C2200230021FFF707FC039895
:1025000005B000BD10B5FFF7F1FF10BDF0B54E46A8
:1025100045465746DE4640F2000AE0B540F20F0855
:1025200005000E0040F2070985B03000FFF7C6FF36
:102530000400B02800D1C3E003062AD503004246B8
:102540009343DBB2802B54D0902B3ED0A02B6DD088
:10255000B02B00D17FE0C02B00D197E003004A46AA
:102560009343DBB2D02B0BD18023024001321B03FB
:102570001A43052301212800FFF7CCFD0028D4D001
:102580000924200005B0F0BCBB46B246A946A046CF
:10259000F0BDFF23820013401F1D03AB9B46009339
:1025A0000D22002300212800FFF7B0FB63063AD478
:1025B000039B9C4667445B460397009300230D22D0
:1025C00000212800FFF7C8FBAFE7833B03400D2B3A
:1025D000D6D003AF02400023002128000097FFF768
:1025E00095FB00230D22002128000097FFF7B4FB84
:1025F0009BE704023000FFF761FF48F20007044345
:10260000BC42BDD04FF6FF722401002300212800F8
:102610002240FFF77FFD0028B2D1274200D184E796
:1026200040F2010A81E7039BDF1BC4E740F6F0722A
:102630004B461100834319410A40030702D544F277
:1026400000031A43002300212800FFF763FD002840
:1026500000D16AE794E7B12846D0B22800D1A2E0C1
:10266000B32857D0FC230340B42B00D188E74A4657
:102670008023024001321B031A4301210123280059
:10268000FFF748FD002800D14FE779E7C6284CD076
:10269000C7285ED003004A469343DBB2C02B6ED0FE
:1026A000C82873D0C92800D06AE73000FFF706FFBA
:1026B000F02302031B03134042460240013257E756
:1026C00053460024002B00D05BE703AE0E2200210E
:1026D00028000096FFF71AFB00230F220021280094
:1026E0000096FFF739FB4CE73000FFF7E7FE0200EA
:1026F000002800D144E7030041468B43DBB2002BA6
:1027000000D03DE700212800FFF704FD002800D19C
:102710000BE735E73000FFF7D1FEF02302031B0380
:102720001340424602400132A6E73000FFF7C6FEE2
:10273000F02302031B0313404246024001321A43B6
:10274000032303212800FFF7E5FC002800D1ECE675
:1027500016E73000FFF7B2FE0200002800D10FE7B5
:10276000030041468B43DBB2002B00D008E7042175
:102770002800FFF7CFFC002800D1D6E600E743464B
:10278000A0221C40013412032243D9E73000FFF796
:1027900095FE434602009A43D2B21032184012030B
:1027A00001300243E5E603AB00939B460D22002374
:1027B00000212800FFF7AAFA3000FFF77FFE03068A
:1027C00019D57F27B03C039B3840A0409C4660440D
:1027D000039030000734FFF771FE0306F3D47F2324
:1027E00040F2042C0340A340039A62449B180393D5
:1027F0005B460093E2E60224F1E7C046030000B521
:10280000DA6C85B05368080008321902019102920F
:10281000694603221B0E0A734B7301A9FFF776FE6C
:1028200005B000BD10B5FFF76DFE806C10BDC04651
:1028300010B5FFF767FEC26CD07902308000101827
:1028400010BDC046062010B500F044F8012000F08D
:10285000D5FCFFFF014B18687047C04604400020BC
:10286000002310B59A4200D110BDCC5CC454013392
:10287000F8E703008218934200D1704719700133C2
:10288000F9E770B504000D001F2904D91623036071
:102890000120404270BD436C1BB18A009B181A682E
:1028A00042B9200000F032F82A000100200000F0B8
:1028B0001BF8EFE70020012AECD0511C03D11623AE
:1028C00001302360E6E7002428001C6090472000C8
:1028D000E0E7FFFF10B5034B01001868FFF7D1FFD9
:1028E00010BDC04604400020002370B5064D040012
:1028F000080011002B6000F077FC431C02D12B680C
:1029000003B1236070BDC0463C42002010B500F00A
:1029100061FC10BD0023C25C0133002AFBD1581EAC
:102920007047FFFF00B59BB00091049106490591E7
:10293000029106490391694600F00EF90023009ABE
:1029400013701BB000BDC046FFFFFF7F0802FFFFF2
:1029500010B513000A00010002480068FFF7E2FF0B
:1029600010BDC0460440002070B50E4E0D00316809
:10297000040011B900F068FB30602900200000F06D
:1029800063FB431C0AD00323C51C9D43A84207D008
:10299000291A200000F058FB431C01D101256D428B
:1029A000280070BD38420020F7B50322CB1C9343AA
:1029B000083306001F000C2B32D20C27B94231D845
:1029C000334D300000F06EFB2B681C00002C2ED124
:1029D00039003000FFF7C8FF0400431C1ED12C68EB
:1029E0002500002D4AD123682900E3183000019307
:1029F00000F02AFB019B834243D123680337FF1A6F
:102A000003239F4308370C2F00D20C2739003000D6
:102A1000FFF7AAFF431C34D02368DF19276013E0B7
:102A2000002BCBDA0C23002533602800FEBD226882
:102A3000D11B20D40B2917D9E2192760A34211D149
:102A40002A606368116053603000250000F032FB9B
:102A500007220B35231D9543EA1A9D42E5D05B1BE7
:102A6000A350E2E75A60ECE76268A34201D12A6012
:102A7000EAE75A60E8E723006468A7E72C006D687E
:102A8000AFE70C233000336000F014FBCDE7C04605
:102A900034420020F0B58E6885B007000C00039228
:102AA00001939E423CD840F280438A891A4234D036
:102AB0000969236860695B1A029303234343DD0FAE
:102AC000ED18019B029801331B186D10AB4200D921
:102AD0001D00530532D529003800FFF765FF0600B9
:102AE00048B90C233B6040230120A2894042134394
:102AF000A38105B0F0BD029A2169FFF7B1FEA38959
:102B0000144A1A4080231343A381029B2661F618BE
:102B100026606561019EED1AA560019B9E4200D969
:102B2000019E32000399206800F0A9FAA3680020F2
:102B30009B1BA36023689E192660DAE72A003800F1
:102B400000F006FB06000028DFD13800216900F004
:102B5000B9FAC6E77FFBFFFFF0B5A1B003901D00F7
:102B60008B890F0016001B060FD50B696BB940212E
:102B7000FFF71AFF3860386128B90C23039A01382F
:102B8000136021B0F0BD40237B61002308AC63617A
:102B9000203363761033A376079535002B780BB17D
:102BA000252B47D1AB1B0593B5420CD03200390021
:102BB0000398FFF76FFF431C00D1B0E06269059BEB
:102BC0009446634463612B78002B00D1A7E0012277
:102BD00000235242626004A9543252186E1C2360D2
:102BE000E360A3601370A36505223178544800F0B8
:102BF0003BFA751C00BB2268D30604D5532304A9F5
:102C00005B1820211970130704D5532304A95B18FE
:102C10002B21197033782A2B17D03500002140F270
:102C20000A0C0126E3682A78681C303A092A4BD935
:102C300089B917E00135B1E7414B2268C01A012379
:102C4000834013432E002360CEE7079B191D1B68AA
:102C50000791002B01DB0B9304E05B42E36002234E
:102C6000134323602B782E2B0AD16B782A2B34D177
:102C7000079B02351A1D1B680792002B2ADB09935C
:102C8000304E03223000297800F0EEF930B14023B5
:102C9000801B834022680135134323602978062274
:102CA00029486E1C217600F0DFF900283FD0274B21
:102CB0004BBB0722079B0733934308330793636992
:102CC000049A9B18636168E761464B430500310035
:102CD0009B18A8E701235B42D1E7002340F20A0CCE
:102CE0001A000126013563602978681C30390929EA
:102CF00003D9002BC4D00992C2E763465A430500AA
:102D000033005218F0E707AB00933A002100104B54
:102D1000039800E000BF0490049B0133CFD1BB892E
:102D20000D985B0600D42CE70120404229E707AB51
:102D300000933A002100064B039800F079F8EAE787
:102D4000E0330000E6330000EA330000000000003A
:102D5000952A0000F7B5150001938A680B690C00ED
:102D60000090934200DA130022002B604332127865
:102D70000AB101332B6023689B0602D52B6802330E
:102D80002B602268062317001F401A4227D0230019
:102D900043331B785A1E93412268920630D4220096
:102DA00001990098089E4332B047431C25D0062362
:102DB00020682A68E16800250340042B03D18D1A9E
:102DC000EB43DB171D40A3682269934201DD9B1A88
:102DD000ED180027BD4220D1002010E00137E36844
:102DE0002A689B1ABB42D2DD220001230199009878
:102DF000089E1932B047431CF0D101204042FEBD6D
:102E00003020E1184331087021005A1C45310978FF
:102E1000A218433202331170C1E722000123019945
:102E20000098089E1A32B047431CE6D00137D1E71C
:102E3000F0B50E0089B00492039005930C00097E52
:102E40000E9A4336782907D8622909D8002900D17B
:102E5000BCE0582900D184E025004235297022E0E9
:102E6000080063381528F7D800F0AAF916001F00EB
:102E7000F6FFF6FFF6FFF6FF1F00F6FFF6FFF6FF80
:102E8000F6FFA30034009200F6FFF6FFB400F6FF51
:102E90003400F6FFF6FF9600250013684235191D31
:102EA0001B6811602B700123A1E013682068191DB5
:102EB000050609D51B681160002B02DA2D225B4242
:102EC00032700A225E4914E01B6811604006F3D597
:102ED0001BB2F1E713682568181D10601B682F06E8
:102EE0003BD56F2962D00A22554920000025433086
:102EF00005706068A060002803DB04252768AF43E5
:102F000027600BB9350060B13500B3FBF2FC6046B9
:102F10005043181A085C013D28701800634682422D
:102F2000F3D9082A09D12368DB0706D5636822692B
:102F3000934202DC3023013D2B70761B2661059BFA
:102F4000210000930398049B07AAFFF703FF431C8B
:102F500051D10120404209B0F0BD6D06C1D59BB2F0
:102F6000BFE723004533197035491068256808C844
:102F700010602F0616D5EA0702D5202215432560DA
:102F80001022002BB1D12020256885432560ACE7B5
:102F9000202321680B4323602300782145331970D7
:102FA0002849E2E76F06E6D59BB2E4E70822244908
:102FB0009BE713682568181D616910601B682F0660
:102FC00001D5196002E06D06FBD51980002335009C
:102FD0002361B4E71368191D11601D6800212800E2
:102FE000626800F041F808B1401B606063682361CB
:102FF00000233370A3E72A00236904990398059DF1
:10300000A847431CA5D023689B0716D4079BE068FC
:103010009842A0DA18009EE7220001230499039841
:10302000059E1932B047431C00D192E70135E36891
:10303000079A9B1AAB42EFDCE8E70025F7E7C046AA
:10304000F133000002340000002370B5054D040088
:1030500008002B60FEF78EFB431C02D12B6803B1E6
:10306000236070BD3C420020C9B28218904201D159
:103070000020704703788B42FBD00130F6E710B593
:10308000884202D98B18984203D3002307E08B5C57
:103090008354013AFBD210BDCC5CC45401339A4234
:1030A000FAD1F8E710B5024800F080F810BDC0462C
:1030B0004042002010B5024800F079F810BDC0462B
:1030C0004042002070B5050079B10C1F2368002B29
:1030D00000DAE4182800FFF7E5FF1C4A13682BB953
:1030E000636014602800FFF7E5FF70BDA34208D9B4
:1030F000216860188342F3D118685B684118216029
:10310000EEE71A005B680BB1A342FAD911685018B8
:10311000A0420BD120680918501811608342E1D1F8
:1031200018685B68411811605360DBE7A04202D960
:103130000C232B60D6E721686018834203D11868FE
:103140005B684118216063605460CBE73442002023
:10315000F7B507000E00140029B91100FFF724FC91
:1031600005002800FEBD1AB9FFF7ACFF2500F8E7FF
:1031700000F01EF80190844203D835004308A342B2
:10318000EFD321003800FFF70FFC05000028E8D03E
:10319000019B22009C4200D91A0031002800FFF751
:1031A0005FFB31003800FFF78DFFDAE770477047AB
:1031B0000B1F1B68181F002B01DA0B58C018704733
:1031C00003B47146490840004900095E49008E4435
:1031D00003BC704744F23C2358220120C2F2000392
:1031E00040421A607047C04644F23C2358220120F6
:1031F000C2F2000340421A607047C046FEE7C04674
:103200004275696C7420776974682052656E6573C5
:10321000617320416476616E63656420466C6578F5
:1032200069626C6520536F667477617265205061C6
:10323000636B6167652076657273696F6E20332EEC
:10324000362E3000332E362E3000000000000603EC
:10325000F8B5C046F8BC08BC9E467047F8B5C046F5
:10326000F8BC08BC9E4670476161610A00FFFFFF21
:103270006C6567656E642D7465636800257300FF77
:103280000841002010330000A033000000000000BF
:10329000006CDC020000000000366E0100020C0031
:1032A0005105000000000000AC32000000000000EA
:1032B000000000000000000000000000000000000E
:1032C0000000000000000000000000000000FFFF00
:1032D000DFDF000000000000000000000902000025
:1032E00002040205010602070000000000000000C1
:1032F000DD05000000000000FC32000000010000BD
:10330000004000200F00FFFF00000000FFFF000052
:103310000D0000001833000000000106010100004C
:103320000080000003010000000001030401000010
:103330000000010008010000000001050901000073
:10334000000001050A010000000001050C02000058
:10335000000001050D020000000001000003000054
:10336000000001040103000000000104020300004A
:103370000000010700040000000001070104000034
:10338000141111101E1C1E1A070000000F0000006F
:10339000000000000000000000000000000000002D
:1033A000E1100000850E0000F9100000051100007A
:1033B0004D0F00009D0F0000990F00008D0E0000C2
:1033C000E90E0000110F0000350F0000790F00001A
:1033D000B10E0000C90E000001000200080010003C
:1033E000232D302B2000686C4C00656667454647EE
:1033F0000030313233343536373839414243444571
:1034000046003031323334353637383961626364DF
:08341000656600FF00000000EA
:1034180074B20181B0AB30800000000080080181E7
:10342800B0B0ABF0000000003F020181B0AB3080CB
:103438000000000080040181B0B0ABF00000000083
:1034480008D1FF7FB0B0A88038D1FF7F03A80180E2
:103458006CD1FF7FB0B0A8807CD1FF7F0100000055
:1034680078D1FF7FB0B0A8809CD1FF7F0084028014
:10347800CCD1FF7F010000009CE5FF7FB0A902804E
:1034880034E6FF7FB0B0A88088E6FF7F0100000027
:1034980094E6FF7FB0B0AA80C4E6FF7F74FFFF7F89
:1034A80088E7FF7F0100000084E7FF7FAA3F39809B
:1034B800D0E7FF7FB0B0A880DCE7FF7FB0B0AA807C
:1034C80018E8FF7FB0B0A88028E8FF7F010000005F
:1034D80024E8FF7FB0B0A8802CE8FF7F010000003F
:1034E800BCE8FF7FAA0FB28024E9FF7F30FFFF7F8F
:1034F800F8EBFF7FB0B0A88014ECFF7F2CFFFF7FB4
:1035080070EEFF7F01000000DCEFFF7F0084048085
:10351800ECEFFF7FB0B0A880ECEFFF7F18FFFF7FD4
:10352800D4F2FF7F00840480F4F2FF7FB0B0A8805B
:083538000CF3FF7F010000000D
:1035400040000C00084000200000000000000000C7
:10355000000000000000000000000000000000006B
:10356000000000000000000000000000000000005B
:10357000000000000000000000000000000000004B
:10358000000000000000000000000000000000003B
:10359000000000000000000000000000000000002B
:1035A00000000000000000002D05000001050000E3
:020000040101F8
:10001800FFFFFFFFFFFFFFFFFFFFFFFFFFFFFFFFE8
:0C002800FFFFFFFFFFFFFFFFFFFFFFFFD8
:04000003000017BD25
:00000001FF
