:1000000078500020B9220000A5210000B522000090
:10001000B5220000B5220000B5220000B522000084
:10002000000000000000000000000000B5220000F9
:10003000B522000000000000B5220000B52200003B
:10004000950C0000310D0000150E00008D0E000013
:10005000E90F0000550F000095100000DD100000B2
:10006000C11F0000A51800009919000051110000DF
:10007000C91B000000000000000000005D1A000025
:1000800069170000000000000000000000000000F0
:100090000000000000000000000000000000000060
:1000A0000000000000000000000000000000000050
:1000B0000000000000000000000000000000000040
:1000C000FFFFFFFFFFFFFFFFFFFFFFFFFFFFFFFF40
:10040000FFFFFFFFDFCEFFFFFCFF0F00FFFF0F002E
:10041000FCFF0F00FFFF0F00FCFF0F00FFFF0F00AE
:10042000FCFF0F20FFFF0F20FCFF7F40FFFF7F40FE
:10043000FCFF0D40FFFF0D40FFFFFFFFFFFFFFFF31
:10044000FFFFFFFFFFFFFFFFFFFFFFFFFFFFFFFFBC
:10045000FFFFFFFFFFFFFFFFFFFFFFFFFFFFFFFFAC
:10046000FFFFFFFFFFFFFFFFFFFFFFFFFFFFFFFF9C
:10047000FFFFFFFFFFFFFFFFFFFFFFFFFFFFFFFF8C
:10048000FFFFFFFFFFFFFFFFFFFFFFFFFFFFFFFF7C
:10049000FFFFFFFFFFFFFFFFFFFFFFFFFFFFFFFF6C
:1004A000FFFFFFFFFFFFFFFFFFFFFFFFFFFFFFFF5C
:1004B000FFFFFFFFFFFFFFFFFFFFFFFFFFFFFFFF4C
:1004C000FFFFFFFFFFFFFFFFFFFFFFFFFFFFFFFF3C
:1004D000FFFFFFFFFFFFFFFFFFFFFFFFFFFFFFFF2C
:1004E000FFFFFFFFFFFFFFFFFFFFFFFFFFFFFFFF1C
:1004F000FFFFFFFFFFFFFFFFFFFFFFFFFFFFFFFF0C
:1005000010B544F22814C2F20004237863B940F213
:100510000003C0F200032BB143F26C60C0F2000094
:1005200000E000BF0123237010BDC04640F200036D
:10053000C0F2000310B54BB144F22C1143F26C60D1
:10054000C2F20001C0F2000000E000BF10BDC046D2
:10055000F0B54400201844F24414C2F20004A4464A
:1005600044F28004C2F20004277844F28104C000FF
:100570006044C2F2000440F2080C257880248444D0
:100580002E00144200D13E0006702E000C4200D115
:100590003E0006722E001C4200D13E00067401305F
:1005A00064108445ECD1F0BD10B500242000013466
:1005B000002300220021A4B2FFF7CAFF402CF5D18E
:1005C00010BDC04643F2185144F2547010B5C0F249
:1005D0000001C2F2000000F08DF944F24873C2F24B
:1005E00000030024186050B92000013400230022C9
:1005F0000021A4B2FFF7ACFF402CF5D110BD43F2AF
:10060000944343F2E04243F2C4402621C0F2000387
:10061000C0F20002C0F2000001F090FD10B544F2FB
:100620004474012344F2441144F25470C2F20004B1
:10063000237040F200620633C2F20001C2F20000F1
:1006400000F04EF944F24873C2F20003186018B982
:100650002378002BFCD110BD43F2944343F2F442C3
:1006600043F2C4406F21C0F20003C0F20002C0F2A6
:10067000000001F063FDC04644F244730022C2F260
:1006800000031A707047C04670B5FFF79BFF3F2507
:1006900000263400FFF788FF300000230022FF21EE
:1006A000FFF756FF701C0023FF22002186B228406E
:1006B000FFF74EFFA01CFF23002200212840FFF778
:1006C00047FFE01C00230022FF212840FFF740FFE6
:1006D000201D0023FF2200212840FFF739FF601D65
:1006E00000212840FF230022FFF732FFFFF796FF8B
:1006F00040F2E831082001F027FD402EC9D1C7E7BC
:1007000000B583B040B94CF2000390220121C4F23D
:100710007E03995403B000BD0228FBD143F20C5371
:1007200044F24C70C0F200035B68C2F20000190092
:10073000019300F055FEEDE710B5FFF7A5FF00208F
:1007400010BDC046F0B50400806A85B08C4601AD8E
:1007500090B12B000200C2CAC2C363681B78036059
:1007600063460371E36A8360636A9847A36A0BB1C7
:1007700007CD07C305B0F0BD2800EEE7F0B50E00C9
:100780004021C64604000F0000B51D0006AB1878D6
:10079000A3681B781F40194200D073E020236761D3
:1007A000A761E6602261E561E05463685F690FB3A9
:1007B0007B68A5611968CB780F2857D9302083430F
:1007C00020200343CB7040F20C0840468B788343D3
:1007D00008208446604603438B70ABB2CB818A60AD
:1007E000002A67D0BB6838685B689847D8BB20226E
:1007F0006368A05C1A69E2B1536865611968CB78D7
:100800000F2839D93020834320200343CB700C209C
:100810000827CB78ADB283433B43CD81CB704E608C
:10082000002E51D0936810685B689847D8B9202390
:10083000E05CA268D17A148AC9B2A4B20F2823D985
:1008400040230130994383082020053B014323487E
:10085000D172044018024021204380B2108200204F
:1008600013780B43137080BCB846F0BD072811D82D
:1008700030208343CB70A6E7072811D8302083436C
:10088000CB70C4E70820EEE707280FD840231943B0
:100890000300DCE73020834310200343CB7092E752
:1008A0003020834310200343CB70B0E7602399438B
:1008B0000300CCE742468B7893438B7044F29473E9
:1008C000C2F200038B608DE7DBB28343CB7044F24E
:1008D0009873C2F200034B60A4E7C046FFF0FFFF2D
:1008E00000B583B0009313000022FFF747FF03B069
:1008F00000BDC04640F22072F0B545465746DE4680
:100900004E46C0F240029446E0B50B780F6963444E
:100910001B021A1D04000D00904687B0002F00D165
:1009200091E18022796812050B6838681A604246A6
:100930009A60BB681B6898470600002800D07AE1DF
:100940006B6973B18020596800030A6810604046E3
:10095000506018689B681B6898470600002800D004
:100960008EE140F22072C0F2400294462B7863443C
:100970001B02AA6965606262EA69A360E262002202
:10098000A2626B7A9C46002B00D06FE1B820082150
:100990001026EB7A6F7B2A6A3F035B003B43AF7AFA
:1009A00015783B430DB1B120084351787027CD0134
:1009B000A8434D004901294301430191D07895781E
:1009C000BB438540029511791F00000131B1023906
:1009D0004B1E99410F23494299433031537923B13A
:1009E000012B00D151E101231E4393790393137A24
:1009F0009B071B0F034360463B43002800D039E1AF
:100A0000507A4EF200070490907A3B430590D07ADA
:100A10008346EFF3108A012080F3108846F6FC70BD
:100A2000C4F20400476840F21309B84667683F788B
:100A3000BC464F4665467F1BB94601274D46AF4031
:100A4000B94647464D46AF43476040688AF3108831
:100A500040F20008A068F6B2C5784546C5706D46FC
:100A60002D799BB205706D462D7A45708170D279D3
:100A70004EF200118272049ACEF200010273059ABE
:100A80008C4642735A468273C67303822023039AAC
:100A90006668C2540223F35640F200359A08920069
:100AA000944462465259B079914603221A40D200CA
:100AB0009046FF22414617008F40B8468001104003
:100AC00088404F46414644F2E4788F436146C2F283
:100AD000000838434851414646F2000C9800445003
:100AE0001800C4F2000C6146C03080004158684FC5
:100AF0003940894661464F4647501F200121184022
:100B0000814008004EF20011CEF20001894640F209
:100B100080175B099B004B44D85118600123F356A2
:100B20009808800081444946495970798B460321D1
:100B30001940C9008A46800110405746884011007C
:100B4000B9408A4659465746B94308434946485131
:100B500041469800445018006146C030800041581A
:100B60004B4F3940894661464F4647501F2001216F
:100B70001840814008004EF20011CEF20001894673
:100B800040F280175B099B004B44D8511860042346
:100B9000F35698088000814449464959307A8B467B
:100BA00003211940C9008A468001104057468840F9
:100BB0001100B9408A4659465746B9430843494649
:100BC00048514146980044501900C03188006146A0
:100BD0002F4F41583940894661464F4647501F21A3
:100BE000012719408F404EF20011CEF200018C46D1
:100BF00040F280105B099B0063441F501F60032775
:100C0000F7570321B80880006044435939409C4697
:100C1000F379C9009B0113408B408A4061469143A0
:100C20000B4343514346BF00FC5045F249030026A5
:100C3000C5F253232360300007B0F0BCBB46B24678
:100C4000A946A046F0BD4A69002A00D191E680205D
:100C5000516800030B68186040465860936810683C
:100C60001B68984706000028E5D17AE6B0200021ED
:100C700000268EE6002040F2000B05900490C8E6A6
:100C8000BB6838681B6A9847D5E703231E43ACE668
:100C9000FFFFFEFF30B5EFF30383103B5BB21A009A
:100CA00046F20001C032C4F20001920050581F4CBD
:100CB0009B002040505044F2E472C2F200029B5864
:100CC0009A69D9698A4219D0186930B320241C5D09
:100CD0000F2C09D999684C6891000C50D9690132E0
:100CE0009A618A420AD030BD072C19D899680979CF
:100CF0008154D96901329A618A42F4D103221F21B9
:100D00005B689A561140530901228A404EF2001145
:100D10009B00CEF200015A50E5E798684068DEE794
:100D20009C68A58854000553D9E7C046FFFFFEFF25
:100D3000F0B5C64600B5EFF30383103B5BB21A0073
:100D400046F20001C0329200C4F200015058304D0A
:100D50009B002840505044F2E472C2F200029B58BB
:100D60005868026A002A2ED05678DC695A69012E2A
:100D700016D094420BD0D96841B32020185C0F28BC
:100D800008D9940098686158416001325A6180BC6A
:100D9000B846F0BD07281CD8895C98680171F4E753
:100DA000671EBA421AD001690029E2D003254557CF
:100DB0001F20284086404EF200106909CEF2000044
:100DC00089000E50D5E75A69DC69D2E7986841601E
:100DD000DBE75000415A98688180D6E7C07840B27E
:100DE00007008046C037BF00785805407D50404618
:100DF0001F2101408E404EF20011CEF200018C46C0
:100E000040F2801140098000604446500660B0E71F
:100E1000FFFFFEFF10B5EFF30383103B5BB21A0038
:100E200046F20001C032C4F2000192005058164C44
:100E30002040505044F2E4729900C2F200028858F7
:100E40008268D278920704D54268527A012A00D08B
:100E500010BD1F215A090B401E39994013004EF254
:100E600000142033CEF200049B001951BFF34F8FC2
:100E7000BFF36F8F4021826813788B4313703F3923
:100E8000FFF760FCE4E7C046FFFFFEFF70B5EFF33D
:100E9000038444F2E4734021103C64B2C2F20003C4
:100EA000A200D658B3681A788A4300211A70DA78FB
:100EB000D970D5B2130710D4EB0714D414232B40E8
:100EC000142B18D046F20003C034C4F20003A4006F
:100ED000E2580B490A40E25070BD30000531FFF77F
:100EE00031FCEB07EAD504213000FFF72BFC14237B
:100EF0002B40142BE6D108213000FFF723FCE1E75B
:100F0000FFFFFEFFF0B5C64600B50500806A84B05D
:100F10008C4690466C46D8B12300060086CE86C328
:100F200036681E60EB691B78036063468360434646
:100F30000371EB6AC3606B6A9847AB6A23B107CC55
:100F400007C31A002368136004B080BCB846F0BD24
:100F50002000E7E770B5EFF30383103B5BB21A00A4
:100F600046F20001C0329200C4F2000150581D4CFC
:100F70009B002040505044F2E472C2F200029858A4
:100F8000C3691B6913B1036913B170BD036983B9E8
:100F90007F23026A91780B4004210B439370002356
:100FA000C360436A002BF0D080220021FFF7AAFF24
:100FB000EBE703218278114002290AD0C168056A53
:100FC0000C78EC709207920F9B1A8A180361C2602A
:100FD000DAE74FF60065C1680C882C43056AEC819E
:100FE000F0E7C046FFFFFEFF10B582B0EFF30383CA
:100FF000103B5BB21A0046F20001C0329200C4F20C
:1010000000015058224C9B002040505044F2E472A2
:10101000C2F200029C58E369A069DB685BB150B181
:101020000023A3616361636AABB101220021200048
:10103000FFF768FF0FE00323A2781340022B0CD0C8
:10104000236A5979C9B2019178B9636A1BB1042244
:101050002000FFF757FF02B010BD40F2FF11236AD6
:101060001B8A194001910028EFD09207920F606906
:1010700001A902F06CF9A37862699B079B0FD21853
:101080006261A269D31AA361002BE4D1CBE7C04609
:10109000FFFFFEFF10B5EFF3038444F2E473103C4E
:1010A00064B2C2F20003A200D0587B23026A917896
:1010B0000B409370436A1BB102220021FFF722FF0D
:1010C00046F20003C034C4F20003A400E25802490F
:1010D0000A40E25010BDC046FFFFFEFF70B5EFF3BF
:1010E000038444F2E473103C64B2C2F20003A20031
:1010F000D058032382781340022B20D0036A5979F9
:10110000C9B238221D792A40ED0602D51D7FED07B0
:1011100012D538261D79B5431D71436A0BB1FFF70F
:10112000F1FE46F20003C034C4F20003A400E2580A
:1011300006490A40E25070BD40252A43E9E740F2E3
:10114000FF11036A1A8A1140DBE7C046FFFFFEFF6A
:10115000EFF3038344F2E472103B5BB29900C2F2F6
:1011600000028A580121117246F20002C033C4F213
:1011700000029B0099580248014099507047C046B0
:10118000FFFFFEFF0023036000207047FF2010B523
:1011900040F600040B0A084019010918C4F20404BF
:1011A00089000B5900209B07DB0F137010BDC04650
:1011B0000023C4F204039C46090A490161444B68B8
:1011C000002013807047C0460020C4F2040084460B
:1011D0001800090A90430004134049010343614485
:1011E00000208B607047C046FF20012308408340E9
:1011F00052B91B040022C4F204029446090A4901B0
:10120000614400208B6070474FF6FF721340F1E796
:101210000020C4F2040084461800090A490110B5F0
:1012200061440C68104020439343984308600020B9
:1012300010BDC0460023C4F204039C46090A4901BC
:1012400061444B6800201B0C138070470020C4F2DF
:10125000040084460B0A5B0163445868FF2319406D
:10126000FE3B8B40000C99B203405B1A59424B4144
:10127000002013707047C0460020C4F2040084466A
:101280001800090A904300041340490103436144D4
:101290000020CB607047C046062070470B0A10B58F
:1012A0005B01012A10D00022C4F204029446FF2000
:1012B0008022014052028A406344DC682243120CBF
:1012C00012040020DA6010BD0020C4F2040084463D
:1012D000FF2001408A4011004FF6FF726344DC6832
:1012E000114021430A40ECE7F0B5DE4657464E4632
:1012F0004546E0B583B0EFF31082012383F31088F5
:1013000044F2E073C2F2000301931B6833B940F664
:101310000051C4F20401CB704033CB7001990B68CB
:1013200001330B6082F3108803889A46BBB3802395
:1013300040F600055B029946284B002240F2FF0868
:101340009C464168C4F204050AE043461E4023015E
:101350009B1901329B0092B25851083192451ED020
:101360004B468E880868340A1842EED043461E4029
:1013700023019C19A700644600977F599B192740B9
:101380003C00009F01327C51674607403C00009FB3
:101390009B0092B27C51083158519245E0D1EFF355
:1013A0001082012383F31088019B1B681BB10199F4
:1013B0000B68013B0B60019B1B6833B940F6005181
:1013C000C4F20401CB708033CB7082F3108803B079
:1013D000F0BCBB46B246A946A046F0BDFFFFFEFFEB
:1013E00045F2542310B5C5F24F0303600800FFF720
:1013F0007BFF002010BDC04610B50800FFF774FF4A
:10140000002010BDF0B5EFF31084012383F31088A2
:1014100044F2E073C2F20003186830B940F6005598
:10142000C4F20405E8704030E870186801301860B4
:1014300084F31088D00321D4FF24080A0C40010152
:1014400040F600000919C4F2040089000A50EFF3C5
:101450001082012181F31088196811B119680139CE
:1014600019601B6833B940F60051C4F20401CB7017
:101470008033CB7082F310880020F0BDFF2440F64B
:101480000005080A0C4001010819C4F20405800097
:101490004759034E3740164047514651D0E7C046A2
:1014A000FFFFFEFFF0B50400806B83B06D4688B18E
:1014B0002B000200C0CAC0C3E36B01710360636B01
:1014C0009847A36B0BB106CD06C32B230022E25431
:1014D00003B0F0BD2800EFE7F0B557464E4645464D
:1014E000DE461F23E0B5026904681370403383B001
:1014F0001370656A8033137000912F79FF3B1F438F
:10150000FFB21774EF7801003B43DBB253747023D2
:10151000AF784BF6C0503F013B4008273B439370E8
:101520002B78CFF6F070013B5F427B4184466D78AB
:1015300004336D002B43DBB2D37063684EF20010AE
:1015400063445C426341DB01773353710023CEF285
:101550000000844640F2003503279371B333D37102
:10156000009BFF265B7C40F2801B5BB29C08A400C2
:10157000644460591F408446F80080460098477BC9
:10158000B8010700FF2037404646B040814660461C
:101590004E46B043464644F2E47C0197B740C2F25F
:1015A000000C40F2C00866463843605198449C00E5
:1015B000A151464646F20004B600B046C4F200040B
:1015C0003659684837004646074037511F271F40A5
:1015D000B84601274646B7404EF20016CEF2000646
:1015E000B1465E465B099B004B449F511F60009BC8
:1015F0000327DB7B5BB29E08B600B046C844464674
:1016000076591F40B146FE00FF27B246B7404E460E
:10161000BE43B1465646019FB7404E463E43B14693
:1016200046464F4677519E00B046474640F2C008B6
:1016300066469844B9514646B600B046365906400B
:10164000B14646464F4637511F261E40B04601263A
:101650004746BE40B0464EF20016CEF20006B146F6
:1016600047465E465B099B004B449F511F60009BB1
:101670001B7C5BB29E08B600B046C844464676590D
:10168000B14603261E40F600B246FF265746BE402E
:101690004F46B743B9465646019F8A46B7404E4625
:1016A0003E43B14646464F4677519E00B0464746B8
:1016B00040F2C00866469844B9514646B600B04666
:1016C00036590640B14646464F4637511F261E4002
:1016D000B04601264746BE40B0464EF20016CEF256
:1016E0000006B14647465E465B099B004B449F514E
:1016F0001F60009BFF279B7B01985BB299088900C4
:1017000049444E59B04603261E40F600B146B74044
:101710004646BE4337004E46B040664607435046F5
:101720004F51990088511900C031890008590D4D59
:101730001F26284008514EF200100121CEF2000071
:1017400084461E40B14058465B099B0063441950D3
:1017500019609F23137003B0F0BCBB46B246A94684
:10176000A046F0BDFFFFFEFF10B582B0EFF303838C
:1017700046F20002103B5BB2C033C4F200029B0091
:101780009958474801409950EFF3038344F2E472BB
:10179000103B5BB2C2F200029B009B582D229A5C68
:1017A000E2B99A69012A24D940201A6911790143C2
:1017B0001171D969012907D110201179014308203D
:1017C00011711179014311716946D27CD2B2CA718B
:1017D000CA792D220121995402B010BDDA69002A7C
:1017E000FAD0032A07D0022A48D0012A1AD0196950
:1017F00006E01A69DDE7402019690A7902430A7197
:10180000CA7C186A59690A541A6A01321A62DA697A
:10181000013ADA61002ADFD140211A6913798B433A
:101820001371D9E72A21595C91B30F241F2019683D
:101830000C5720406109140084404EF20010203102
:10184000CEF2000089000C50BFF34F8FBFF36F8FB3
:10185000802019694042CC7920431024C87108794E
:101860002043082408710879A043087104204870B7
:101870004879904348712C201A54C1E71020196907
:101880000A79024308200A710A7902430A71B7E70C
:10189000082019694A7A82434A724870B0E7C04604
:1018A000FFFFFEFF30B5EFF3038346F20002103B6B
:1018B0005BB2C033C4F200029B0099583548014026
:1018C0009950EFF3038344F2E472103B5BB29B0048
:1018D000C2F2000299582723CB5C002B33D1292375
:1018E000CB5C7BBBCB69002B3ED108697F23C279DF
:1018F0001340C371C02201E0013A1AB1C379DB0978
:10190000002BF9D110220B6846F200019A56C4F25E
:1019100000011300C0339B005C581E4D2C405C50EE
:10192000002A0BDB1F215309114001228A404EF28D
:1019300000116033CEF200019B005A504022C3795F
:101940001343C37130BD26228A5C032A18D0282293
:101950008A5C24200C69085C0132A07428200A5497
:101960002722013B8B54EDE70A6A4C690869A45CA5
:10197000013B013284740A62CB61002BE2D1B5E7EE
:1019800028228A5C022AE4D13020085C0028D9D0C1
:10199000DFE7C046FFFFFEFF10B5EFF3038344F21D
:1019A000E472103B5BB2C2F200029B009B582922FA
:1019B0009A5C1AB127229A5C012A48D0DA69D2B11E
:1019C00019694022CB799343CB71C02301E0013BDD
:1019D00013B1CA795206FAD4EFF3038346F2000238
:1019E000103B5BB2C033C4F200029B0099581A4806
:1019F0000140995010BD2A229A5C0AB30F201F2182
:101A00001A68105601404209012004008C404EF231
:101A100000112032CEF2000192005450BFF34F8FDC
:101A2000BFF36F8F802219695242CC792243CA7169
:101A300004224A704A7982434A712C229854C0E7A2
:101A4000082219694B7A93434B724A70B9E72F32D7
:101A50009A5C002AB2D1B3E7FFFFFEFF70B5EFF347
:101A6000038344F2E472E021103B5BB2C2F2000255
:101A70009B009C5823695A7A5972DD39D0B21140C3
:101A8000D2062DD55A78520645D401212B22A154D5
:101A9000E16900295AD000252000DD712168FFF797
:101AA0001BFD2623E561E25C0233E254A369236255
:101AB0002C23E5542369B3220121DA712000FFF7BA
:101AC000F1FCEFF3038346F20002103B5BB2C0333C
:101AD000C4F200029B0099582A480140995070BDF9
:101AE0000029D2D102070AD52B22A15CB1BB292241
:101AF000A15C4A425141B3220231DA71DEE72C2265
:101B0000A25C002ADDD04207DBD52B22A25C01219A
:101B1000002AD3D1EBE70029B7D15A785206D10F6A
:101B2000002ADFDA2B22A15408215A7A8A435A72FA
:101B300022685970526A1278013A51424A41012191
:101B40000232DA705A790A435A71BAE72C31615C71
:101B50000029A0D1A25C002AADD09CE7E16929B997
:101B60002C31615C11B9A25C002AA4D0002226218C
:101B7000E261605C02316054A16921622C216254EF
:101B800099E7C046FFFFFEFFF0B5C64600B5050069
:101B9000806984B08C46904601AC98B12300060061
:101BA00086CE86C36346037143468360EB69036058
:101BB0006B699847AB690BB107CC07C304B080BC15
:101BC000B846F0BD2000EDE7F8B5EFF30383103B16
:101BD0005BB21A0046F20005C032C4F20005920062
:101BE0005159154C98002140515144F2E471C2F210
:101BF0000001405841680978012915D18668C768F5
:101C0000B7600027B764F7643765565934405451BC
:101C10001F245A092340994013004EF200146033E8
:101C2000CEF200049B00195143691BB10022002130
:101C3000FFF7AAFFF8BDC046FFFFFEFF70B5042402
:101C400082B001910092045746F200022500C0358F
:101C5000C4F20002A90088581F4E304088508958AD
:101C600045F2004048F20002C905C90D1143C4F213
:101C70000000C2898A42FCD0082244F200010270AE
:101C8000019AC2F200012AB3A2008858019C446064
:101C9000009810B18858009C84603F208958CA7809
:101CA0008243802A14D002B9CB8145F20043182226
:101CB000C4F200031A7046F200028021C4F200024E
:101CC000AD00A858490401430020A95002B070BDDE
:101CD0008B81EAE7A200DBE7FFFFFFFE06207047EB
:101CE00006207047042346F200028021C356C4F246
:101CF0000002C0339B0098584904014399500020CA
:101D00007047C046042346F20002C356C4F20002E4
:101D1000C0339B00995802480140995000207047F9
:101D2000FFFFFFFE042244F2000310B58256C2F208
:101D300000039200D25800233F200B604B60D37801
:101D400083434BB1C1308860D48901382040C860DA
:101D5000802B07D0002010BD80235B028B60D389CD
:101D6000CB60F7E780235B020B6093894B60F1E760
:101D7000042330B5C35646F200011A00C032C4F243
:101D8000000192005458064D9B002C40545044F2E0
:101D900000020021C2F2000299500160002030BD13
:101DA000FFFFFFFEF8B544F29C73CE464746C2F2F1
:101DB00000031A7880B581460F00002A39D07B686D
:101DC0001B785BB2002B59DB44F200059E00C2F287
:101DD0000005AA5908201AB1C0BCB946B046F8BDE2
:101DE0004A4613713B683F219C46F730DA781F0062
:101DF0008A433AB1DA8990464446D2B2044012028C
:101E00002243DA81BA7810338A43002AEED145F2B0
:101E100000430832C4F200031A706246AA51182225
:101E20001A7044F200334A46C4F25443002013604F
:101E3000D2E701261E70EFF3108186F310884EF270
:101E40000003C4F20103DA690D480240DA61DB697C
:101E500081F3108844F20005C2F2000580220021BF
:101E6000280001F07DFA45F20043C4F200035D60F2
:101E70001E737B681B785BB2002BA5DA0B20ABE7E7
:101E8000FFFFBFFFF0B5C646042300B5C356C0220E
:101E9000984646F200034244C4F20003944692007E
:101EA000D058204C2040D050D25845F2004048F243
:101EB0000003D205D20D1A43C4F20000C389934235
:101EC000FCD00B003F24FF26DA781D00A2432AB184
:101ED000DF89F8B2020237403A43DA81AA78103338
:101EE000A243002AF0D145F200430832C4F20003B5
:101EF0001A70404644F200028700C2F20002B95054
:101F000018221A70624646F2000395008022C4F23D
:101F10000003E95852040A430020EA5080BCB84646
:101F2000F0BDC046FFFFFFFE70B5C56904000E009E
:101F300088B0A5B120222900684601F008FA2022C5
:101F40003100280001F003FA2800A3699847E069EE
:101F500018B12022694601F0FAF908B070BD0D00F1
:101F6000F2E7C04630B5020089B0EFF3038344F2D4
:101F7000E471103B5BB2C2F200019B005858EFF3D2
:101F8000038346F20001103B5BB2C0339B00C4F2F6
:101F900000015C58094D2C405C506B469A706A46B3
:101FA00043681B88138000231372036A01938369BB
:101FB00013B16946FFF7B8FF09B030BDFFFFFEFF60
:101FC00010B50020FFF7CEFF10BDC0464EF2000353
:101FD000262244F21011C4F20103985C1B6A8000AF
:101FE000C2F2000141585B015B0F44F66C02D9401C
:101FF000C2F20002116070474EF2000340F2FE325E
:102000004B49C4F2010370B599524CF20002002012
:1020100043F6C871C4F27E02505444F2101446F6DE
:102020000042C2F20004C0F2DC22226041F200222F
:10203000C0F27A02626048F2000242F20041A260FD
:1020400022612622C0F2F401E160995C1A6A8900DB
:1020500061585201520F44F66C05D14040F21342D0
:10206000C2F20005296098540921A222995440F235
:102070008042995C002953D04EF20003002240F2C6
:102080008141C4F201035A5401395A54A0329A5C76
:10209000CAB136229A5C1AB93C215A5CD207FCD5E7
:1020A0004EF20002A021C4F20102535CDB06D80FFD
:1020B000002BFADB50544EF20002A021C4F20102C0
:1020C000535CDB06FCD44EF2000200213623C4F23E
:1020D0000102D1543C31535CDB07FCD50121312393
:1020E000D1544FF6C473C4F27E0319700020262326
:1020F000D0540130FF301062D05C136A8000205849
:102100005B015B0FD84040F2FE3328600948D05293
:102110004CF2000343F6C872C4F27E03995470BDBA
:10212000013140F2C440995400F00EF8A4E7C046D3
:1021300003A5FFFF00A5FFFF7047C04600BEFEE7F6
:1021400001380028FCD1704744F66C024CF600239D
:102150004143C2F2000270B51468C3F69A330D0011
:10216000B3FBF4F4080040F2E8320023002100F051
:102170004BF931B9B0FBF4F0800808B1FFF7E0FF8C
:1021800070BDA000B5FBF0F040F2E8320023002162
:1021900000F03AF90029F0D001204042FFF7D0FFCB
:1021A000EEE7C046F8B546F2000340F2401244F2B2
:1021B000A07500240127C4F200039E5AC2F2000554
:1021C000B6B23300E340E0B21F4202D02B6803B145
:1021D000984701340435102CF3D146F2000340F245
:1021E0003012C4F200039E52F8BDC04646F2000011
:1021F0000023C4F2000043F2E852C0F200029A1831
:1022000011781A00C032920001331150202BF2D104
:102210007047C04670B5EFF31081012383F3108837
:1022200044F664034000C2F200031A5A1AB11A5A63
:10223000013A92B21A521B5A83B94EF2000240F28E
:10224000FE3543F26464C4F20102565B054BC0F2F2
:102250000004205A334383439BB2535381F31088C5
:1022600070BDC04600A5FFFF70B5EFF310810123DC
:1022700083F3108844F664024000C2F20002135A4D
:1022800083B94EF2000443F2646540F2FE36C4F2B4
:102290000104C0F20005A35B2D5A2B434AF20055FE
:1022A0002B43A353135A01339BB2135281F310886B
:1022B00070BDC04600BE704710B500F003F8FEF7D1
:1022C0003BFAFEE740F200034EF6005270B5CEF244
:1022D0000002C0F2000382B093600020FEF710FA03
:1022E000FFF78AFE6B460026DC1D2670012023784E
:1022F000FFF7BAFFEFF31081012585F3108846F64A
:10230000FC73C4F204039A683D4802409A609A68DC
:1023100081F3108840F60001C4F204010A68D20774
:10232000D20F22700A68D207D20F22700A68D20731
:10233000D20F2270EFF3108185F310888022986805
:10234000520502439A609B6881F310880120FFF7D1
:1023500061FF0120FEF7D4F940F60053294AC4F288
:1023600000039E801A8044F67802C2F200029A604E
:1023700045F27802C2F20002DA6046F2000240F250
:10238000201141F20000C4F20002505244F67402DF
:1023900044F22810C2F20002C2F200009D80002127
:1023A000121A00F0DDFF44F2800044F2101243F2F2
:1023B0009071C2F20000C2F20002121AC0F20001D3
:1023C00000F0C5FF44F2081544F20C13C2F20005F8
:1023D000C2F200035B1B9E10002B05DD002408CD1C
:1023E00001349847A642FADCFFF7F0FD0220FEF721
:1023F00087F9FFF7FBFE0020FFF79EFE02B070BDDD
:10240000FFFFFFEF00A5FFFFF0B54FF6FF75CE46CB
:10241000474699462B0015400E0029000340140C36
:1024200080B50700000C59434543634360435B1983
:102430000C0CE4188C46A54203D980235B02984615
:102440004044230C61461B1820044FF6FF740C40D7
:10245000494679437243C91800198918C0BCB94666
:10246000B046F0BD03685A0004D58022120613431B
:10247000C01870475B005B08FAE7C046F8B55746DE
:102480004546DE464E469046E0B5070021B34B1E5A
:102490009A46994640F2000B5B464B44DC0FE41829
:1024A0006410E5007E193000FFF7DCFFA2450CD078
:1024B00040450CD8280008303818FFF7D3FF013802
:1024C00040450AD2631C9B46E6E7404505D9A34533
:1024D00002D0631E9946DFE700263000F0BCBB4601
:1024E000B246A946A046F8BD0300012804D0022840
:1024F0000CD000202BB1704742F6F930C0F200003A
:10250000F9E742F6ED30C0F20000F4E742F605408C
:10251000C0F20000EFE7C04640F2000330B5C0F261
:102520000003050083B08C1E2BB3200001A900E03E
:1025300000BFE0B101992200FFF7A0FF0400B0B195
:10254000FFF790FF6368A864012B30D0201D002B9B
:1025500029DBFFF787FF0023E8642B650368002B66
:1025600015DBFFF77FFF2861002003B030BD00239B
:1025700009202B61F9E743F2907343F2A060C0F2A7
:102580000003C0F200001B1AD9100191D3E7180113
:10259000000FFFF7A9FF2861431E9841082340421E
:1025A00098430930E1E70123E8642B65D6E700236F
:1025B00005202B61D9E7C046036810B50400DA078F
:1025C00005D49B070AD5483000F06EFC23685A07F3
:1025D0000AD51A070FD5DB0615D510BD483000F017
:1025E0005FFC23685A07F4D42000D03000F060FC70
:1025F00023681A07EFD420005130FF3000F05CFC54
:102600002368DB06E9D42000D130FF3000F058FC0D
:10261000E3E7C046092070470300006800B1C01816
:102620007047C0467047C04670B504000D002000DA
:10263000296CFFF771FF88B92B6C2A0063612100B8
:102640000120236998470828F1D0072806D10020E7
:10265000296CFFF7E7FF281D00F00CFC00F070FE6E
:10266000F0B5CE46474680B5C3682F4C9846A54482
:102670008369040016000431402205A8994600F041
:1026800066FE0023049324E0149B40F2E012636191
:1026900004A97CA8039300F05AFE210028002369B6
:1026A0007CAA98478A9B0500039315934B46019398
:1026B00004AB00932200230031000120C04708BB77
:1026C00040F2E0127CA904A800F041FE0026082D8B
:1026D00021D1149B200019000393FFF71DFF093639
:1026E0000700F5B20028CFD0129B10210393159359
:1026F0004B46019304AB00932200230001202943A1
:10270000C04700B10927380040F2D4339D44C0BC13
:10271000B946B046F0BD072DF4D130001499FFF74B
:1027200081FF05A800F0A6FB2CFCFFFF406C704762
:1027300070B5CB6BFAB00B6405000E00402204317B
:1027400003A800F004FE01235B42029306E0290087
:102750002B6902AA9847040008280AD1129B280076
:1027600019000193FFF7D8FE0028F0D009207AB0B5
:1027700070BD02A8FFF720FF062CF7D1310028001A
:10278000FFF752FF10B58261DA6BC1601A6419005D
:102790000022FFF765FF10BD436970B50B64C36885
:1027A00004000D009BB90A0023690100022098472C
:1027B000072805D008280FD129002000FFF734FF93
:1027C0000020296CFFF72EFF281D00F053FB01228B
:1027D000FFF746FF00F0B4FD00F0B2FDC36810B58E
:1027E0002BB1CB6B00220B64FFF73AFF10BDFFF754
:1027F0009FFFFBE77047C0468368010010B50BB12F
:102800000120984710BDC046012914D009D883B9CA
:102810000F2A0ED8920082185268009B00201A607E
:1028200006E001200339C9B28842804140420130AC
:1028300070470220FCE70120FAE7C04600B585B0EA
:1028400003AB0A00009300210023FFF7DDFF03988C
:1028500005B000BD012914D009D883B90F2A0ED8BC
:10286000009B92001B6882185360002006E0012044
:102870000339C9B28842804140420130704702208A
:10288000FCE70120FAE7C04600B585B003AB039230
:1028900000930A0000230021FFF7DCFF05B000BD14
:1028A00070B51A4CD36BA544136405000C0019A82D
:1028B000111D402200F04BFD01235B42189313E0F1
:1028C0000C2118A802AAFFF7DFFF210018A8A847CB
:1028D00090B9069B18AA02A90830019398470600F0
:1028E00005280AD0092807D0289B02A819000193BF
:1028F000FFF712FE0028E3D0092618A8FFF75CFEB8
:10290000300040F240239D4470BDC046C0FDFFFF33
:10291000F0B557469246032245464E46DE46994656
:102920001300E0B58846CD6C494689B0034000935A
:1029300008CD0695002900D181E01A0C1B040593EF
:10294000022304A90B73FD3313409B004A73ED1857
:10295000009B022B01D143469D6B43461B6DDB0759
:102960000ED5504605A900F04FFB08B9082000E03D
:10297000092009B0F0BCBB46B246A946A046F0BD4E
:102980002F68002FEDD00823034002930023544604
:1029900040F2010B4646BA4601934B46022B4BD000
:1029A0002B886F889A4604355A463B009343B26C95
:1029B0000F21904620009844FFF740FF00238045F8
:1029C00006D853465A469343434498429B415B4240
:1029D00002227F001740594652460A401743012FF2
:1029E00032D0022F4DD0002FC2D1009A12B1002B4D
:1029F00000D09AE004352B689A46002BCDD12000F8
:102A000005A9A24600F000FB0028B1D1019B002BD4
:102A1000ACD00F215046FFF711FF0E2102005046A7
:102A2000FFF732FF40F2000250460F21C0F20002D1
:102A3000FFF72AFF07209CE76F680835B4E71B0201
:102A4000059304AB9A8183E7009A002A45D1B3B17C
:102A50002B68DF0F6B689A1C00D189E7320058326F
:102A60000492013300D1B1E0281DFFF7D5FD3A00F3
:102A7000010004AB300000E000BF002869D1083538
:102A8000B9E72A68009957007F0859B91BB1029B22
:102A9000002B71D0E7B3002A00DA04350137BF00FC
:102AA000ED19A8E7336A0D2120009846FFF7C6FE0E
:102AB000804501D02A68EEE7B36A9D42FAD100232F
:102AC000F362043333632B1DB76273632B68002BEF
:102AD00000DA85E001230193E0E70D212000376A49
:102AE000FFF7ACFE8742CAD1B36A9D42C7D1B04658
:102AF000A2462800FFF7B6FC0F2102005046FFF760
:102B0000C3FE504642460021FFF7BEFE072030E7D5
:102B1000B046A2460D215046FFF790FE4346049A68
:102B200018625A6206209D6223E72800FFF79AFC8C
:102B30000435A246B5630400300000E000BF002861
:102B400000D115E7504622000F21FFF79DFE072018
:102B50000FE7A2460D2104005046FFF76FFEB04676
:102B600033003062022C37D1049A2C33F262736244
:102B7000434606209D62FCE640F2580C40F20008F5
:102B800021004A462B1DB444A9461C003D008A463C
:102B900047460392E0460DE0434620000493FFF7CA
:102BA0003BFD0022010004AB300000E000BF013714
:102BB000043420B9AF42EFD14D46B046AAE72F000A
:102BC0004D46039B544699462A6864E70D21200030
:102BD000FFF734FEB04630624346049A5A62C7E7B4
:102BE000781C8000B046A246281883E710B5002361
:102BF000FFF78EFE10BDC04610B50123FFF788FE1B
:102C000010BDC04610B50223FFF782FE10BDC046BE
:102C1000F0B54746CE4680B5060017001C00C3B08D
:102C2000032943D020D8002948D0012940D1130CD2
:102C30004FF6FF723A4098469146012C00D179E058
:102C4000052C35D11F004F44202F31D843460F2B80
:102C500000D8B6E04F46002F00D0C2E04A46B16B24
:102C600020AD0AB300277EE0042921D103BB102A3E
:102C70001ED8102203681A4200D0C9E020AD2800F7
:102C800000F020F9012429000023B26B20009840B5
:102C9000074201D001CA086001330431042BF5D189
:102CA0002800B26300F00CF9002002E0032B1DD0D5
:102CB000022043B0C0BCB946B046F0BD002BF7D1EE
:102CC0004FF6FF72816B041D002301203A4005007E
:102CD0009D402A4201D020C9256001330434102BC5
:102CE000F5D10020BB04E4D4B163E2E7140C4FF645
:102CF000FF721740E319102BDAD8082203681A4232
:102D000000D08CE020AD280000F0D8F8E400B36BD0
:102D100057B1E41AFF00211FDF1969181800026873
:102D200004335A50BB42F9D12800B36300F0C4F811
:102D30000020BEE74B44102BBAD843460F2BB7D820
:102D400033681C4206D0032230009343336048307E
:102D500000F0A8F820AD280000F0A4F84A460027AB
:102D6000B16B002A63D04346DB00ED180023D2008C
:102D7000C858E85004339A42FAD189187FB16D4699
:102D80004046102800D2102000231038C000281818
:102D9000FA00CD58C55004339342FAD1C918012C1A
:102DA00044D04346B1630F2B07D9002F00D17BE7F6
:102DB000684600F07DF800207BE720A800F074F85A
:102DC000F3E7102F41D9103F012233681A4207D090
:102DD00093430222300013433360483000F066F81A
:102DE000AFB3042233681A4228D143460F2B03D8CD
:102DF00020AD280000F05AF86D46280000F05AF87F
:102E000010224346B16BD21A002AB9DD20ADAAE7E1
:102E100093430360D130FF3000F054F82EE7934322
:102E200003605130FF3000F049F86BE720AD04310A
:102E30002800B16300F034F800203AE730009343F3
:102E40003360D03000F036F8CFE70027BCE74346C8
:102E50000F2B00D902E720AD280000F027F84A46E2
:102E6000B16B002A00D0FDE6280000F01DF800201C
:102E70001FE7C0460100343138C9043B9C461D6041
:102E8000A646010020313CC990469946A246AB4671
:102E900001000831FCC941680068E54600BDC04634
:102EA0007047C0467047C0467047C0467047C0462E
:102EB0007047C0467047C0467047C0467047C0461E
:102EC0007047C0467047C04601B401A801B585B03F
:102ED000FFB408A841464A4653465C4665463EC094
:102EE00001A83EC80F98009000230CB401A9FFF779
:102EF0001FFC109B12B0184701B401A801B585B0A2
:102F0000FFB408A841464A4653465C4665463EC063
:102F100001A83EC80F98009000230CB401A9FFF748
:102F20003BFC109B12B0184701B401A801B585B055
:102F3000FFB408A841464A4653465C4665463EC033
:102F400001A83EC80F98009000230CB401A9FFF718
:102F500045FC109B12B0184701B401A801B585B01B
:102F6000FFB408A841464A4653465C4665463EC003
:102F700001A83EC80F98009000230CB401ABFFF7E6
:102F800001FC109B12B0184701B401A801B585B02F
:102F9000FFB408A841464A4653465C4665463EC0D3
:102FA00001A83EC80F98009000230CB401AAFFF7B7
:102FB00077FC109B12B01847027A030052B9427A8C
:102FC0007AB1013A42724268111D416003211268D0
:102FD000017202E0013A02720268100E12021A60D7
:102FE0007047B020FCE7C04600B585B003AB009346
:102FF0000C2200230021FFF707FC039805B000BD59
:1030000010B5FFF7F1FF10BDF0B54E4645465746E7
:10301000DE4640F2000AE0B540F20F0805000E005F
:1030200040F2070985B03000FFF7C6FF0400B02862
:1030300000D1C3E003062AD5030042469343DBB226
:10304000802B54D0902B3ED0A02B6DD0B02B00D134
:103050007FE0C02B00D197E003004A469343DBB2E8
:10306000D02B0BD18023024001321B031A430523CE
:1030700001212800FFF7CCFD0028D4D0092420002E
:1030800005B0F0BCBB46B246A946A046F0BDFF2342
:10309000820013401F1D03AB9B4600930D220023AB
:1030A00000212800FFF7B0FB63063AD4039B9C463F
:1030B00067445B460397009300230D2200212800FC
:1030C000FFF7C8FBAFE7833B03400D2BD6D003AF20
:1030D00002400023002128000097FFF795FB002302
:1030E0000D22002128000097FFF7B4FB9BE70402A4
:1030F0003000FFF761FF48F200070443BC42BDD037
:103100004FF6FF7224010023002128002240FFF720
:103110007FFD0028B2D1274200D184E740F2010AA6
:1031200081E7039BDF1BC4E740F6F0724B461100BA
:10313000834319410A40030702D544F200031A43AE
:10314000002300212800FFF763FD002800D16AE773
:1031500094E7B12846D0B22800D1A2E0B32857D0D6
:10316000FC230340B42B00D188E74A468023024069
:1031700001321B031A43012101232800FFF748FDF8
:10318000002800D14FE779E7C6284CD0C7285ED089
:1031900003004A469343DBB2C02B6ED0C82873D0DD
:1031A000C92800D06AE73000FFF706FFF0230203CA
:1031B0001B03134042460240013257E753460024A6
:1031C000002B00D05BE703AE0E2200212800009602
:1031D000FFF71AFB00230F22002128000096FFF7BB
:1031E00039FB4CE73000FFF7E7FE0200002800D172
:1031F00044E7030041468B43DBB2002B00D03DE7A0
:1032000000212800FFF704FD002800D10BE735E777
:103210003000FFF7D1FEF02302031B0313404246A8
:1032200002400132A6E73000FFF7C6FEF02302039A
:103230001B0313404246024001321A430323032179
:103240002800FFF7E5FC002800D1ECE616E7300087
:10325000FFF7B2FE0200002800D10FE7030041464D
:103260008B43DBB2002B00D008E704212800FFF7D6
:10327000CFFC002800D1D6E600E74346A0221C4040
:10328000013412032243D9E73000FFF795FE43468D
:1032900002009A43D2B210321840120301300243A6
:1032A000E5E603AB00939B460D2200230021280096
:1032B000FFF7AAFA3000FFF77FFE030619D57F2734
:1032C000B03C039B3840A0409C46604403903000D3
:1032D0000734FFF771FE0306F3D47F2340F2042C7A
:1032E0000340A340039A62449B1803935B460093F8
:1032F000E2E60224F1E7C046030000B5DA6C85B0CF
:1033000053680800083219020191029269460322AB
:103310001B0E0A734B7301A9FFF776FE05B000BDC3
:1033200010B5FFF76DFE806C10BDC04610B5FFF7FD
:1033300067FEC26CD07902308000101810BDC04604
:10334000062010B500F03CF8012000F06DF80023D5
:1033500010B59A4200D110BDCC5CC4540133F8E7DB
:1033600003008218934200D1704719700133F9E7C6
:1033700070B504000D001F2904D916230360012035
:10338000404270BD436C1BB18A009B181A6842B959
:10339000200000F031F82A000100200000F01AF8A7
:1033A000EFE70020012AECD0511C03D11623013095
:1033B0002360E6E7002428001C6090472000E0E737
:1033C00010B5034B01001868FFF7D2FF10BDC046CF
:1033D000A4400020002370B5064D04000800110031
:1033E0002B6000F017F8431C02D12B6803B1236057
:1033F00070BDC0467048002010B500F001F810BD47
:1034000044F6700358220120C2F2000340421A60C1
:103410007047C04644F6700358220120C2F20003F0
:1034200040421A607047C046FEE7C0464275696C6C
:103430007420776974682052656E657361732041EA
:103440006476616E63656420466C657869626C655C
:1034500020536F667477617265205061636B61679A
:10346000652076657273696F6E20332E362E3000BC
:10347000332E362E3000000000000603F8B5C0469B
:10348000F8BC08BC9E467047F8B5C046F8BC08BCFE
:103490009E4670474653505F535543434553532010
:1034A0003D3D207773323831325F65727200000023
:1034B000766F6964207773323831325F73656E647A
:1034C000282900002E2E2F7372632F777332383124
:1034D000322F7773323831322E63707000FFFFFF66
:1034E000766F6964207773323831325F696E697440
:1034F000282900FF766F6964207773323831325F94
:1035000073656E645F73796E632829004C470020F1
:1035100078350000083600000000010203020202B4
:103520000200000001000000483500006035000086
:1035300079060000000000003C350000010000009A
:103540000000000100000000844700205435000006
:1035500040360000844000205C35000001FFFFFF82
:103560008C4700206C35000040360000944000205D
:103570007435000000FFFFFF0D00000080350000E3
:1035800000000106010100000080000003010000AE
:103590000000010304010000000001000801000018
:1035A0000000010509010000000001050A010000FA
:1035B000000001050C020000000001050D020000E2
:1035C00000000100000300000000010401030000EE
:1035D00000000104020300000000010700040000D5
:1035E0000000010701040000141111101E1C1E1A16
:1035F000070806040F0000060A0000000000000093
:103600000000000000000000E11300008511000030
:10361000F9130000051400004D1200009D12000077
:10362000991200008D110000E91100001112000034
:103630003512000079120000B1110000C91100001C
:10364000A51D0000851E00003D1C0000E51C0000BB
:10365000051D0000DD1C0000E11C0000251D000010
:10366000711D0000010002000800100000000000B1
:1036700074B20181B0AB308000000000800801818D
:10368000B0B0ABF0000000003F020181B0AB308071
:103690000000000080040181B0B0ABF00000000029
:1036A000B0CEFF7F010000001CCFFF7FB0B0A8802C
:1036B000C8CFFF7F01000000D0CFFF7FB0B0AA804D
:1036C00040D0FF7F0084028070D0FF7F01000000A7
:1036D00048EEFF7FB0A90280E0EEFF7FB0B0A88087
:1036E00034EFFF7F0100000040EFFF7FB0B0AA8001
:1036F00070EFFF7F7CFFFF7F34F0FF7F0100000051
:1037000030F0FF7FAA3F39807CF0FF7FB0B0A88007
:1037100088F0FF7FB0B0AA80C4F0FF7FB0B0A8806F
:10372000D4F0FF7F01000000D0F0FF7FB0B0A88090
:10373000D8F0FF7F0100000068F1FF7FAA0FB28080
:10374000D0F1FF7F38FFFF7FA4F4FF7FB0B0A880E7
:10375000C0F4FF7F34FFFF7F1CF7FF7F01000000F4
:1037600088F8FF7F0084048098F8FF7FB0B0A880BD
:1037700098F8FF7F20FFFF7F80FBFF7F008404809D
:10378000A0FBFF7FB0B0A880B8FBFF7F0100000066
:10379000C0FC000000001018000000000000000045
:1037A0000000000000000810000000000000000001
:1037B00000000000A8400020000000000000000001
:1037C00000000000000000000000000000000000F9
:1037D00000000000000000000000000000000000E9
:1037E00000000000000000000000000000000000D9
:1037F00000000000000000000000000000000000C9
:1038000000000000000000000000000000000000B8
:1038100000000000000000002D0500000105000070
:020000040101F8
:10001800FFFFFFFFFFFFFFFFFFFFFFFFFFFFFFFFE8
:0C002800FFFFFFFFFFFFFFFFFFFFFFFFD8
:04000003000022B91E
:00000001FF
