:10000000584D00204D2D0000F52B0000492D00001B
:10001000492D0000492D0000492D0000492D000008
:10002000000000000000000000000000492D00005A
:10003000492D000000000000492D0000492D00005E
:10004000950F000031100000151100008D11000007
:10005000ED1600005916000099170000E117000086
:10006000112A0000612100005522000055180000EF
:100070001926000000000000000000001923000005
:10008000252000000000000000000000000000002B
:100090000000000000000000000000000000000060
:1000A0000000000000000000000000000000000050
:1000B0000000000000000000000000000000000040
:1000C000FFFFFFFFFFFFFFFFFFFFFFFFFFFFFFFF40
:10040000FFFFFFFFDFCEFFFFFCFF0F00FFFF0F002E
:10041000FCFF0F00FFFF0F00FCFF0F00FFFF0F00AE
:10042000FCFF0F20FFFF0F20FCFF7F40FFFF7F40FE
:10043000FCFF0D40FFFF0D40FFFFFFFFFFFFFFFF31
:10044000FFFFFFFFFFFFFFFFFFFFFFFFFFFFFFFFBC
:10045000FFFFFFFFFFFFFFFFFFFFFFFFFFFFFFFFAC
:10046000FFFFFFFFFFFFFFFFFFFFFFFFFFFFFFFF9C
:10047000FFFFFFFFFFFFFFFFFFFFFFFFFFFFFFFF8C
:10048000FFFFFFFFFFFFFFFFFFFFFFFFFFFFFFFF7C
:10049000FFFFFFFFFFFFFFFFFFFFFFFFFFFFFFFF6C
:1004A000FFFFFFFFFFFFFFFFFFFFFFFFFFFFFFFF5C
:1004B000FFFFFFFFFFFFFFFFFFFFFFFFFFFFFFFF4C
:1004C000FFFFFFFFFFFFFFFFFFFFFFFFFFFFFFFF3C
:1004D000FFFFFFFFFFFFFFFFFFFFFFFFFFFFFFFF2C
:1004E000FFFFFFFFFFFFFFFFFFFFFFFFFFFFFFFF1C
:1004F000FFFFFFFFFFFFFFFFFFFFFFFFFFFFFFFF0C
:1005000010B544F25014C2F20004237863B940F2EB
:100510000003C0F200032BB146F29850C0F2000075
:1005200000E000BF0123237010BDC04640F200036D
:10053000C0F2000310B54BB144F2541146F298508A
:10054000C2F20001C0F2000000E000BF10BDC046D2
:1005500046F2142346F2302246F24420682110B5B8
:10056000C0F20003C0F20002C0F2000002F00EFB75
:10057000F0B54400201844F26C14C2F20004A44602
:1005800044F28004C2F20004277844F28104C000DF
:100590006044C2F2000440F2080C257880248444B0
:1005A0002E00144200D13E0006702E000C4200D1F5
:1005B0003E0006722E001C4200D13E00067401303F
:1005C00064108445ECD1F0BD10B500242000013446
:1005D000002300220021A4B2FFF7CAFF402CF5D16E
:1005E00010BDC04646F2DC2144F2C47010B5C0F222
:1005F0000001C2F2000000F0FDFA44F27073C2F292
:1006000000030024186050B92000013400230022A8
:100610000021A4B2FFF7ACFF402CF5D110BD46F28B
:10062000142346F2602246F244202621C0F2000341
:10063000C0F20002C0F2000002F0A8FA44F26C73AB
:10064000012244F26C1144F2C470C2F2000310B5EE
:10065000C2F200011A70C2F20000072340F20062E9
:1006600000F0BEFA44F27073C2F20003186000B9E1
:1006700010BDFFF76DFFC04644F26C730022C2F25A
:1006800000031A707047C04610B5037903B110BD5E
:1006900046F27420C0F2000000F012F8F7E7C046FE
:1006A00010B544F2F47446F20C31C2F20004C0F208
:1006B0000001200001F014FF200001F0C3FE10BD76
:1006C0000FB410B59AB01CAA02CA01A8009205F096
:1006D00001FA01A805F0E0F944F27474020044F64E
:1006E00034000123C2F2000401A9C2F20000237009
:1006F00000F088FD2378002BFCD11AB010BC08BC98
:1007000004B0184746F2BC3144F6340010B5C0F2CC
:100710000001C2F2000000F01BFE10BD0379022BA5
:1007200005D144F274730022C2F200031A707047BC
:1007300046F2AC2144F2847070B5C0F2000144F27C
:100740007875C2F2000001F02DFCC2F200052860AD
:1007500044F2757444F2880144F284700123022249
:10076000C2F20004C2F20001C2F20000237001F0E4
:10077000B9FA28602378002BFCD170BDF0B5CE46C5
:100780004746040044F2757544F2840144F28470D3
:10079000012380B5022283B0C2F20005C2F200013B
:1007A000C2F200002B7001F09DFA44F27873C2F29D
:1007B000000318602B78DAB2002BFBD1013344F22E
:1007C00084702B706B4600929A8069460023062243
:1007D000C2F2000001F06CFA2B78DEB2002BFBD1E4
:1007E0006B469B7808219C466B4618783127C3439B
:1007F000DBB203E05B000139DBB241B15DB2002D39
:10080000F8DA5B007B400139DBB20029F6D16A4699
:100810005578082131226B4003E05B000139DBB2DF
:1008200041B15FB2002FF8DA5B0053400139DBB20F
:100830000029F6D19C452DD16B465B7908219C4659
:100840006B46DB7831229946DB43DBB203E05B0089
:100850000139DBB241B15FB2002FF8DA5B005340DF
:100860000139DBB20029F6D16A4612790821904697
:100870003127534003E05B000139DBB241B15AB28A
:10088000002AF8DA5B007B400139DBB20029F6D19F
:100890009C450BD046F27C20C0F20000FFF710FF11
:1008A000300003B0C0BCB946B046F0BD04F002F859
:1008B00000230022C4F2700303F0B2F906002800FE
:1008C0000F0003F0F7FF02000B003000390002F0C8
:1008D00031FB4EF200030022C4F2650303F0A0F9DD
:1008E0004FF6E0730022C4F2EF0302F07DFE48F2FF
:1008F00000030022C4F2460303F018FC48F600038C
:100900000022C4F2C30303F08BF903F0A1FF2060BF
:10091000484603F0CFFF00230022C4F2700303F027
:100920007FF9060040460F0003F0C4FF02000B00F1
:100930003000390002F0FEFA00230022C4F259030D
:1009400003F06EF94FF6E0730022C4F2EF0302F0F9
:100950004BFE48F600030022C4F2C30303F060F923
:1009600003F076FF012660609AE7C04644F2757393
:100970000022C2F200031A707047C04600B583B06F
:10098000FFF730FEFFF720FE0023FF22FF210020AB
:10099000FFF7EEFD0023FF2200210120FFF7E8FD15
:1009A0000023142200210020FFF7E2FDFFF746FE9E
:1009B000FFF7A8FEFFF774FE46F28C2146F298205E
:1009C000C0F20001C0F20000FFF77AFEFFF7B0FEB0
:1009D000142040F2E83102F0DFF86846FFF7CEFE5F
:1009E00000B9FEE746F29C200099C0F20000FFF734
:1009F00067FE40F2E83140F2B04002F0CDF8F0E797
:100A000000B583B040B94CF2000390220121C4F23A
:100A10007E03995403B000BD0228FBD146F2A02307
:100A200044F27C70C0F200035B68C2F2000019005F
:100A3000019301F057F8EDE710B5FFF79FFF002095
:100A400010BDC046F0B50400806A85B08C4601AD8B
:100A500090B12B000200C2CAC2C363681B78036056
:100A600063460371E36A8360636A9847A36A0BB1C4
:100A700007CD07C305B0F0BD2800EEE7F0B50E00C6
:100A80004021C64604000F0000B51D0006AB1878D3
:100A9000A3681B781F40194200D073E020236761D0
:100AA000A761E6602261E561E05463685F690FB3A6
:100AB0007B68A5611968CB780F2857D9302083430C
:100AC00020200343CB7040F20C0840468B788343D0
:100AD00008208446604603438B70ABB2CB818A60AA
:100AE000002A67D0BB6838685B689847D8BB20226B
:100AF0006368A05C1A69E2B1536865611968CB78D4
:100B00000F2839D93020834320200343CB700C2099
:100B10000827CB78ADB283433B43CD81CB704E6089
:100B2000002E51D0936810685B689847D8B920238D
:100B3000E05CA268D17A148AC9B2A4B20F2823D982
:100B400040230130994383082020053B014323487B
:100B5000D172044018024021204380B2108200204C
:100B600013780B43137080BCB846F0BD072811D82A
:100B700030208343CB70A6E7072811D83020834369
:100B8000CB70C4E70820EEE707280FD840231943AD
:100B90000300DCE73020834310200343CB7092E74F
:100BA0003020834310200343CB70B0E76023994388
:100BB0000300CCE742468B7893438B7044F6640382
:100BC000C2F200038B608DE7DBB28343CB7044F647
:100BD0006803C2F200034B60A4E7C046FFF0FFFFCA
:100BE00000B583B0009313000022FFF747FF03B066
:100BF00000BDC04640F22072F0B545465746DE467D
:100C00004E46C0F240029446E0B50B780F6963444B
:100C10001B021A1D04000D00904687B0002F00D162
:100C200091E18022796812050B6838681A604246A3
:100C30009A60BB681B6898470600002800D07AE1DC
:100C40006B6973B18020596800030A6810604046E0
:100C5000506018689B681B6898470600002800D001
:100C60008EE140F22072C0F2400294462B78634439
:100C70001B02AA6965606262EA69A360E2620022FF
:100C8000A2626B7A9C46002B00D06FE1B82008214D
:100C90001026EB7A6F7B2A6A3F035B003B43AF7AF7
:100CA00015783B430DB1B120084351787027CD0131
:100CB000A8434D004901294301430191D07895781B
:100CC000BB438540029511791F00000131B1023903
:100CD0004B1E99410F23494299433031537923B137
:100CE000012B00D151E101231E4393790393137A21
:100CF0009B071B0F034360463B43002800D039E1AC
:100D0000507A4EF200070490907A3B430590D07AD7
:100D10008346EFF3108A012080F3108846F6FC70BA
:100D2000C4F20400476840F21309B84667683F7888
:100D3000BC464F4665467F1BB94601274D46AF402E
:100D4000B94647464D46AF43476040688AF310882E
:100D500040F20008A068F6B2C5784546C5706D46F9
:100D60002D799BB205706D462D7A45708170D279D0
:100D70004EF200118272049ACEF200010273059ABB
:100D80008C4642735A468273C67303822023039AA9
:100D90006668C2540223F35640F200359A08920066
:100DA000944462465259B079914603221A40D200C7
:100DB0009046FF22414617008F40B8468001104000
:100DC00088404F46414644F6B4088F436146C2F21C
:100DD000000838434851414646F2000C9800445000
:100DE0001800C4F2000C6146C03080004158684FC2
:100DF0003940894661464F4647501F20012118401F
:100E0000814008004EF20011CEF20001894640F206
:100E100080175B099B004B44D85118600123F3569F
:100E20009808800081444946495970798B460321CE
:100E30001940C9008A468001104057468840110079
:100E4000B9408A4659465746B9430843494648512E
:100E500041469800445018006146C0308000415817
:100E60004B4F3940894661464F4647501F2001216C
:100E70001840814008004EF20011CEF20001894670
:100E800040F280175B099B004B44D8511860042343
:100E9000F35698088000814449464959307A8B4678
:100EA00003211940C9008A468001104057468840F6
:100EB0001100B9408A4659465746B9430843494646
:100EC00048514146980044501900C031880061469D
:100ED0002F4F41583940894661464F4647501F21A0
:100EE000012719408F404EF20011CEF200018C46CE
:100EF00040F280105B099B0063441F501F60032772
:100F0000F7570321B80880006044435939409C4694
:100F1000F379C9009B0113408B408A40614691439D
:100F20000B4343514346BF00FC5045F249030026A2
:100F3000C5F253232360300007B0F0BCBB46B24675
:100F4000A946A046F0BD4A69002A00D191E680205A
:100F5000516800030B681860404658609368106839
:100F60001B68984706000028E5D17AE6B0200021EA
:100F700000268EE6002040F2000B05900490C8E6A3
:100F8000BB6838681B6A9847D5E703231E43ACE665
:100F9000FFFFFEFF30B5EFF30383103B5BB21A0097
:100FA00046F20001C032C4F20001920050581F4CBA
:100FB0009B002040505044F6B402C2F200029B58FD
:100FC0009A69D9698A4219D0186930B320241C5D06
:100FD0000F2C09D999684C6891000C50D9690132DD
:100FE0009A618A420AD030BD072C19D899680979CC
:100FF0008154D96901329A618A42F4D103221F21B6
:101000005B689A561140530901228A404EF2001142
:101010009B00CEF200015A50E5E798684068DEE791
:101020009C68A58854000553D9E7C046FFFFFEFF22
:10103000F0B5C64600B5EFF30383103B5BB21A0070
:1010400046F20001C0329200C4F200015058304D07
:101050009B002840505044F6B402C2F200029B5854
:101060005868026A002A2ED05678DC695A69012E27
:1010700016D094420BD0D96841B32020185C0F28B9
:1010800008D9940098686158416001325A6180BC67
:10109000B846F0BD07281CD8895C98680171F4E750
:1010A000671EBA421AD001690029E2D003254557CC
:1010B0001F20284086404EF200106909CEF2000041
:1010C00089000E50D5E75A69DC69D2E7986841601B
:1010D000DBE75000415A98688180D6E7C07840B27B
:1010E00007008046C037BF00785805407D50404615
:1010F0001F2101408E404EF20011CEF200018C46BD
:1011000040F2801140098000604446500660B0E71C
:10111000FFFFFEFF10B5EFF30383103B5BB21A0035
:1011200046F20001C032C4F2000192005058164C41
:101130002040505044F6B4029900C2F20002885890
:101140008268D278920704D54268527A012A00D088
:1011500010BD1F215A090B401E39994013004EF251
:1011600000142033CEF200049B001951BFF34F8FBF
:10117000BFF36F8F4021826813788B4313703F3920
:10118000FFF760FCE4E7C046FFFFFEFF70B5EFF33A
:10119000038444F6B4034021103C64B2C2F200035D
:1011A000A200D658B3681A788A4300211A70DA78F8
:1011B000D970D5B2130710D4EB0714D414232B40E5
:1011C000142B18D046F20003C034C4F20003A4006C
:1011D000E2580B490A40E25070BD30000531FFF77C
:1011E00031FCEB07EAD504213000FFF72BFC142378
:1011F0002B40142BE6D108213000FFF723FCE1E758
:10120000FFFFFEFFF8B504007B230D00006AA678FF
:101210008178E7690B408370B3079B0F3F69D21A4F
:10122000E9182261E16007B15AB9802382781A4334
:101230007D3B82703340022B19D02B78C370002085
:10124000F8BD013BDA40002093B2BA68206196688D
:1012500038680022B0470028F2D18023206AA6789F
:1012600082781A437D3B82703340022BE5D14FF6E2
:1012700000622B881343C3810020E1E7F0B51F25EE
:1012800001241540AC404EF20015C64653092033E8
:10129000CEF200059B0000B588465C51BFF34F8F2E
:1012A000BFF36F8F130046F20004C033C4F2000492
:1012B0009B001D59114E4EF2001135401D51FF2467
:1012C0000325CEF200018C46210040F20037154084
:1012D000ED00A94093089B006344DE5992008E43C1
:1012E000414689010C40AC403443DC5144F6B40320
:1012F000C2F20003D05080BCB846F0BDFFFFFEFF35
:10130000F0B5C64600B50500806A84B08C469046AC
:101310006C46D8B12300060086CE86C336681E60B0
:10132000EB691B7803606346836043460371EB6A95
:10133000C3606B6A9847AB6A23B107CC07C31A0036
:101340002368136004B080BCB846F0BD2000E7E716
:1013500043F60002C0F200229446F0B54546DE4650
:1013600057464E460B78E0B563445B0103620023A9
:1013700003704A690D0042628A69C161C262032238
:10138000012183628378040093430B4383706B785D
:1013900083B023B9837893430222134383700B22D3
:1013A0002000AA56A97AFFF769FF05222000AA5655
:1013B0002979FFF763FF07222000AA56A979FFF7D2
:1013C0005DFF09222000AA56297AFFF757FFEB6834
:1013D000C3B18020596800030A68E6691060206A7A
:1013E000471D576076783EB93027D6781030BE4317
:1013F00010273E43D670506018689B681B6898475A
:10140000060000BB2B6933B38020596800050A68C9
:10141000E6691060206AC71C976076783EB930276D
:10142000D6780E30BE4310273E43D67090601868C1
:101430009B681B689847060068B1EB681BB1186889
:101440009B681B6A9847300003B0F0BCBB46B246AD
:10145000A946A046F0BDEFF31086012080F3108866
:10146000802146F6FC732F780906F940C4F2040384
:101470005A688A435A605B6886F310880022236AA0
:1014800029789A701A715A729A72DA725A8340F2F3
:101490000722CA40104201D04022DA7406221A778D
:1014A0006978AA78E878EE692D780DB9684D9D8243
:1014B0001201C0000243032900D1BBE0481E814154
:1014C0000901E231D2B21A7002229971317BFF25F3
:1014D00049000A4020215A737278B078D201400145
:1014E00001402A400A43002130781972811E019080
:1014F000012900D8A2E003257168D2B2DA718A7896
:1015000048785A701A782840AA4302431A70CA7859
:1015100059359A74D8790A78A8432A400243DA7177
:101520000022E26022616261A261E26946F200018A
:101530009146527940F21F0C52B21000C030C4F2F2
:10154000000180004558434F40F2C00A3D404550DD
:101550006546B84601271540AF404EF20015CEF261
:101560000005AB4640F28015520992005A4457518B
:1015700017604A46D27A404652B292445746BF005C
:10158000BA467F5807405046475067461740BA460C
:101590000127504687404EF20010CEF200008346ED
:1015A000520992005A44575117604A4640F2C00A05
:1015B000D27952B292445046800082464058070089
:1015C000404607405046475067461740BA460127F5
:1015D000504687404EF20010CEF20000834652097A
:1015E00092005A44575117604A4640F2C009527A55
:1015F000474652B2914448468000814640580740D1
:1016000048464750614601201140884052099200E7
:101610005A44505110600322019F17406D32174306
:101620009F7073890026238144F65513C5F2433316
:10163000636008E73D310A43B23143E75D70022839
:1016400002D0D2B2DA716BE710210A43F9E7C04643
:1016500000F8FFFFFFFFFEFF70B5EFF30383103BC1
:101660005BB21A0046F20001C0329200C4F20001DF
:1016700050581D4C9B002040505044F6B402C2F21A
:1016800000029858C3691B6913B1036913B170BD97
:10169000036983B97F23026A91780B4004210B43CD
:1016A00093700023C360436A002BF0D08022002196
:1016B000FFF726FEEBE703218278114002290AD0CA
:1016C000C168056A0C78EC709207920F9B1A8A1811
:1016D0000361C260DAE74FF60065C1680C882C43ED
:1016E000056AEC81F0E7C046FFFFFEFF10B582B04F
:1016F000EFF30383103B5BB21A0046F20001C032E5
:101700009200C4F200015058224C9B0020405050DF
:1017100044F6B402C2F200029C58E369A069DB6897
:101720005BB150B10023A3616361636AABB1012275
:1017300000212000FFF7E4FD0FE00323A27813400F
:10174000022B0CD0236A5979C9B2019178B9636A26
:101750001BB104222000FFF7D3FD02B010BD40F200
:10176000FF11236A1B8A194001910028EFD09207CC
:10177000920F606901A904F049F8A37862699B0798
:101780009B0FD2186261A269D31AA361002BE4D126
:10179000CBE7C046FFFFFEFF10B5EFF3038444F62E
:1017A000B403103C64B2C2F20003A200D0587B2301
:1017B000026A91780B409370436A1BB102220021A8
:1017C000FFF79EFD46F20003C034C4F20003A400FC
:1017D000E25802490A40E25010BDC046FFFFFEFF3A
:1017E00070B5EFF3038444F6B403103C64B2C2F264
:1017F0000003A200D058032382781340022B20D08C
:10180000036A5979C9B238221D792A40ED0602D5FA
:101810001D7FED0712D538261D79B5431D71436A2A
:101820000BB1FFF76DFD46F20003C034C4F20003B4
:10183000A400E25806490A40E25070BD40252A4300
:10184000E9E740F2FF11036A1A8A1140DBE7C0465C
:10185000FFFFFEFFEFF3038344F6B402103B5BB2DD
:101860009900C2F200028A580121117246F2000268
:10187000C033C4F200029B009958024801409950BD
:101880007047C046FFFFFEFF002303600020704743
:10189000FF2010B540F600040B0A08401901091892
:1018A000C4F2040489000B5900209B07DB0F13705E
:1018B00010BDC0460023C4F204039C46090A490136
:1018C00061444B68002013807047C0460020C4F27A
:1018D000040084461800090A90430004134049019B
:1018E0000343614400208B607047C046FF20012302
:1018F0000840834052B91B040022C4F204029446FB
:10190000090A4901614400208B6070474FF6FF725D
:101910001340F1E70020C4F2040084461800090ACD
:10192000490110B561440C6810402043934398432B
:101930000860002010BDC0460023C4F204039C468A
:10194000090A490161444B6800201B0C1380704751
:101950000020C4F2040084460B0A5B01634458680B
:10196000FF231940FE3B8B40000C99B203405B1AE9
:1019700059424B41002013707047C0460020C4F20A
:10198000040084461800090A9043000413404901EA
:10199000034361440020CB607047C0460620704777
:1019A0000B0A10B55B01012A10D00022C4F2040218
:1019B0009446FF208022014052028A406344DC6842
:1019C0002243120C12040020DA6010BD0020C4F281
:1019D00004008446FF2001408A4011004FF6FF7248
:1019E0006344DC68114021430A40ECE7F0B5DE4671
:1019F00057464E464546E0B583B0EFF310820123CB
:101A000083F3108844F6B003C2F2000301931B680D
:101A100033B940F60051C4F20401CB704033CB70AF
:101A200001990B6801330B6082F3108803889A4692
:101A3000BBB3802340F600055B029946284B002289
:101A400040F2FF089C464168C4F204050AE04346A0
:101A50001E4023019B1901329B0092B2585108315C
:101A600092451ED04B468E880868340A1842EED044
:101A700043461E4023019C19A700644600977F59E6
:101A80009B1927403C00009F01327C51674607406C
:101A90003C00009F9B0092B27C5108315851924506
:101AA000E0D1EFF31082012383F31088019B1B68C0
:101AB0001BB101990B68013B0B60019B1B6833B99B
:101AC00040F60051C4F20401CB708033CB7082F336
:101AD000108803B0F0BCBB46B246A946A046F0BD94
:101AE000FFFFFEFF45F2542310B5C5F24F0303601C
:101AF0000800FFF77BFF002010BDC04610B50800AE
:101B0000FFF774FF002010BDF0B5EFF31084012340
:101B100083F3108844F6B003C2F20003186830B9AA
:101B200040F60055C4F20405E8704030E8701868CB
:101B30000130186084F31088D00321D4FF24080AF0
:101B40000C40010140F600000919C4F204008900AC
:101B50000A50EFF31082012181F31088196811B146
:101B60001968013919601B6833B940F60051C4F295
:101B70000401CB708033CB7082F310880020F0BD5D
:101B8000FF2440F60005080A0C4001010819C4F2C0
:101B9000040580004759034E3740164047514651CF
:101BA000D0E7C046FFFFFEFFF0B50400806B83B0B6
:101BB0006D4688B12B000200C0CAC0C3E36B01713F
:101BC0000360636B9847A36B0BB106CD06C32B2351
:101BD0000022E25403B0F0BD2800EFE74EF200030C
:101BE00040F6007230B52C25C4F201031B6AC0F622
:101BF000007283B0134001690193019A019C0B7C30
:101C0000455DDBB28DB91205120F240E121B9340F5
:101C10009B0823B9082044E0013B002BFAD04A7806
:101C2000D209002AF8D1B323CB7100232822835490
:101C300082690362C2612622845C013284540432C8
:101C40008354023283540132835404680132835432
:101C500001328354626A13785278013B5D426B41D2
:101C60005200043313430122DBB2CB704B79134390
:101C70004B710F23E356002B0BDB1F215A094EF249
:101C800000140B401E399940CEF20004920011510D
:101C90000169BF23CB71933BC25C22B10022C254C5
:101CA000002003B030BD2A3B00204B70F9E7C0464E
:101CB00010B52A240355037A41618261012B0AD1B0
:101CC0002522002181540121426852000A43242127
:101CD00042542622835429230122C254FFF77EFF57
:101CE00010BDC04610B52A240355037A41618261B4
:101CF000012B08D125220021815442682431520051
:101D000042542622835429230022C254FFF766FF3F
:101D100010BDC046F0B557464E464546DE461F2329
:101D2000E0B5026904681370403383B01370656ACC
:101D30008033137000912F79FF3B1F43FFB217745C
:101D4000EF7801003B43DBB253747023AF784BF65E
:101D5000C0503F013B4008273B4393702B78CFF6A0
:101D6000F070013B5F427B4184466D7804336D0027
:101D70002B43DBB2D37063684EF2001063445C42C5
:101D80006341DB01773353710023CEF200008446B8
:101D900040F2003503279371B333D371009BFF26C4
:101DA0005B7C40F2801B5BB29C08A40064446059D9
:101DB0001F408446F80080460098477BB801070022
:101DC000FF2037404646B040814660464E46B0430D
:101DD000464644F6B40C0197B740C2F2000C40F2FC
:101DE000C00866463843605198449C00A15146465D
:101DF00046F20004B600B046C4F200043659684802
:101E000037004646074037511F271F40B846012775
:101E10004646B7404EF20016CEF20006B1465E4688
:101E20005B099B004B449F511F60009B0327DB7B9A
:101E30005BB29E08B600B046C844464676591F407D
:101E4000B146FE00FF27B246B7404E46BE43B146FC
:101E50005646019FB7404E463E43B14646464F4622
:101E600077519E00B046474640F2C0086646984407
:101E7000B9514646B600B04636590640B1464646C8
:101E80004F4637511F261E40B04601264746BE40EA
:101E9000B0464EF20016CEF20006B14647465E4608
:101EA0005B099B004B449F511F60009B1B7C5BB2F6
:101EB0009E08B600B046C84446467659B146032649
:101EC0001E40F600B246FF265746BE404F46B74377
:101ED000B9465646019F8A46B7404E463E43B146F4
:101EE00046464F4677519E00B046474640F2C008EE
:101EF00066469844B9514646B600B0463659064043
:101F0000B14646464F4637511F261E40B046012671
:101F10004746BE40B0464EF20016CEF20006B1462D
:101F200047465E465B099B004B449F511F60009BE8
:101F3000FF279B7B01985BB29908890049444E5961
:101F4000B04603261E40F600B146B7404646BE43A3
:101F500037004E46B0406646074350464F51990001
:101F600088511900C031890008590D4D1F2628409D
:101F700008514EF200100121CEF2000084461E40AE
:101F8000B14058465B099B006344195019609F2378
:101F9000137003B0F0BCBB46B246A946A046F0BDE4
:101FA000FFFFFEFF40F23052C0F240029446F8B507
:101FB00000250B78016063441B0203618B680400F9
:101FC00043600B7B0372CB6943630B6A8563C36316
:101FD000EFF3108C012282F3108809260F7846F661
:101FE000FC73F61BB240C4F2040358689043586077
:101FF0005B688CF310882000FFF78CFE2923656155
:10200000A561E5612562E5540133E5540133E554EA
:102010000133E55444F64313C5F249230020E3603D
:10202000F8BDC04610B582B0EFF3038346F200025C
:10203000103B5BB2C033C4F200029B009958474882
:1020400001409950EFF3038344F6B402103B5BB2B6
:10205000C2F200029B009B582D229A5CE2B99A6959
:10206000012A24D940201A69117901431171D969D3
:10207000012907D11020117901430820117111792C
:10208000014311716946D27CD2B2CA71CA792D223C
:102090000121995402B010BDDA69002AFAD0032A4E
:1020A00007D0022A48D0012A1AD0196906E01A6915
:1020B000DDE7402019690A7902430A71CA7C186A6F
:1020C00059690A541A6A01321A62DA69013ADA6104
:1020D000002ADFD140211A6913798B431371D9E7A4
:1020E0002A21595C91B30F241F2019680C572040F6
:1020F0006109140084404EF200102031CEF200003D
:1021000089000C50BFF34F8FBFF36F8F8020196988
:102110004042CC7920431024C87108792043082418
:1021200008710879A04308710420487048799043E9
:1021300048712C201A54C1E7102019690A7902430A
:1021400008200A710A7902430A71B7E70820196961
:102150004A7A82434A724870B0E7C046FFFFFEFFEA
:1021600030B5EFF3038346F20002103B5BB2C0339D
:10217000C4F200029B009958354801409950EFF392
:10218000038344F6B402103B5BB29B00C2F2000230
:1021900099582723CB5C002B33D12923CB5C7BBB05
:1021A000CB69002B3ED108697F23C2791340C371EC
:1021B000C02201E0013A1AB1C379DB09002BF9D141
:1021C00010220B6846F200019A56C4F20001130077
:1021D000C0339B005C581E4D2C405C50002A0BDB2A
:1021E0001F215309114001228A404EF20011603331
:1021F000CEF200019B005A504022C3791343C371B1
:1022000030BD26228A5C032A18D028228A5C24202A
:102210000C69085C0132A07428200A542722013B73
:102220008B54EDE70A6A4C690869A45C013B0132F2
:1022300084740A62CB61002BE2D1B5E728228A5C64
:10224000022AE4D13020085C0028D9D0DFE7C0465C
:10225000FFFFFEFF10B5EFF3038344F6B402103B1B
:102260005BB2C2F200029B009B5829229A5C1AB111
:1022700027229A5C012A48D0DA69D2B11969402232
:10228000CB799343CB71C02301E0013B13B1CA79F1
:102290005206FAD4EFF3038346F20002103B5BB21E
:1022A000C033C4F200029B0099581A48014099506B
:1022B00010BD2A229A5C0AB30F201F211A681056FB
:1022C00001404209012004008C404EF200112032EE
:1022D000CEF2000192005450BFF34F8FBFF36F8FC7
:1022E000802219695242CC792243CA7104224A7071
:1022F0004A7982434A712C229854C0E7082219690E
:102300004B7A93434B724A70B9E72F329A5C002A9A
:10231000B2D1B3E7FFFFFEFF70B5EFF3038344F6DE
:10232000B402E021103B5BB2C2F200029B009C5859
:1023300023695A7A5972DD39D0B21140D2062DD5AF
:102340005A78520645D401212B22A154E169002973
:102350005AD000252000DD712168FFF7DBFC262321
:10236000E561E25C0233E254A36923622C23E55465
:102370002369B3220121DA712000FFF715FCEFF386
:10238000038346F20002103B5BB2C033C4F200028A
:102390009B0099582A480140995070BD0029D2D11C
:1023A00002070AD52B22A15CB1BB2922A15C4A42BB
:1023B0005141B3220231DA71DEE72C22A25C002AFD
:1023C000DDD04207DBD52B22A25C0121002AD3D12C
:1023D000EBE70029B7D15A785206D10F002ADFDA8D
:1023E0002B22A15408215A7A8A435A7222685970C2
:1023F000526A1278013A51424A4101210232DA709E
:102400005A790A435A71BAE72C31615C0029A0D18C
:10241000A25C002AADD09CE7E16929B92C31615C4E
:1024200011B9A25C002AA4D000222621E261605CDE
:1024300002316054A16921622C21625499E7C0469F
:10244000FFFFFEFF8368C26800205A607047C046E5
:10245000F0B5CE46474680B500283ADB40F2FF098A
:102460004EF2001403254E46CEF20004A44640F27C
:1024700000370540ED00AE4083089B006344DC5903
:102480008901B44326004C460C40AC403443DC5137
:1024900044F6B4038100C2F20003CA50030046F2BE
:1024A0000002C033C4F200029B0099580B4C21403B
:1024B00099501F220123024093404EF20012CEF2A7
:1024C0000002944640F2801240098000604483502C
:1024D0000360C0BCB946B046F0BDC046FFFFFEFF7A
:1024E000F8B50A000B7C01210400080098406260E6
:1024F000E060002B00D16DE0217440F28071C0F2E9
:1025000040018C46002063441B02A3605369D569D7
:1025100063619369A061E361EFF3108C012383F39E
:102520001088117C46F6FC764B425941C4F20406F1
:10253000F7684B01413B3B40F360F3688CF3108834
:102540004AF20051A3681960D862D8639864167A79
:102550005168F605DE62802636061E615E619E6168
:10256000AE6958629862DE61EE6901391E628826A2
:1025700099665966E96A9863985131B920312130DA
:10258000695C285C490340070143AA20C003186422
:10259000E068D86059630321122019630239196376
:1025A000517C10562200FFF753FF2223E95C0233CF
:1025B000E8562200FFF74CFF2323E95C0233E8567C
:1025C0002200FFF745FF45F25403C0F24703002005
:1025D0002360F8BD237490E7F0B5C64600B505004A
:1025E000806984B08C46904601AC98B12300060007
:1025F00086CE86C36346037143468360EB690360FE
:102600006B699847AB690BB107CC07C304B080BCBA
:10261000B846F0BD2000EDE7F8B5EFF30383103BBB
:102620005BB21A0046F20005C032C4F20005920007
:102630005159154C98002140515144F6B401C2F251
:102640000001405841680978012915D18668C7689A
:10265000B7600027B764F764376556593440545162
:102660001F245A092340994013004EF2001460338E
:10267000CEF200049B00195143691BB100220021D6
:10268000FFF7AAFFF8BDC046FFFFFEFF70B50424A8
:1026900082B001910092045746F200022500C03535
:1026A000C4F20002A90088581F4E30408850895853
:1026B00045F2004048F20002C905C90D1143C4F2B9
:1026C0000000C2898A42FCD0082244F20001027054
:1026D000019AC2F200012AB3A2008858019C44600A
:1026E000009810B18858009C84603F208958CA78AF
:1026F0008243802A14D002B9CB8145F200431822CC
:10270000C4F200031A7046F200028021C4F20002F3
:10271000AD00A858490401430020A95002B070BD83
:102720008B81EAE7A200DBE7FFFFFFFE0620704790
:1027300006207047042346F200028021C356C4F2EB
:102740000002C0339B00985849040143995000206F
:102750007047C046042346F20002C356C4F200028A
:10276000C0339B009958024801409950002070479F
:10277000FFFFFFFE042244F2000310B58256C2F2AE
:1027800000039200D25800233F200B604B60D378A7
:1027900083434BB1C1308860D48901382040C86080
:1027A000802B07D0002010BD80235B028B60D38973
:1027B000CB60F7E780235B020B6093894B60F1E706
:1027C000042330B5C35646F200011A00C032C4F2E9
:1027D000000192005458064D9B002C40545044F286
:1027E00000020021C2F2000299500160002030BDB9
:1027F000FFFFFFFEF8B544F66C03CE464746C2F233
:1028000000031A7880B581460F00002A39D07B6812
:102810001B785BB2002B59DB44F200059E00C2F22C
:102820000005AA5908201AB1C0BCB946B046F8BD87
:102830004A4613713B683F219C46F730DA781F0007
:102840008A433AB1DA8990464446D2B20440120231
:102850002243DA81BA7810338A43002AEED145F256
:1028600000430832C4F200031A706246AA511822CB
:102870001A7044F200334A46C4F2544300201360F5
:10288000D2E701261E70EFF3108186F310884EF216
:102890000003C4F20103DA690D480240DA61DB6922
:1028A00081F3108844F20005C2F200058022002165
:1028B000280002F0B4FF45F20043C4F200035D605B
:1028C0001E737B681B785BB2002BA5DA0B20ABE78D
:1028D000FFFFBFFFF0B5C646042300B5C356C022B4
:1028E000984646F200034244C4F200039446920024
:1028F000D058204C2040D050D25845F2004048F2E9
:102900000003D205D20D1A43C4F20000C3899342DA
:10291000FCD00B003F24FF26DA781D00A2432AB129
:10292000DF89F8B2020237403A43DA81AA781033DD
:10293000A243002AF0D145F200430832C4F200035A
:102940001A70404644F200028700C2F20002B950F9
:1029500018221A70624646F2000395008022C4F2E3
:102960000003E95852040A430020EA5080BCB846EC
:10297000F0BDC046FFFFFFFE70B5C56904000E0044
:1029800088B0A5B120222900684602F03FFF20222E
:102990003100280002F03AFF2800A3699847E06957
:1029A00018B12022694602F031FF08B070BD0D0059
:1029B000F2E7C04630B5020089B0EFF3038344F676
:1029C000B401103B5BB2C2F200019B005858EFF318
:1029D000038346F20001103B5BB2C0339B00C4F29C
:1029E00000015C58094D2C405C506B469A706A4659
:1029F00043681B88138000231372036A0193836961
:102A000013B16946FFF7B8FF09B030BDFFFFFEFF05
:102A100010B50020FFF7CEFF10BDC0464EF20003F8
:102A2000262244F23C11C4F20103985C1B6A800028
:102A3000C2F2000141585B015B0F44F64012D940DD
:102A4000C2F20002116070474EF2000340F2FE3203
:102A50004B49C4F2010370B599524CF200020020B8
:102A600043F6C871C4F27E02505444F23C1446F658
:102A70000042C2F20004C0F2DC22226041F20022D5
:102A8000C0F27A02626048F2000242F20041A260A3
:102A900022612622C0F2F401E160995C1A6A890081
:102AA00061585201520F44F64015D14040F2134292
:102AB000C2F20005296098540921A222995440F2DB
:102AC0008042995C002953D04EF20003002240F26C
:102AD0008141C4F201035A5401395A54A0329A5C1C
:102AE000CAB136229A5C1AB93C215A5CD207FCD58D
:102AF0004EF20002A021C4F20102535CDB06D80FA3
:102B0000002BFADB50544EF20002A021C4F2010265
:102B1000535CDB06FCD44EF2000200213623C4F2E3
:102B20000102D1543C31535CDB07FCD50121312338
:102B3000D1544FF6C473C4F27E03197000202623CB
:102B4000D0540130FF301062D05C136A80002058EE
:102B50005B015B0FD84040F2FE3328600948D05239
:102B60004CF2000343F6C872C4F27E03995470BD60
:102B7000013140F2C440995400F00EF8A4E7C04679
:102B800003A5FFFF00A5FFFF7047C04600BEFEE79C
:102B900001380028FCD1704744F640124CF600235F
:102BA0004143C2F2000270B51468C3F69A330D00B7
:102BB000B3FBF4F4080040F2E8320023002100F0F7
:102BC0008BF931B9B0FBF4F0800808B1FFF7E0FFF2
:102BD00070BDA000B5FBF0F040F2E8320023002108
:102BE00000F07AF90029F0D001204042FFF7D0FF31
:102BF000EEE7C046F8B546F2000340F2401244F654
:102C0000700500240127C4F200039E5AC2F2000599
:102C1000B6B23300E340E0B21F4202D02B6803B1EA
:102C2000984701340435102CF3D146F2000340F2EA
:102C30003012C4F200039E52F8BDC04646F20000B6
:102C40000023C4F2000046F26042C0F200029A186B
:102C500011781A00C032920001331150202BF2D1AA
:102C60007047C04670B5EFF31081012383F31088DD
:102C700044F634134000C2F200031A5A1AB11A5A29
:102C8000013A92B21A521B5A83B94EF2000240F234
:102C9000FE3546F2DC44C4F20102565B054BC0F23D
:102CA0000004205A334383439BB2535381F310886B
:102CB00070BDC04600A5FFFF70B5EFF31081012382
:102CC00083F3108844F634124000C2F20002135A13
:102CD00083B94EF2000446F2DC4540F2FE36C4F2FF
:102CE0000104C0F20005A35B2D5A2B434AF20055A4
:102CF0002B43A353135A01339BB2135281F3108811
:102D000070BDC04644F63C12C2F2000203001068D7
:102D100010B558B1032103338B4344F65811C3183F
:102D2000C2F200018B4207D8136010BD44F6581060
:102D3000C2F200001060EDE702F062FD0C230360B8
:102D400001204042F1E7C04600BE704710B500F0D8
:102D500003F8FDF771FEFEE740F200034EF6005265
:102D600070B5CEF20002C0F2000382B09360002082
:102D7000FDF746FEFFF768FE6B460026DC1D267059
:102D800001202378FFF798FFEFF31081012585F3E9
:102D9000108846F6FC73C4F204039A683D4802406A
:102DA0009A609A6881F3108840F60001C4F2040129
:102DB0000A68D207D20F22700A68D207D20F227097
:102DC0000A68D207D20F2270EFF3108185F31088C2
:102DD00080229868520502439A609B6881F31088AC
:102DE0000120FFF73FFF0120FDF70AFE40F60053E8
:102DF000294AC4F200039E801A8044F65812C2F297
:102E000000029A6044F65852C2F20002DA6046F2BA
:102E1000000240F2201141F20000C4F200025052C0
:102E200044F6541244F25010C2F20002C2F2000002
:102E30009D800021121A02F0F2FC44F2800044F25C
:102E40003C1246F20071C2F20000C2F20002121AF5
:102E5000C0F2000102F0DAFC44F2341544F23813F7
:102E6000C2F20005C2F200035B1B9E10002B05DDC1
:102E7000002408CD01349847A642FADCFFF7CEFDC6
:102E80000220FDF7BDFDFFF7D9FE0020FFF77CFE15
:102E900002B070BDFFFFFFEF00A5FFFF1C21012363
:102EA0001B04984201D3000C10391B0A984201D32D
:102EB000000A08391B09984201D30009043902A20B
:102EC000105C40187047C046040302020101010172
:102ED0000000000000000000F0B54FF6FF75CE4680
:102EE000474699462B0015400E0029000340140C5C
:102EF00080B50700000C59434543634360435B19A9
:102F00000C0CE4188C46A54203D980235B0298463A
:102F10004044230C61461B1820044FF6FF740C40FC
:102F2000494679437243C91800198918C0BCB9468B
:102F3000B046F0BDF8B557464E46DE4645461C0045
:102F4000E0B517000D000903420F490A1143620062
:102F5000520DC30020039246400AE20F7C0F6E0020
:102F600004439346A146760DED0FFF00954200D134
:102F7000A0E05046301A8446002800DC81E052462A
:102F8000002A00D1C0E040F2FF72964200D12CE14D
:102F9000802220001204104381466246382A00DD58
:102FA00073E11F2A00DDDEE1604620224C46121A42
:102FB00094403800A04664469740E04044467A1E5C
:102FC000974104434A466046C2402743891ADC1BA6
:102FD000A3429B415842081A030200D4DCE040029D
:102FE000430A98464346002B00D10FE14046FFF7C5
:102FF00055FF0300083B202221004046D21A98408A
:10300000D1409C400843B34200DA0EE19B1B5A1C9E
:103010001F2A00DDB2E02023010026009B1A9C40FD
:103020009940D640631E9C413143D04000260C435A
:10303000630709D00F232340042B05D0231DA3428F
:10304000A441644200191C00030200D4A7E040F22E
:10305000FF7101368E4200D1C2E0CB4BE40818402C
:103060004307400223430E40040B3205ED07224381
:103070002A4318001100F0BCBB46B246A946A04640
:10308000F8BD002850D05046801B8446002E00D04A
:1030900030E108001843002800D1C3E16246501E09
:1030A000012A00D12CE240F2FF74A44500D1DCE1FA
:1030B000844627E15246B21A9446002A00DCB8E062
:1030C0005246002A48D040F2FF72964200D1C2E137
:1030D000802220001204104381466246382A6EDCAA
:1030E0001F2A00DC6FE14846203AD0406246202A81
:1030F00005D064464022121B4C46944027433C00B6
:10310000621E944104435EE022003A43002A00D14B
:103110000FE10200013A012800D193E140F2FF7073
:10312000844562D0944638E740F2FE74701C044235
:1031300000D0C8E008001843002E00D078E1002835
:1031400000D1D0E148463843002800D0E2E1DB0856
:103150004A071343CC082BE022003A43002A00D14F
:103160007EE162466046013A012800D1E6E040F285
:10317000FF70844500D16EE19446AEE701001F3B2D
:10318000D940202A03D040239A1A90400443631E5A
:103190009C41002000260C43630700D04AE7B44658
:1031A000E40843072343C40840F2FF72944520D04B
:1031B00040F2FF7662462403240B164055E74C4646
:1031C0003C43621E9441E4189C429B415842401883
:1031D0000302E1D540F2FF7301369E4200D0B8E011
:1031E00040F2FF76002400233FE7DB084A07134341
:1031F000CC081A002243002A00D1EEE180221203FB
:103200001443240340F2FF76240B2EE72000FFF73F
:1032100045FE030018331F2B00DCECE60838844021
:1032200020000024B34200DBF0E6574AF61A1040B3
:10323000FEE682B35246921B9446002E00D1B1E0C6
:1032400040F2FF72924500D117E18022120411432F
:103250006246382A00DD17E11F2A00DD8BE1604657
:1032600020220C00121A6646180093409440F04049
:103270005A1E9341F14004431C438944E419BC4263
:103280008041404256464844A2E74A463A43170026
:103290007A1E97419BE640F2FE70721C104200D0ED
:1032A000A5E00A001A43002E00D0FFE0002A00D15A
:1032B0004FE122003A43002A00D04FE14A07DB08E1
:1032C0001343CC0874E74846DC1B0A1AA34280412A
:1032D0004042804610004246801A02008046120298
:1032E00000D595E003002343002B00D07AE60024AC
:1032F00000255DE740F2FF70824500D1B5E08020F7
:10330000000401436046382840DC62461F2800DD87
:10331000BFE020200C00801A1D0083408440D5406F
:10332000D1404A46581E83412C43521A91462343AA
:103330002FE0DB084A071343CC0835E7DC199C4231
:103340009B4149445B42C8180126030200D423E78D
:1033500002260D4A63081040012214401C43C30793
:103360001C43400864E64C46203AD4406246202A7A
:1033700005D060464022121A4846904007437A1E04
:103380009741274323E6C046FFFF7FFF0B43591EAB
:103390008B41FC1AA74280414B4640425D4656464F
:1033A000181A19E60A001A43002A00D1C4E062463E
:1033B0006046013A012800D1ECE040F2FF708445FC
:1033C0005BD0944644E7604620224C46121A944053
:1033D0003800A04664469740E04044467A1E974134
:1033E00004434A466046C2403C438918EBE640F23B
:1033F000FF70824200D1F3E6DF199F429B414944AE
:1034000058420818C4077F0816003C434008C3E62A
:10341000FC1AA742BF414B467F42591ACB1B984624
:103420005D46DFE56307FF085D463B43E408BBE616
:10343000002800D085E04B463B43B3B980240025EB
:103440002403DBE6DC1B4A46A3429B41881A5B420D
:103450000126C01AC0E54A07DB081343CC08C8E6BA
:103460004A07DB081343CC089EE64B464A46FF0852
:103470005B075D463B43D408BBE64B464A465B07C9
:10348000FF083B43D408B4E60B431C00631E9C4179
:10349000F4E60C002038C440202A03D04020801AD3
:1034A00081400B43591E8B41234372E7002AE4D02D
:1034B00022003A43002ACED04A07DB081343802279
:1034C000CC081203144208D04946C908114204D15D
:1034D0004A460C00FB08520713435A0FDB00520701
:1034E000DB08134385E64B463B43002B00D1FEE649
:1034F0004B464A46FF085B075D463B43D40857E608
:10350000FC1AA742BF414B467F42581A5D4601262E
:10351000C01B61E54A46DC1B881AA3429241524215
:10352000801A02023DD5FC1AA742BF414B467F429A
:10353000581A5D46C01B7BE56307FF083B43E40860
:1035400032E648463843DB0888BB4A071343CC08B9
:103550004FE66307FF083B43E40829E6DC199C4279
:103560009B4149445B42C818030200D414E61D4B3A
:103570000126184010E60C00203AD4406246202A6A
:1035800004D040226046121A91400B435A1E9341C8
:103590001C4373E6DC19BC42BF4149447F42C81951
:1035A000D2E623000343002B00D1A0E6F4E5480750
:1035B000CC088021090303430C4208D04A46D008B6
:1035C000084204D15D460400FB0851070B435A0F23
:1035D000DB00DB08520713430BE6002340F2FF76C3
:1035E0001C0042E5FFFF7FFFF0B557464E464546BB
:1035F000DE46E0B58146050048000C03400D9246CA
:103600001F0087B0240BCE0F002800D17DE140F2CF
:10361000FF73984200D19AE16B0FE4001C438023B2
:10362000D14A1B04234398469446030040F2000904
:1036300040F2000B6344ED0001937B003C035B0D03
:103640005046240BFF0F002B00D13CE140F2FF72EB
:10365000934200D190E1420FE4001443802212040F
:103660001443C14AC10094460020019A6344D31A0E
:10367000019333004A467B4002930F2A28D8BB4B64
:1036800092009A58974602965B46022B16D0032B5F
:1036900000D1B7E2012B00D0F1E000220024002588
:1036A000029B12052243DB071A432800110007B0D2
:1036B000F0BCBB46B246A946A046F0BD40F2FF7240
:1036C00000240025ECE7A0460D0083460297DBE7C7
:1036D000444500D2E9E100D1E4E12F004046002555
:1036E000019B013B01930E0E0A024FF6FF7124026B
:1036F00026433140240CB0FBF4FC8B4661465B460C
:10370000594363466343C01A0304380C184381428B
:1037100008D901235B42634480199846864200D849
:1037200028E2C446401AB0FBF4F95B4649465943C7
:103730004B464FF6FF786343C01A434600043B40B4
:103740001843814206D94B4680195F1E864200D835
:1037500007E2B9466346411A18044B4603434FF645
:10376000FF7C98461F0C130C9A466046434618404F
:103770006346134004971F0047430397049F059334
:103780007B439946534658435F43039B48441B0C75
:103790009C466044814503D980235B029C46674474
:1037A000030C994603044FF6FF704F449946039B60
:1037B00018404844B94202D312D1854210D20123A5
:1037C0005B424344AD18994695429B415B429C46FF
:1037D000B44461448E4200D2B0E100D1ABE1C846AE
:1037E000281A8542AD41CF1B6D427F1BBE4200D1DE
:1037F000E9E1B7FBF4F123005D464B434D43FF1A6B
:103800003F04030C1F43BD4200D97CE17F1BB7FB83
:10381000F4F56C435B463F1B4FF6FF746B433F046C
:1038200020409B463843834200D963E15B4609044C
:103830000D43C01A059B2F0C1C007B434FF6FF71F4
:103840009C46534629404C43594361448946210CC8
:1038500049445F438C4503D980235B029C466744FF
:103860000B0C9C46BC444FF6FF7709043C400919F9
:10387000604500D20AE100D105E10122154340F282
:10388000FF3C019A6244002A00DCB2E06B0700D0E2
:1038900043E1ED084346DB0107D54346344A40F295
:1038A000004C13409846019A624440F2FE718A42ED
:1038B00000DD03E7434659070D4340F2FF715C0208
:1038C000240B0A40ECE651462143002900D17FE059
:1038D000002C00D100E12000FFF7E0FA02000B3AD3
:1038E0001D239B1A52460100DA40534608398B408B
:1038F0008C4019001443019B9C466044030040F235
:10390000F33C634400200193B3E64B4623439846BF
:10391000002B55D0002C00D1CEE02000FFF7BEFADE
:10392000010002000B391D235B1A49461000D940E3
:10393000083884400B004D462343984685400D4887
:1039400040F20009831A40F2000B019375E64B46E2
:10395000234398465BBB40F2FF73002540F2080901
:1039600040F2020B019368E601FCFFFFE4640000F3
:10397000FFFFFFFE0DFCFFFF5146214359B9022313
:103980004A461A439146A54A019B94466344002443
:10399000022001936DE603234A461A4391469F4A4B
:1039A000019B9446634451460320019361E640F233
:1039B000FF73A04640F20C0940F2030B01933CE672
:1039C0000023002540F2040940F2010B019334E684
:1039D0004A4601231A4391460024012049E6002368
:1039E000802400250293240340F2FF7258E601254B
:1039F0006D420120801A382800DD4EE61F2800DCC9
:103A0000C1E01F21434649428A1AD3401A002028A8
:103A100006D040F23E4C4346019961448B401D4321
:103A2000691E8D41290011430722150000240D4015
:103A30000A4200D1D9E00F2000220840042800D11A
:103A4000D0E0081D88428941494252180100130202
:103A500000D4C7E001220024002521E6802243464D
:103A60001203134207D0144205D1144324030D005E
:103A7000240B0297B8E78024434624031C43240305
:103A8000240B0296B0E7002900D1F8E630186F1E2B
:103A9000B04200D28FE0604500D2AAE000D1B8E089
:103AA0003D00EAE6A94200D917E643466A08DF0767
:103AB00058081743ED0716E64846FFF7EFF90100EF
:103AC0000200153120321C2900DC2CE74B46083857
:103AD00083400025984632E7FFF7E0F903001A001B
:103AE000153220301C2A00DCFAE65446083B00213F
:103AF0009C4000E780196C1E864271D883426FD9C2
:103B0000023D801992E64B1EBF199C46BE4265D805
:103B1000BD4263D90239BF1978E60F212940042933
:103B200000D1B6E605214942A942894104354942FE
:103B3000ED088844AEE6AA4200D950E68F4204D888
:103B400000D04CE6A84200D849E60223AD185B42FB
:103B50009C4695429B415B42E0449C46B444614490
:103B60003EE6814200D8F4E502235B429846801984
:103B7000C144EFE5814200D8D3E502235B42984679
:103B80008019C444CEE540F21E4C019A2C006244D8
:103B9000414695409140C4406A1E954142462143AA
:103BA0002943C2404B0700D151E70F2008400428A9
:103BB00000D046E74BE73D00604500D05DE691420E
:103BC00000D05AE65BE640F2FF3C019A6244002ACC
:103BD00000DC0CE70121002588445BE6614615E620
:103BE000250023E655075202140BC90800220D4395
:103BF00056E554009442924152429619023D2200E9
:103C00008019D9E78024434624031C432403240B52
:103C1000EAE68A42EDD33D00D1E7C04601F8FFFF56
:103C2000F0B5574645464E46DE46E0B598464B0051
:103C30000D035B0D0600924687B02D0BCF0F002BB6
:103C400000D17CE140F2FF72934200D196E1420F35
:103C5000ED001543802212041543DD4A40F20009AD
:103C6000944640F2000B6344C4000093434642462E
:103C70001E035B00D20F5B0D51469046360B002BA6
:103C800000D13BE140F2FF72934200D182E14A0F42
:103C9000F6001643802212041643CD4AC80094460B
:103CA000009A634494469C44634640F2000C00939F
:103CB000009A4346013201924A467B400F2A25D89A
:103CC000C44992008A589746434635000400E346AB
:103CD0005A46022A15D0032A00D120E2012A00D038
:103CE000E1E000220025002412052A43DB071A43E5
:103CF0002000110007B0F0BCBB46B246A946A04662
:103D0000F0BD40F2FF7200250024EDE74FF6FF7C86
:103D10006146270C0C40020C0840210041438946B3
:103D200001007943884611007943039102912100F3
:103D300051438C464946090C8A46C444D4440492F3
:103D4000E04505D9802252029046039941440291F0
:103D50006146090C8B4661464FF6FF7809048C4694
:103D6000424649461140894662464A440392320C13
:103D7000944642462100164071436246884631000F
:103D800054437943574342468946120C92464C4469
:103D90005444A14203D98022520291464F44220C3E
:103DA00091463A0041464FF6FF774A443940059222
:103DB0002A0C3D4088462F00110047434143100024
:103DC0008946390C8A46240444449046049AA34404
:103DD00050436A434A445244914503D980214902E1
:103DE00089464844110C894648444FF6FF794946B4
:103DF0001204394092462F00424677438A44564384
:103E000041466246514355433A0C9446AD196544C8
:103E10008846AE4203D9802252029446E0444FF6CF
:103E2000FF7949462A04394094460F00029E0599BD
:103E30005E44A642A44167448C46644267443A19F2
:103E40005644944656459241824652429146E24437
:103E5000D14482458041914592418F42BF41A44562
:103E6000A4415242404210434A4664427F422743A3
:103E70002D0C7F19D50D039A74021443621E9441D0
:103E80004A463F184744F60D7F02344352023D43F1
:103E90001443FA0100D423E10120620804401443D2
:103EA000EA0714436D08019940F2FF328C466244E0
:103EB000002A00DCB4E0610709D00F20204004286C
:103EC00005D0201DA042A44164422D190400E9013F
:103ED00006D5414A019915408C4640F200426244A1
:103EE00040F2FE718A4200DD0BE76907E4080C43EB
:103EF00040F2FF716D022D0B0A40F5E6504630434B
:103F0000002800D17DE0002E00D1D9E03000FEF77E
:103F1000C5FF020003000B3A1D201900821A50460B
:103F20000839D0408E40064350468840009AD31A44
:103F30002A4A94466344009340F2000CB8E62C00F1
:103F40000443002C55D0002D00D1ABE02800FEF733
:103F5000A5FF010002000B391D2310005B1A310080
:103F6000340008388540D94084400D431B4840F256
:103F70000009831A40F2000B009377E604002C43FB
:103F800074BB40F2FF73002540F2080940F2020BB7
:103F900000936BE6009A504694469C446346304337
:103FA000009368B94A4602231A439146002640F21C
:103FB000020C7DE65A463B00022A00D08BE6A0E6C2
:103FC0004A4603231A439146504640F2030C6FE6DB
:103FD00001FCFFFF24650000FFFFFFFE0DFCFFFF5B
:103FE00040F2FF73040040F20C0940F2030B00930F
:103FF0003CE60023002540F2040940F2010B009347
:1040000034E64A4601231A439146002640F2010C49
:104010004EE68025002300242D0340F2FF7263E664
:104020000120801A382800DD5BE61F285BDD1F2693
:1040300029007642B21AD1400A00202805D040F269
:104040003E4C019961448D402C43611E8C410721F7
:1040500022430C000025144011425CD00F210025A2
:104060001140042954D0111D914292415242AD1881
:104070000A0029024CD501220025002434E68022C2
:104080001203154207D0164205D1324315034346A9
:1040900004002D0BC1E78022120315432D033B00C2
:1040A0002D0BBAE7FEF7FAFE0100020015312032AF
:1040B0001C2900DC50E7350008380024854055E70E
:1040C0005046FEF7EBFE02000300153220331C2A97
:1040D00000DC21E702005646083A0020964025E71A
:1040E000009A0192DFE640F21E4C01992A006144D9
:1040F00026008C408A40C640611E8C4132432243D8
:10410000C5405107B5D00F2111400429ABD1B0E70C
:104110006C076D022D0BD20814430022E4E58022C7
:10412000120315432D032D0B77E7C046F0B5574614
:104130004E464546DE46E0B50D00040011001A006B
:104140002B035B0A400F18438146E0005400640DC6
:10415000A24640F2FF7817034C0F6E0083B07F0A2F
:10416000C9002743760D0C00ED0F0190D20FC24518
:1041700000D1B5E040F2010C63465A4093469542A7
:1041800000D187E05346F31A9C46002B00DCB0E0D8
:104190005346002B00D1C5E040F2FF739E4200D190
:1041A0006FE180231B041F436346382B00DD8EE143
:1041B0001F2B00DD04E2624620233C009B1A0A000C
:1041C00099409C404B1E99416346A0466446DF409F
:1041D0004B46E2404446DB1B994614430C43041B08
:1041E000A0429B414A465B42D31A1A0200D41FE107
:1041F0005B025B0A98464346002B00D154E14046DF
:10420000FEF74CFE0200083A202120004346891A9E
:104210009340C84094400343964200DD53E1921B13
:10422000511C1F2900DDF5E0202218002600521A3B
:1042300094409040CE40621E94413043CB400026D3
:104240000443620709D00F222240042A05D0221D10
:10425000A242A44164421B1914001A0200D4EAE0ED
:1042600040F2FF720136964200D105E1C74FE408E3
:104270003B4058075B0220431F0B164036053E4368
:10428000ED072E43310003B0F0BCBB46B246A94651
:10429000A046F0BD5346F31A9C46002B5FDD534603
:1042A000002B00D1A7E0464500D1EAE080231B04A3
:1042B0001F436346382B00DDCDE01F2B00DCACE153
:1042C0003A00203BDA406346202B05D06446402369
:1042D0001B1B3C009C400C43631E9C411443BEE0EE
:1042E0003B000B4383B39346954235D0A84B9C4685
:1042F000B4446346002B64D053469B1B9C46002E5F
:1043000000D00CE14C460443002C00D1A9E15C1E16
:10431000012B00D1F3E140F2FF75AB4200D1C2E1C5
:10432000A44606E13B000B43002B00D1D4E06346DA
:104330006246013B012A00D1ACE140F2FF72944594
:1043400000D19EE09C462FE740F2010C63465A40A4
:104350009346954200D015E78D4B9C46B444634686
:10436000002B00D1BFE053469B1B9C46002E00D182
:1043700043E140F2FF72924500D1D5E180224B46E5
:104380001204134399466346382B00DD91E11F2B3D
:1043900000DD1BE2624620239B1A4C460200984037
:1043A00066469C40431E98414B46F240F3401443FE
:1043B0000443FF1864188C429B415B425646DB194C
:1043C00052E040F2FE74731C1C4200D0C7E04B4622
:1043D0000343002E00D04AE1002B00D199E13B00BD
:1043E0000B43002B00D0AAE14B46C0085B071843E3
:1043F0004B46DB0828E03B000B43002B6CD06346A8
:104400006246013B012A00D1C4E0C44500D190E1DD
:104410009C464EE718001F3AD040202903D0402286
:10442000511A8B401C43631E9C4100260023044309
:10443000620700D007E7B4465A07E0081043DB08DC
:1044400040F2FF72944522D01F0340F2FF7663468C
:104450003F0B1E4012E73C000C43631E9C41241896
:1044600084429B415B424B441A02E1D540F2FF7209
:104470000136964200D099E040F2FF7600270020F6
:10448000FCE6C0084B465B0718434B46DB080200BE
:104490001A43002A00D1D4E180273F031F433F0382
:1044A00040F2FF763F0BE9E62000FEF7F7FC020042
:1044B00018321F2A00DCA7E62300083883400024B6
:1044C000964200DCABE6B61A304A1340B9E63C002F
:1044D0000C43631E9C4182E64B46C0085B071843B1
:1044E0004B46DB08ACE7731C9A4640F2FE73544619
:1044F000234200D0A4E04B460343002E00D0F1E05D
:10450000002B00D14FE13B000B43002B00D04FE1CB
:104510004B46C0085B0718434B46DB0894E740F264
:10452000FF74A24500D1BEE080244B4624042343FF
:1045300099466346382B53DC1F2B00DDBEE0202557
:104540006246ED1A4C460300AC40D340A8401C43E1
:10455000431E98414B46D3402043FF1A45E04B464B
:10456000441ADA1BA0429B415B4298461300424624
:104570009B1A98461B0200D582E040462043002843
:1045800000D038E6002300255EE7C046FFFF7FFF2E
:1045900001F8FFFF44183B00844280414B444042F5
:1045A0001B1801261A0200D442E702260121A74A5D
:1045B000134062080C401443DA0714435B0840E6DA
:1045C0003A00203BDA406346202B05D06446402366
:1045D0001B1B3C009C400C43631E9C411443FEE5A6
:1045E0004B4603431800431E98410C1AA1429B41BD
:1045F0005B425D465646FB1AF7E54A460243002AEF
:1046000000D1AEE05A1E012B00D1F0E040F2FF7461
:10461000A34200D1F9E09446B5E6624620233C006F
:104620009B1A9C400A009940A04664464B1E994143
:104630006346E2404446DF4014430C43B9440EE76E
:1046400040F2FF739A4500D116E7411881429B4121
:104650004F445B42FB18DC07490856460C435B0895
:10466000E6E67B07C80818435D46FB08E8E6002B32
:104670007CD138000843B0B9802300251B030BE729
:104680000C1A4B46A1428941FF1A49427B1A9846AF
:104690005D46B0E5441A4B46A0428041DB1B4042D8
:1046A00001261B1AA1E57B07C80818435D46FB08D5
:1046B000EDE64C460443631E9C417BE664464B4654
:1046C000203CE3401C006346202B05D04025ED1A1A
:1046D0004B46AB4003430193019B581E8341234348
:1046E000180082E703B33B000B43002B00D091E09E
:1046F0004B46C0085B0718434B46DB08C7E60C1A5D
:104700004B46A1428941FB1A49425D4601265B1A8C
:104710006BE538000843002800D133E77B07C80861
:1047200018435D46FB088FE67807C9080843FB0875
:10473000ADE64A46C30850071843D308A7E6441A13
:104740004B46A0429241DB1B52429B1A1A0256D59D
:104750000C1A4B46A1428941FB1A49425D465B1A3D
:104760006FE57B07C8081843FB0869E63B000B436D
:10477000C008002B00D185E64B465B078024184318
:104780004B462403DB08234207D0FE08264204D10F
:104790005D463300C90878070843420FC000C008CF
:1047A0005207104373E67807C9080843FB084BE635
:1047B00044183B00844280414B4440421B181A027B
:1047C00000D435E6214A0126134031E662464E46C2
:1047D000203AD640202B05D04022D21A4B46934097
:1047E00003430193019C631E9C413443E2E544185A
:1047F0003B008C4289414B4449425B18D1E6200082
:104800001843002800D1BDE612E67B07C80818430C
:10481000FB083CE64B46C408580704438020DB08ED
:104820000003034207D0FE08064204D15D46330070
:10483000C9087C070C43600FE4004007E4082043EC
:1048400025E6002040F2FF76070017E5FFFF7FFF17
:104850000A0030B540F2FE34530009030500090B8D
:1048600000205B0DD20FA34205DD40F21D408342C4
:1048700002DD0E4BD01830BD80204003014340F2D2
:104880003340C01A1F2809DD40F21340C31AD94033
:104890000B005842002AEED11800ECE7044CC5404A
:1048A000A446634499400B002B43F2E7FFFFFF7FD0
:1048B000EDFBFFFF70B5C0B1C317C5185D40C40F55
:1048C0002800FEF7EBFA40F21E431B1A0A2817DCF9
:1048D00002002E00153296400B22101AC54040F2FD
:1048E000FF712D032D0B0B4003E000240023002556
:1048F00000261B052B43E40723433000190070BD3D
:104900000B38854040F2FF712D0300262D0B0B4024
:10491000EFE7C04603685A0004D58022120613430D
:10492000C01870475B005B08FAE7C046F8B5574609
:104930004546DE464E469046E0B5070021B34B1E85
:104940009A46994640F2000B5B464B44DC0FE41854
:104950006410E5007E193000FFF7DCFFA2450CD0A3
:1049600040450CD8280008303818FFF7D3FF01382D
:1049700040450AD2631C9B46E6E7404505D9A3455E
:1049800002D0631E9946DFE700263000F0BCBB462C
:10499000B246A946A046F8BD0300012804D002286B
:1049A0000CD000202BB1704745F2A900C0F20000E6
:1049B000F9E745F29D00C0F20000F4E745F2B500CA
:1049C000C0F20000EFE7C04640F2000330B5C0F28D
:1049D0000003050083B08C1E2BB3200001A900E06A
:1049E00000BFE0B101992200FFF7A0FF0400B0B1C1
:1049F000FFF790FF6368A864012B30D0201D002BC7
:104A000029DBFFF787FF0023E8642B650368002B91
:104A100015DBFFF77FFF2861002003B030BD0023C6
:104A200009202B61F9E746F2007346F2D850C0F234
:104A30000003C0F200001B1AD9100191D3E718013E
:104A4000000FFFF7A9FF2861431E98410823404249
:104A500098430930E1E70123E8642B65D6E700239A
:104A600005202B61D9E7C046036810B50400DA07BA
:104A700005D49B070AD5483000F06EFC23685A071E
:104A80000AD51A070FD5DB0615D510BD483000F042
:104A90005FFC23685A07F4D42000D03000F060FC9B
:104AA00023681A07EFD420005130FF3000F05CFC7F
:104AB0002368DB06E9D42000D130FF3000F058FC39
:104AC000E3E7C046092070470300006800B1C01842
:104AD0007047C0467047C04670B504000D00200006
:104AE000296CFFF771FF88B92B6C2A0063612100E4
:104AF0000120236998470828F1D0072806D1002013
:104B0000296CFFF7E7FF281D00F00CFC00F070FE99
:104B1000F0B5CE46474680B5C3682F4C9846A544AD
:104B20008369040016000431402205A8994600F06C
:104B30006DFE0023049324E0149B40F2E0126361B5
:104B400004A97CA8039300F061FE210028002369DA
:104B50007CAA98478A9B0500039315934B460193C3
:104B600004AB00932200230031000120C04708BBA2
:104B700040F2E0127CA904A800F048FE0026082DAF
:104B800021D1149B200019000393FFF71DFF093664
:104B90000700F5B20028CFD0129B10210393159384
:104BA0004B46019304AB00932200230001202943CC
:104BB000C04700B10927380040F2D4339D44C0BC3F
:104BC000B946B046F0BD072DF4D130001499FFF777
:104BD00081FF05A800F0A6FB2CFCFFFF406C70478E
:104BE00070B5CB6BFAB00B6405000E0040220431A7
:104BF00003A800F00BFE01235B42029306E02900AC
:104C00002B6902AA9847040008280AD1129B2800A1
:104C100019000193FFF7D8FE0028F0D009207AB0E0
:104C200070BD02A8FFF720FF062CF7D13100280045
:104C3000FFF752FF10B58261DA6BC1601A64190088
:104C40000022FFF765FF10BD436970B50B64C368B0
:104C500004000D009BB90A00236901000220984757
:104C6000072805D008280FD129002000FFF734FFBE
:104C70000020296CFFF72EFF281D00F053FB0122B6
:104C8000FFF746FF00F0B4FD00F0B2FDC36810B5B9
:104C90002BB1CB6B00220B64FFF73AFF10BDFFF77F
:104CA0009FFFFBE77047C0468368010010B50BB15A
:104CB0000120984710BDC046012914D009D883B9F6
:104CC0000F2A0ED8920082185268009B00201A60AA
:104CD00006E001200339C9B28842804140420130D8
:104CE00070470220FCE70120FAE7C04600B585B016
:104CF00003AB0A00009300210023FFF7DDFF0398B8
:104D000005B000BD012914D009D883B90F2A0ED8E7
:104D1000009B92001B6882185360002006E001206F
:104D20000339C9B2884280414042013070470220B5
:104D3000FCE70120FAE7C04600B585B003AB03925B
:104D400000930A0000230021FFF7DCFF05B000BD3F
:104D500070B51A4CD36BA544136405000C0019A858
:104D6000111D402200F052FD01235B42189313E015
:104D70000C2118A802AAFFF7DFFF210018A8A847F6
:104D800090B9069B18AA02A908300193984706001B
:104D900005280AD0092807D0289B02A819000193EA
:104DA000FFF712FE0028E3D0092618A8FFF75CFEE3
:104DB000300040F240239D4470BDC046C0FDFFFF5F
:104DC000F0B557469246032245464E46DE46994682
:104DD0001300E0B58846CD6C494689B00340009386
:104DE00008CD0695002900D181E01A0C1B0405931B
:104DF000022304A90B73FD3313409B004A73ED1883
:104E0000009B022B01D143469D6B43461B6DDB0784
:104E10000ED5504605A900F04FFB08B9082000E068
:104E2000092009B0F0BCBB46B246A946A046F0BD79
:104E30002F68002FEDD0082303400293002354462F
:104E400040F2010B4646BA4601934B46022B4BD02B
:104E50002B886F889A4604355A463B009343B26CC0
:104E60000F21904620009844FFF740FF0023804523
:104E700006D853465A469343434498429B415B426B
:104E800002227F001740594652460A401743012F1D
:104E900032D0022F4DD0002FC2D1009A12B1002B78
:104EA00000D09AE004352B689A46002BCDD1200023
:104EB00005A9A24600F000FB0028B1D1019B002B00
:104EC000ACD00F215046FFF711FF0E2102005046D3
:104ED000FFF732FF40F2000250460F21C0F20002FD
:104EE000FFF72AFF07209CE76F680835B4E71B022D
:104EF000059304AB9A8183E7009A002A45D1B3B1A8
:104F00002B68DF0F6B689A1C00D189E7320058329A
:104F10000492013300D1B1E0281DFFF7D5FD3A001E
:104F2000010004AB300000E000BF002869D1083563
:104F3000B9E72A68009957007F0859B91BB1029B4D
:104F4000002B71D0E7B3002A00DA04350137BF0027
:104F5000ED19A8E7336A0D2120009846FFF7C6FE39
:104F6000804501D02A68EEE7B36A9D42FAD100235A
:104F7000F362043333632B1DB76273632B68002B1A
:104F800000DA85E001230193E0E70D212000376A74
:104F9000FFF7ACFE8742CAD1B36A9D42C7D1B04683
:104FA000A2462800FFF7B6FC0F2102005046FFF78B
:104FB000C3FE504642460021FFF7BEFE072030E701
:104FC000B046A2460D215046FFF790FE4346049A94
:104FD00018625A6206209D6223E72800FFF79AFCB8
:104FE0000435A246B5630400300000E000BF00288D
:104FF00000D115E7504622000F21FFF79DFE072044
:105000000FE7A2460D2104005046FFF76FFEB046A1
:1050100033003062022C37D1049A2C33F26273626F
:10502000434606209D62FCE640F2580C40F2000820
:1050300021004A462B1DB444A9461C003D008A4667
:1050400047460392E0460DE0434620000493FFF7F5
:105050003BFD0022010004AB300000E000BF01373F
:10506000043420B9AF42EFD14D46B046AAE72F0035
:105070004D46039B544699462A6864E70D2120005B
:10508000FFF734FEB04630624346049A5A62C7E7DF
:10509000781C8000B046A246281883E710B500238C
:1050A000FFF78EFE10BDC04610B50123FFF788FE46
:1050B00010BDC04610B50223FFF782FE10BDC046EA
:1050C000F0B54746CE4680B5060017001C00C3B0B9
:1050D000032943D020D8002948D0012940D1130CFE
:1050E0004FF6FF723A4098469146012C00D179E084
:1050F000052C35D11F004F44202F31D843460F2BAC
:1051000000D8B6E04F46002F00D0C2E04A46B16B4F
:1051100020AD0AB300277EE0042921D103BB102A69
:105120001ED8102203681A4200D0C9E020AD280022
:1051300000F020F9012429000023B26B20009840E0
:10514000074201D001CA086001330431042BF5D1B4
:105150002800B26300F00CF9002002E0032B1DD000
:10516000022043B0C0BCB946B046F0BD002BF7D119
:105170004FF6FF72816B041D002301203A400500A9
:105180009D402A4201D020C9256001330434102BF0
:10519000F5D10020BB04E4D4B163E2E7140C4FF670
:1051A000FF721740E319102BDAD8082203681A425D
:1051B00000D08CE020AD280000F0D8F8E400B36BFC
:1051C00057B1E41AFF00211FDF196918180002689F
:1051D00004335A50BB42F9D12800B36300F0C4F83D
:1051E0000020BEE74B44102BBAD843460F2BB7D84C
:1051F00033681C4206D003223000934333604830AA
:1052000000F0A8F820AD280000F0A4F84A460027D6
:10521000B16B002A63D04346DB00ED180023D200B7
:10522000C858E85004339A42FAD189187FB16D46C4
:105230004046102800D2102000231038C000281843
:10524000FA00CD58C55004339342FAD1C918012C45
:1052500044D04346B1630F2B07D9002F00D17BE721
:10526000684600F07DF800207BE720A800F074F885
:10527000F3E7102F41D9103F012233681A4207D0BB
:1052800093430222300013433360483000F066F845
:10529000AFB3042233681A4228D143460F2B03D8F8
:1052A00020AD280000F05AF86D46280000F05AF8AA
:1052B00010224346B16BD21A002AB9DD20ADAAE70D
:1052C00093430360D130FF3000F054F82EE793434E
:1052D00003605130FF3000F049F86BE720AD043136
:1052E0002800B16300F034F800203AE7300093431F
:1052F0003360D03000F036F8CFE70027BCE74346F4
:105300000F2B00D902E720AD280000F027F84A460D
:10531000B16B002A00D0FDE6280000F01DF8002047
:105320001FE7C0460100343138C9043B9C461D606C
:10533000A646010020313CC990469946A246AB469C
:1053400001000831FCC941680068E54600BDC0465F
:105350007047C0467047C0467047C0467047C04659
:105360007047C0467047C0467047C0467047C04649
:105370007047C0467047C04601B401A801B585B06A
:10538000FFB408A841464A4653465C4665463EC0BF
:1053900001A83EC80F98009000230CB401A9FFF7A4
:1053A0001FFC109B12B0184701B401A801B585B0CD
:1053B000FFB408A841464A4653465C4665463EC08F
:1053C00001A83EC80F98009000230CB401A9FFF774
:1053D0003BFC109B12B0184701B401A801B585B081
:1053E000FFB408A841464A4653465C4665463EC05F
:1053F00001A83EC80F98009000230CB401A9FFF744
:1054000045FC109B12B0184701B401A801B585B046
:10541000FFB408A841464A4653465C4665463EC02E
:1054200001A83EC80F98009000230CB401ABFFF711
:1054300001FC109B12B0184701B401A801B585B05A
:10544000FFB408A841464A4653465C4665463EC0FE
:1054500001A83EC80F98009000230CB401AAFFF7E2
:1054600077FC109B12B01847027A030052B9427AB7
:105470007AB1013A42724268111D416003211268FB
:10548000017202E0013A02720268100E12021A6002
:105490007047B020FCE7C04600B585B003AB009371
:1054A0000C2200230021FFF707FC039805B000BD84
:1054B00010B5FFF7F1FF10BDF0B54E464546574613
:1054C000DE4640F2000AE0B540F20F0805000E008B
:1054D00040F2070985B03000FFF7C6FF0400B0288E
:1054E00000D1C3E003062AD5030042469343DBB252
:1054F000802B54D0902B3ED0A02B6DD0B02B00D160
:105500007FE0C02B00D197E003004A469343DBB213
:10551000D02B0BD18023024001321B031A430523F9
:1055200001212800FFF7CCFD0028D4D00924200059
:1055300005B0F0BCBB46B246A946A046F0BDFF236D
:10554000820013401F1D03AB9B4600930D220023D6
:1055500000212800FFF7B0FB63063AD4039B9C466A
:1055600067445B460397009300230D220021280027
:10557000FFF7C8FBAFE7833B03400D2BD6D003AF4B
:1055800002400023002128000097FFF795FB00232D
:105590000D22002128000097FFF7B4FB9BE70402CF
:1055A0003000FFF761FF48F200070443BC42BDD062
:1055B0004FF6FF7224010023002128002240FFF74C
:1055C0007FFD0028B2D1274200D184E740F2010AD2
:1055D00081E7039BDF1BC4E740F6F0724B461100E6
:1055E000834319410A40030702D544F200031A43DA
:1055F000002300212800FFF763FD002800D16AE79F
:1056000094E7B12846D0B22800D1A2E0B32857D001
:10561000FC230340B42B00D188E74A468023024094
:1056200001321B031A43012101232800FFF748FD23
:10563000002800D14FE779E7C6284CD0C7285ED0B4
:1056400003004A469343DBB2C02B6ED0C82873D008
:10565000C92800D06AE73000FFF706FFF0230203F5
:105660001B03134042460240013257E753460024D1
:10567000002B00D05BE703AE0E220021280000962D
:10568000FFF71AFB00230F22002128000096FFF7E6
:1056900039FB4CE73000FFF7E7FE0200002800D19D
:1056A00044E7030041468B43DBB2002B00D03DE7CB
:1056B00000212800FFF704FD002800D10BE735E7A3
:1056C0003000FFF7D1FEF02302031B0313404246D4
:1056D00002400132A6E73000FFF7C6FEF0230203C6
:1056E0001B0313404246024001321A4303230321A5
:1056F0002800FFF7E5FC002800D1ECE616E73000B3
:10570000FFF7B2FE0200002800D10FE70300414678
:105710008B43DBB2002B00D008E704212800FFF701
:10572000CFFC002800D1D6E600E74346A0221C406B
:10573000013412032243D9E73000FFF795FE4346B8
:1057400002009A43D2B210321840120301300243D1
:10575000E5E603AB00939B460D22002300212800C1
:10576000FFF7AAFA3000FFF77FFE030619D57F275F
:10577000B03C039B3840A0409C46604403903000FE
:105780000734FFF771FE0306F3D47F2340F2042CA5
:105790000340A340039A62449B1803935B46009323
:1057A000E2E60224F1E7C046030000B5DA6C85B0FA
:1057B00053680800083219020191029269460322D7
:1057C0001B0E0A734B7301A9FFF776FE05B000BDEF
:1057D00010B5FFF76DFE806C10BDC04610B5FFF729
:1057E00067FEC26CD07902308000101810BDC04630
:1057F000062010B500F030F9012000F0D5FCFFFFC5
:10580000014B18687047C046D0400020002310B5F7
:105810009A4200D110BDCC5CC4540133F8E70300B8
:105820008218934200D1704719700133F9E7FFFFE6
:1058300070B5050079B10C1F2368002B00DAE4185D
:10584000280000F053F91C4A13682BB963601460F8
:10585000280000F053F970BDA34208D921686018F0
:105860008342F3D118685B6841182160EEE71A00A3
:105870005B680BB1A342FAD911685018A0420BD152
:1058800020680918501811608342E1D118685B68DC
:10589000411811605360DBE7A04202D90C232B6052
:1058A000D6E721686018834203D118685B68411805
:1058B000216063605460CBE74449002070B50E4E10
:1058C0000D003168040011B900F08EF83060290035
:1058D000200000F089F8431C0AD00323C51C9D4317
:1058E000A84207D0291A200000F07EF8431C01D1FD
:1058F00001256D42280070BD48490020F7B50322FC
:10590000CB1C9343083306001F000C2B32D20C270C
:10591000B94231D8334D300000F0E8F82B681C0054
:10592000002C2ED139003000FFF7C8FF0400431CC3
:105930001ED12C682500002D4AD123682900E318C8
:105940003000019300F050F8019B834243D123685B
:105950000337FF1A03239F4308370C2F00D20C276D
:1059600039003000FFF7AAFF431C34D02368DF1949
:10597000276013E0002BCBDA0C23002533602800CE
:10598000FEBD2268D11B20D40B2917D9E21927604C
:10599000A34211D12A606368116053603000250072
:1059A00000F0ACF807220B35231D9543EA1A9D42FF
:1059B000E5D05B1BA350E2E75A60ECE76268A342C4
:1059C00001D12A60EAE75A60E8E723006468A7E7A4
:1059D0002C006D68AFE70C233000336000F08EF8C8
:1059E000CDE7C04644490020002370B5054D0400B2
:1059F00008002B60FDF786F9431C02D12B6803B128
:105A0000236070BD4C49002070B504000D001F29B3
:105A100004D9162303600120404270BD436C1BB1C2
:105A20008A009B181A6842B9200000F031F82A0059
:105A30000100200000F01AF8EFE70020012AECD066
:105A4000511C03D1162301302360E6E7002428000F
:105A50001C6090472000E0E710B5034B0100186878
:105A6000FFF7D2FF10BDC046D0400020002370B524
:105A7000064D0400080011002B6000F08BFB431C56
:105A800002D12B6803B1236070BDC0464C49002091
:105A900010B500F075FB10BD0023C25C0133002A75
:105AA000FBD1581E7047FFFF00B59BB000910491D9
:105AB00006490591029106490391694600F088F86C
:105AC0000023009A13701BB000BDC046FFFFFF7F8C
:105AD0000802FFFF10B513000A0001000248006829
:105AE000FFF7E2FF10BDC046D040002010B50248CD
:105AF00000F0E6FA10BDC0465049002010B502483B
:105B000000F0DFFA10BDC04650490020F0B58E68A5
:105B100085B007000C00039201939E423CD840F2EE
:105B200080438A891A4234D00969236860695B1A04
:105B3000029303234343DD0FED18019B02980133C9
:105B40001B186D10AB4200D91D00530532D529003A
:105B50003800FFF7D3FE060048B90C233B60402312
:105B60000120A28940421343A38105B0F0BD029AEF
:105B70002169FFF74BFEA389144A1A40802313437F
:105B8000A381029B2661F61826606561019EED1ACD
:105B9000A560019B9E4200D9019E320003992068B6
:105BA00000F09BFAA36800209B1BA36023689E194A
:105BB0002660DAE72A00380000F0A2FA0600002882
:105BC000DFD138002169FFF733FEC6E77FFBFFFF17
:105BD000F0B5A1B003901D008B890F0016001B06C5
:105BE0000FD50B696BB94021FFF788FE386038612B
:105BF00028B90C23039A0138136021B0F0BD40236B
:105C00007B61002308AC6361203363761033A37695
:105C1000079535002B780BB1252B47D1AB1B05938E
:105C2000B5420CD0320039000398FFF76FFF431CD8
:105C300000D1B0E06269059B9446634463612B78B0
:105C4000002B00D1A7E0012200235242626004A988
:105C5000543252186E1C2360E360A3601370A36576
:105C600005223178544800F02DFA751C00BB2268DB
:105C7000D30604D5532304A95B18202119701307F8
:105C800004D5532304A95B182B21197033782A2BD0
:105C900017D03500002140F20A0C0126E3682A786B
:105CA000681C303A092A4BD989B917E00135B1E7A8
:105CB000414B2268C01A0123834013432E00236006
:105CC000CEE7079B191D1B680791002B01DB0B9387
:105CD00004E05B42E3600223134323602B782E2B06
:105CE0000AD16B782A2B34D1079B02351A1D1B6809
:105CF0000792002B2ADB0993304E032230002978CB
:105D000000F0E0F930B14023801B83402268013568
:105D1000134323602978062229486E1C217600F05F
:105D2000D1F900283FD0274B4BBB0722079B0733F5
:105D30009343083307936369049A9B18636168E788
:105D400061464B43050031009B18A8E701235B42E5
:105D5000D1E7002340F20A0C1A00012601356360E6
:105D60002978681C3039092903D9002BC4D009923D
:105D7000C2E763465A43050033005218F0E707AB09
:105D800000933A002100104B039800E000BF0490FC
:105D9000049B0133CFD1BB890D985B0600D42CE75F
:105DA0000120404229E707AB00933A002100064B4F
:105DB000039800F079F8EAE7646500006A6500007E
:105DC0006E650000000000000D5B0000F7B51500D7
:105DD00001938A680B690C000090934200DA13006B
:105DE00022002B60433212780AB101332B60236802
:105DF0009B0602D52B6802332B602268062317000E
:105E00001F401A4227D0230043331B785A1E934168
