:1000000038560020B94F0000614E0000B54F000087
:10001000B54F0000B54F0000B54F0000B54F0000D0
:10002000000000000000000000000000B54F0000CC
:10003000B54F000000000000B54F0000B54F0000B4
:1000400091260000FD2500003544000085270000B2
:1000500091260000FD2500003D27000085270000B7
:10006000391F0000D51F00003D270000312100008E
:100070005D2D0000F52C0000D52D0000152E000090
:100080007D4C00002D340000B9200000A534000094
:1000900035440000B13D00002D340000693F0000F0
:1000A000753C000000000000A53E000000000000BC
:1000B0000000000000000000000000000000000040
:1000C000FFFFFFFFFFFFFFFFFFFFFFFFFFFFFFFF40
:1000D000FFFFFFFFFFFFFFFFFFFFFFFFFFFFFFFF30
:1000E000FFFFFFFFFFFFFFFFFFFFFFFFFFFFFFFF20
:10040000FFFFFFFFDFCEFFFFFCFF0F00FFFF0F002E
:10041000FCFF0F00FFFF0F00FCFF0F00FFFF0F00AE
:10042000FCFF0F20FFFF0F20FCFF7F40FFFF7F40FE
:10043000FCFF0D40FFFF0D40FFFFFFFFFFFFFFFF31
:10044000FFFFFFFFFFFFFFFFFFFFFFFFFFFFFFFFBC
:10045000FFFFFFFFFFFFFFFFFFFFFFFFFFFFFFFFAC
:10046000FFFFFFFFFFFFFFFFFFFFFFFFFFFFFFFF9C
:10047000FFFFFFFFFFFFFFFFFFFFFFFFFFFFFFFF8C
:10048000FFFFFFFFFFFFFFFFFFFFFFFFFFFFFFFF7C
:10049000FFFFFFFFFFFFFFFFFFFFFFFFFFFFFFFF6C
:1004A000FFFFFFFFFFFFFFFFFFFFFFFFFFFFFFFF5C
:1004B000FFFFFFFFFFFFFFFFFFFFFFFFFFFFFFFF4C
:1004C000FFFFFFFFFFFFFFFFFFFFFFFFFFFFFFFF3C
:1004D000FFFFFFFFFFFFFFFFFFFFFFFFFFFFFFFF2C
:1004E000FFFFFFFFFFFFFFFFFFFFFFFFFFFFFFFF1C
:1004F000FFFFFFFFFFFFFFFFFFFFFFFFFFFFFFFF0C
:1005000010B544F2C814C2F20004237863B940F273
:100510000003C0F200032BB149F27050C0F200009A
:1005200000E000BF0123237010BDC04640F200036D
:10053000C0F2000310B54BB144F2CC1149F2705037
:10054000C2F20001C0F2000000E000BF10BDC046D2
:10055000F0B5440024181348E400241827009C46F2
:1005600080253C26083728001040431E9841404211
:100570003040C030207028000840431E984140425F
:100580003040C0306346207228001840431E984116
:1005900040423040C030207401346D10A742E2D197
:1005A000F0BDC0464842002010B5002300220021C3
:1005B0000020FFF7CDFF0023002200210120FFF7DC
:1005C000C7FF10BD49F2841144F6244010B5C0F2B3
:1005D0000001C2F2000002F02BF9002300220021EA
:1005E0000020FFF7B5FF0023002200210120FFF7C4
:1005F000AFFF10BD44F27823012244F2E41144F627
:10060000244010B5C2F200031A70C2F200010723A1
:10061000C2F20000933202F067FB10BD44F278236F
:100620000022C2F200031A707047C04644F27B23D6
:10063000C2F20003187044F27A23C2F20003197068
:1006400044F27923C2F200031A70704744F27E2309
:10065000C2F20003187044F27D23C2F20003197045
:1006600044F27C23C2F200031A7070470A23F0B5EB
:100670000C00B0FBF3F1B1FBF3F24F464646D64611
:1006800044F2792893009B185B00CB1A9BB20500BB
:100690009946C0B5C2F2000833BB44F27A2744F24F
:1006A0007B26C2F20007C2F200063178661C0A24DB
:1006B000B5FBF4F0840024186400281B44F2840580
:1006C000C2F20005AC464346B400A4196400A41964
:1006D00080B264441B783A78205C00F00FFAE0BCEA
:1006E000BA46B146A846F0BD43461B78A0009C46DA
:1006F00044F28403C2F200039A4600194000001934
:10070000824444F27A2744F27B265346C2F2000721
:10071000C2F20006987A3A786346317800F0EEF932
:100720004B46012B0AD10A23B5FBF3F293009B1829
:100730005B00EB1A9BB2002BB7D1D0E743461B7886
:1007400050469C464B463A78C05C3178634600F090
:10075000D5F9E8E7F8B5DE4657464E464546E0B5DA
:100760000A25B0FBF5F80700B8FBF5F085002D1859
:1007700040466D00451B44F2840044F2792B44F25C
:100780007A2A44F27B290C00C2F200008446C2F2AD
:10079000000BC2F2000AC2F200095B46524649460B
:1007A000A6003619760036196644ADB2705D1B7826
:1007B0001278097800F0A2F9404680004044651C98
:1007C00040003F1AA8004019440044F28400C2F2DD
:1007D000000084465B46524649466419BFB26444F1
:1007E000E05D1B781278097800F088F9F0BCBB4610
:1007F000B246A946A046F8BD10B500F037FB02216D
:100800000079FFF733FF44F27C2344F27D2244F267
:100810007E2144F2B000C2F20003C2F20002C2F232
:100820000001C2F200001B7812780978007800F00D
:1008300065F910BD10B500F019FB0021007AFFF733
:1008400015FF44F27C2344F27D2244F27E2144F2DF
:100850008100C2F20003C2F20002C2F20001C2F241
:1008600000001B7812780978007800F047F910BD75
:1008700010B528B100F0FAFA0368DB0700D510BD07
:1008800044F27C2344F27D2244F27E2144F27F2014
:10089000C2F20003C2F20002C2F20001C2F2000082
:1008A0001B7812780978007800F028F9E7E7C0464D
:1008B00010B500F0DBFA44F2792344F27A2244F2D4
:1008C0007B2144F2B404007EC2F20004C2F20003B1
:1008D000C2F20002C2F200011B7812780978205C93
:1008E00000F00CF910BDC046F8B500F0BFFA40F2B8
:1008F0006C7C446900216444A0B2FFF72BFF44F2F2
:100900007C2744F27D2644F27E2544F2BB00C2F2ED
:100910000007C2F20006C2F20005C2F200003B78F6
:1009200032782978007800F0E9F840F2901394FBCF
:10093000F3F293009B189A009B181B019C4207D06E
:10094000A3070FD1642394FBF3F253439C4209D0D5
:1009500044F28200C2F200003B78327829780078B5
:1009600000F0CCF8F8BDC04644F6B00310B5C2F2B2
:10097000000318780221FFF779FE44F27C2344F249
:100980007D2244F27E2144F2B200C2F20003C2F2A0
:100990000002C2F20001C2F200001B78127809784E
:1009A000007800F0ABF810BD44F6AA0370B5C2F2AF
:1009B000000318780021FFF759FE44F27C2644F228
:1009C0007D2544F27E2444F2B100C2F20006C2F258
:1009D0000005C2F20004C2F2000033782A782178C0
:1009E000007800F08BF844F28300C2F20000337804
:1009F0002A782178007800F081F844F6A903C2F241
:100A000000031B7803B970BD44F28200C2F20000FB
:100A100033782A782178007800F070F8F3E7C04640
:100A200044F6A80310B5C2F2000318780221FFF7BC
:100A30001DFE44F27C2344F27D2244F27E2144F2E6
:100A40008000C2F20003C2F20002C2F20001C2F250
:100A500000001B7812780978007800F04FF810BD7C
:100A600010B500F003FA00690021013080B2FFF7F1
:100A7000FDFD44F27C2344F27D2244F27E2144F2C7
:100A8000B100C2F20003C2F20002C2F20001C2F2DF
:100A900000001B7812780978007800F02FF810BD5C
:100AA00010B500F0E3F902218089FFF7DFFD44F281
:100AB0007C2344F27D2244F27E2144F28000C2F283
:100AC0000003C2F20002C2F20001C2F200001B7871
:100AD00012780978007800F011F810BD48F6A413D8
:100AE00048F6C01248F6D410942110B5C0F20003A5
:100AF000C0F20002C0F2000004F07EF9F0B5C64674
:100B0000984644F28023C2F200039C464400241815
:100B1000E4006444270080253C2600B508372800FF
:100B20001040431E984140423040C03020702800A1
:100B30000840431E984140423040C0304346207236
:100B400028001840431E984140423040C030207475
:100B500001346D10A742E2D180BCB846F0BDC0465A
:100B600010B5002420000134002300220021A4B28B
:100B7000FFF7C4FF402CF5D110BDC04649F2541117
:100B800044F6F43010B5C0F20001C2F2000001F0EA
:100B900003F8002450B92000013400230022002172
:100BA000A4B2FFF7ABFF402CF5D110BD48F6A4135B
:100BB00048F6F01248F6D4102A21C0F20003C0F221
:100BC0000002C0F2000004F017F9C04644F68003AA
:100BD000012244F2802144F6F430C2F2000310B541
:100BE000C2F200011A70C2F20000072340F2006254
:100BF00000F0C8FF00B910BDFFF770FF44F6800396
:100C00000022C2F200031A707047C0460379B3B9DC
:100C100044F682023C21C2F20002137801335BB237
:100C200093FBF1F00101091A890013705B1A5BB2A2
:100C3000137044F681030122C2F200031A70704758
:100C400044F68203C2F2000318783C2340B290FBC2
:100C5000F3F213019B1A9B00C01AC0B27047C04642
:100C600044F68103C2F200031A78D0B20AB100221E
:100C70001A70704710B544F6B84449F28821C2F2A0
:100C80000004C0F20001200003F0AEFA200003F0DF
:100C900007FA10BD10B544F6DC3449F22C11C2F24B
:100CA00000042000C0F2000102F0D6FA0E2120005C
:100CB00002F092FA10BDC04644F6840240F26C7C09
:100CC00044F6AC03C2F200021169506970B5D268F3
:100CD0004C1C6044C2F2000380B2E4B2FF21DA701F
:100CE00018809C7048F614231140621EC0F2000365
:100CF0005200D25A40F29013B0FBF3F5AB005B19EF
:100D00009D005B191B01C31A9BB282B05218002BC5
:100D100050D0830746D0464B0632C4180723E51748
:100D2000AD0F92FBF3F26619043B33405B1BE31AF1
:100D30009B108B4200DD013244F6B003C2F2000387
:100D40001A7048F62C23A400C0F20003E3581B03DA
:100D50001C0FACB300F0A6F844F6AC01013CE6B2BF
:100D600001AD020033002800C2F2000100F0CAF811
:100D7000002855DB94B3AB78A34243DA0C2201334D
:100D800093FBF2F144F6AA004A0052189200C2F214
:100D900000009B1A037044F6A9030122C2F200036B
:100DA0001A7027E06423B0FBF3F56B43C31A9BB2C0
:100DB000002BB0D00223A342A44164421219AAE737
:100DC00000F070F844F6AC0101AD020000232800E9
:100DD000C2F2000100F096F8002821DB44F6AA03D5
:100DE000AA78C2F200031A7044F6A9030022C2F2E4
:100DF00000031A7044F6A803EA78C2F200031A70DE
:100E000002B070BDA34205DD44F6AA02C2F20002A0
:100E10001370C0E744F6AA03C2F200031E70BAE7DB
:100E200048F60420C0F2000000F056F9E8E7C0469A
:100E300094F8FFFF47F28002002310B544F68404C3
:100E40008018594182B0C2F2000400900191210043
:100E5000684606F0EBFF44F6DC302100C2F20000E9
:100E600002F040F9FFF728FF02B010BD44F68400FD
:100E7000C2F200007047C04610B544F6840444F640
:100E8000DC30C2F200042100C2F2000001F0E6FFF3
:100E90006268A36813432268134303B110BDFFF7D0
:100EA0000BFFFBE7164A48F6645394466044C0F2D1
:100EB00000038000C258F0B513031B0FEBB90C20E0
:100EC0000C2541F6FF7444F6BC01144001260022B3
:100ED000C2F2000101382700831A1F413B00334052
:100EE0001D338B540132D3B29D42F4D844F6B40082
:100EF000C2F2000005710160F0BD0D200D25E0E794
:100F000094F8FFFFF0B5D6464F4646469A46C0B520
:100F10000F00002800D1D9E0002A00D1D6E0002936
:100F200000D1D3E00E8840F26C718E4200D1B1E066
:100F300048F66458674BC0F20008F1184346890030
:100F4000595806800B0F83709C460F230D0E1D40D1
:100F5000AC002C19090D19406400641848F64C5176
:100F6000E4B2C470BB78C0F200015D1E6D004D5B41
:100F7000FF7899467F1940F29015B6FBF5F39D0076
:100F8000ED18AB00ED182D01751BADB2BFB2002DF1
:100F900042D14B46022B01D90137BFB263465D1ED9
:100FA0006D00695A0C19A4B202256545AD4169422C
:100FB00061187F1ABBB299463BB239044DD41779F8
:100FC0001268002F00D17AE0167890463200B342C2
:100FD00000DA78E041464C1C002106E02578013417
:100FE000AA1896B212B293425FDB0131C9B2B9427C
:100FF000F4D143465D5CD6B24A4653460132AD1841
:101000005A425341AD1BC918C57081700020E0BC25
:10101000BA46B146A846F0BDB30748D16425B6FB31
:10102000F5F35D43751BADB215B14B46022BB3D83A
:1010300063465D1E6D00495B64250C19B6FBF5F136
:101040004D43751BA9B2A4B20029ADD161187F1A16
:10105000BBB299463BB23904B1D51E4B01259C4623
:1010600043460C24013EB6B206806644B6009A5947
:10107000002315401D354D44A9B2CE0BA41B84702E
:101080002C0402D59207D30F1D3301315B18C370B6
:101090000020BCE7B978012900D049E7F9781E297A
:1010A00000D945E702204042B1E7F6B2A4E7654621
:1010B000013D6D00695A0C19A4B2002178E70026A1
:1010C0000021157898E73500002195E7012040427E
:1010D0009DE7C04694F8FFFF0FB449F2542144F64F
:1010E000884030B583B006ACC0F20001C2F2000007
:1010F00020CC01F0FFF844F6D00022002900C2F213
:101100000000019407F0C0F844F6D000C2F20000DD
:1011100007F09CF844F63414020044F6D00144F67B
:1011200088400123C2F20004C2F20001C2F20000B2
:10113000237001F039F82378002BFCD103B030BCC8
:1011400008BC04B01847C0460379022B05D144F609
:1011500034130022C2F200031A70704770B50029E0
:101160005CD0040A251C052C53D8ECB2AD0702D57F
:101170001D00059B059565072CD40625254225D124
:10118000E40755D41C00059D049B05940495059C1B
:1011900095B22270CC43E4B254430134A4B2260A7F
:1011A0003419A4B2049E240A3470C4B20802002C7C
:1011B0003AD1010A411889B2090AC943C9B269433F
:1011C00052088A1892B2120A1A7070BD059D049EC8
:1011D00004950596E407DAD5CC43E4B254430134D0
:1011E000A4B21A70230AE418A4B2049B240A1C7047
:1011F000FF23034059430B0A5B189BB21B0ADB43D6
:10120000DBB2534352089A1892B2059B120A1A7025
:10121000DBE70525ECB2AD07ADD5A9E705990A7066
:1012200004990A701A70D0E76042C0B24843C0E720
:10123000059C0593049B0494CEE7C04649F2D8214F
:1012400044F6D84010B5C0F20001C2F2000002F02E
:10125000CBFF10BD70B544F64025C2F200050C006E
:10126000A84204D00A000100280006F097FE287862
:10127000012C0BD9012344F64022C2F200029A1835
:101280001278013350409AB29442F4D8285544F66B
:10129000402144F61850621CC2F20001C2F2000064
:1012A00000F082FF70BDC04610B544F6351401232E
:1012B000C2F200042370FFF7CDFF2378002BFCD18E
:1012C00010BDC04649F2783144F6185010B5C0F24E
:1012D0000001C2F2000001F00DF849F2283144F695
:1012E000F840C0F20001C2F2000002F07DFF10BD24
:1012F000037923BB44F63D22C2F20002137044F688
:101300003A23C2F20003198844F63813C2F20003EC
:101310001A7888B201290BD9012344F63811C2F298
:1013200000015918097801334A4099B28842F4D82B
:101330002AB944F63C230132C2F200031A70704706
:1013400044F63C23C2F2000310B51C780200E0B260
:101350006CB100241C7044F63813C2F20003136011
:1013600044F63A23C2F200031B88013B0B8010BDF8
:1013700070B503790400022B1DD0042B1AD144F65A
:101380003D23C2F200031A78D5B2DAB144F63A220C
:10139000C2F20002118821B140F200111088884287
:1013A0002ED944F6F8400021C2F2000019701180D5
:1013B00002F070FE70BD44F635130022C2F2000345
:1013C0001A70F7E744F6F8400122C2F200001A70E2
:1013D00002F066FE44F6F840C2F2000002F066FE3B
:1013E00044F63A23C2F200031D801988A0684A1C03
:1013F00092B21A8044F63813C2F200035854D9E767
:101400001188A0684B1C9BB2138044F63813C2F2BB
:101410000003585444F6F840C2F2000002F046FEC1
:10142000C8E7C046407870478078704744F642323B
:1014300044F6783010B51321C2F20002C2F2000067
:1014400003F0AEF910BDC04610B544F6783449F249
:10145000C401C2F200042000C0F2000103F036FA19
:1014600049F2E8012000C0F2000103F0E7FA10BDE4
:1014700044F6783010B5C2F2000003F08BF910BDCD
:1014800049F2FC0144F69C3070B5C0F2000144F60C
:101490004835C2F2000002F0ADFBC2F20005286040
:1014A00044F6443444F2C80144F69C30012302223D
:1014B000C2F20004C2F20001C2F20000237002F086
:1014C00039FA28602378002BFCD144F2C00144F69D
:1014D0009C3001330222C2F20001C2F200002370EC
:1014E00002F028FA28602378002BFCD144F2C401D2
:1014F00044F69C3001330222C2F20001C2F2000025
:10150000237002F017FA28602378002BFCD170BDFD
:10151000F0B5CE46474644F6443544F2BC0144F6A5
:101520009C30012380B5022283B0C2F20005C2F2D2
:101530000001C2F200002B7002F0FCF944F64833BF
:10154000C2F2000318602B78DAB2002BFBD1013312
:1015500044F69C302B706B4600929A8069460023BB
:101560000622C2F2000002F0CBF92B78DCB2002B8D
:10157000FBD16B4618789A78C34308213126DBB239
:1015800003E05B000139DBB241B15DB2002DF8DA56
:101590005B0073400139DBB20029F6D169464D7812
:1015A000312708216B4003E05B000139DBB241B118
:1015B0005EB2002EF8DA5B007B400139DBB2002915
:1015C000F6D19A422BD16B465A79DB78082199469D
:1015D000DB433127DBB203E05B000139DBB241B111
:1015E0005EB2002EF8DA5B007B400139DBB20029E5
:1015F000F6D169460979312788464B40082103E036
:101600005B000139DBB241B15EB2002EF8DA5B005B
:101610007B400139DBB20029F6D19A420BD049F266
:101620008400C0F20000FFF757FD200003B0C0BCEB
:10163000B946B046F0BD05F0B5FA00230022C4F269
:10164000700304F065FC060028000F0005F0AAFAFC
:1016500002000B003000390003F0E4FD4EF20003FD
:101660000022C4F2650304F053FC4FF6E07300223D
:10167000C4F2EF0304F030F948F200030022C4F290
:10168000460304F0CBFE48F600030022C4F2C30375
:1016900004F03EFC44F6503405F052FAC2F2000465
:1016A0002060484605F07EFA00230022C4F2700351
:1016B00004F02EFC040040460D0005F073FA020011
:1016C0000B002000290003F0ADFD00230022C4F22E
:1016D000590304F01DFC4FF6E0730022C4F2EF033F
:1016E00004F0FAF848F600030022C4F2C30304F041
:1016F0000FFC44F64C3605F023FAC2F20006012432
:10170000306092E744F644330022C2F200031A70BC
:101710007047C04610B500F01FF800F059F8FCE71C
:1017200000B583B040B94CF2000390220121C4F20D
:101730007E03995403B000BD0228FBD149F2B803DF
:1017400044F67030C0F200035B68C2F2000019007A
:10175000019301F0EFFFEDE749F2940000B5C0F20C
:10176000000083B0FFF7B8FC49F2A400C0F200000B
:10177000FFF7B2FCFFF7A6FD49F2B4036946C0F2D9
:1017800000031A8801A88A809B788B710321FFF7D8
:101790008BFDFFF7F3F9FEF715FFFFF76BFAFFF785
:1017A0006FFEFFF74BFDFFF74FFEFFF773FA44F2B2
:1017B0004E300021C6F27820FFF73CFBFFF756FBC6
:1017C00044F66C33C2F20003186003B000BDC0469B
:1017D000F0B5D6464F464646C0B582B0FFF740FA50
:1017E00028B902B0E0BCBA46B146A846F0BDFFF742
:1017F00027FA012800D1ADE044F66835C2F20005B1
:1018000044F6643640F2FF57C2F20006308844F6D0
:101810005739013080B290FBF7F253009B185B02FE
:101820009B1AC2F2000944F65838C01A4B4680B2DF
:10183000C2F2000844F65934308001934346C2F2A4
:1018400000041F22FF2100932300FFF787FC40F2D2
:10185000FF2C308844F65C3A604490FBF7F77B003D
:10186000DB195B02DF1BC01B44F65B3644F65A37BC
:10187000C2F2000AC2F20007C2F2000653461F225B
:10188000FF2180B201970096FFF768FCFFF768F927
:1018900053463A7818783178FEF7C8FE4B461A78E6
:1018A000434620781978FEF7D1FE03202968CA172D
:1018B000920F8B1803409B1A022B7FD0032B78D0FA
:1018C000084242D0012B03D1FFF74EF8FFF70CF886
:1018D000FEF7EEFF0120FEF7CBFFFFF777F9FEF7EB
:1018E00063FE4B464246217800201B781278FEF7B3
:1018F0002FFE4B464246217801201B78127844F691
:101900006034FEF725FEFEF775FE44F65431C2F250
:1019100000042000C2F20001FFF712FD28BBFFF710
:101920008FF968B9FFF7F4FDFFF78AF9052804D0AD
:10193000FFF786F9232800D053E7FFF799FD50E71A
:10194000FFF77EF91E28EFD1ECE7FEF755FFFEF713
:1019500071FFBDE744F65632C2F20002137801333C
:10196000DBB2052B2FD8137046E72068FFF75AFD2E
:101970000128D4D12068FFF757FD0028CFD1236874
:10198000D9781A790906120411435A79987A120201
:1019900011439A791143DA791206D41710431A7A4F
:1019A0005B7A120410431B0218432143FFF742FAEB
:1019B000B5E7FEF7F9FFFFF733F889E7FFF750F8CF
:1019C000FFF76EF884E744F668350023C2F200059D
:1019D00013702B6801332B6012E7C04610B5FFF778
:1019E00099FE002010BDC046F0B50400806A85B0A5
:1019F0008C4601AD90B12B000200C2CAC2C363681D
:101A00001B78036063460371E36A8360636A9847E7
:101A1000A36A0BB107CD07C305B0F0BD2800EEE700
:101A2000F0B50E004021C64604000F0000B51D00B1
:101A300006AB1878A3681B781F40194200D073E0EA
:101A400020236761A761E6602261E561E054636875
:101A50005F690FB37B68A5611968CB780F2857D9E8
:101A60003020834320200343CB7040F20C084046D3
:101A70008B78834308208446604603438B70ABB267
:101A8000CB818A60002A67D0BB6838685B6898475A
:101A9000D8BB20226368A05C1A69E2B15368656113
:101AA0001968CB780F2839D930208343202003438D
:101AB000CB700C200827CB78ADB283433B43CD815C
:101AC000CB704E60002E51D0936810685B689847C9
:101AD000D8B92023E05CA268D17A148AC9B2A4B232
:101AE0000F2823D940230130994383082020053B48
:101AF00001432348D172044018024021204380B2A0
:101B00001082002013780B43137080BCB846F0BDE0
:101B1000072811D830208343CB70A6E7072811D8B7
:101B200030208343CB70C4E70820EEE707280FD8A6
:101B3000402319430300DCE7302083431020034394
:101B4000CB7092E73020834310200343CB70B0E783
:101B5000602399430300CCE742468B7893438B7014
:101B600044F64853C2F200038B608DE7DBB2834337
:101B7000CB7044F64C53C2F200034B60A4E7C0465E
:101B8000FFF0FFFF00B583B0009313000022FFF7C2
:101B900047FF03B000BDC04640F22072F0B5454695
:101BA0005746DE464E46C0F240029446E0B50B78FA
:101BB0000F6963441B021A1D04000D00904687B094
:101BC000002F00D191E18022796812050B683868F6
:101BD0001A6042469A60BB681B6898470600002856
:101BE00000D07AE16B6973B18020596800030A68FC
:101BF00010604046506018689B681B689847060054
:101C0000002800D08EE140F22072C0F240029446DB
:101C10002B7863441B02AA6965606262EA69A3606B
:101C2000E2620022A2626B7A9C46002B00D06FE138
:101C3000B82008211026EB7A6F7B2A6A3F035B00ED
:101C40003B43AF7A15783B430DB1B120084351783F
:101C50007027CD01A8434D0049012943014301915B
:101C6000D0789578BB438540029511791F0000011B
:101C700031B102394B1E99410F234942994330310A
:101C8000537923B1012B00D151E101231E439379F4
:101C90000393137A9B071B0F034360463B430028C3
:101CA00000D039E1507A4EF200070490907A3B431D
:101CB0000590D07A8346EFF3108A012080F31088D4
:101CC00046F6FC70C4F20400476840F21309B846B7
:101CD00067683F78BC464F4665467F1BB94601277B
:101CE0004D46AF40B94647464D46AF434760406812
:101CF0008AF3108840F20008A068F6B2C57845461D
:101D0000C5706D462D799BB205706D462D7A457074
:101D10008170D2794EF200118272049ACEF20001E3
:101D20000273059A8C4642735A468273C6730382C5
:101D30002023039A6668C2540223F35640F200350A
:101D40009A089200944462465259B079914603220F
:101D50001A40D2009046FF22414617008F40B846F5
:101D60008001104088404F46414644F698588F43C2
:101D70006146C2F2000838434851414646F2000C21
:101D8000980044501800C4F2000C6146C030800036
:101D90004158684F3940894661464F4647501F2099
:101DA00001211840814008004EF20011CEF20001DE
:101DB000894640F280175B099B004B44D85118605C
:101DC0000123F356980880008144494649597079A7
:101DD0008B4603211940C9008A46800110405746AE
:101DE00088401100B9408A4659465746B9430843CE
:101DF0004946485141469800445018006146C03059
:101E0000800041584B4F3940894661464F46475004
:101E10001F2001211840814008004EF20011CEF22F
:101E20000001894640F280175B099B004B44D85162
:101E300018600423F35698088000814449464959A4
:101E4000307A8B4603211940C9008A468001104030
:101E5000574688401100B9408A4659465746B9430B
:101E60000843494648514146980044501900C03142
:101E7000880061462F4F41583940894661464F4698
:101E800047501F21012719408F404EF20011CEF21A
:101E900000018C4640F280105B099B0063441F5098
:101EA0001F600327F7570321B80880006044435997
:101EB00039409C46F379C9009B0113408B408A400E
:101EC000614691430B4343514346BF00FC5045F2EA
:101ED00049030026C5F253232360300007B0F0BC4D
:101EE000BB46B246A946A046F0BD4A69002A00D1C9
:101EF00091E68020516800030B68186040465860E6
:101F0000936810681B68984706000028E5D17AE6B8
:101F1000B020002100268EE6002040F2000B059044
:101F20000490C8E6BB6838681B6A9847D5E7032366
:101F30001E43ACE6FFFFFEFF30B5EFF30383103B1B
:101F40005BB21A0046F20001C032C4F200019200F6
:101F500050581F4C9B002040505044F69852C2F2FB
:101F600000029B589A69D9698A4219D0186930B31E
:101F700020241C5D0F2C09D999684C6891000C50E5
:101F8000D96901329A618A420AD030BD072C19D82A
:101F9000996809798154D96901329A618A42F4D1E8
:101FA00003221F215B689A561140530901228A407F
:101FB0004EF200119B00CEF200015A50E5E79868FE
:101FC0004068DEE79C68A58854000553D9E7C04601
:101FD000FFFFFEFFF0B5C64600B5EFF30383103BED
:101FE0005BB21A0046F20001C0329200C4F2000156
:101FF0005058304D9B002840505044F69852C2F241
:1020000000029B585868026A002A2ED05678DC6974
:102010005A69012E16D094420BD0D96841B32020C2
:10202000185C0F2808D99400986861584160013203
:102030005A6180BCB846F0BD07281CD8895C9868F6
:102040000171F4E7671EBA421AD001690029E2D093
:10205000032545571F20284086404EF2001069098D
:10206000CEF2000089000E50D5E75A69DC69D2E74C
:1020700098684160DBE75000415A98688180D6E754
:10208000C07840B207008046C037BF00785805408E
:102090007D5040461F2101408E404EF20011CEF28D
:1020A00000018C4640F28011400980006044465097
:1020B0000660B0E7FFFFFEFF10B5EFF30383103BB0
:1020C0005BB21A0046F20001C032C4F20001920075
:1020D0005058164C2040505044F698529900C2F285
:1020E000000288588268D278920704D54268527AF2
:1020F000012A00D010BD1F215A090B401E399940FA
:1021000013004EF200142033CEF200049B0019514C
:10211000BFF34F8FBFF36F8F4021826813788B43DB
:1021200013703F39FFF760FCE4E7C046FFFFFEFF96
:1021300070B5EFF3038444F698534021103C64B229
:10214000C2F20003A200D658B3681A788A4300216D
:102150001A70DA78D970D5B2130710D4EB0714D4FB
:1021600014232B40142B18D046F20003C034C4F2C1
:102170000003A400E2580B490A40E25070BD300051
:102180000531FFF731FCEB07EAD504213000FFF7FA
:102190002BFC14232B40142BE6D108213000FFF731
:1021A00023FCE1E7FFFFFEFFF8B504007B230D00F1
:1021B000006AA6788178E7690B408370B3079B0FAC
:1021C0003F69D21AE9182261E16007B15AB9802348
:1021D00082781A437D3B82703340022B19D02B78D2
:1021E000C3700020F8BD013BDA40002093B2BA680A
:1021F0002061966838680022B0470028F2D1802319
:10220000206AA67882781A437D3B82703340022B85
:10221000E5D14FF600622B881343C3810020E1E72C
:10222000F0B51F2501241540AC404EF20015C646FE
:1022300053092033CEF200059B0000B588465C515F
:10224000BFF34F8FBFF36F8F130046F20004C0330C
:10225000C4F200049B001D59114E4EF2001135408E
:102260001D51FF240325CEF200018C46210040F2CF
:1022700000371540ED00A94093089B006344DE59E8
:1022800092008E43414689010C40AC403443DC51FE
:1022900044F69853C2F20003D05080BCB846F0BD5B
:1022A000FFFFFEFFF0B5C64600B50500806A84B0AA
:1022B0008C4690466C46D8B12300060086CE86C375
:1022C00036681E60EB691B78036063468360434693
:1022D0000371EB6AC3606B6A9847AB6A23B107CCA2
:1022E00007C31A002368136004B080BCB846F0BD71
:1022F0002000E7E743F60002C0F200229446F0B562
:102300004546DE4657464E460B78E0B563445B01D2
:102310000362002303704A690D0042628A69C16149
:10232000C2620322012183628378040093430B433A
:1023300083706B7883B023B983789343022213436D
:1023400083700B222000AA56A97AFFF769FF0522A5
:102350002000AA562979FFF763FF07222000AA561A
:10236000A979FFF75DFF09222000AA56297AFFF715
:1023700057FFEB68C3B18020596800030A68E6691B
:102380001060206A471D576076783EB93027D678AE
:102390001030BE4310273E43D670506018689B68CB
:1023A0001B689847060000BB2B6933B3802059682F
:1023B00000050A68E6691060206AC71C9760767895
:1023C0003EB93027D6780E30BE4310273E43D67034
:1023D000906018689B681B689847060068B1EB68B6
:1023E0001BB118689B681B6A9847300003B0F0BCAB
:1023F000BB46B246A946A046F0BDEFF310860120C9
:1024000080F31088802146F6FC732F780906F94086
:10241000C4F204035A688A435A605B6886F31088E2
:102420000022236A29789A701A715A729A72DA72A3
:102430005A8340F20722CA40104201D04022DA7487
:1024400006221A776978AA78E878EE692D780DB9AE
:10245000684D9D821201C0000243032900D1BBE0F8
:10246000481E81410901E231D2B21A7002229971EB
:10247000317BFF2549000A4020215A737278B078D9
:10248000D201400101402A400A43002130781972EC
:10249000811E0190012900D8A2E003257168D2B203
:1024A000DA718A7848785A701A782840AA43024329
:1024B0001A70CA7859359A74D8790A78A8432A408C
:1024C0000243DA710022E26022616261A261E26984
:1024D00046F200019146527940F21F0C52B21000B0
:1024E000C030C4F2000180004558434F40F2C00A9A
:1024F0003D4045506546B84601271540AF404EF275
:102500000015CEF20005AB4640F28015520992004C
:102510005A44575117604A46D27A404652B29244C2
:102520005746BF00BA467F58074050464750674657
:102530001740BA460127504687404EF20010CEF2AF
:1025400000008346520992005A44575117604A4688
:1025500040F2C00AD27952B292445046800082467C
:1025600040580700404607405046475067461740CE
:10257000BA460127504687404EF20010CEF20000C6
:102580008346520992005A44575117604A4640F216
:10259000C009527A474652B291444846800081466B
:1025A0004058074048464750614601201140884046
:1025B000520992005A44505110600322019F174063
:1025C0006D3217439F7073890026238144F655139B
:1025D000C5F24333636008E73D310A43B23143E754
:1025E0005D70022802D0D2B2DA716BE710210A4383
:1025F000F9E7C04600F8FFFFFFFFFEFF70B5EFF3FD
:102600000383103B5BB21A0046F20001C032920015
:10261000C4F2000150581D4C9B002040505044F61D
:102620009852C2F200029858C3691B6913B103693A
:1026300013B170BD036983B97F23026A91780B409F
:1026400004210B4393700023C360436A002BF0D036
:1026500080220021FFF726FEEBE70321827811405C
:1026600002290AD0C168056A0C78EC709207920FB3
:102670009B1A8A180361C260DAE74FF60065C168E9
:102680000C882C43056AEC81F0E7C046FFFFFEFF93
:1026900010B582B0EFF30383103B5BB21A0046F231
:1026A0000001C0329200C4F200015058224C9B003D
:1026B0002040505044F69852C2F200029C58E36900
:1026C000A069DB685BB150B10023A3616361636AF9
:1026D000ABB1012200212000FFF7E4FD0FE003234E
:1026E000A2781340022B0CD0236A5979C9B2019108
:1026F00078B9636A1BB104222000FFF7D3FD02B052
:1027000010BD40F2FF11236A1B8A19400191002875
:10271000EFD09207920F606901A905F03FFCA37802
:1027200062699B079B0FD2186261A269D31AA361E9
:10273000002BE4D1CBE7C046FFFFFEFF10B5EFF35F
:10274000038444F69853103C64B2C2F20003A20022
:10275000D0587B23026A91780B409370436A1BB177
:1027600002220021FFF79EFD46F20003C034C4F2AE
:102770000003A400E25802490A40E25010BDC046DE
:10278000FFFFFEFF70B5EFF3038444F69853103C4F
:1027900064B2C2F20003A200D0580323827813402F
:1027A000022B20D0036A5979C9B238221D792A40F8
:1027B000ED0602D51D7FED0712D538261D79B543EC
:1027C0001D71436A0BB1FFF76DFD46F20003C03483
:1027D000C4F20003A400E25806490A40E25070BD6A
:1027E00040252A43E9E740F2FF11036A1A8A1140A3
:1027F000DBE7C046FFFFFEFFF0B50400406A85B08E
:102800008C4601AD90B12B000200C2CAC2C36368FE
:102810001B78036063460371A36A8360236A984749
:10282000636A0BB107CD07C305B0F0BD2800EEE722
:1028300043F60002F0B54546DE4657464E46C0F226
:10284000002294468A69E0B50B780262CA69634443
:102850008262002242624A695B0105000C0085B079
:1028600083604160002A00D17CE1802651680533F5
:10287000086836034360936806601B6810689847D1
:102880000600002800D065E122697AB1AB68802695
:1028900051680333086836058360936806601B68D7
:1028A000106898470600002800D061E16F68802317
:1028B000386A40F2040842789207920F1A43019254
:1028C000837899460223C356002B03DB40F20008AD
:1028D00040F2FF097B7A012B00D158E1002300214F
:1028E0000393BB7A012B00D14AE1FB7A012B00D183
:1028F00051E1802319437B7B5E1EB34107265B4277
:10290000B343EA33EFF3108A40F2010B8BF31088E4
:1029100046F6FC76C4F2040672683F780292802282
:102920001206FA40029F9743776076688AF3108810
:10293000002740F2840CAE68C9B2B77032796246A3
:102940003271964AB2826A4612793270039AB27034
:10295000B37103784EF2001273704B46B374434662
:10296000F3714023717337727772B772F77277839E
:10297000F3743E3B33770123CEF20002944640F2DB
:102980000030E35661799E08B600664432588901EA
:10299000904603221A40D2009446FF22604611401E
:1029A000674681401000B84084464046674644F67A
:1029B000985CB843014340F20030C2F2000C315041
:1029C000604699001E000D5046F20001C036C4F268
:1029D0000001B600705807007148074077501F2665
:1029E0005F461E40B7403E004EF20017CEF2000791
:1029F000B84640F280105B099B0043441E501E60A5
:102A00000223E35681309E08B600B0444646FF30AC
:102A10003658B24603261E40F600B1464F46A67908
:102A20004846B6011640BE4017008740B946574693
:102A3000484687433E4340F2003047463E50674693
:102A40009E00F5511E00C036B60077585448074026
:102A500077501F265F461E40B7403E004EF20017DB
:102A6000CEF20007B84640F280105B099B00434459
:102A70001E501E600323E35681309E08B600B0440A
:102A80004646FF303658B24603261E40F600B14691
:102A90004F46E6794846B6011640BE4017008740CB
:102AA000B9465746484687433E4340F200304746C2
:102AB0003E5067469E00F5511E00C036B60077585E
:102AC0003748074077501F265F461E40B7403E00FC
:102AD0004EF20017CEF20007B84640F280105B09B4
:102AE0009B0043441E501E600423E35681309E0821
:102AF000B6004644FF3037580320247A1840C000FF
:102B0000A401144082408440974340F200323C4389
:102B1000B45066469A0095511A00C032920050583F
:102B20001F4C0026204050501F2259461A40914009
:102B30000A004EF20011CEF200018C4640F28010E5
:102B40005B099B0063441A501A6044F65313C5F2A4
:102B500043332B60300005B0F0BCBB46B246A946FB
:102B6000A046F0BD0A690F00002A00D08FE69EE65D
:102B70006369002BEED018689B681B6A9847E9E7E9
:102B8000FB7A002B00D0B6E640331943B3E601339D
:102B900005210393A5E6C0231943ACE600F8FFFF27
:102BA000FFFFFEFFF8B516003022040008001100F8
:102BB0001D00A3689B7819401A4232D16268E56112
:102BC00013696161A161E060266193B15A68656132
:102BD0001168AAB2CA81CA7828B30C27BA43082759
:102BE0003A43CA70486018689B685B689847B8B9F0
:102BF0006268516951B14EB18A680868A561ABB28B
:102C0000002195683200A84750B9626823699BB1DA
:102C10001369C3B1F0210020A26893780B4393702D
:102C2000F8BD0820FCE70C308243CA7044F65052CD
:102C3000C2F200024A60D6E7A021A2680020937881
:102C40000B439370ECE75069A5680300591E8B4154
:102C5000D901AB7870310B43DBB2AB7008B1002007
:102C6000DEE71F21527852B21140530901228A40F7
:102C70004EF200112033CEF200019B005A50BFF3F8
:102C80004F8FBFF36F8F6369E269934206D2E168A9
:102C900021B3C95CA068C170013363616368597A6C
:102CA00001290ED001221F219A56002011405309FC
:102CB00001228A404EF200119B00CEF200015A50D0
:102CC000AEE7012AEED961698A42EBD9E26842B1E6
:102CD000525CA068C27001316161E3E7A068C17015
:102CE000DAE7A068C270F6E710B513000022FFF71C
:102CF00059FF10BD10B5EFF30383103B5BB21A0010
:102D000046F20001C032C4F2000192005058124C49
:102D10009B002040505044F69852C2F200029B584B
:102D20005A69D9698A4206D2D86890B1805C9C6899
:102D3000E07001325A618A4200D010BD1A69002A3F
:102D4000FBD19A687B2391780B4004210B4393704D
:102D5000F3E79C68E070ECE7FFFFFEFF10B5EFF3D0
:102D60000383103B5BB21A0046F20001C032C4F28A
:102D7000000192005058164C9B002040505044F6E1
:102D80009852C2F200029B585A69D9698A4206D207
:102D9000D868C8B1805C9C68E07001325A619A6959
:102DA0008A4207D2511C99619968186949798154FE
:102DB0009A69D969914206D19A683B2391780B4070
:102DC00004210B43937010BD9C68E070E5E7C0469A
:102DD000FFFFFEFF10B5EFF3038444F69853103C59
:102DE00064B2A200C2F20003D05803238268C03448
:102DF0009178A4000B4093700121FFF7FDFC46F28F
:102E00000003C4F20003E25801490A40E25010BD39
:102E1000FFFFFEFF10B5EFF3038444F69853103C18
:102E200064B2A200C2F20003D05803228368C03407
:102E30009978A4000A409A701A79842204211A71A0
:102E4000FFF7DAFC46F20003C4F20003E25802493D
:102E50000A40E25010BDC046FFFFFEFFF0B5DE465F
:102E600057464E464546E0B5436884465B7C8A46F5
:102E70005BB29B4685B0002B00DAB5E05B091A0017
:102E800003934EF20013594694001F22CEF2000322
:102E90001B590A40D34001221100194002911A42E5
:102EA00029D144F2000222210220C4F20402535C20
:102EB0000343535420302039135C1942FCD05B4645
:102EC00046F20002C033C4F200029B0099585848F1
:102ED000014099505B461F221A40012393404EF255
:102EE0000012CEF20002904640F280124444A350F9
:102EF00023600023029344F2000340F20009C4F26D
:102F00000403624649461172987819799F791E7AAE
:102F10009D7A1C7BDA89C0B292B201926246127A23
:102F2000C9B2FFB2F6B2EDB2E4B2002AE9D1019A19
:102F30008946D2B29046020991008C46624440F222
:102F40000F0C61465200084010185246C0B2106083
:102F50004A461209900012184846520008401118BB
:102F60005246C9B25160BA06920F9100521861469A
:102F700052000F40D7195246FFB2976032099100B4
:102F80005218614652000E4096195246F6B29661AA
:102F90002A0991005218614652000D4055195246B7
:102FA000EDB2D560220991005218614652000C40E2
:102FB00014195246E4B2013C1461424612099100D0
:102FC0005218404661465200014052185146D2B252
:102FD00064324A61029A5AB1002005B0F0BCBB4687
:102FE000B246A946A046F0BD5B0903939C0058E792
:102FF000222102205A5C82435A5444F200022030BB
:10300000C4F204022039135C1942FCD15A461F2332
:10301000134001224EF200119A40039BCEF20001B0
:1030200020339B005A50BFF34F8FBFF36F8FD3E70E
:10303000FFFFFEFFF0B5C64644F20005242400B5AC
:10304000C4F204052C5DE406E40F84421DD0002682
:103050002E242E552E36AC5D002CFCD1012640F2DC
:10306000100C242706403601B0466646EC5DB4439A
:1030700046463443EC5544F200052426C4F20405C8
:10308000AC5DE406E40F8442FAD1012811D03F215F
:1030900092010B4044F200011A432E232E20D2B29B
:1030A000C4F20401CA540B5C9A42FCD180BCB846FD
:1030B000F0BD44F200042426C4F20404A55DAD066C
:1030C000ED0F8D42E3D02027A55D0840BD434001B0
:1030D00028432425A055605D8006C00F8142FAD1A7
:1030E000D5E7C046F8B544F2000324240125C4F214
:1030F00004031A5DAA431A551A5DD207FCD40A22AA
:103100000E78B6FBF2F7BD00ED196D00751B0E7958
:103110003C01B6FBF2F72C43BD00ED19E4B26D00A3
:103120009C70751B3C012C430D7AE4B2B5FBF2F7A1
:103130001C71BC00E41964002D1B3E012E433F2589
:1031400035400E7E9D71B6FBF2F7BD00ED196D00A6
:10315000751B0E7B3C01B6FBF2F72C43BD00ED194D
:10316000E4B26D001C72751B3C012C43E4B29C72EE
:103170000C6949690134E4B2B4FBF2F76439C9B2AD
:10318000B1FBF2F2BE00F61976003D01A41B2C4300
:10319000E4B295001C731401AA185200891A214345
:1031A000C9B2D98143681A786AB144F20002242175
:1031B0000120C4F20402535C03435354535CDB0705
:1031C000FCD50020F8BD9868436882784178007883
:1031D000FFF730FFE9E7C04644F2000270B5222550
:1031E0000F24C4F20402565D0B0134402343222411
:1031F000DBB25355135D1B098B42FBD10421135DD8
:103200000B43135544F200022224C4F20402135D5E
:103210001942FCD0436846F20001DB7BC4F2000196
:103220005BB21A00C032920050580A4C20405050F5
:103230001F21012219408A404EF20011CEF20001F6
:103240008C4640F280115B099B00634400205A5079
:103250001A6070BDFFFFFEFFF0B5C6464B6900B5B2
:10326000C3608B690F2243610023416003610372D5
:103270008A5605000C00002A20DB4EF20013CEF225
:1032800000039C4640F2003891088900614440F2F6
:10329000FF0C434603206646CF58A37B1040C00076
:1032A0009B013340864083404046B7433B430B502D
:1032B00044F698539200C2F20003D5500D22A25654
:1032C000002A20DB4EF20013CEF200039C4640F2AF
:1032D000003891088900614440F2FF0C4346032006
:1032E0006646CF58237B1040C0009B013340864088
:1032F00083404046B7433B430B5044F698539200FB
:10330000C2F20003D5501122A256002A20DB4EF251
:103310000013CEF200039C4640F200389108890069
:10332000614440F2FF0C434603206646CF58237C9D
:103330001040C0009B013340864083404046B74365
:103340003B430B5044F698539200C2F20003D55011
:103350004EF2000340F21042C4F201039B5CD9B26A
:10336000012B11D044F200022421C4F20402535C68
:10337000DB07D80FABB145F24343C0F25203002044
:103380002B6080BCB846F0BD44F200022420C4F299
:103390000402135C8B4324211354535CDB07FCD4DD
:1033A000E0E72233D0542378505404315354B3B35C
:1033B0000121BE2001F026FD44F20002242101205B
:1033C000C4F20402535C83435354535CDB07D80FAD
:1033D000002BFAD14026535C334353546B681B785F
:1033E000012B02D1A3885085938544F20002242149
:1033F0007F23C4F20402505C03405354535CDB0946
:10340000002BFBD10220535C0343535444F20002CF
:103410002421C4F20402535C9B07FCD4ABE740F2C6
:10342000E831642001F0EEFCC6E7C046F0B5C646C0
:1034300000B582B0EFF3038444F69853103C64B2B5
:10344000C2F20003A200D558E968C1B16B682869CF
:103450005B7BE8465BB21B1B5A1E9341DBB29C466A
:10346000D8B14246070048CF48C2634603706B6933
:10347000436088472B6913B1404606C806C346F22D
:103480000003C034C4F20003A400E25804490A4017
:10349000E25002B080BCB846F0BD4046E5E7C04609
:1034A000FFFFFEFFEFF3038344F69852103B5BB23D
:1034B0009900C2F200028A580121117246F20002FC
:1034C000C033C4F200029B00995802480140995051
:1034D0007047C046FFFFFEFF0023036000207047D7
:1034E000FF2010B540F600040B0A08401901091826
:1034F000C4F2040489000B5900209B07DB0F1370F2
:1035000010BDC0460023C4F204039C46090A4901C9
:1035100061444B68002013807047C0460020C4F20D
:10352000040084461800090A90430004134049012E
:103530000343614400208B607047C046FF20012395
:103540000840834052B91B040022C4F2040294468E
:10355000090A4901614400208B6070474FF6FF72F1
:103560001340F1E70020C4F2040084461800090A61
:10357000490110B561440C681040204393439843BF
:103580000860002010BDC0460023C4F204039C461E
:10359000090A490161444B6800201B0C13807047E5
:1035A0000020C4F2040084460B0A5B01634458689F
:1035B000FF231940FE3B8B40000C99B203405B1A7D
:1035C00059424B41002013707047C0460020C4F29E
:1035D000040084461800090A90430004134049017E
:1035E000034361440020CB607047C046062070470B
:1035F0000B0A10B55B01012A10D00022C4F20402AC
:103600009446FF208022014052028A406344DC68D5
:103610002243120C12040020DA6010BD0020C4F214
:1036200004008446FF2001408A4011004FF6FF72DB
:103630006344DC68114021430A40ECE7F0B5DE4604
:1036400057464E464546E0B583B0EFF3108201235E
:1036500083F3108844F69453C2F2000301931B686D
:1036600033B940F60051C4F20401CB704033CB7043
:1036700001990B6801330B6082F3108803889A4626
:10368000BBB3802340F600055B029946284B00221D
:1036900040F2FF089C464168C4F204050AE0434634
:1036A0001E4023019B1901329B0092B258510831F0
:1036B00092451ED04B468E880868340A1842EED0D8
:1036C00043461E4023019C19A700644600977F597A
:1036D0009B1927403C00009F01327C516746074000
:1036E0003C00009F9B0092B27C510831585192459A
:1036F000E0D1EFF31082012383F31088019B1B6854
:103700001BB101990B68013B0B60019B1B6833B92E
:1037100040F60051C4F20401CB708033CB7082F3C9
:10372000108803B0F0BCBB46B246A946A046F0BD27
:10373000FFFFFEFF45F2542310B5C5F24F030360AF
:103740000800FFF77BFF002010BDC04610B5080041
:10375000FFF774FF002010BDF0B5EFF310840123D4
:1037600083F3108844F69453C2F20003186830B90A
:1037700040F60055C4F20405E8704030E87018685F
:103780000130186084F31088D00321D4FF24080A84
:103790000C40010140F600000919C4F20400890040
:1037A0000A50EFF31082012181F31088196811B1DA
:1037B0001968013919601B6833B940F60051C4F229
:1037C0000401CB708033CB7082F310880020F0BDF1
:1037D000FF2440F60005080A0C4001010819C4F254
:1037E000040580004759034E374016404751465163
:1037F000D0E7C046FFFFFEFFF0B50400806B83B04A
:103800006D4688B12B000200C0CAC0C3E36B0171D2
:103810000360636B9847A36B0BB106CD06C32B23E4
:103820000022E25403B0F0BD2800EFE74EF200039F
:1038300040F6007230B52C25C4F201031B6AC0F6B5
:10384000007283B0134001690193019A019C0B7CC3
:10385000455DDBB28DB91205120F240E121B934089
:103860009B0823B9082044E0013B002BFAD04A789A
:10387000D209002AF8D1B323CB7100232822835424
:1038800082690362C2612622845C0132845404325C
:1038900083540232835401328354046801328354C6
:1038A00001328354626A13785278013B5D426B4166
:1038B0005200043313430122DBB2CB704B79134324
:1038C0004B710F23E356002B0BDB1F215A094EF2DD
:1038D00000140B401E399940CEF2000492001151A1
:1038E0000169BF23CB71933BC25C22B10022C25459
:1038F000002003B030BD2A3B00204B70F9E7C046E2
:1039000010B52A240355037A41618261012B0AD143
:103910002522002181540121426852000A432421BA
:1039200042542622835429230122C254FFF77EFFEA
:1039300010BDC04610B52A240355037A4161826147
:10394000012B08D1252200218154426824315200E4
:1039500042542622835429230022C254FFF766FFD3
:1039600010BDC046F0B557464E464546DE461F23BD
:10397000E0B5026904681370403383B01370656A60
:103980008033137000912F79FF3B1F43FFB21774F0
:10399000EF7801003B43DBB253747023AF784BF6F2
:1039A000C0503F013B4008273B4393702B78CFF634
:1039B000F070013B5F427B4184466D7804336D00BB
:1039C0002B43DBB2D37063684EF2001063445C4259
:1039D0006341DB01773353710023CEF2000084464C
:1039E00040F2003503279371B333D371009BFF2658
:1039F0005B7C40F2801B5BB29C08A400644460596D
:103A00001F408446F80080460098477BB8010700B5
:103A1000FF2037404646B040814660464E46B043A0
:103A2000464644F6985C0197B740C2F2000C40F25B
:103A3000C00866463843605198449C00A1514646F0
:103A400046F20004B600B046C4F200043659684895
:103A500037004646074037511F271F40B846012709
:103A60004646B7404EF20016CEF20006B1465E461C
:103A70005B099B004B449F511F60009B0327DB7B2E
:103A80005BB29E08B600B046C844464676591F4011
:103A9000B146FE00FF27B246B7404E46BE43B14690
:103AA0005646019FB7404E463E43B14646464F46B6
:103AB00077519E00B046474640F2C008664698449B
:103AC000B9514646B600B04636590640B14646465C
:103AD0004F4637511F261E40B04601264746BE407E
:103AE000B0464EF20016CEF20006B14647465E469C
:103AF0005B099B004B449F511F60009B1B7C5BB28A
:103B00009E08B600B046C84446467659B1460326DC
:103B10001E40F600B246FF265746BE404F46B7430A
:103B2000B9465646019F8A46B7404E463E43B14687
:103B300046464F4677519E00B046474640F2C00881
:103B400066469844B9514646B600B04636590640D6
:103B5000B14646464F4637511F261E40B046012605
:103B60004746BE40B0464EF20016CEF20006B146C1
:103B700047465E465B099B004B449F511F60009B7C
:103B8000FF279B7B01985BB29908890049444E59F5
:103B9000B04603261E40F600B146B7404646BE4337
:103BA00037004E46B0406646074350464F51990095
:103BB00088511900C031890008590D4D1F26284031
:103BC00008514EF200100121CEF2000084461E4042
:103BD000B14058465B099B006344195019609F230C
:103BE000137003B0F0BCBB46B246A946A046F0BD78
:103BF000FFFFFEFF40F23052C0F240029446F8B59B
:103C000000250B78016063441B0203618B6804008C
:103C100043600B7B0372CB6943630B6A8563C363A9
:103C2000EFF3108C012282F3108809260F7846F6F4
:103C3000FC73F61BB240C4F204035868904358600A
:103C40005B688CF310882000FFF78CFE29236561E8
:103C5000A561E5612562E5540133E5540133E5547E
:103C60000133E55444F64313C5F249230020E360D1
:103C7000F8BDC04610B582B0EFF3038346F20002F0
:103C8000103B5BB2C033C4F200029B009958474816
:103C900001409950EFF3038344F69852103B5BB216
:103CA000C2F200029B009B582D229A5CE2B99A69ED
:103CB000012A24D940201A69117901431171D96967
:103CC000012907D1102011790143082011711179C0
:103CD000014311716946D27CD2B2CA71CA792D22D0
:103CE0000121995402B010BDDA69002AFAD0032AE2
:103CF00007D0022A48D0012A1AD0196906E01A69A9
:103D0000DDE7402019690A7902430A71CA7C186A02
:103D100059690A541A6A01321A62DA69013ADA6197
:103D2000002ADFD140211A6913798B431371D9E737
:103D30002A21595C91B30F241F2019680C57204089
:103D40006109140084404EF200102031CEF20000D0
:103D500089000C50BFF34F8FBFF36F8F802019691C
:103D60004042CC7920431024C871087920430824AC
:103D700008710879A043087104204870487990437D
:103D800048712C201A54C1E7102019690A7902439E
:103D900008200A710A7902430A71B7E708201969F5
:103DA0004A7A82434A724870B0E7C046FFFFFEFF7E
:103DB00030B5EFF3038346F20002103B5BB2C03331
:103DC000C4F200029B009958354801409950EFF326
:103DD000038344F69852103B5BB29B00C2F2000290
:103DE00099582723CB5C002B33D12923CB5C7BBB99
:103DF000CB69002B3ED108697F23C2791340C37180
:103E0000C02201E0013A1AB1C379DB09002BF9D1D4
:103E100010220B6846F200019A56C4F2000113000A
:103E2000C0339B005C581E4D2C405C50002A0BDBBD
:103E30001F215309114001228A404EF200116033C4
:103E4000CEF200019B005A504022C3791343C37144
:103E500030BD26228A5C032A18D028228A5C2420BE
:103E60000C69085C0132A07428200A542722013B07
:103E70008B54EDE70A6A4C690869A45C013B013286
:103E800084740A62CB61002BE2D1B5E728228A5CF8
:103E9000022AE4D13020085C0028D9D0DFE7C046F0
:103EA000FFFFFEFF10B5EFF3038344F69852103B7B
:103EB0005BB2C2F200029B009B5829229A5C1AB1A5
:103EC00027229A5C012A48D0DA69D2B119694022C6
:103ED000CB799343CB71C02301E0013B13B1CA7985
:103EE0005206FAD4EFF3038346F20002103B5BB2B2
:103EF000C033C4F200029B0099581A4801409950FF
:103F000010BD2A229A5C0AB30F201F211A6810568E
:103F100001404209012004008C404EF20011203281
:103F2000CEF2000192005450BFF34F8FBFF36F8F5A
:103F3000802219695242CC792243CA7104224A7004
:103F40004A7982434A712C229854C0E708221969A1
:103F50004B7A93434B724A70B9E72F329A5C002A2E
:103F6000B2D1B3E7FFFFFEFF70B5EFF3038344F672
:103F70009852E021103B5BB2C2F200029B009C58B9
:103F800023695A7A5972DD39D0B21140D2062DD543
:103F90005A78520645D401212B22A154E169002907
:103FA0005AD000252000DD712168FFF7DBFC2623B5
:103FB000E561E25C0233E254A36923622C23E554F9
:103FC0002369B3220121DA712000FFF715FCEFF31A
:103FD000038346F20002103B5BB2C033C4F200021E
:103FE0009B0099582A480140995070BD0029D2D1B0
:103FF00002070AD52B22A15CB1BB2922A15C4A424F
:104000005141B3220231DA71DEE72C22A25C002A90
:10401000DDD04207DBD52B22A25C0121002AD3D1BF
:10402000EBE70029B7D15A785206D10F002ADFDA20
:104030002B22A15408215A7A8A435A722268597055
:10404000526A1278013A51424A4101210232DA7031
:104050005A790A435A71BAE72C31615C0029A0D120
:10406000A25C002AADD09CE7E16929B92C31615CE2
:1040700011B9A25C002AA4D000222621E261605C72
:1040800002316054A16921622C21625499E7C04633
:10409000FFFFFEFF8368C26800209A607047C04639
:1040A0008368C26800205A607047C0468368C2684F
:1040B0000020DA607047C046F0B5CE46474680B56E
:1040C00000283ADB40F2FF094EF2001403254E4669
:1040D000CEF20004A44640F200370540ED00AE40A9
:1040E00083089B006344DC598901B44326004C4695
:1040F0000C40AC403443DC5144F698538100C2F28A
:104100000003CA50030046F20002C033C4F20002AA
:104110009B0099580B4C214099501F2201230240CB
:1041200093404EF20012CEF20002944640F280120A
:1041300040098000604483500360C0BCB946B0466B
:10414000F0BDC046FFFFFEFFF0B5C64600B5050056
:10415000806984B08C46904601AC98B1230006007B
:1041600086CE86C36346037143468360EB69036072
:104170006B699847AB690BB107CC07C304B080BC2F
:10418000B846F0BD2000EDE770B5554255414C6E84
:10419000013425B9A24202D2013A1A6070BD049DD1
:1041A000496BED070CD50078C902C90E03280CD95C
:1041B00001200909884382B180B903225A60EDE7E2
:1041C0000078C906C90E0328F2D80C200140043932
:1041D00048424141C8B2002AEED110B902225A60C9
:1041E000DCE7002CFAD0E8E7F0B54546DE46574656
:1041F0004E460122E0B50D000B7C110099400400F1
:1042000085B0C1604560002B00D1C9E0027440F266
:104210008072C0F240029446002063441B02A360F7
:104220006B696361AB69A061E361EB699B46EFF386
:10423000108C012787F3108846F6FC71C4F2040144
:10424000CB682A7C984653425A4153014246413B2F
:104250001340CB60CB688CF310884AF20053A168FE
:104260000B60C862C86388642A7A6B68D205CA6228
:10427000802212060A614A618A615A46926948623E
:104280008862CA615A46D2695E1E0A625A46D26A7A
:104290008E66904601225242944602922A784E66D9
:1042A0000390002A00D0A2E0C1465B086344029359
:1042B00003304B658B654B46002B6AD15B461B7800
:1042C000E3B15B465B789E01B1461E01B446022A0B
:1042D00000D1A4E05E1EB3415B429A4603235646DA
:1042E0003340063346461E4333004E4640F2001824
:1042F00033436646334346461E43B0465B469B788F
:10430000002B4FD140F2880C002366468B638B5103
:104310005E4640F2210C2033F35C66465B0399460F
:104320005B469E5D4B467607334346461E43B0468A
:10433000AA23DB030B64012A02D10023CB640B65A3
:10434000E3682200CB6043464B63086312200F638F
:10435000697C2856FFF7B0FE5A462223D15C02330F
:10436000D0562200FFF7A8FE5A462323D15C023321
:10437000D0562200FFF7A0FE45F254030020C0F201
:104380004703236005B0F0BCBB46B246A946A04631
:10439000F0BD40F2880C002366468B638B51C7E763
:1043A000037434E75B46DB789C469B019946634681
:1043B0004E461B0133439A46022A32D06646731E8C
:1043C0009E417642B44640F2030963464E461E4083
:1043D000B44640F20609CC4466465346334346464B
:1043E0001B043343802676041E43B0468AE7012A25
:1043F0001AD0EA68009002AB6068FFF7C5FE039828
:10440000A16802040006024394465A466646032009
:10441000D26A029B914630432A78374349E7092301
:1044200060E740F2090CD7E7C14601270320634645
:104430003FE7C046F8B5EFF30383103B5BB21A00C9
:1044400046F20005C032C4F2000592005159154CE5
:1044500098002140515144F69851C2F20001405851
:1044600041680978012915D18668C768B7600027B7
:10447000B764F76437655659344054511F245A09BC
:104480002340994013004EF200146033CEF2000432
:104490009B00195143691BB100220021FFF754FE14
:1044A000F8BDC046FFFFFEFF70B5042482B0019145
:1044B0000092045746F200022500C035C4F2000203
:1044C000A90088581F4E30408850895845F2004056
:1044D00048F20002C905C90D1143C4F20000C289A7
:1044E0008A42FCD0082244F200010270019AC2F212
:1044F00000012AB3A2008858019C4460009810B1C2
:104500008858009C84603F208958CA788243802A5A
:1045100014D002B9CB8145F200431822C4F2000343
:104520001A7046F200028021C4F20002AD00A858C1
:10453000490401430020A95002B070BD8B81EAE715
:10454000A200DBE7FFFFFFFE062070470620704752
:10455000042346F200028021C356C4F20002C03395
:104560009B00985849040143995000207047C04669
:10457000042346F20002C356C4F20002C0339B007B
:10458000995802480140995000207047FFFFFFFEF4
:10459000042244F2000310B58256C2F200039200D6
:1045A000D25800233F200B604B60D37883434BB13C
:1045B000C1308860D48901382040C860802B07D082
:1045C000002010BD80235B028B60D389CB60F7E7AE
:1045D00080235B020B6093894B60F1E7042330B5C5
:1045E000C35646F200011A00C032C4F20001920024
:1045F0005458064D9B002C40545044F200020021B8
:10460000C2F2000299500160002030BDFFFFFFFEA2
:10461000F8B544F65153CE464746C2F200031A7825
:1046200080B581460F00002A39D07B681B785BB2C9
:10463000002B59DB44F200059E00C2F20005AA5986
:1046400008201AB1C0BCB946B046F8BD4A4613713D
:104650003B683F219C46F730DA781F008A433AB125
:10466000DA8990464446D2B2044012022243DA81EB
:10467000BA7810338A43002AEED145F2004308325B
:10468000C4F200031A706246AA5118221A7044F24A
:1046900000334A46C4F2544300201360D2E7012697
:1046A0001E70EFF3108186F310884EF20003C4F2FF
:1046B0000103DA690D480240DA61DB6981F3108891
:1046C00044F20005C2F2000580220021280003F018
:1046D00081FC45F20043C4F200035D601E737B68F9
:1046E0001B785BB2002BA5DA0B20ABE7FFFFBFFF07
:1046F000F0B5C646042300B5C356C022984646F21C
:1047000000034244C4F2000394469200D058204C67
:104710002040D050D25845F2004048F20003D20564
:10472000D20D1A43C4F20000C3899342FCD00B009F
:104730003F24FF26DA781D00A2432AB1DF89F8B2B0
:10474000020237403A43DA81AA781033A243002AA2
:10475000F0D145F200430832C4F200031A7040461B
:1047600044F200028700C2F20002B95018221A7007
:10477000624646F2000395008022C4F20003E95825
:1047800052040A430020EA5080BCB846F0BDC0463F
:10479000FFFFFFFE0368828A00201A807047C04630
:1047A000036810314900CB5A002013807047C0467F
:1047B00070B5C56904000E0088B0A5B1202229009B
:1047C000684603F0EBFB20223100280003F0E6FBF3
:1047D0002800A3699847E06918B12022694603F0D0
:1047E000DDFB08B070BD0D00F2E7C04630B5020039
:1047F00089B0EFF3038344F69851103B5BB2C2F2E9
:1048000000019B005858EFF3038346F20001103B70
:104810005BB2C0339B00C4F200015C58094D2C40D0
:104820005C506B469A706A4643681B88138000236D
:104830001372036A0193836913B16946FFF7B8FFE6
:1048400009B030BDFFFFFEFFF0B5C64690464EF200
:104850000012FF240325CEF200029446220040F20B
:1048600000370540ED008901AA400C40AC408308A8
:104870009B006344DE5900B596433443DC5144F653
:10488000985342468100C2F200035A50030046F298
:104890000002C033C4F200029B0099580A4C214028
:1048A00099501F220123024093404EF20012CEF293
:1048B0000002944640F28012400980006044835018
:1048C000036080BCB846F0BDFFFFFEFFF0B54E466A
:1048D0004546DE4657464CF20002CB68E0B54E69CD
:1048E00083610B69C4F20502036200239446C3612D
:1048F0000B8841605B02634403608B784A790C004B
:104900005B0311020B433179050083B0890700D5A1
:104910007CE040210B43F178002900D16BE040F2AC
:10492000802003439BB240F2000CAB82022A00D1EC
:1049300070E0727820795201C003104337780190FB
:10494000EFF31089012282F3108846F6FC72C4F25C
:104950000402D06840F2100A804620888346504600
:104960005946401A01000120884001004046884312
:10497000D060D26889F3108847F6FF512A680B404F
:104980001380634613826B469888D08117733379FE
:10499000990747D48A21062053542056002803DB68
:1049A0002A00217AFFF750FF07202056002803DB5A
:1049B0002A00617AFFF748FF06203056002803DB03
:1049C0002A00317AFFF740FF07203056002803DB2A
:1049D0002A00717AFFF738FF00232B6144F243432A
:1049E0000020C5F24123AB6003B0F0BCBB46B24629
:1049F000A946A046F0BD002A00D093E748F2000285
:104A000013439BB240F2000CAB8292E740F240416C
:104A10000B4380E749F2A8428900C0F20002525AD3
:104A2000944686E703210B4387315354012089398B
:104A300000F0E8F92A683379ACE7C046F0B545469E
:104A400057464E46DE46E0B505000F686A683800F6
:104A5000526983B001924A688C689046864BA4469E
:104A600018401A4023402C6886B2A68096B2A682CF
:104A70009EB22681120C1B0C060CE680E28263813A
:104A800043463B439846C02342469B051A4200D00A
:104A90008CE0CB68002B00D1E0E01A899246160525
:104AA00045D540F2900C6646A2535E8940F29C0CBC
:104AB000B04666464246A2539A8940F29E0C904602
:104AC00062464646A6521A6840F29408944692B24C
:104AD000914642464E46A65262461201120D90463B
:104AE00040F2960946464A46A6526246120F94463E
:104AF00040F2920866464246A6545A6840F2980828
:104B0000944692B2914642464E46A65262461201E1
:104B1000120D904640F29A0946464A46A65262460F
:104B2000120F944640F2930866464246A6545246F7
:104B3000960525D490235246E2520A8A103BE2524F
:104B4000019BDB7873B11F2326889E43002800D188
:104B500089E000F0D9FA1F36301A80B22080AB8A83
:104B60001843A88244F243430020C5F24123EB607E
:104B70002F6103B0F0BCBB46B246A946A046F0BDCB
:104B80009A7C40F2A60894466646DA7C40F2A80C6D
:104B900016434246A654DA89904662464646A652D5
:104BA0001B8A9C46AA236246E252C3E74EF20003E8
:104BB0000722C4F201031B6A44F6246B9A461B0EBB
:104BC00013409946C2F2000B5B464E461B68B34049
:104BD00056463240D34040F2E832B3FBF2F341F2A2
:104BE0008832534344F24022C0F20F02B3FBF2F288
:104BF0000132072A35D380235B05994643464E464A
:104C000033409A4646464B461E420CD040F2DE0ADE
:104C10005646D3B2A35566464B4633405E1EB3415B
:104C20000133FF339A4680239B05994643464E46FF
:104C300033420CD040F2DF084346D2B2E25463461E
:104C4000334212D1534640F2002213439A46534650
:104C50009BB26382CB68002B00D01EE740F2000AB3
:104C600068E70722C7E7202075E7534640F2022293
:104C700013439A46EBE7C046FFFFFFCF10B5002075
:104C8000FFF7B4FD10BDC0464EF20003262244F2E9
:104C9000B011C4F20103985C1B6A8000C2F20001EB
:104CA00041585B015B0F44F62462D940C2F2000216
:104CB000116070474EF2000340F2FE324B49C4F2DD
:104CC000010370B599524CF20002002043F6C871FE
:104CD000C4F27E02505444F2B01446F60042C2F2CE
:104CE0000004C0F2DC22226041F20022C0F27A020B
:104CF000626048F2000242F20041A2602261262274
:104D0000C0F2F401E160995C1A6A890061585201AD
:104D1000520F44F62465D14040F21342C2F200051E
:104D2000296098540921A222995440F28042995C4A
:104D3000002953D04EF20003002240F28141C4F218
:104D400001035A5401395A54A0329A5CCAB136222E
:104D50009A5C1AB93C215A5CD207FCD54EF200028B
:104D6000A021C4F20102535CDB06D80F002BFADB52
:104D700050544EF20002A021C4F20102535CDB0643
:104D8000FCD44EF2000200213623C4F20102D154B9
:104D90003C31535CDB07FCD501213123D1544FF664
:104DA000C473C4F27E03197000202623D05401304E
:104DB000FF301062D05C136A800020585B015B0FEB
:104DC000D84040F2FE3328600948D0524CF200032C
:104DD00043F6C872C4F27E03995470BD013140F2AB
:104DE000C440995400F00EF8A4E7C04603A5FFFFA5
:104DF00000A5FFFF7047C04600BEFEE7013800284F
:104E0000FCD1704744F624624CF600234143C2F2C1
:104E1000000270B51468C3F69A330D00B3FBF4F4C6
:104E2000080040F2E8320023002100F0AFF931B968
:104E3000B0FBF4F0800808B1FFF7E0FF70BDA00000
:104E4000B5FBF0F040F2E8320023002100F09EF9BB
:104E50000029F0D001204042FFF7D0FFEEE7C04626
:104E6000F8B546F2000340F2401244F654550024CF
:104E70000127C4F200039E5AC2F20005B6B2330005
:104E8000E340E0B21F4202D02B6803B198470134DF
:104E90000435102CF3D146F2000340F23012C4F274
:104EA00000039E52F8BDC04646F200000023C4F243
:104EB000000049F22C42C0F200029A1811781A0040
:104EC000C032920001331150202BF2D17047C046FE
:104ED00070B5EFF31081012383F3108844F6186353
:104EE0004000C2F200031A5A1AB11A5A013A92B299
:104EF0001A521B5A83B94EF2000240F2FE3549F2B3
:104F0000B444C4F20102565B054BC0F20004205ABF
:104F1000334383439BB2535381F3108870BDC04623
:104F200000A5FFFF70B5EFF31081012383F3108814
:104F300044F618624000C2F20002135A83B94EF2DE
:104F4000000449F2B44540F2FE36C4F20104C0F256
:104F50000005A35B2D5A2B434AF200552B43A35364
:104F6000135A01339BB2135281F3108870BDC046AF
:104F700044F62062C2F200020300106810B558B176
:104F8000032103338B4344F63861C318C2F2000196
:104F90008B4207D8136010BD44F63860C2F200009F
:104FA0001060EDE702F03CFF0C230360012040425B
:104FB000F1E7C04600BE704710B500F003F8FCF7FB
:104FC0000DFDFEE740F200034EF6005270B5CEF242
:104FD0000002C0F2000382B093600020FCF7A0FB47
:104FE000FFF768FE6B460026DC1D26700120237843
:104FF000FFF798FFEFF31081012585F3108846F63F
:10500000FC73C4F204039A683D4802409A609A68AF
:1050100081F3108840F60001C4F204010A68D20747
:10502000D20F22700A68D207D20F22700A68D20704
:10503000D20F2270EFF3108185F3108880229868D8
:10504000520502439A609B6881F310880120FFF7A4
:105050003FFF0120FCF764FB40F60053294AC4F2ED
:1050600000039E801A8044F63862C2F200029A6001
:1050700045F23862C2F20002DA6046F2000240F203
:10508000201141F20000C4F20002505244F638628E
:1050900044F2C810C2F20002C2F200009D8000215A
:1050A000121A02F097FF44F2800044F2B01249F263
:1050B000A071C2F20000C2F20002121AC0F2000196
:1050C00002F06CFF44F2A81544F2AC13C2F20005E2
:1050D000C2F200035B1B9E10002B05DD002408CDEF
:1050E00001349847A642FADCFFF7CEFD0220FCF718
:1050F00017FBFFF7D9FE0020FFF77CFE02B070BD62
:10510000FFFFFFEF00A5FFFF1C2101231B049842B6
:1051100001D3000C10391B0A984201D3000A083948
:105120001B09984201D30009043902A2105C4018FF
:105130007047C046040302020101010100000000A3
:1051400000000000002B15D1002A13D1002906DB36
:1051500001DC002806D00020C043410802E0802185
:105160000906002007B4024801A14018029003BDBF
:105170007129000003B4684601B5029800F034F8C4
:10518000019B9E4602B00CBC7047C046F0B54FF67E
:10519000FF75CE46474699462B0015400E00290064
:1051A0000340140C80B50700000C5943454363438A
:1051B00060435B190C0CE4188C46A54203D980238C
:1051C0005B0298464044230C61461B1820044FF6AE
:1051D000FF740C40494679437243C9180019891875
:1051E000C0BCB946B046F0BDF8B5CE46474680B51E
:1051F0009146984604000D0002F074FC07000E0072
:1052000002000B0048464146FFF7C0FF241A8D41BB
:10521000089B380031001C605D60C0BCB946B046D8
:10522000F8BDC046F8B557464E46DE4645461C001A
:10523000E0B517000D000903420F490A114362004F
:10524000520DC30020039246400AE20F7C0F6E000D
:1052500004439346A146760DED0FFF00954200D121
:10526000A0E05046301A8446002800DC81E0524617
:10527000002A00D1C0E040F2FF72964200D12CE13A
:10528000802220001204104381466246382A00DD45
:1052900073E11F2A00DDDEE1604620224C46121A2F
:1052A00094403800A04664469740E04044467A1E49
:1052B000974104434A466046C2402743891ADC1B93
:1052C000A3429B415842081A030200D4DCE040028A
:1052D000430A98464346002B00D10FE14046FFF7B2
:1052E00013FF0300083B202221004046D21A9840B9
:1052F000D1409C400843B34200DA0EE19B1B5A1C8C
:105300001F2A00DDB2E02023010026009B1A9C40EA
:105310009940D640631E9C413143D04000260C4347
:10532000630709D00F232340042B05D0231DA3427C
:10533000A441644200191C00030200D4A7E040F21B
:10534000FF7101368E4200D1C2E0CB4BE408184019
:105350004307400223430E40040B3205ED0722436E
:105360002A4318001100F0BCBB46B246A946A0462D
:10537000F8BD002850D05046801B8446002E00D037
:1053800030E108001843002800D1C3E16246501EF6
:10539000012A00D12CE240F2FF74A44500D1DCE1E7
:1053A000844627E15246B21A9446002A00DCB8E04F
:1053B0005246002A48D040F2FF72964200D1C2E124
:1053C000802220001204104381466246382A6EDC97
:1053D0001F2A00DC6FE14846203AD0406246202A6E
:1053E00005D064464022121B4C46944027433C00A3
:1053F000621E944104435EE022003A43002A00D139
:105400000FE10200013A012800D193E140F2FF7060
:10541000844562D0944638E740F2FE74701C044222
:1054200000D0C8E008001843002E00D078E1002822
:1054300000D1D0E148463843002800D0E2E1DB0843
:105440004A071343CC082BE022003A43002A00D13C
:105450007EE162466046013A012800D1E6E040F272
:10546000FF70844500D16EE19446AEE701001F3B1A
:10547000D940202A03D040239A1A90400443631E47
:105480009C41002000260C43630700D04AE7B44645
:10549000E40843072343C40840F2FF72944520D038
:1054A00040F2FF7662462403240B164055E74C4633
:1054B0003C43621E9441E4189C429B415842401870
:1054C0000302E1D540F2FF7301369E4200D0B8E0FE
:1054D00040F2FF76002400233FE7DB084A0713432E
:1054E000CC081A002243002A00D1EEE180221203E8
:1054F0001443240340F2FF76240B2EE72000FFF72D
:1055000003FE030018331F2B00DCECE60838844050
:1055100020000024B34200DBF0E6574AF61A1040A0
:10552000FEE682B35246921B9446002E00D1B1E0B3
:1055300040F2FF72924500D117E18022120411431C
:105540006246382A00DD17E11F2A00DD8BE1604644
:1055500020220C00121A6646180093409440F04036
:105560005A1E9341F14004431C438944E419BC4250
:105570008041404256464844A2E74A463A43170013
:105580007A1E97419BE640F2FE70721C104200D0DA
:10559000A5E00A001A43002E00D0FFE0002A00D147
:1055A0004FE122003A43002A00D04FE14A07DB08CE
:1055B0001343CC0874E74846DC1B0A1AA342804117
:1055C0004042804610004246801A02008046120285
:1055D00000D595E003002343002B00D07AE6002499
:1055E00000255DE740F2FF70824500D1B5E08020E4
:1055F000000401436046382840DC62461F2800DD75
:10560000BFE020200C00801A1D0083408440D5405C
:10561000D1404A46581E83412C43521A9146234397
:105620002FE0DB084A071343CC0835E7DC199C421E
:105630009B4149445B42C8180126030200D423E77A
:1056400002260D4A63081040012214401C43C30780
:105650001C43400864E64C46203AD4406246202A67
:1056600005D060464022121A4846904007437A1EF1
:105670009741274323E6C046FFFF7FFF0B43591E98
:105680008B41FC1AA74280414B4640425D4656463C
:10569000181A19E60A001A43002A00D1C4E062462B
:1056A0006046013A012800D1ECE040F2FF708445E9
:1056B0005BD0944644E7604620224C46121A944040
:1056C0003800A04664469740E04044467A1E974121
:1056D00004434A466046C2403C438918EBE640F228
:1056E000FF70824200D1F3E6DF199F429B4149449B
:1056F00058420818C4077F0816003C434008C3E618
:10570000FC1AA742BF414B467F42591ACB1B984611
:105710005D46DFE56307FF085D463B43E408BBE603
:10572000002800D085E04B463B43B3B980240025D8
:105730002403DBE6DC1B4A46A3429B41881A5B42FA
:105740000126C01AC0E54A07DB081343CC08C8E6A7
:105750004A07DB081343CC089EE64B464A46FF083F
:105760005B075D463B43D408BBE64B464A465B07B6
:10577000FF083B43D408B4E60B431C00631E9C4166
:10578000F4E60C002038C440202A03D04020801AC0
:1057900081400B43591E8B41234372E7002AE4D01A
:1057A00022003A43002ACED04A07DB081343802266
:1057B000CC081203144208D04946C908114204D14A
:1057C0004A460C00FB08520713435A0FDB005207EE
:1057D000DB08134385E64B463B43002B00D1FEE636
:1057E0004B464A46FF085B075D463B43D40857E6F5
:1057F000FC1AA742BF414B467F42581A5D4601261C
:10580000C01B61E54A46DC1B881AA3429241524202
:10581000801A02023DD5FC1AA742BF414B467F4287
:10582000581A5D46C01B7BE56307FF083B43E4084D
:1058300032E648463843DB0888BB4A071343CC08A6
:105840004FE66307FF083B43E40829E6DC199C4266
:105850009B4149445B42C818030200D414E61D4B27
:105860000126184010E60C00203AD4406246202A57
:1058700004D040226046121A91400B435A1E9341B5
:105880001C4373E6DC19BC42BF4149447F42C8193E
:10589000D2E623000343002B00D1A0E6F4E548073D
:1058A000CC088021090303430C4208D04A46D008A3
:1058B000084204D15D460400FB0851070B435A0F10
:1058C000DB00DB08520713430BE6002340F2FF76B0
:1058D0001C0042E5FFFF7FFFF0B557464E464546A8
:1058E000DE46E0B58146050048000C03400D9246B7
:1058F0001F0087B0240BCE0F002800D17DE140F2BD
:10590000FF73984200D19AE16B0FE4001C4380239F
:10591000D14A1B04234398469446030040F20009F1
:1059200040F2000B6344ED0001937B003C035B0DF0
:105930005046240BFF0F002B00D13CE140F2FF72D8
:10594000934200D190E1420FE400144380221204FC
:105950001443C14AC10094460020019A6344D31AFB
:10596000019333004A467B4002930F2A28D8BB4B51
:1059700092009A58974602965B46022B16D0032B4C
:1059800000D1B7E2012B00D0F1E000220024002575
:10599000029B12052243DB071A432800110007B0BF
:1059A000F0BCBB46B246A946A046F0BD40F2FF722D
:1059B00000240025ECE7A0460D0083460297DBE7B4
:1059C000444500D2E9E100D1E4E12F004046002542
:1059D000019B013B01930E0E0A024FF6FF71240258
:1059E00026433140240CB0FBF4FC8B4661465B46F9
:1059F000594363466343C01A0304380C1843814279
:105A000008D901235B42634480199846864200D836
:105A100028E2C446401AB0FBF4F95B4649465943B4
:105A20004B464FF6FF786343C01A434600043B40A1
:105A30001843814206D94B4680195F1E864200D822
:105A400007E2B9466346411A18044B4603434FF632
:105A5000FF7C98461F0C130C9A466046434618403C
:105A60006346134004971F0047430397049F059321
:105A70007B439946534658435F43039B48441B0C62
:105A80009C466044814503D980235B029C46674461
:105A9000030C994603044FF6FF704F449946039B4D
:105AA00018404844B94202D312D1854210D2012392
:105AB0005B424344AD18994695429B415B429C46EC
:105AC000B44461448E4200D2B0E100D1ABE1C8469B
:105AD000281A8542AD41CF1B6D427F1BBE4200D1CB
:105AE000E9E1B7FBF4F123005D464B434D43FF1A58
:105AF0003F04030C1F43BD4200D97CE17F1BB7FB71
:105B0000F4F56C435B463F1B4FF6FF746B433F0459
:105B100020409B463843834200D963E15B46090439
:105B20000D43C01A059B2F0C1C007B434FF6FF71E1
:105B30009C46534629404C43594361448946210CB5
:105B400049445F438C4503D980235B029C466744EC
:105B50000B0C9C46BC444FF6FF7709043C400919E6
:105B6000604500D20AE100D105E10122154340F26F
:105B7000FF3C019A6244002A00DCB2E06B0700D0CF
:105B800043E1ED084346DB0107D54346344A40F282
:105B9000004C13409846019A624440F2FE718A42DA
:105BA00000DD03E7434659070D4340F2FF715C02F5
:105BB000240B0A40ECE651462143002900D17FE046
:105BC000002C00D100E12000FFF79EFA02000B3A02
:105BD0001D239B1A52460100DA40534608398B4078
:105BE0008C4019001443019B9C466044030040F222
:105BF000F33C634400200193B3E64B4623439846AD
:105C0000002B55D0002C00D1CEE02000FFF77CFA0D
:105C1000010002000B391D235B1A49461000D940D0
:105C2000083884400B004D462343984685400D4874
:105C300040F20009831A40F2000B019375E64B46CF
:105C4000234398465BBB40F2FF73002540F20809EE
:105C500040F2020B019368E601FCFFFFBC940000D8
:105C6000FFFFFFFE0DFCFFFF5146214359B9022300
:105C70004A461A439146A54A019B94466344002430
:105C8000022001936DE603234A461A4391469F4A38
:105C9000019B9446634451460320019361E640F220
:105CA000FF73A04640F20C0940F2030B01933CE65F
:105CB0000023002540F2040940F2010B019334E671
:105CC0004A4601231A4391460024012049E6002355
:105CD000802400250293240340F2FF7258E6012538
:105CE0006D420120801A382800DD4EE61F2800DCB6
:105CF000C1E01F21434649428A1AD3401A00202896
:105D000006D040F23E4C4346019961448B401D430E
:105D1000691E8D41290011430722150000240D4002
:105D20000A4200D1D9E00F2000220840042800D107
:105D3000D0E0081D884289414942521801001302EF
:105D400000D4C7E001220024002521E6802243463A
:105D50001203134207D0144205D1144324030D004B
:105D6000240B0297B8E78024434624031C432403F2
:105D7000240B0296B0E7002900D1F8E630186F1E18
:105D8000B04200D28FE0604500D2AAE000D1B8E076
:105D90003D00EAE6A94200D917E643466A08DF0754
:105DA00058081743ED0716E64846FFF7ADF901001E
:105DB0000200153120321C2900DC2CE74B46083844
:105DC00083400025984632E7FFF79EF903001A004A
:105DD000153220301C2A00DCFAE65446083B00212C
:105DE0009C4000E780196C1E864271D883426FD9AF
