:10000000F84C0020852800002D27000081280000E2
:10001000812800008128000081280000812800003C
:100020000000000000000000000000008128000027
:1000300081280000000000008128000081280000C5
:10004000190E0000B50E0000990F000011100000FD
:1000500071150000DD1400001D160000651600007B
:10006000492500000000000000000000291C0000DD
:10007000512100000000000000000000000000000E
:100080000000000000000000000000000000000070
:100090000000000000000000000000000000000060
:1000A0000000000000000000000000000000000050
:1000B0000000000000000000000000000000000040
:10040000FFFFFFFFDFCEFFFFFCFF0F00FFFF0F002E
:10041000FCFF0F00FFFF0F00FCFF0F00FFFF0F00AE
:10042000FCFF0F20FFFF0F20FCFF7F40FFFF7F40FE
:10043000FCFF0D40FFFF0D40FFFFFFFFFFFFFFFF31
:10044000FFFFFFFFFFFFFFFFFFFFFFFFFFFFFFFFBC
:10045000FFFFFFFFFFFFFFFFFFFFFFFFFFFFFFFFAC
:10046000FFFFFFFFFFFFFFFFFFFFFFFFFFFFFFFF9C
:10047000FFFFFFFFFFFFFFFFFFFFFFFFFFFFFFFF8C
:10048000FFFFFFFFFFFFFFFFFFFFFFFFFFFFFFFF7C
:10049000FFFFFFFFFFFFFFFFFFFFFFFFFFFFFFFF6C
:1004A000FFFFFFFFFFFFFFFFFFFFFFFFFFFFFFFF5C
:1004B000FFFFFFFFFFFFFFFFFFFFFFFFFFFFFFFF4C
:1004C000FFFFFFFFFFFFFFFFFFFFFFFFFFFFFFFF3C
:1004D000FFFFFFFFFFFFFFFFFFFFFFFFFFFFFFFF2C
:1004E000FFFFFFFFFFFFFFFFFFFFFFFFFFFFFFFF1C
:1004F000FFFFFFFFFFFFFFFFFFFFFFFFFFFFFFFF0C
:1005000010B544F22814C2F20004237863B940F213
:100510000003C0F200032BB144F6E830C0F2000043
:1005200000E000BF0123237010BDC04640F200036D
:10053000C0F2000310B54BB144F22C1144F6E83080
:10054000C2F20001C0F2000000E000BF10BDC046D2
:1005500044F6900344F6AC0244F6C000682110B59E
:10056000C0F20003C0F20002C0F2000002F0AAF8DC
:10057000F0B54400201844F24414C2F20004A4462A
:1005800044F28004C2F20004277844F28104C000DF
:100590006044C2F2000440F2080C257880248444B0
:1005A0002E00144200D13E0006702E000C4200D1F5
:1005B0003E0006722E001C4200D13E00067401303F
:1005C00064108445ECD1F0BD10B500242000013446
:1005D000002300220021A4B2FFF7CAFF402CF5D16E
:1005E00010BDC04644F6DC1144F2747010B5C0F280
:1005F0000001C2F2000000F03FFA44F24873C2F278
:1006000000030024186050B92000013400230022A8
:100610000021A4B2FFF7ACFF402CF5D110BD44F689
:10062000900344F6DC0244F6C0002621C0F2000329
:10063000C0F20002C0F2000002F044F844F2447339
:10064000012244F2441144F27470C2F2000310B566
:10065000C2F200011A70C2F20000072340F20062E9
:1006600000F000FA44F24873C2F20003186000B9C7
:1006700010BDFFF76DFFC04644F244730022C2F282
:1006800000031A707047C04610B5037903B110BD5E
:1006900044F6F000C0F2000000F012F8F7E7C046A0
:1006A00010B544F2A47444F60C21C2F20004C0F266
:1006B0000001200001F0B0FC200001F05FFC10BD43
:1006C0000FB410B59AB01CAA02CA01A8009203F098
:1006D0003FFD01A803F01EFD44F24C74020044F2F9
:1006E000D4700123C2F2000401A9C2F200002370F9
:1006F00000F0CAFC2378002BFCD11AB010BC08BC57
:1007000004B0184744F68C2144F2D47010B5C0F2FE
:100710000001C2F2000000F05DFD10BD0379022B64
:1007200005D144F24C730022C2F200031A707047E4
:1007300000B595B0FFF756FFFFF746FF0023FF22F5
:10074000FF210220FFF714FF0023FF2200210320D6
:10075000FFF70EFF0023FF2200210420FFF708FF10
:10076000FFF76CFFFFF7CEFFFFF79AFF44F6F801A3
:1007700044F60410C0F20001C0F20000FFF7A0FF31
:1007800040F2E831142001F0A3FF4AF21E320023A8
:10079000C6F2622202A968460092019303F0BCFAF5
:1007A00044F6B41144F25C70C0F20001C2F20000E1
:1007B00001F050F944F25073C2F20003186070B1B6
:1007C00044F6081344F61C1244F630103521C0F2EA
:1007D0000003C0F20002C0F2000001F073FF44F217
:1007E0005C7002A9C2F2000001F0BAF840F2E831F0
:1007F00040F2D07001F06CFF44F25C700BA9C2F2C1
:10080000000000F069FF40F2E831080001F060FFED
:1008100044F648100E99C0F20000FFF751FF44F66D
:1008200054100F99C0F20000FFF74AFF44F6601021
:100830001099C0F20000FFF743FF44F66C100D99C9
:10084000C0F20000FFF73CFF44F678100C99C0F2AC
:100850000000FFF735FF44F684100B99C0F200004A
:10086000FFF72EFF44F690101199C0F20000FFF739
:1008700027FF44F69C101299C0F20000FFF720FFFA
:10088000FEE7C04600B583B040B94CF200039022A9
:100890000121C4F27E03995403B000BD0228FBD1AC
:1008A00044F6A81344F25470C0F200035B68C2F22D
:1008B00000001900019301F0FFFAEDE710B5FFF712
:1008C00037FF002010BDC046F0B50400806A85B037
:1008D0008C4601AD90B12B000200C2CAC2C363684E
:1008E0001B78036063460371E36A8360636A984719
:1008F000A36A0BB107CD07C305B0F0BD2800EEE732
:10090000F0B50E004021C64604000F0000B51D00E2
:1009100006AB1878A3681B781F40194200D073E01B
:1009200020236761A761E6602261E561E0546368A6
:100930005F690FB37B68A5611968CB780F2857D919
:100940003020834320200343CB7040F20C08404604
:100950008B78834308208446604603438B70ABB298
:10096000CB818A60002A67D0BB6838685B6898478B
:10097000D8BB20226368A05C1A69E2B15368656144
:100980001968CB780F2839D93020834320200343BE
:10099000CB700C200827CB78ADB283433B43CD818D
:1009A000CB704E60002E51D0936810685B689847FA
:1009B000D8B92023E05CA268D17A148AC9B2A4B263
:1009C0000F2823D940230130994383082020053B79
:1009D00001432348D172044018024021204380B2D1
:1009E0001082002013780B43137080BCB846F0BD12
:1009F000072811D830208343CB70A6E7072811D8E9
:100A000030208343CB70C4E70820EEE707280FD8D7
:100A1000402319430300DCE73020834310200343C5
:100A2000CB7092E73020834310200343CB70B0E7B4
:100A3000602399430300CCE742468B7893438B7045
:100A400044F60403C2F200038B608DE7DBB28343FC
:100A5000CB7044F60803C2F200034B60A4E7C04623
:100A6000FFF0FFFF00B583B0009313000022FFF7F3
:100A700047FF03B000BDC04640F22072F0B54546C6
:100A80005746DE464E46C0F240029446E0B50B782B
:100A90000F6963441B021A1D04000D00904687B0C5
:100AA000002F00D191E18022796812050B68386827
:100AB0001A6042469A60BB681B6898470600002887
:100AC00000D07AE16B6973B18020596800030A682D
:100AD00010604046506018689B681B689847060085
:100AE000002800D08EE140F22072C0F2400294460D
:100AF0002B7863441B02AA6965606262EA69A3609D
:100B0000E2620022A2626B7A9C46002B00D06FE169
:100B1000B82008211026EB7A6F7B2A6A3F035B001E
:100B20003B43AF7A15783B430DB1B1200843517870
:100B30007027CD01A8434D0049012943014301918C
:100B4000D0789578BB438540029511791F0000014C
:100B500031B102394B1E99410F234942994330313B
:100B6000537923B1012B00D151E101231E43937925
:100B70000393137A9B071B0F034360463B430028F4
:100B800000D039E1507A4EF200070490907A3B434E
:100B90000590D07A8346EFF3108A012080F3108805
:100BA00046F6FC70C4F20400476840F21309B846E8
:100BB00067683F78BC464F4665467F1BB9460127AC
:100BC0004D46AF40B94647464D46AF434760406843
:100BD0008AF3108840F20008A068F6B2C57845464E
:100BE000C5706D462D799BB205706D462D7A4570A6
:100BF0008170D2794EF200118272049ACEF2000115
:100C00000273059A8C4642735A468273C6730382F6
:100C10002023039A6668C2540223F35640F200353B
:100C20009A089200944462465259B0799146032240
:100C30001A40D2009046FF22414617008F40B84626
:100C40008001104088404F46414644F654088F4387
:100C50006146C2F2000838434851414646F2000C52
:100C6000980044501800C4F2000C6146C030800067
:100C70004158684F3940894661464F4647501F20CA
:100C800001211840814008004EF20011CEF200010F
:100C9000894640F280175B099B004B44D85118608D
:100CA0000123F356980880008144494649597079D8
:100CB0008B4603211940C9008A46800110405746DF
:100CC00088401100B9408A4659465746B9430843FF
:100CD0004946485141469800445018006146C0308A
:100CE000800041584B4F3940894661464F46475036
:100CF0001F2001211840814008004EF20011CEF261
:100D00000001894640F280175B099B004B44D85193
:100D100018600423F35698088000814449464959D5
:100D2000307A8B4603211940C9008A468001104061
:100D3000574688401100B9408A4659465746B9433C
:100D40000843494648514146980044501900C03173
:100D5000880061462F4F41583940894661464F46C9
:100D600047501F21012719408F404EF20011CEF24B
:100D700000018C4640F280105B099B0063441F50C9
:100D80001F600327F7570321B808800060444359C8
:100D900039409C46F379C9009B0113408B408A403F
:100DA000614691430B4343514346BF00FC5045F21B
:100DB00049030026C5F253232360300007B0F0BC7E
:100DC000BB46B246A946A046F0BD4A69002A00D1FA
:100DD00091E68020516800030B6818604046586017
:100DE000936810681B68984706000028E5D17AE6EA
:100DF000B020002100268EE6002040F2000B059076
:100E00000490C8E6BB6838681B6A9847D5E7032397
:100E10001E43ACE6FFFFFEFF30B5EFF30383103B4C
:100E20005BB21A0046F20001C032C4F20001920027
:100E300050581F4C9B002040505044F65402C2F2C0
:100E400000029B589A69D9698A4219D0186930B34F
:100E500020241C5D0F2C09D999684C6891000C5016
:100E6000D96901329A618A420AD030BD072C19D85B
:100E7000996809798154D96901329A618A42F4D119
:100E800003221F215B689A561140530901228A40B0
:100E90004EF200119B00CEF200015A50E5E798682F
:100EA0004068DEE79C68A58854000553D9E7C04632
:100EB000FFFFFEFFF0B5C64600B5EFF30383103B1E
:100EC0005BB21A0046F20001C0329200C4F2000187
:100ED0005058304D9B002840505044F65402C2F206
:100EE00000029B585868026A002A2ED05678DC69A6
:100EF0005A69012E16D094420BD0D96841B32020F4
:100F0000185C0F2808D99400986861584160013234
:100F10005A6180BCB846F0BD07281CD8895C986827
:100F20000171F4E7671EBA421AD001690029E2D0C4
:100F3000032545571F20284086404EF200106909BE
:100F4000CEF2000089000E50D5E75A69DC69D2E77D
:100F500098684160DBE75000415A98688180D6E785
:100F6000C07840B207008046C037BF0078580540BF
:100F70007D5040461F2101408E404EF20011CEF2BE
:100F800000018C4640F280114009800060444650C8
:100F90000660B0E7FFFFFEFF10B5EFF30383103BE1
:100FA0005BB21A0046F20001C032C4F200019200A6
:100FB0005058164C2040505044F654029900C2F24A
:100FC000000288588268D278920704D54268527A23
:100FD000012A00D010BD1F215A090B401E3999402B
:100FE00013004EF200142033CEF200049B0019517E
:100FF000BFF34F8FBFF36F8F4021826813788B430D
:1010000013703F39FFF760FCE4E7C046FFFFFEFFC7
:1010100070B5EFF3038444F654034021103C64B2EE
:10102000C2F20003A200D658B3681A788A4300219E
:101030001A70DA78D970D5B2130710D4EB0714D42C
:1010400014232B40142B18D046F20003C034C4F2F2
:101050000003A400E2580B490A40E25070BD300082
:101060000531FFF731FCEB07EAD504213000FFF72B
:101070002BFC14232B40142BE6D108213000FFF762
:1010800023FCE1E7FFFFFEFFF8B504007B230D0022
:10109000006AA6788178E7690B408370B3079B0FDD
:1010A0003F69D21AE9182261E16007B15AB9802379
:1010B00082781A437D3B82703340022B19D02B7803
:1010C000C3700020F8BD013BDA40002093B2BA683B
:1010D0002061966838680022B0470028F2D180234A
:1010E000206AA67882781A437D3B82703340022BB7
:1010F000E5D14FF600622B881343C3810020E1E75E
:10110000F0B51F2501241540AC404EF20015C6462F
:1011100053092033CEF200059B0000B588465C5190
:10112000BFF34F8FBFF36F8F130046F20004C0333D
:10113000C4F200049B001D59114E4EF200113540BF
:101140001D51FF240325CEF200018C46210040F200
:1011500000371540ED00A94093089B006344DE5919
:1011600092008E43414689010C40AC403443DC512F
:1011700044F65403C2F20003D05080BCB846F0BD20
:10118000FFFFFEFFF0B5C64600B50500806A84B0DB
:101190008C4690466C46D8B12300060086CE86C3A6
:1011A00036681E60EB691B780360634683604346C4
:1011B0000371EB6AC3606B6A9847AB6A23B107CCD3
:1011C00007C31A002368136004B080BCB846F0BDA2
:1011D0002000E7E743F60002C0F200229446F0B593
:1011E0004546DE4657464E460B78E0B563445B0104
:1011F0000362002303704A690D0042628A69C1617B
:10120000C2620322012183628378040093430B436B
:1012100083706B7883B023B983789343022213439E
:1012200083700B222000AA56A97AFFF769FF0522D6
:101230002000AA562979FFF763FF07222000AA564B
:10124000A979FFF75DFF09222000AA56297AFFF746
:1012500057FFEB68C3B18020596800030A68E6694C
:101260001060206A471D576076783EB93027D678DF
:101270001030BE4310273E43D670506018689B68FC
:101280001B689847060000BB2B6933B38020596860
:1012900000050A68E6691060206AC71C97607678C6
:1012A0003EB93027D6780E30BE4310273E43D67065
:1012B000906018689B681B689847060068B1EB68E7
:1012C0001BB118689B681B6A9847300003B0F0BCDC
:1012D000BB46B246A946A046F0BDEFF310860120FA
:1012E00080F31088802146F6FC732F780906F940B8
:1012F000C4F204035A688A435A605B6886F3108814
:101300000022236A29789A701A715A729A72DA72D4
:101310005A8340F20722CA40104201D04022DA74B8
:1013200006221A776978AA78E878EE692D780DB9DF
:10133000684D9D821201C0000243032900D1BBE029
:10134000481E81410901E231D2B21A70022299711C
:10135000317BFF2549000A4020215A737278B0780A
:10136000D201400101402A400A430021307819721D
:10137000811E0190012900D8A2E003257168D2B234
:10138000DA718A7848785A701A782840AA4302435A
:101390001A70CA7859359A74D8790A78A8432A40BD
:1013A0000243DA710022E26022616261A261E269B5
:1013B00046F200019146527940F21F0C52B21000E1
:1013C000C030C4F2000180004558434F40F2C00ACB
:1013D0003D4045506546B84601271540AF404EF2A6
:1013E0000015CEF20005AB4640F28015520992007E
:1013F0005A44575117604A46D27A404652B29244F4
:101400005746BF00BA467F58074050464750674688
:101410001740BA460127504687404EF20010CEF2E0
:1014200000008346520992005A44575117604A46B9
:1014300040F2C00AD27952B29244504680008246AD
:1014400040580700404607405046475067461740FF
:10145000BA460127504687404EF20010CEF20000F7
:101460008346520992005A44575117604A4640F247
:10147000C009527A474652B291444846800081469C
:101480004058074048464750614601201140884077
:10149000520992005A44505110600322019F174094
:1014A0006D3217439F7073890026238144F65513CC
:1014B000C5F24333636008E73D310A43B23143E785
:1014C0005D70022802D0D2B2DA716BE710210A43B4
:1014D000F9E7C04600F8FFFFFFFFFEFF70B5EFF32E
:1014E0000383103B5BB21A0046F20001C032920047
:1014F000C4F2000150581D4C9B002040505044F64F
:101500005402C2F200029858C3691B6913B10369FF
:1015100013B170BD036983B97F23026A91780B40D0
:1015200004210B4393700023C360436A002BF0D067
:1015300080220021FFF726FEEBE70321827811408D
:1015400002290AD0C168056A0C78EC709207920FE4
:101550009B1A8A180361C260DAE74FF60065C1681A
:101560000C882C43056AEC81F0E7C046FFFFFEFFC4
:1015700010B582B0EFF30383103B5BB21A0046F262
:101580000001C0329200C4F200015058224C9B006E
:101590002040505044F65402C2F200029C58E369C5
:1015A000A069DB685BB150B10023A3616361636A2A
:1015B000ABB1012200212000FFF7E4FD0FE003237F
:1015C000A2781340022B0CD0236A5979C9B2019139
:1015D00078B9636A1BB104222000FFF7D3FD02B083
:1015E00010BD40F2FF11236A1B8A194001910028A7
:1015F000EFD09207920F606901A902F045FCA37831
:1016000062699B079B0FD2186261A269D31AA3611A
:10161000002BE4D1CBE7C046FFFFFEFF10B5EFF390
:10162000038444F65403103C64B2C2F20003A200E7
:10163000D0587B23026A91780B409370436A1BB1A8
:1016400002220021FFF79EFD46F20003C034C4F2DF
:101650000003A400E25802490A40E25010BDC0460F
:10166000FFFFFEFF70B5EFF3038444F65403103C14
:1016700064B2C2F20003A200D05803238278134060
:10168000022B20D0036A5979C9B238221D792A4029
:10169000ED0602D51D7FED0712D538261D79B5431D
:1016A0001D71436A0BB1FFF76DFD46F20003C034B4
:1016B000C4F20003A400E25806490A40E25070BD9B
:1016C00040252A43E9E740F2FF11036A1A8A1140D4
:1016D000DBE7C046FFFFFEFFF0B5DE4657464E464D
:1016E0004546E0B5436884465B7C8A465BB29B46D0
:1016F00085B0002B00DAB5E05B091A0003934EF2C7
:101700000013594694001F22CEF200031B590A40D1
:10171000D34001221100194002911A4229D144F20A
:10172000000222210220C4F20402535C03435354FA
:1017300020302039135C1942FCD05B4646F200028F
:10174000C033C4F200029B00995858480140995098
:101750005B461F221A40012393404EF20012CEF244
:101760000002904640F280124444A35023600023BC
:10177000029344F2000340F20009C4F204036246FB
:1017800049461172987819799F791E7A9D7A1C7B47
:10179000DA89C0B292B201926246127AC9B2FFB23D
:1017A000F6B2EDB2E4B2002AE9D1019A8946D2B28A
:1017B0009046020991008C46624440F20F0C61464B
:1017C0005200084010185246C0B210604A46120932
:1017D0009000121848465200084011185246C9B2EB
:1017E0005160BA06920F91005218614652000F40A4
:1017F000D7195246FFB297603209910052186146DC
:1018000052000E4096195246F6B296612A0991008E
:101810005218614652000D4055195246EDB2D5603E
:10182000220991005218614652000C401419524688
:10183000E4B2013C1461424612099100521840463C
:1018400061465200014052185146D2B264324A6198
:10185000029A5AB1002005B0F0BCBB46B246A94678
:10186000A046F0BD5B0903939C0058E722210220AB
:101870005A5C82435A5444F200022030C4F20402FB
:101880002039135C1942FCD15A461F231340012210
:101890004EF200119A40039BCEF2000120339B00D0
:1018A0005A50BFF34F8FBFF36F8FD3E7FFFFFEFF99
:1018B000F0B5C64644F20005242400B5C4F2040580
:1018C0002C5DE406E40F84421DD000262E242E5504
:1018D0002E36AC5D002CFCD1012640F2100C2427E2
:1018E00006403601B0466646EC5DB4434646344396
:1018F000EC5544F200052426C4F20405AC5DE40670
:10190000E40F8442FAD1012811D03F2192010B400B
:1019100044F200011A432E232E20D2B2C4F2040155
:10192000CA540B5C9A42FCD180BCB846F0BD44F26C
:1019300000042426C4F20404A55DAD06ED0F8D421B
:10194000E3D02027A55D0840BD434001284324255E
:10195000A055605D8006C00F8142FAD1D5E7C04630
:10196000F8B544F2000324240125C4F204031A5DEF
:10197000AA431A551A5DD207FCD40A220E78B6FB88
:10198000F2F7BD00ED196D00751B0E793C01B6FB39
:10199000F2F72C43BD00ED19E4B26D009C70751B8D
:1019A0003C012C430D7AE4B2B5FBF2F71C71BC008C
:1019B000E41964002D1B3E012E433F2535400E7E69
:1019C0009D71B6FBF2F7BD00ED196D00751B0E7B26
:1019D0003C01B6FBF2F72C43BD00ED19E4B26D00FB
:1019E0001C72751B3C012C43E4B29C720C69496962
:1019F0000134E4B2B4FBF2F76439C9B2B1FBF2F2DC
:101A0000BE00F61976003D01A41B2C43E4B29500FC
:101A10001C731401AA185200891A2143C9B2D98132
:101A200043681A786AB144F2000224210120C4F20A
:101A30000402535C03435354535CDB07FCD5002082
:101A4000F8BD98684368827841780078FFF730FFE6
:101A5000E9E7C046F0B5C6464B6900B5C3608B697F
:101A60000F22436100234160036103728A5605001F
:101A70000C00002A20DB4EF20013CEF200039C463D
:101A800040F2003891088900614440F2FF0C43465F
:101A900003206646CF58A37B1040C0009B01334013
:101AA000864083404046B7433B430B5044F65403C3
:101AB0009200C2F20003D5500D22A256002A20DB6C
:101AC0004EF20013CEF200039C4640F2003891081B
:101AD0008900614440F2FF0C434603206646CF581C
:101AE000237B1040C0009B0133408640834040462A
:101AF000B7433B430B5044F654039200C2F2000339
:101B0000D5501122A256002A20DB4EF20013CEF24D
:101B100000039C4640F2003891088900614440F27D
:101B2000FF0C434603206646CF58237C1040C0007C
:101B30009B013340864083404046B7433B430B50B4
:101B400044F654039200C2F20003D5504EF2000353
:101B500040F21042C4F201039B5CD9B2012B11D0B8
:101B600044F200022421C4F20402535CDB07D80FC4
:101B7000ABB145F24343C0F2520300202B6080BC5E
:101B8000B846F0BD44F200022420C4F20402135C03
:101B90008B4324211354535CDB07FCD4E0E722334E
:101BA000D0542378505404315354B3B30121BE2090
:101BB00000F08EFD44F2000224210120C4F2040250
:101BC000535C83435354535CDB07D80F002BFAD18B
:101BD0004026535C334353546B681B78012B02D16E
:101BE000A3885085938544F2000224217F23C4F208
:101BF0000402505C03405354535CDB09002BFBD1BF
:101C00000220535C0343535444F200022421C4F2E3
:101C10000402535C9B07FCD4ABE740F2E83164203C
:101C200000F056FDC6E7C046EFF3038344F65402C6
:101C3000103B5BB29900C2F200028A580121117276
:101C400046F20002C033C4F200029B0099580248D9
:101C5000014099507047C046FFFFFEFF002303601C
:101C600000207047FF2010B540F600040B0A084022
:101C700019010918C4F2040489000B5900209B07BC
:101C8000DB0F137010BDC0460023C4F204039C4652
:101C9000090A490161444B68002013807047C0461F
:101CA0000020C4F2040084461800090A904300048E
:101CB000134049010343614400208B607047C046D4
:101CC000FF2001230840834052B91B040022C4F2C4
:101CD00004029446090A4901614400208B60704760
:101CE0004FF6FF721340F1E70020C4F2040084466F
:101CF0001800090A490110B561440C6810402043DE
:101D0000934398430860002010BDC0460023C4F2EE
:101D100004039C46090A490161444B6800201B0CDE
:101D2000138070470020C4F2040084460B0A5B0154
:101D300063445868FF231940FE3B8B40000C99B266
:101D400003405B1A59424B41002013707047C04654
:101D50000020C4F2040084461800090A90430004DD
:101D600013404901034361440020CB607047C046E3
:101D7000062070470B0A10B55B01012A10D0002223
:101D8000C4F204029446FF208022014052028A409D
:101D90006344DC682243120C12040020DA6010BD98
:101DA0000020C4F204008446FF2001408A40110054
:101DB0004FF6FF726344DC68114021430A40ECE7B0
:101DC000F0B5DE4657464E464546E0B583B0EFF3E4
:101DD0001082012383F3108844F65003C2F20003FB
:101DE00001931B6833B940F60051C4F20401CB7073
:101DF0004033CB7001990B6801330B6082F310887C
:101E000003889A46BBB3802340F600055B029946DF
:101E1000284B002240F2FF089C464168C4F20405AA
:101E20000AE043461E4023019B1901329B0092B2F7
:101E30005851083192451ED04B468E880868340AA6
:101E40001842EED043461E4023019C19A700644669
:101E500000977F599B1927403C00009F01327C511D
:101E6000674607403C00009F9B0092B27C510831BE
:101E700058519245E0D1EFF31082012383F310888B
:101E8000019B1B681BB101990B68013B0B60019B17
:101E90001B6833B940F60051C4F20401CB708033A3
:101EA000CB7082F3108803B0F0BCBB46B246A946A3
:101EB000A046F0BDFFFFFEFF45F2542310B5C5F26A
:101EC0004F0303600800FFF77BFF002010BDC046F2
:101ED00010B50800FFF774FF002010BDF0B5EFF358
:101EE0001084012383F3108844F65003C2F20003E8
:101EF000186830B940F60055C4F20405E870403067
:101F0000E87018680130186084F31088D00321D479
:101F1000FF24080A0C40010140F600000919C4F230
:101F2000040089000A50EFF31082012181F3108828
:101F3000196811B11968013919601B6833B940F685
:101F40000051C4F20401CB708033CB7082F310884F
:101F50000020F0BDFF2440F60005080A0C400101F6
:101F60000819C4F2040580004759034E3740164053
:101F700047514651D0E7C046FFFFFEFF8368C26865
:101F800000205A607047C046F0B5CE46474680B53F
:101F900000283ADB40F2FF094EF2001403254E46BA
:101FA000CEF20004A44640F200370540ED00AE40FA
:101FB00083089B006344DC598901B44326004C46E6
:101FC0000C40AC403443DC5144F654038100C2F26F
:101FD0000003CA50030046F20002C033C4F20002FC
:101FE0009B0099580B4C214099501F22012302401D
:101FF00093404EF20012CEF20002944640F280125C
:1020000040098000604483500360C0BCB946B046BC
:10201000F0BDC046FFFFFEFFF8B50A000B7C0121B2
:102020000400080098406260E060002B00D16DE081
:10203000217440F28071C0F240018C46002063445C
:102040001B02A3605369D56963619369A061E36171
:10205000EFF3108C012383F31088117C46F6FC7695
:102060004B425941C4F20406F7684B01413B3B40E7
:10207000F360F3688CF310884AF20051A36819608A
:10208000D862D8639864167A5168F605DE628026B5
:1020900036061E615E619E61AE6958629862DE61BD
:1020A000EE6901391E62882699665966E96A986365
:1020B000985131B920312130695C285C49034007CF
:1020C0000143AA20C0031864E068D8605963032163
:1020D0001220196302391963517C10562200FFF750
:1020E00053FF2223E95C0233E8562200FFF74CFF3E
:1020F0002323E95C0233E8562200FFF745FF45F24F
:102100005403C0F2470300202360F8BD237490E716
:10211000F0B5C64600B50500806984B08C4690468F
:1021200001AC98B12300060086CE86C363460371D6
:1021300043468360EB6903606B699847AB690BB1F9
:1021400007CC07C304B080BCB846F0BD2000EDE763
:10215000F8B5EFF30383103B5BB21A0046F20005BB
:10216000C032C4F2000592005159154C980021402C
:10217000515144F65401C2F20001405841680978B7
:10218000012915D18668C768B7600027B764F7646E
:1021900037655659344054511F245A0923409940F9
:1021A00013004EF200146033CEF200049B0019516C
:1021B00043691BB100220021FFF7AAFFF8BDC0460A
:1021C000FFFFFEFF70B5042482B001910092045716
:1021D00046F200022500C035C4F20002A90088586A
:1021E0001F4E30408850895845F2004048F20002A6
:1021F000C905C90D1143C4F20000C2898A42FCD04E
:10220000082244F200010270019AC2F200012AB3CE
:10221000A2008858019C4460009810B18858009C26
:1022200084603F208958CA788243802A14D002B93A
:10223000CB8145F200431822C4F200031A7046F223
:1022400000028021C4F20002AD00A85849040143F5
:102250000020A95002B070BD8B81EAE7A200DBE745
:10226000FFFFFFFE0620704706207047042346F25A
:1022700000028021C356C4F20002C0339B0098586C
:1022800049040143995000207047C046042346F298
:102290000002C356C4F20002C0339B0099580248A2
:1022A0000140995000207047FFFFFFFE042244F2D6
:1022B000000310B58256C2F200039200D2580023E8
:1022C0003F200B604B60D37883434BB1C1308860B3
:1022D000D48901382040C860802B07D0002010BD71
:1022E00080235B028B60D389CB60F7E780235B029E
:1022F0000B6093894B60F1E7042330B5C35646F277
:1023000000011A00C032C4F2000192005458064D78
:102310009B002C40545044F200020021C2F2000203
:1023200099500160002030BDFFFFFFFEF8B544F674
:102330000C03CE464746C2F200031A7880B58146A8
:102340000F00002A39D07B681B785BB2002B59DB69
:1023500044F200059E00C2F20005AA5908201AB1F5
:10236000C0BCB946B046F8BD4A4613713B683F2130
:102370009C46F730DA781F008A433AB1DA899046F2
:102380004446D2B2044012022243DA81BA781033B2
:102390008A43002AEED145F200430832C4F200031A
:1023A0001A706246AA5118221A7044F200334A4643
:1023B000C4F2544300201360D2E701261E70EFF3ED
:1023C000108186F310884EF20003C4F20103DA692B
:1023D0000D480240DA61DB6981F3108844F20005A0
:1023E000C2F2000580220021280001F056FD45F2CE
:1023F0000043C4F200035D601E737B681B785BB210
:10240000002BA5DA0B20ABE7FFFFBFFFF0B5C646F8
:10241000042300B5C356C022984646F20003424446
:10242000C4F2000394469200D058204C2040D05073
:10243000D25845F2004048F20003D205D20D1A43AB
:10244000C4F20000C3899342FCD00B003F24FF2656
:10245000DA781D00A2432AB1DF89F8B202023740C0
:102460003A43DA81AA781033A243002AF0D145F228
:1024700000430832C4F200031A70404644F20002DE
:102480008700C2F20002B95018221A70624646F262
:10249000000395008022C4F20003E95852040A4365
:1024A0000020EA5080BCB846F0BDC046FFFFFFFEEA
:1024B00070B5C56904000E0088B0A5B120222900BE
:1024C000684601F0E1FC20223100280001F0DCFC2C
:1024D0002800A3699847E06918B12022694601F0F5
:1024E000D3FC08B070BD0D00F2E7C04630B5020065
:1024F00089B0EFF3038344F65401103B5BB2C2F2A0
:1025000000019B005858EFF3038346F20001103B93
:102510005BB2C0339B00C4F200015C58094D2C40F3
:102520005C506B469A706A4643681B881380002390
:102530001372036A0193836913B16946FFF7B8FF09
:1025400009B030BDFFFFFEFF10B50020FFF7CEFF42
:1025500010BDC0464EF20003262244F21411C4F20C
:102560000103985C1B6A8000C2F2000141585B01C4
:102570005B0F44F6E002D940C2F2000211607047DE
:102580004EF2000340F2FE324B49C4F2010370B533
:1025900099524CF20002002043F6C871C4F27E0248
:1025A000505444F2141446F60042C2F20004C0F241
:1025B000DC22226041F20022C0F27A02626048F21C
:1025C000000242F20041A26022612622C0F2F40120
:1025D000E160995C1A6A890061585201520F44F611
:1025E000E005D14040F21342C2F200052960985440
:1025F0000921A222995440F28042995C002953D0CB
:102600004EF20003002240F28141C4F201035A5409
:1026100001395A54A0329A5CCAB136229A5C1AB96E
:102620003C215A5CD207FCD54EF20002A021C4F234
:102630000102535CDB06D80F002BFADB50544EF23C
:102640000002A021C4F20102535CDB06FCD44EF26E
:10265000000200213623C4F20102D1543C31535C04
:10266000DB07FCD501213123D1544FF6C473C4F2EA
:102670007E03197000202623D0540130FF301062F1
:10268000D05C136A800020585B015B0FD84040F299
:10269000FE3328600948D0524CF2000343F6C8725A
:1026A000C4F27E03995470BD013140F2C440995484
:1026B00000F00EF8A4E7C04603A5FFFF00A5FFFF4A
:1026C0007047C04600BEFEE701380028FCD17047C5
:1026D00044F6E0024CF600234143C2F2000270B51A
:1026E0001468C3F69A330D00B3FBF4F4080040F20B
:1026F000E8320023002100F0AFF931B9B0FBF4F06B
:10270000800808B1FFF7E0FF70BDA000B5FBF0F056
:1027100040F2E8320023002100F09EF90029F0D0B9
:1027200001204042FFF7D0FFEEE7C046F8B546F281
:10273000000340F2401244F6100500240127C4F2C1
:1027400000039E5AC2F20005B6B23300E340E0B285
:102750001F4202D02B6803B1984701340435102C76
:10276000F3D146F2000340F23012C4F200039E524D
:10277000F8BDC04646F200000023C4F2000044F653
:102780003032C0F200029A1811781A00C03292005A
:1027900001331150202BF2D17047C04670B5EFF3D2
:1027A0001081012383F3108844F6D4034000C2F261
:1027B00000031A5A1AB11A5A013A92B21A521B5A03
:1027C00083B94EF2000240F2FE3544F6AC34C4F256
:1027D0000102565B054BC0F20004205A3343834389
:1027E0009BB2535381F3108870BDC04600A5FFFF14
:1027F00070B5EFF31081012383F3108844F6D402FF
:102800004000C2F20002135A83B94EF2000444F6AB
:10281000AC3540F2FE36C4F20104C0F20005A35B01
:102820002D5A2B434AF200552B43A353135A01331D
:102830009BB2135281F3108870BDC04644F6DC028F
:10284000C2F200020300106810B558B1032103332F
:102850008B4344F6F801C318C2F200018B4207D83B
:10286000136010BD44F6F800C2F200001060EDE7FE
:1028700001F04CFA0C23036001204042F1E7C0460E
:1028800000BE704710B500F003F8FEF717F8FEE73A
:1028900040F200034EF6005270B5CEF20002C0F2D4
:1028A000000382B093600020FDF7ECFFFFF768FEA5
:1028B0006B460026DC1D267001202378FFF798FF69
:1028C000EFF31081012585F3108846F6FC73C4F2FE
:1028D00004039A683D4802409A609A6881F3108820
:1028E00040F60001C4F204010A68D207D20F227038
:1028F0000A68D207D20F22700A68D207D20F22705C
:10290000EFF3108185F31088802298685205024306
:102910009A609B6881F310880120FFF73FFF012038
:10292000FDF7B0FF40F60053294AC4F200039E8031
:102930001A8044F6F802C2F200029A6044F6F842A5
:10294000C2F20002DA6046F2000240F2201141F2C7
:102950000000C4F20002505244F6F40244F228107F
:10296000C2F20002C2F200009D800021121A01F0A2
:1029700094FA44F2800044F2141244F63451C2F244
:102980000000C2F20002121AC0F2000101F07CFA4B
:1029900044F20C1544F21013C2F20005C2F2000317
:1029A0005B1B9E10002B05DD002408CD01349847E9
:1029B000A642FADCFFF7CEFD0220FDF763FFFFF72A
:1029C000D9FE0020FFF77CFE02B070BDFFFFFFEFD5
:1029D00000A5FFFF1C2101231B04984201D3000C1A
:1029E00010391B0A984201D3000A08391B09984282
:1029F00001D30009043902A2105C40187047C04698
:102A000004030202010101010000000000000000B7
:102A1000002B15D1002A13D1002906DB01DC002888
:102A200006D00020C043410802E0802109060020B2
:102A300007B4024801A14018029003BD910F0000A5
:102A400003B4684601B5029800F034F8019B9E4635
:102A500002B00CBC7047C046F0B54FF6FF75CE46CD
:102A6000474699462B0015400E0029000340140CE0
:102A700080B50700000C59434543634360435B192D
:102A80000C0CE4188C46A54203D980235B029846BF
:102A90004044230C61461B1820044FF6FF740C4081
:102AA000494679437243C91800198918C0BCB94610
:102AB000B046F0BDF8B5CE46474680B5914698463B
:102AC00004000D0000F084FF07000E0002000B0060
:102AD00048464146FFF7C0FF241A8D41089B380045
:102AE00031001C605D60C0BCB946B046F8BDC04650
:102AF00003685A0004D5802212061343C018704799
:102B00005B005B08FAE7C046F8B557464546DE4627
:102B10004E469046E0B5070021B34B1E9A469946B3
:102B200040F2000B5B464B44DC0FE4186410E500F8
:102B30007E193000FFF7DCFFA2450CD040450CD8D1
:102B4000280008303818FFF7D3FF013840450AD273
:102B5000631C9B46E6E7404505D9A34502D0631EAA
:102B60009946DFE700263000F0BCBB46B246A946D6
:102B7000A046F8BD0300012804D002280CD0002094
:102B80002BB1704743F28520C0F20000F9E743F211
:102B90007920C0F20000F4E743F29120C0F2000077
:102BA000EFE7C04640F2000330B5C0F20003050075
:102BB00083B08C1E2BB3200001A900E000BFE0B160
:102BC00001992200FFF7A0FF0400B0B1FFF790FFCA
:102BD0006368A864012B30D0201D002B29DBFFF790
:102BE00087FF0023E8642B650368002B15DBFFF7E4
:102BF0007FFF2861002003B030BD002309202B6136
:102C0000F9E744F6345344F61C40C0F20003C0F226
:102C100000001B1AD9100191D3E71801000FFFF72C
:102C2000A9FF2861431E9841082340429843093078
:102C3000E1E70123E8642B65D6E7002305202B613B
:102C4000D9E7C046036810B50400DA0705D49B072E
:102C50000AD5483000F06EFC23685A070AD51A07D7
:102C60000FD5DB0615D510BD483000F05FFC23689A
:102C70005A07F4D42000D03000F060FC23681A0713
:102C8000EFD420005130FF3000F05CFC2368DB06FD
:102C9000E9D42000D130FF3000F058FCE3E7C04613
:102CA000092070470300006800B1C0187047C04693
:102CB0007047C04670B504000D002000296CFFF776
:102CC00071FF88B92B6C2A00636121000120236900
:102CD00098470828F1D0072806D10020296CFFF773
:102CE000E7FF281D00F00CFC01F008F8F0B5CE4617
:102CF000474680B5C3682F4C9846A54483690400B5
:102D000016000431402205A8994601F0BDF80023C1
:102D1000049324E0149B40F2E012636104A97CA8B0
:102D2000039301F0B1F82100280023697CAA984799
:102D30008A9B0500039315934B46019304AB0093C4
:102D40002200230031000120C04708BB40F2E012FE
:102D50007CA904A801F098F80026082D21D1149B25
:102D6000200019000393FFF71DFF09360700F5B295
:102D70000028CFD0129B1021039315934B4601934B
:102D800004AB00932200230001202943C04700B177
:102D90000927380040F2D4339D44C0BCB946B04640
:102DA000F0BD072DF4D130001499FFF781FF05A87D
:102DB00000F0A6FB2CFCFFFF406C704770B5CB6B9E
:102DC000FAB00B6405000E004022043103A801F0A4
:102DD0005BF801235B42029306E029002B6902AAFB
:102DE0009847040008280AD1129B28001900019373
:102DF000FFF7D8FE0028F0D009207AB070BD02A8F5
:102E0000FFF720FF062CF7D131002800FFF752FF13
:102E100010B58261DA6BC1601A6419000022FFF7F5
:102E200065FF10BD436970B50B64C36804000D00F5
:102E30009BB90A002369010002209847072805D0A2
:102E400008280FD129002000FFF734FF0020296C4B
:102E5000FFF72EFF281D00F053FB0122FFF746FF6E
:102E600000F04CFF00F04AFFC36810B52BB1CB6BEC
:102E700000220B64FFF73AFF10BDFFF79FFFFBE74F
:102E80007047C0468368010010B50BB10120984718
:102E900010BDC046012914D009D883B90F2A0ED815
:102EA000920082185268009B00201A6006E0012000
:102EB0000339C9B288428041404201307047022044
:102EC000FCE70120FAE7C04600B585B003AB0A0075
:102ED000009300210023FFF7DDFF039805B000BD3C
:102EE000012914D009D883B90F2A0ED8009B92006B
:102EF0001B6882185360002006E001200339C9B224
:102F0000884280414042013070470220FCE70120A6
:102F1000FAE7C04600B585B003AB039200930A0000
:102F200000230021FFF7DCFF05B000BD70B51A4C8F
:102F3000D36BA544136405000C0019A8111D402291
:102F400000F0A2FF01235B42189313E00C2118A8A4
:102F500002AAFFF7DFFF210018A8A84790B9069B37
:102F600018AA02A9083001939847060005280AD03C
:102F7000092807D0289B02A819000193FFF712FE29
:102F80000028E3D0092618A8FFF75CFE300040F2C5
:102F900040239D4470BDC046C0FDFFFFF0B55746BD
:102FA0009246032245464E46DE4699461300E0B55A
:102FB0008846CD6C494689B00340009308CD0695FC
:102FC000002900D181E01A0C1B040593022304A9F7
:102FD0000B73FD3313409B004A73ED18009B022BCB
:102FE00001D143469D6B43461B6DDB070ED5504612
:102FF00005A900F04FFB08B9082000E0092009B03E
:10300000F0BCBB46B246A946A046F0BD2F68002FD3
:10301000EDD00823034002930023544640F2010BF5
:103020004646BA4601934B46022B4BD02B886F88FD
:103030009A4604355A463B009343B26C0F219046A2
:1030400020009844FFF740FF0023804506D85346F0
:103050005A469343434498429B415B4202227F007D
:103060001740594652460A401743012F32D0022FCB
:103070004DD0002FC2D1009A12B1002B00D09AE09F
:1030800004352B689A46002BCDD1200005A9A24615
:1030900000F000FB0028B1D1019B002BACD00F2128
:1030A0005046FFF711FF0E2102005046FFF732FF96
:1030B00040F2000250460F21C0F20002FFF72AFF43
:1030C00007209CE76F680835B4E71B02059304AB43
:1030D0009A8183E7009A002A45D1B3B12B68DF0FAC
:1030E0006B689A1C00D189E7320058320492013390
:1030F00000D1B1E0281DFFF7D5FD3A00010004AB77
:10310000300000E000BF002869D10835B9E72A681F
:10311000009957007F0859B91BB1029B002B71D051
:10312000E7B3002A00DA04350137BF00ED19A8E73C
:10313000336A0D2120009846FFF7C6FE804501D076
:103140002A68EEE7B36A9D42FAD10023F3620433A2
:1031500033632B1DB76273632B68002B00DA85E0A5
:1031600001230193E0E70D212000376AFFF7ACFE51
:103170008742CAD1B36A9D42C7D1B046A246280051
:10318000FFF7B6FC0F2102005046FFF7C3FE504682
:1031900042460021FFF7BEFE072030E7B046A246B8
:1031A0000D215046FFF790FE4346049A18625A627A
:1031B00006209D6223E72800FFF79AFC0435A2460B
:1031C000B5630400300000E000BF002800D115E71F
:1031D000504622000F21FFF79DFE07200FE7A24671
:1031E0000D2104005046FFF76FFEB04633003062F9
:1031F000022C37D1049A2C33F262736243460620C4
:103200009D62FCE640F2580C40F2000821004A465C
:103210002B1DB444A9461C003D008A464746039234
:10322000E0460DE0434620000493FFF73BFD0022FB
:10323000010004AB300000E000BF0137043420B9C6
:10324000AF42EFD14D46B046AAE72F004D46039B53
:10325000544699462A6864E70D212000FFF734FEA2
:10326000B04630624346049A5A62C7E7781C800031
:10327000B046A246281883E710B50023FFF78EFE5C
:1032800010BDC04610B50123FFF788FE10BDC04633
:1032900010B50223FFF782FE10BDC046F0B54746C9
:1032A000CE4680B5060017001C00C3B0032943D0EA
:1032B00020D8002948D0012940D1130C4FF6FF72C5
:1032C0003A4098469146012C00D179E0052C35D141
:1032D0001F004F44202F31D843460F2B00D8B6E0B3
:1032E0004F46002F00D0C2E04A46B16B20AD0AB372
:1032F00000277EE0042921D103BB102A1ED810220A
:1033000003681A4200D0C9E020AD280000F020F97F
:10331000012429000023B26B20009840074201D00D
:1033200001CA086001330431042BF5D12800B263CF
:1033300000F00CF9002002E0032B1DD0022043B066
:10334000C0BCB946B046F0BD002BF7D14FF6FF72B6
:10335000816B041D002301203A4005009D402A4254
:1033600001D020C9256001330434102BF5D1002091
:10337000BB04E4D4B163E2E7140C4FF6FF721740CC
:10338000E319102BDAD8082203681A4200D08CE027
:1033900020AD280000F0D8F8E400B36B57B1E41A70
:1033A000FF00211FDF1969181800026804335A5002
:1033B000BB42F9D12800B36300F0C4F80020BEE797
:1033C0004B44102BBAD843460F2BB7D833681C4256
:1033D00006D00322300093433360483000F0A8F851
:1033E00020AD280000F0A4F84A460027B16B002A5F
:1033F00063D04346DB00ED180023D200C858E850E4
:1034000004339A42FAD189187FB16D46404610289C
:1034100000D2102000231038C0002818FA00CD5820
:10342000C55004339342FAD1C918012C44D0434605
:10343000B1630F2B07D9002F00D17BE7684600F05E
:103440007DF800207BE720A800F074F8F3E7102F48
:1034500041D9103F012233681A4207D09343022218
:10346000300013433360483000F066F8AFB30422F5
:1034700033681A4228D143460F2B03D820AD2800C9
:1034800000F05AF86D46280000F05AF81022434622
:10349000B16BD21A002AB9DD20ADAAE793430360CD
:1034A000D130FF3000F054F82EE7934303605130E1
:1034B000FF3000F049F86BE720AD04312800B1631C
:1034C00000F034F800203AE7300093433360D03006
:1034D00000F036F8CFE70027BCE743460F2B00D9B2
:1034E00002E720AD280000F027F84A46B16B002A19
:1034F00000D0FDE6280000F01DF800201FE7C046C0
:103500000100343138C9043B9C461D60A6460100C9
:1035100020313CC990469946A246AB46010008318D
:10352000FCC941680068E54600BDC0467047C0461A
:103530007047C0467047C0467047C0467047C04697
:103540007047C0467047C0467047C0467047C04687
:103550007047C04601B401A801B585B0FFB408A802
:1035600041464A4653465C4665463EC001A83EC8B1
:103570000F98009000230CB401A9FFF71FFC109BCB
:1035800012B0184701B401A801B585B0FFB408A86E
:1035900041464A4653465C4665463EC001A83EC881
:1035A0000F98009000230CB401A9FFF73BFC109B7F
:1035B00012B0184701B401A801B585B0FFB408A83E
:1035C00041464A4653465C4665463EC001A83EC851
:1035D0000F98009000230CB401A9FFF745FC109B45
:1035E00012B0184701B401A801B585B0FFB408A80E
:1035F00041464A4653465C4665463EC001A83EC821
:103600000F98009000230CB401ABFFF701FC109B56
:1036100012B0184701B401A801B585B0FFB408A8DD
:1036200041464A4653465C4665463EC001A83EC8F0
:103630000F98009000230CB401AAFFF777FC109BB1
:1036400012B01847027A030052B9427A7AB1013AAD
:1036500042724268111D416003211268017202E04A
:10366000013A02720268100E12021A607047B0200E
:10367000FCE7C04600B585B003AB00930C220023E5
:103680000021FFF707FC039805B000BD10B5FFF758
:10369000F1FF10BDF0B54E4645465746DE4640F2B6
:1036A000000AE0B540F20F0805000E0040F20709DD
:1036B00085B03000FFF7C6FF0400B02800D1C3E09A
:1036C00003062AD5030042469343DBB2802B54D035
:1036D000902B3ED0A02B6DD0B02B00D17FE0C02B23
:1036E00000D197E003004A469343DBB2D02B0BD1C5
:1036F0008023024001321B031A43052301212800C5
:10370000FFF7CCFD0028D4D00924200005B0F0BC80
:10371000BB46B246A946A046F0BDFF238200134037
:103720001F1D03AB9B4600930D22002300212800A0
:10373000FFF7B0FB63063AD4039B9C4667445B46A5
:103740000397009300230D2200212800FFF7C8FBF8
:10375000AFE7833B03400D2BD6D003AF02400023DD
:10376000002128000097FFF795FB00230D22002180
:1037700028000097FFF7B4FB9BE704023000FFF737
:1037800061FF48F200070443BC42BDD04FF6FF7210
:1037900024010023002128002240FFF77FFD00289C
:1037A000B2D1274200D184E740F2010A81E7039BAE
:1037B000DF1BC4E740F6F0724B461100834319410A
:1037C0000A40030702D544F200031A4300230021F4
:1037D0002800FFF763FD002800D16AE794E7B128CD
:1037E00046D0B22800D1A2E0B32857D0FC23034032
:1037F000B42B00D188E74A468023024001321B03E4
:103800001A43012101232800FFF748FD002800D1B9
:103810004FE779E7C6284CD0C7285ED003004A4658
:103820009343DBB2C02B6ED0C82873D0C92800D018
:103830006AE73000FFF706FFF02302031B03134083
:1038400042460240013257E753460024002B00D085
:103850005BE703AE0E22002128000096FFF71AFB5B
:1038600000230F22002128000096FFF739FB4CE7C8
:103870003000FFF7E7FE0200002800D144E7030014
:1038800041468B43DBB2002B00D03DE700212800EE
:10389000FFF704FD002800D10BE735E73000FFF704
:1038A000D1FEF02302031B031340424602400132C3
:1038B000A6E73000FFF7C6FEF02302031B03134008
:1038C0004246024001321A43032303212800FFF736
:1038D000E5FC002800D1ECE616E73000FFF7B2FE69
:1038E0000200002800D10FE7030041468B43DBB202
:1038F000002B00D008E704212800FFF7CFFC0028A8
:1039000000D1D6E600E74346A0221C400134120352
:103910002243D9E73000FFF795FE434602009A4361
:10392000D2B210321840120301300243E5E603AB75
:1039300000939B460D22002300212800FFF7AAFADE
:103940003000FFF77FFE030619D57F27B03C039BAD
:103950003840A0409C466044039030000734FFF795
:1039600071FE0306F3D47F2340F2042C0340A340EE
:10397000039A62449B1803935B460093E2E6022499
:10398000F1E7C046030000B5DA6C85B05368080063
:103990000832190201910292694603221B0E0A7332
:1039A0004B7301A9FFF776FE05B000BD10B5FFF718
:1039B0006DFE806C10BDC04610B5FFF767FEC26C8F
:1039C000D07902308000101810BDC0467047C04644
:1039D000F0B54E464546DE465746E0B583B000900A
:1039E000019110001900009B019C40F20008261E66
:1039F0000ADA25001C0000236242AB411E0000923F
:103A0000019301235B4298460F1E08DA4346DB43CD
:103A10000C009846030000215842A1410F00050008
:103A2000B146009C002F46D1B04268D9FEF7D2FFC4
:103A300050B1202321001B1A3200D94082400B00D4
:103A400013438540994684402B0CB9FBF3F21800D0
:103A50004FF6FF7711009C464B4650432F40794369
:103A6000181A0004230C0343994209D95B19501E0C
:103A70009D4200D92AE1994200D827E1023A5B1918
:103A8000591AB1FBFCF663464FF6FF707343774358
:103A9000C91A0904044021438F4207D96918731ECB
:103AA0008D4202D8023E8F4200D81E00130440F21D
:103AB000000C334304E0B74212D940F2000C00235B
:103AC00018004346614623B1030064460021584272
:103AD000A14103B0F0BCBB46B246A946A046F0BD2A
:103AE0003800FEF777FF84460300002800D08AE004
:103AF0000133B742E4D30300AC424341E0E700B9ED
:103B0000FFDEFEF767FF90BB4FF6FF7040F2010C3F
:103B1000731B290C2840B3FBF1F20E00070056433B
:103B200057439B1B1B04260C1E43B74207D976192B
:103B3000531EB54202D8B74200D9DCE01A00F61B8A
:103B4000B6FBF1F74FF6FF7379437843761A3604E4
:103B50001C402643B04207D9AE197B1EB54202D89D
:103B6000023FB04200D81F0013043B43A8E72021C6
:103B70003300091A85402200CB40CA40290CB3FB10
:103B8000F1F7864084404FF6FF7016433A00284014
:103B9000424394460A007A439B1A1B04320CB246F5
:103BA0001A43944509D952197B1E954200D9A0E0C9
:103BB000944500D89DE0023F52196346D21AB2FBE9
:103BC000F1F94E464FF6FF7C4E43921B120493468A
:103BD000664652464B4616405A464343324393424A
:103BE0000BD94E465219013E95427ED893427CD95C
:103BF00002267642B4465219E144D31A4A463F049B
:103C00003A43944687E720222B00121AD34087407C
:103C10001F4333002100D340D1403A0C86409146E7
:103C2000B3FBF2F285404FF6FF700E4311003840AF
:103C300041438A4649465143591A0904330CB34655
:103C40000B439A4507D9DB19511E9F424FD89A451D
:103C50004DD9023ADB195146591AB1FBF9F34E46D8
:103C60004FF6FF795E43891B09048A464E46594642
:103C70000E40514658433143884207D9C9195E1E48
:103C80008F4230D888422ED9023BC91912041343FF
:103C90004FF6FF7217002A4016001F402D0C091A1C
:103CA000180C42437E4368437D43370CAD187D19A1
:103CB000AA4203D980225202914648442A0C101885
:103CC00081420ED304D040F2000CF9E60200D7E6A0
:103CD000624694404FF6FF722D041640AD19AC4277
:103CE000F1D2013BEFE73300D0E7B14685E70A00A8
:103CF000B1E71F0061E7023A761920E7062010B508
:103D000000F0E8F9012000F08DFDFFFF014B18687D
:103D10007047C046A8400020F7B5066847680023F2
:103D20004E4A0C0030003900FEF772FE00230500F9
:103D300039003000494AFEF76BFE002A00DA6FE0D6
:103D4000474BED1840F6106392FBF3F14B43D21A48
:103D50003C23A16092FBF3F14B43D21A226007226D
:103D60006160E91C91FBF2F35A438A1A00D50732CD
:103D70003C4FA261002D57DA3B4BEA1892FBF7F754
:103D80003A4840F2B4567843401948F6AC65B0FB67
:103D9000F5F5B0FBF6F12D186D1A354940F26D12AC
:103DA000B0FBF1F1691AB1FBF2F56423B1FBF6F156
:103DB00040F2050CB5FBF3F35B1A61466A431B182E
:103DC0009B1A992259430231B1FBF2F0424302326D
:103DD000B2FBFCF25E1CB21A009240F2F9520226CB
:103DE000914200D90C3E40F290120121574300222B
:103DF0003618B142524140F231107F19BA1801927F
:103E0000834214D9333BFF3B019AE361194B2000F5
:103E1000D218009B2661E360002362612362FEBD2D
:103E20000E4BD218144B8CE795FBF7F7A8E7134815
:103E3000AA0709D107006F43BC4602276246FA4130
:103E400017000F4A974206D804216843C841002151
:103E50000C4D854249413B335B18D5E78051010049
:103E60006CFA0A00B13A020050C5FDFF4FC5FDFFD4
:103E7000B03A020094F8FFFF6BFA0A00295C8FC287
:103E8000285C8F020AD7A300002310B59A4200D104
:103E900010BDCC5CC4540133F8E703008218934290
:103EA00000D1704719700133F9E7FFFF70B50500C5
:103EB00079B10C1F2368002B00DAE418280000F009
:103EC00053F91C4A13682BB963601460280000F092
:103ED00053F970BDA34208D9216860188342F3D119
:103EE00018685B6841182160EEE71A005B680BB147
:103EF000A342FAD911685018A0420BD120680918C2
:103F0000501811608342E1D118685B684118116054
:103F10005360DBE7A04202D90C232B60D6E721686F
:103F20006018834203D118685B68411821606360A0
:103F30005460CBE7E448002070B50E4E0D003168A8
:103F4000040011B900F08EF830602900200000F064
:103F500089F8431C0AD00323C51C9D43A84207D0FF
:103F6000291A200000F07EF8431C01D101256D4282
:103F7000280070BDE8480020F7B50322CB1C93430E
:103F8000083306001F000C2B32D20C27B94231D85F
:103F9000334D300000F0E8F82B681C00002C2ED1C7
:103FA00039003000FFF7C8FF0400431C1ED12C6805
:103FB0002500002D4AD123682900E3183000019321
:103FC00000F050F8019B834243D123680337FF1A66
:103FD00003239F4308370C2F00D20C2739003000F1
:103FE000FFF7AAFF431C34D02368DF19276013E0D2
:103FF000002BCBDA0C23002533602800FEBD22689D
:10400000D11B20D40B2917D9E2192760A34211D163
:104010002A606368116053603000250000F0ACF83E
:1040200007220B35231D9543EA1A9D42E5D05B1B01
:10403000A350E2E75A60ECE76268A34201D12A602C
:10404000EAE75A60E8E723006468A7E72C006D6898
:10405000AFE70C233000336000F08EF8CDE7C046A8
:10406000E4480020002370B5054D040008002B60D3
:10407000FEF7E4FB431C02D12B6803B1236070BD43
:10408000EC48002070B504000D001F2904D9162348
:1040900003600120404270BD436C1BB18A009B1835
:1040A0001A6842B9200000F031F82A00010020000F
:1040B00000F01AF8EFE70020012AECD0511C03D1E0
:1040C000162301302360E6E7002428001C60904797
:1040D0002000E0E710B5034B01001868FFF7D2FF9E
:1040E00010BDC046A8400020002370B5064D040056
:1040F000080011002B6000F08BFB431C02D12B68E1
:1041000003B1236070BDC046EC48002010B500F03C
:1041100075FB10BD0023C25C0133002AFBD1581E81
:104120007047FFFF00B59BB00091049106490591CF
:10413000029106490391694600F088F80023009A2D
:1041400013701BB000BDC046FFFFFF7F0802FFFFDA
:1041500010B513000A00010002480068FFF7E2FFF3
:1041600010BDC046A840002010B5024800F0E6FA95
:1041700010BDC046F048002010B5024800F0DFFA3C
:1041800010BDC046F0480020F0B58E6885B007002D
:104190000C00039201939E423CD840F280438A89EE
:1041A0001A4234D00969236860695B1A02930323B9
:1041B0004343DD0FED18019B029801331B186D106E
:1041C000AB4200D91D00530532D529003800FFF756
:1041D000D3FE060048B90C233B6040230120A2898E
:1041E00040421343A38105B0F0BD029A2169FFF755
:1041F0004BFEA389144A1A4080231343A381029BD8
:104200002661F61826606561019EED1AA560019B86
:104210009E4200D9019E32000399206800F09BFA6B
:10422000A36800209B1BA36023689E192660DAE721
:104230002A00380000F0A2FA06000028DFD138007A
:104240002169FFF733FEC6E77FFBFFFFF0B5A1B0A2
:1042500003901D008B890F0016001B060FD50B69FC
:104260006BB94021FFF788FE3860386128B90C230C
:10427000039A0138136021B0F0BD40237B61002315
:1042800008AC6361203363761033A376079535005D
:104290002B780BB1252B47D1AB1B0593B5420CD026
:1042A000320039000398FFF76FFF431C00D1B0E0E4
:1042B0006269059B9446634463612B78002B00D1AF
:1042C000A7E0012200235242626004A9543252182E
:1042D0006E1C2360E360A3601370A3650522317830
:1042E000544800F02DFA751C00BB2268D30604D593
:1042F000532304A95B1820211970130704D55323F5
:1043000004A95B182B21197033782A2B17D035009C
:10431000002140F20A0C0126E3682A78681C303A32
:10432000092A4BD989B917E00135B1E7414B226819
:10433000C01A0123834013432E002360CEE7079B5E
:10434000191D1B680791002B01DB0B9304E05B42F6
:10435000E3600223134323602B782E2B0AD16B7862
:104360002A2B34D1079B02351A1D1B680792002B9C
:104370002ADB0993304E03223000297800F0E0F95F
:1043800030B14023801B83402268013513432360F2
:104390002978062229486E1C217600F0D1F90028E0
:1043A0003FD0274B4BBB0722079B07339343083370
:1043B00007936369049A9B18636168E761464B43FE
:1043C000050031009B18A8E701235B42D1E70023D9
:1043D00040F20A0C1A000126013563602978681C36
:1043E0003039092903D9002BC4D00992C2E76346AA
:1043F0005A43050033005218F0E707AB00933A0028
:104400002100104B039800E000BF0490049B01338F
:10441000CFD1BB890D985B0600D42CE70120404228
:1044200029E707AB00933A002100064B039800F000
:1044300079F8EAE7B44B0000BA4B0000BE4B00002D
:104440000000000089410000F7B5150001938A685B
:104450000B690C000090934200DA130022002B60DD
:10446000433212780AB101332B6023689B0602D5D0
:104470002B6802332B602268062317001F401A4264
:1044800027D0230043331B785A1E9341226892069B
:1044900030D4220001990098089E4332B047431C53
:1044A00025D0062320682A68E16800250340042BF4
:1044B00003D18D1AEB43DB171D40A3682269934299
:1044C00001DD9B1AED180027BD4220D1002010E02D
:1044D0000137E3682A689B1ABB42D2DD2200012320
:1044E00001990098089E1932B047431CF0D1012071
:1044F0004042FEBD3020E1184331087021005A1CB3
:1045000045310978A218433202331170C1E7220005
:10451000012301990098089E1A32B047431CE6D047
:104520000137D1E7F0B50E0089B0049203900593EE
:104530000C00097E0E9A4336782907D8622909D8DB
:10454000002900D1BCE0582900D184E02500423583
:10455000297022E0080063381528F7D800F044F9E4
:1045600016001F00F6FFF6FFF6FFF6FF1F00F6FF2E
:10457000F6FFF6FFF6FFA30034009200F6FFF6FF09
:10458000B400F6FF3400F6FFF6FF9600250013682E
:104590004235191D1B6811602B700123A1E01368BF
:1045A0002068191D050609D51B681160002B02DA69
:1045B0002D225B4232700A225E4914E01B681160B2
:1045C0004006F3D51BB2F1E713682568181D10608B
:1045D0001B682F063BD56F2962D00A22554920005F
:1045E0000025433005706068A060002803DB0425C7
:1045F0002768AF4327600BB9350060B13500B3FBC6
:10460000F2FC60465043181A085C013D28701800FF
:1046100063468242F3D9082A09D12368DB0706D50D
:1046200063682269934202DC3023013D2B70761BC4
:104630002661059B210000930398049B07AAFFF7BE
:1046400003FF431C51D10120404209B0F0BD6D066B
:10465000C1D59BB2BFE723004533197035491068B7
:10466000256808C810602F0616D5EA0702D5202253
:10467000154325601022002BB1D1202025688543E9
:104680002560ACE7202321680B43236023007821B9
:10469000453319702849E2E76F06E6D59BB2E4E797
:1046A000082224499BE713682568181D616910607A
:1046B0001B682F0601D5196002E06D06FBD5198035
:1046C000002335002361B4E71368191D11601D68CC
:1046D00000212800626800F033F808B1401B6060D8
:1046E0006368236100233370A3E72A0023690499D8
:1046F0000398059DA847431CA5D023689B0716D4A3
:10470000079BE0689842A0DA18009EE72200012388
:1047100004990398059E1932B047431C00D192E7D3
:104720000135E368079A9B1AAB42EFDCE8E7002506
:10473000F7E7C046C54B0000D64B000070477047F6
:10474000C9B28218904201D10020704703788B4291
:10475000FBD00130F6E710B5884202D98B18984299
:1047600003D3002307E08B5C8354013AFBD210BDD6
:10477000CC5CC45401339A42FAD1F8E7F7B507008C
:104780000E00140029B91100FFF7F6FB0500280000
:10479000FEBD1AB9FFF78AFB2500F8E700F01CF808
:1047A0000190844203D835004308A342EFD321008F
:1047B0003800FFF7E1FB05000028E8D0019B22004C
:1047C0009C4200D91A0031002800FFF75DFB310040
:1047D0003800FFF76BFBDAE70B1F1B68181F002B75
:1047E00001DA0B58C018704703B4714649084000FD
:1047F0004900095E49008E4403BC704744F6EC034F
:1048000058220120C2F2000340421A607047C0469D
:1048100044F6EC0358220120C2F2000340421A6021
:104820007047C046FEE7C0464275696C74207769E0
:1048300074682052656E6573617320416476616EA1
:1048400063656420466C657869626C6520536F66A9
:104850007477617265205061636B6167652076656E
:104860007273696F6E20332E362E3000332E362E43
:104870003000000000000603F8B5C046F8BC08BCD4
:104880009E467047F8B5C046F8BC08BC9E467047C7
:104890004653505F53554343455353203D3D207786
:1048A00073323831325F657272000000766F69646E
:1048B000207773323831325F73656E6428290000C7
:1048C0002E2E2F7372632F7773323831322F777316
:1048D000323831322E63707000FFFFFF766F6964EB
:1048E000207773323831325F696E6974282900FF8E
:1048F000616C6976650A00FF6C6567656E642D748E
:1049000065636800257300004653505F5355434369
:10491000455353203D3D206572720000766F6964F7
:104920002068616C5F656E74727928290000000050
:104930002E2E2F7372632F68616C5F656E747279AF
:104940002E63707000000000746D5F6D64617925E6
:10495000640A0000746D5F6D6F6E25640A000000CC
:10496000746D5F7965617225640A0000746D5F681B
:104970006F757225640A0000746D5F6D696E256441
:104980000A000000746D5F73656325640A0000000F
:10499000746D5F7764617925640A0000746D5F79D6
:1049A00064617925640A00FF54470020C04A000072
:1049B000504B000001000000FF000000D44900003F
:1049C000FFDFFFDF020B000000000000000000001E
:1049D00000000000010100000000000000000102D2
:1049E0000302020202000000010000005C4A000015
:1049F000744A00007906000000000000004A000030
:104A000001000000000000010000000000000000A4
:104A1000006CDC020000000000366E0100020C0099
:104A200089060000000000002C4A00000000000081
:104A30000000000000000000000000000000000076
:104A40000000000000000000000000000000FFFF68
:104A5000DFDF00000000000000000000C44700206D
:104A6000684A0000884B000084400020704A000023
:104A700001FFFFFFCC470020804A0000884B000068
:104A800094400020884A000000FFFFFF0902000058
:104A900002040005000602070000000000000000FC
:104AA0001D07000000000000AC4A000000010000EB
:104AB000A44000200F00FFFF00000000FFFF0000E7
:104AC0000D000000C84A00000000010601010000BE
:104AD0000080000003010000000001030401000049
:104AE00000000100080100000000010509010000AC
:104AF000000001050A010000000001050C02000091
:104B0000000001050D02000000000100000300008C
:104B10000000010401030000000001040203000082
:104B2000000001070004000000000107010400006C
:104B3000141111101E1C1E1A070000040F000000A3
:104B40000000000000000000000000000000000065
:104B5000B91E00005D1C0000D11E0000DD1E00001B
:104B6000251D0000751D0000711D0000651C000062
:104B7000C11C0000E91C00000D1D0000511D0000BB
:104B8000891C0000A11C00002D2300000D24000042
:104B9000C52100006D2200008D220000652200006A
:104BA00069220000AD220000F9220000010002008D
:104BB00008001000232D302B2000686C4C00656627
:104BC000674546470030313233343536373839415E
:104BD0004243444546003031323334353637383974
:0C4BE00061626364656600FF0000000075
:104BEC0074B20181B0AB30800000000080080181FC
:104BFC00B0B0ABF0000000003F020181B0AB3080E0
:104C0C000000000080040181B0B0ABF00000000097
:104C1C0034B9FF7FB0B0A8804CB9FF7F0100000011
:104C2C00B8B9FF7FB0B0A88044BAFF7F0100000084
:104C3C004CBAFF7FB0B0A8807CBAFF7F03A8198064
:104C4C00B8BAFF7FB0B0A880C8BAFF7F01000000DF
:104C5C00D4BAFF7F0084148020BCFF7F00840280C4
:104C6C0050BCFF7F0100000030DFFF7FB0A9028045
:104C7C00C8DFFF7FB0B0A8801CE0FF7F0100000000
:104C8C0028E0FF7FB0B0AA8058E0FF7F54FFFF7F81
:104C9C001CE1FF7F0100000018E1FF7FAA3F398073
:104CAC0064E1FF7FB0B0A88070E1FF7FB0B0AA8054
:104CBC00ACE1FF7FB0B0A880BCE1FF7F0100000039
:104CCC00B8E1FF7FB0B0A880C0E1FF7F0100000019
:104CDC0050E2FF7FAA0FB280B8E2FF7F10FFFF7F88
:104CEC008CE5FF7FB0B0A880A8E5FF7F0CFFFF7FAD
:104CFC0004E8FF7F0100000070E9FF7F008404805E
:104D0C0080E9FF7FB0B0A88080E9FF7FF8FEFF7FCD
:104D1C0068ECFF7F0084048088ECFF7FB0B0A88033
:084D2C00A0ECFF7F0100000074
:104D3400C0FC00000000101800000000000000008B
:104D44000000000000000810000000000000000047
:104D54000000000040000C00AC40002000000000F7
:104D6400000000000000000000000000000000003F
:104D7400000000000000000000000000000000002F
:104D8400000000000000000000000000000000001F
:104D9400000000000000000000000000000000000F
:104DA40000000000000000000000000000000000FF
:104DB4000000000000000000000000002D050000BD
:044DC40001050000E5
:020000040101F8
:10001800FFFFFFFFFFFFFFFFFFFFFFFFFFFFFFFFE8
:0C002800FFFFFFFFFFFFFFFFFFFFFFFFD8
:04000003000028854C
:00000001FF
